{
  "contractName": "FactoryContract",
  "abi": [
    {
      "constant": true,
      "inputs": [
        {
          "internalType": "uint256",
          "name": "",
          "type": "uint256"
        }
      ],
      "name": "IdToMovieContracts",
      "outputs": [
        {
          "internalType": "address",
          "name": "",
          "type": "address"
        }
      ],
      "payable": false,
      "stateMutability": "view",
      "type": "function"
    },
    {
      "constant": true,
      "inputs": [
        {
          "internalType": "uint256",
          "name": "",
          "type": "uint256"
        }
      ],
      "name": "contractContainer",
      "outputs": [
        {
          "internalType": "address",
          "name": "",
          "type": "address"
        }
      ],
      "payable": false,
      "stateMutability": "view",
      "type": "function"
    },
    {
      "constant": true,
      "inputs": [],
      "name": "contractCount",
      "outputs": [
        {
          "internalType": "uint256",
          "name": "",
          "type": "uint256"
        }
      ],
      "payable": false,
      "stateMutability": "view",
      "type": "function"
    },
    {
      "constant": true,
      "inputs": [],
      "name": "recentContract",
      "outputs": [
        {
          "internalType": "address",
          "name": "",
          "type": "address"
        }
      ],
      "payable": false,
      "stateMutability": "view",
      "type": "function"
    },
    {
      "constant": false,
      "inputs": [
        {
          "internalType": "string",
          "name": "_movieName",
          "type": "string"
        }
      ],
      "name": "newMovieContract",
      "outputs": [
        {
          "internalType": "contract MovieContract",
          "name": "",
          "type": "address"
        }
      ],
      "payable": false,
      "stateMutability": "nonpayable",
      "type": "function"
    },
    {
      "constant": true,
      "inputs": [
        {
          "internalType": "uint256",
          "name": "_id",
          "type": "uint256"
        }
      ],
      "name": "checkSpecificContract",
      "outputs": [
        {
          "internalType": "address",
          "name": "",
          "type": "address"
        }
      ],
      "payable": false,
      "stateMutability": "view",
      "type": "function"
    }
  ],
  "bytecode": "0x608060405234801561001057600080fd5b50614307806100206000396000f3fe608060405234801561001057600080fd5b50600436106100625760003560e01c806384f2c477146100675780638736381a146100d5578063a039a6fe146100f3578063a4d07fab146101ee578063b9885c8314610238578063da321197146102a6575b600080fd5b6100936004803603602081101561007d57600080fd5b8101908080359060200190929190505050610314565b604051808273ffffffffffffffffffffffffffffffffffffffff1673ffffffffffffffffffffffffffffffffffffffff16815260200191505060405180910390f35b6100dd610351565b6040518082815260200191505060405180910390f35b6101ac6004803603602081101561010957600080fd5b810190808035906020019064010000000081111561012657600080fd5b82018360208201111561013857600080fd5b8035906020019184600183028401116401000000008311171561015a57600080fd5b91908080601f016020809104026020016040519081016040528093929190818152602001838380828437600081840152601f19601f820116905080830192505050505050509192919290505050610357565b604051808273ffffffffffffffffffffffffffffffffffffffff1673ffffffffffffffffffffffffffffffffffffffff16815260200191505060405180910390f35b6101f661053a565b604051808273ffffffffffffffffffffffffffffffffffffffff1673ffffffffffffffffffffffffffffffffffffffff16815260200191505060405180910390f35b6102646004803603602081101561024e57600080fd5b8101908080359060200190929190505050610560565b604051808273ffffffffffffffffffffffffffffffffffffffff1673ffffffffffffffffffffffffffffffffffffffff16815260200191505060405180910390f35b6102d2600480360360208110156102bc57600080fd5b8101908080359060200190929190505050610593565b604051808273ffffffffffffffffffffffffffffffffffffffff1673ffffffffffffffffffffffffffffffffffffffff16815260200191505060405180910390f35b60006003600083815260200190815260200160002060009054906101000a900473ffffffffffffffffffffffffffffffffffffffff169050919050565b60005481565b6000808233604051610368906105cf565b80806020018373ffffffffffffffffffffffffffffffffffffffff1673ffffffffffffffffffffffffffffffffffffffff168152602001828103825284818151815260200191508051906020019080838360005b838110156103d75780820151818401526020810190506103bc565b50505050905090810190601f1680156104045780820380516001836020036101000a031916815260200191505b509350505050604051809103906000f080158015610426573d6000803e3d6000fd5b50905080600260006101000a81548173ffffffffffffffffffffffffffffffffffffffff021916908373ffffffffffffffffffffffffffffffffffffffff160217905550600080815480929190600101919050555060018190806001815401808255809150509060018203906000526020600020016000909192909190916101000a81548173ffffffffffffffffffffffffffffffffffffffff021916908373ffffffffffffffffffffffffffffffffffffffff1602179055505080600360008054815260200190815260200160002060006101000a81548173ffffffffffffffffffffffffffffffffffffffff021916908373ffffffffffffffffffffffffffffffffffffffff16021790555050919050565b600260009054906101000a900473ffffffffffffffffffffffffffffffffffffffff1681565b60036020528060005260406000206000915054906101000a900473ffffffffffffffffffffffffffffffffffffffff1681565b600181815481106105a057fe5b906000526020600020016000915054906101000a900473ffffffffffffffffffffffffffffffffffffffff1681565b613cf6806105dd8339019056fe60806040526103e86007553480156200001757600080fd5b5060405162003cf638038062003cf6833981810160405260408110156200003d57600080fd5b81019080805160405193929190846401000000008211156200005e57600080fd5b838201915060208201858111156200007557600080fd5b82518660018202830111640100000000821117156200009357600080fd5b8083526020830192505050908051906020019080838360005b83811015620000c9578082015181840152602081019050620000ac565b50505050905090810190601f168015620000f75780820380516001836020036101000a031916815260200191505b5060405260200180519060200190929190505050806000806101000a81548173ffffffffffffffffffffffffffffffffffffffff021916908373ffffffffffffffffffffffffffffffffffffffff16021790555081600290805190602001906200016392919062000173565b5042600881905550505062000222565b828054600181600116156101000203166002900490600052602060002090601f016020900481019282601f10620001b657805160ff1916838001178555620001e7565b82800160010185558215620001e7579182015b82811115620001e6578251825591602001919060010190620001c9565b5b509050620001f69190620001fa565b5090565b6200021f91905b808211156200021b57600081600090555060010162000201565b5090565b90565b613ac480620002326000396000f3fe6080604052600436106200015e5760003560e01c80637ff9b59611620000c7578063cff774441162000079578063cff774441462000a07578063d7e64c001462000a70578063d9895de01462000a9e578063e362bcac1462000bf9578063f012666e1462000d6d578063fc0c546a1462000ee0576200015e565b80637ff9b59614620006885780638da5cb5b14620006b65780639b98f71f14620007105780639d76ea58146200080c578063ae4cc8941462000866578063b5f7f63614620009d9576200015e565b806327eef6f3116200012157806327eef6f314620002ad57806329dcb0cf14620003435780634cc05a7114620003715780636c02a931146200039f5780636f7bc9be14620004355780637981c22714620005af576200015e565b806305b3441014620001635780630ab94086146200019157806312065fe014620001e457806318160ddd146200021257806320a1d4e51462000240575b600080fd5b3480156200017057600080fd5b506200017b62000f3a565b6040518082815260200191505060405180910390f35b3480156200019e57600080fd5b50620001ce60048036036020811015620001b757600080fd5b810190808035906020019092919050505062000f40565b6040518082815260200191505060405180910390f35b348015620001f157600080fd5b50620001fc62001316565b6040518082815260200191505060405180910390f35b3480156200021f57600080fd5b506200022a6200131e565b6040518082815260200191505060405180910390f35b3480156200024d57600080fd5b5062000293600480360360208110156200026657600080fd5b81019080803573ffffffffffffffffffffffffffffffffffffffff16906020019092919050505062001324565b604051808215151515815260200191505060405180910390f35b348015620002ba57600080fd5b50620002c562001344565b6040518080602001828103825283818151815260200191508051906020019080838360005b8381101562000307578082015181840152602081019050620002ea565b50505050905090810190601f168015620003355780820380516001836020036101000a031916815260200191505b509250505060405180910390f35b3480156200035057600080fd5b506200035b620013e6565b6040518082815260200191505060405180910390f35b3480156200037e57600080fd5b5062000389620013ec565b6040518082815260200191505060405180910390f35b348015620003ac57600080fd5b50620003b7620013f2565b6040518080602001828103825283818151815260200191508051906020019080838360005b83811015620003f9578082015181840152602081019050620003dc565b50505050905090810190601f168015620004275780820380516001836020036101000a031916815260200191505b509250505060405180910390f35b3480156200044257600080fd5b5062000488600480360360208110156200045b57600080fd5b81019080803573ffffffffffffffffffffffffffffffffffffffff16906020019092919050505062001494565b6040518080602001806020018573ffffffffffffffffffffffffffffffffffffffff1673ffffffffffffffffffffffffffffffffffffffff168152602001848152602001838103835287818151815260200191508051906020019080838360005b8381101562000506578082015181840152602081019050620004e9565b50505050905090810190601f168015620005345780820380516001836020036101000a031916815260200191505b50838103825286818151815260200191508051906020019080838360005b838110156200056f57808201518184015260208101905062000552565b50505050905090810190601f1680156200059d5780820380516001836020036101000a031916815260200191505b50965050505050505060405180910390f35b348015620005bc57600080fd5b506200068660048036036040811015620005d557600080fd5b810190808035906020019092919080359060200190640100000000811115620005fd57600080fd5b8201836020820111156200061057600080fd5b803590602001918460018302840111640100000000831117156200063357600080fd5b91908080601f016020809104026020016040519081016040528093929190818152602001838380828437600081840152601f19601f8201169050808301925050505050505091929192905050506200161c565b005b3480156200069557600080fd5b50620006a062001915565b6040518082815260200191505060405180910390f35b348015620006c357600080fd5b50620006ce6200191b565b604051808273ffffffffffffffffffffffffffffffffffffffff1673ffffffffffffffffffffffffffffffffffffffff16815260200191505060405180910390f35b3480156200071d57600080fd5b506200074d600480360360208110156200073657600080fd5b810190808035906020019092919050505062001940565b604051808573ffffffffffffffffffffffffffffffffffffffff1673ffffffffffffffffffffffffffffffffffffffff16815260200184815260200183815260200180602001828103825283818151815260200191508051906020019080838360005b83811015620007cd578082015181840152602081019050620007b0565b50505050905090810190601f168015620007fb5780820380516001836020036101000a031916815260200191505b509550505050505060405180910390f35b3480156200081957600080fd5b506200082462001a2c565b604051808273ffffffffffffffffffffffffffffffffffffffff1673ffffffffffffffffffffffffffffffffffffffff16815260200191505060405180910390f35b3480156200087357600080fd5b50620009d7600480360360608110156200088c57600080fd5b8101908080359060200190640100000000811115620008aa57600080fd5b820183602082011115620008bd57600080fd5b80359060200191846001830284011164010000000083111715620008e057600080fd5b91908080601f016020809104026020016040519081016040528093929190818152602001838380828437600081840152601f19601f820116905080830192505050505050509192919290803590602001906401000000008111156200094457600080fd5b8201836020820111156200095757600080fd5b803590602001918460018302840111640100000000831117156200097a57600080fd5b91908080601f016020809104026020016040519081016040528093929190818152602001838380828437600081840152601f19601f8201169050808301925050505050505091929192908035906020019092919050505062001a52565b005b348015620009e657600080fd5b50620009f162001cf4565b6040518082815260200191505060405180910390f35b34801562000a1457600080fd5b5062000a5a6004803603602081101562000a2d57600080fd5b81019080803573ffffffffffffffffffffffffffffffffffffffff16906020019092919050505062001cfa565b6040518082815260200191505060405180910390f35b34801562000a7d57600080fd5b5062000a8862001d12565b6040518082815260200191505060405180910390f35b62000bf76004803603604081101562000ab657600080fd5b810190808035906020019064010000000081111562000ad457600080fd5b82018360208201111562000ae757600080fd5b8035906020019184600183028401116401000000008311171562000b0a57600080fd5b91908080601f016020809104026020016040519081016040528093929190818152602001838380828437600081840152601f19601f8201169050808301925050505050505091929192908035906020019064010000000081111562000b6e57600080fd5b82018360208201111562000b8157600080fd5b8035906020019184600183028401116401000000008311171562000ba457600080fd5b91908080601f016020809104026020016040519081016040528093929190818152602001838380828437600081840152601f19601f82011690508083019250505050505050919291929050505062001d18565b005b34801562000c0657600080fd5b5062000c1162002176565b60405180806020018060200180602001848103845287818151815260200191508051906020019080838360005b8381101562000c5b57808201518184015260208101905062000c3e565b50505050905090810190601f16801562000c895780820380516001836020036101000a031916815260200191505b50848103835286818151815260200191508051906020019080838360005b8381101562000cc457808201518184015260208101905062000ca7565b50505050905090810190601f16801562000cf25780820380516001836020036101000a031916815260200191505b50848103825285818151815260200191508051906020019080838360005b8381101562000d2d57808201518184015260208101905062000d10565b50505050905090810190601f16801562000d5b5780820380516001836020036101000a031916815260200191505b50965050505050505060405180910390f35b34801562000d7a57600080fd5b5062000ede6004803603606081101562000d9357600080fd5b810190808035906020019064010000000081111562000db157600080fd5b82018360208201111562000dc457600080fd5b8035906020019184600183028401116401000000008311171562000de757600080fd5b91908080601f016020809104026020016040519081016040528093929190818152602001838380828437600081840152601f19601f8201169050808301925050505050505091929192908035906020019064010000000081111562000e4b57600080fd5b82018360208201111562000e5e57600080fd5b8035906020019184600183028401116401000000008311171562000e8157600080fd5b91908080601f016020809104026020016040519081016040528093929190818152602001838380828437600081840152601f19601f8201169050808301925050505050505091929192908035906020019092919050505062002362565b005b34801562000eed57600080fd5b5062000ef862002499565b604051808273ffffffffffffffffffffffffffffffffffffffff1673ffffffffffffffffffffffffffffffffffffffff16815260200191505060405180910390f35b60085481565b6000600454421062000fba576040517f08c379a00000000000000000000000000000000000000000000000000000000081526004018080602001828103825260198152602001807f446561646c696e6520616c72656164792041636869657665640000000000000081525060200191505060405180910390fd5b6000339050600160009054906101000a900473ffffffffffffffffffffffffffffffffffffffff16600b60006101000a81548173ffffffffffffffffffffffffffffffffffffffff021916908373ffffffffffffffffffffffffffffffffffffffff1602179055506000600b60009054906101000a900473ffffffffffffffffffffffffffffffffffffffff1673ffffffffffffffffffffffffffffffffffffffff166370a08231836040518263ffffffff1660e01b8152600401808273ffffffffffffffffffffffffffffffffffffffff1673ffffffffffffffffffffffffffffffffffffffff168152602001915050602060405180830381600087803b158015620010c657600080fd5b505af1158015620010db573d6000803e3d6000fd5b505050506040513d6020811015620010f257600080fd5b810190808051906020019092919050505090508062001123670de0b6b3a764000086620024bf90919063ffffffff16565b1062001197576040517f08c379a00000000000000000000000000000000000000000000000000000000081526004018080602001828103825260118152602001807f4e6f7420456e6f75676820746f6b656e7300000000000000000000000000000081525060200191505060405180910390fd5b6000620011b566038d7ea4c6800086620024bf90919063ffffffff16565b905080601260003373ffffffffffffffffffffffffffffffffffffffff1673ffffffffffffffffffffffffffffffffffffffff16815260200190815260200160002054116200120357600080fd5b80471162001279576040517f08c379a000000000000000000000000000000000000000000000000000000000815260040180806020018281038252601c8152602001807f4e6f7420456e6f75676820457468657220746f207472616e736665720000000081525060200191505060405180910390fd5b80601260008573ffffffffffffffffffffffffffffffffffffffff1673ffffffffffffffffffffffffffffffffffffffff168152602001908152602001600020600082825403925050819055508273ffffffffffffffffffffffffffffffffffffffff166108fc829081150290604051600060405180830381858888f193505050501580156200130d573d6000803e3d6000fd5b50505050919050565b600047905090565b60055481565b600f6020528060005260406000206000915054906101000a900460ff1681565b60028054600181600116156101000203166002900480601f016020809104026020016040519081016040528092919081815260200182805460018160011615610100020316600290048015620013de5780601f10620013b257610100808354040283529160200191620013de565b820191906000526020600020905b815481529060010190602001808311620013c057829003601f168201915b505050505081565b60045481565b600a5481565b60038054600181600116156101000203166002900480601f0160208091040260200160405190810160405280929190818152602001828054600181600116156101000203166002900480156200148c5780601f1062001460576101008083540402835291602001916200148c565b820191906000526020600020905b8154815290600101906020018083116200146e57829003601f168201915b505050505081565b6011602052806000526040600020600091509050806000018054600181600116156101000203166002900480601f016020809104026020016040519081016040528092919081815260200182805460018160011615610100020316600290048015620015445780601f10620015185761010080835404028352916020019162001544565b820191906000526020600020905b8154815290600101906020018083116200152657829003601f168201915b505050505090806001018054600181600116156101000203166002900480601f016020809104026020016040519081016040528092919081815260200182805460018160011615610100020316600290048015620015e65780601f10620015ba57610100808354040283529160200191620015e6565b820191906000526020600020905b815481529060010190602001808311620015c857829003601f168201915b5050505050908060020160009054906101000a900473ffffffffffffffffffffffffffffffffffffffff16908060030154905084565b6000809054906101000a900473ffffffffffffffffffffffffffffffffffffffff1673ffffffffffffffffffffffffffffffffffffffff163373ffffffffffffffffffffffffffffffffffffffff1614620016df576040517f08c379a00000000000000000000000000000000000000000000000000000000081526004018080602001828103825260178152602001807f43616c6c6572206973206e6f7420746865206f776e657200000000000000000081525060200191505060405180910390fd5b600454421162001757576040517f08c379a00000000000000000000000000000000000000000000000000000000081526004018080602001828103825260178152602001807f446561646c696e652069736e2774206f7665722079657400000000000000000081525060200191505060405180910390fd5b814711620017cd576040517f08c379a000000000000000000000000000000000000000000000000000000000815260040180806020018281038252601c8152602001807f4e6f7420456e6f75676820455448455220746f2057697468647261770000000081525060200191505060405180910390fd5b600a6000815480929190600101919050555060405180608001604052803373ffffffffffffffffffffffffffffffffffffffff1681526020018381526020014281526020018281525060106000600a54815260200190815260200160002060008201518160000160006101000a81548173ffffffffffffffffffffffffffffffffffffffff021916908373ffffffffffffffffffffffffffffffffffffffff16021790555060208201518160010155604082015181600201556060820151816003019080519060200190620018a492919062002661565b509050506000809054906101000a900473ffffffffffffffffffffffffffffffffffffffff1673ffffffffffffffffffffffffffffffffffffffff166108fc839081150290604051600060405180830381858888f1935050505015801562001910573d6000803e3d6000fd5b505050565b60075481565b6000809054906101000a900473ffffffffffffffffffffffffffffffffffffffff1681565b60106020528060005260406000206000915090508060000160009054906101000a900473ffffffffffffffffffffffffffffffffffffffff1690806001015490806002015490806003018054600181600116156101000203166002900480601f01602080910402602001604051908101604052809291908181526020018280546001816001161561010002031660029004801562001a225780601f10620019f65761010080835404028352916020019162001a22565b820191906000526020600020905b81548152906001019060200180831162001a0457829003601f168201915b5050505050905084565b600160009054906101000a900473ffffffffffffffffffffffffffffffffffffffff1681565b6000809054906101000a900473ffffffffffffffffffffffffffffffffffffffff1673ffffffffffffffffffffffffffffffffffffffff163373ffffffffffffffffffffffffffffffffffffffff161462001b15576040517f08c379a00000000000000000000000000000000000000000000000000000000081526004018080602001828103825260178152602001807f43616c6c6572206973206e6f7420746865206f776e657200000000000000000081525060200191505060405180910390fd5b82828260405162001b2690620026e8565b808060200180602001848152602001838103835286818151815260200191508051906020019080838360005b8381101562001b6f57808201518184015260208101905062001b52565b50505050905090810190601f16801562001b9d5780820380516001836020036101000a031916815260200191505b50838103825285818151815260200191508051906020019080838360005b8381101562001bd857808201518184015260208101905062001bbb565b50505050905090810190601f16801562001c065780820380516001836020036101000a031916815260200191505b5095505050505050604051809103906000f08015801562001c2b573d6000803e3d6000fd5b50600b60006101000a81548173ffffffffffffffffffffffffffffffffffffffff021916908373ffffffffffffffffffffffffffffffffffffffff160217905550600b60009054906101000a900473ffffffffffffffffffffffffffffffffffffffff16600160006101000a81548173ffffffffffffffffffffffffffffffffffffffff021916908373ffffffffffffffffffffffffffffffffffffffff160217905550816003908051906020019062001ce7929190620026f6565b5080600581905550505050565b60065481565b60126020528060005260406000206000915090505481565b60095481565b6000341162001d2657600080fd5b600160009054906101000a900473ffffffffffffffffffffffffffffffffffffffff16600b60006101000a81548173ffffffffffffffffffffffffffffffffffffffff021916908373ffffffffffffffffffffffffffffffffffffffff160217905550600062001da234600754620024bf90919063ffffffff16565b9050600033905081600b60009054906101000a900473ffffffffffffffffffffffffffffffffffffffff1673ffffffffffffffffffffffffffffffffffffffff166370a08231306040518263ffffffff1660e01b8152600401808273ffffffffffffffffffffffffffffffffffffffff1673ffffffffffffffffffffffffffffffffffffffff168152602001915050602060405180830381600087803b15801562001e4c57600080fd5b505af115801562001e61573d6000803e3d6000fd5b505050506040513d602081101562001e7857600080fd5b8101908080519060200190929190505050101562001efe576040517f08c379a00000000000000000000000000000000000000000000000000000000081526004018080602001828103825260178152602001807f546f6b656e205175616e7469747920457863656564656400000000000000000081525060200191505060405180910390fd5b60096000815480929190600101919050555060405180608001604052808581526020018481526020018273ffffffffffffffffffffffffffffffffffffffff16815260200162001f60670de0b6b3a7640000856200254a90919063ffffffff16565b815250601160003373ffffffffffffffffffffffffffffffffffffffff1673ffffffffffffffffffffffffffffffffffffffff168152602001908152602001600020600082015181600001908051906020019062001fc092919062002661565b50602082015181600101908051906020019062001fdf92919062002661565b5060408201518160020160006101000a81548173ffffffffffffffffffffffffffffffffffffffff021916908373ffffffffffffffffffffffffffffffffffffffff1602179055506060820151816003015590505034601260008373ffffffffffffffffffffffffffffffffffffffff1673ffffffffffffffffffffffffffffffffffffffff16815260200190815260200160002081905550600b60009054906101000a900473ffffffffffffffffffffffffffffffffffffffff1673ffffffffffffffffffffffffffffffffffffffff1663a9059cbb82846040518363ffffffff1660e01b8152600401808373ffffffffffffffffffffffffffffffffffffffff1673ffffffffffffffffffffffffffffffffffffffff16815260200182815260200192505050602060405180830381600087803b1580156200212257600080fd5b505af115801562002137573d6000803e3d6000fd5b505050506040513d60208110156200214e57600080fd5b8101908080519060200190929190505050508160066000828254019250508190555050505050565b600c806000018054600181600116156101000203166002900480601f016020809104026020016040519081016040528092919081815260200182805460018160011615610100020316600290048015620022145780601f10620021e85761010080835404028352916020019162002214565b820191906000526020600020905b815481529060010190602001808311620021f657829003601f168201915b505050505090806001018054600181600116156101000203166002900480601f016020809104026020016040519081016040528092919081815260200182805460018160011615610100020316600290048015620022b65780601f106200228a57610100808354040283529160200191620022b6565b820191906000526020600020905b8154815290600101906020018083116200229857829003601f168201915b505050505090806002018054600181600116156101000203166002900480601f016020809104026020016040519081016040528092919081815260200182805460018160011615610100020316600290048015620023585780601f106200232c5761010080835404028352916020019162002358565b820191906000526020600020905b8154815290600101906020018083116200233a57829003601f168201915b5050505050905083565b6000809054906101000a900473ffffffffffffffffffffffffffffffffffffffff1673ffffffffffffffffffffffffffffffffffffffff163373ffffffffffffffffffffffffffffffffffffffff161462002425576040517f08c379a00000000000000000000000000000000000000000000000000000000081526004018080602001828103825260178152602001807f43616c6c6572206973206e6f7420746865206f776e657200000000000000000081525060200191505060405180910390fd5b6002600c60000190805460018160011615610100020316600290046200244d9291906200277d565b5082600c600101908051906020019062002469929190620026f6565b5081600c600201908051906020019062002485929190620026f6565b506201518081024201600481905550505050565b600b60009054906101000a900473ffffffffffffffffffffffffffffffffffffffff1681565b600080831415620024d4576000905062002544565b6000828402905082848281620024e657fe5b04146200253f576040517f08c379a000000000000000000000000000000000000000000000000000000000815260040180806020018281038252602181526020018062003a6f6021913960400191505060405180910390fd5b809150505b92915050565b60006200258e83836040518060400160405280601a81526020017f536166654d6174683a206469766973696f6e206279207a65726f00000000000081525062002596565b905092915050565b6000808311829062002646576040517f08c379a00000000000000000000000000000000000000000000000000000000081526004018080602001828103825283818151815260200191508051906020019080838360005b838110156200260a578082015181840152602081019050620025ed565b50505050905090810190601f168015620026385780820380516001836020036101000a031916815260200191505b509250505060405180910390fd5b5060008385816200265357fe5b049050809150509392505050565b828054600181600116156101000203166002900490600052602060002090601f016020900481019282601f10620026a457805160ff1916838001178555620026d5565b82800160010185558215620026d5579182015b82811115620026d4578251825591602001919060010190620026b7565b5b509050620026e491906200280b565b5090565b61123b806200283483390190565b828054600181600116156101000203166002900490600052602060002090601f016020900481019282601f106200273957805160ff19168380011785556200276a565b828001600101855582156200276a579182015b82811115620027695782518255916020019190600101906200274c565b5b5090506200277991906200280b565b5090565b828054600181600116156101000203166002900490600052602060002090601f016020900481019282601f10620027b85780548555620027f8565b82800160010185558215620027f857600052602060002091601f016020900482015b82811115620027f7578254825591600101919060010190620027da565b5b5090506200280791906200280b565b5090565b6200283091905b808211156200282c57600081600090555060010162002812565b5090565b9056fe608060405260126002553480156200001657600080fd5b506040516200123b3803806200123b833981810160405260608110156200003c57600080fd5b81019080805160405193929190846401000000008211156200005d57600080fd5b838201915060208201858111156200007457600080fd5b82518660018202830111640100000000821117156200009257600080fd5b8083526020830192505050908051906020019080838360005b83811015620000c8578082015181840152602081019050620000ab565b50505050905090810190601f168015620000f65780820380516001836020036101000a031916815260200191505b50604052602001805160405193929190846401000000008211156200011a57600080fd5b838201915060208201858111156200013157600080fd5b82518660018202830111640100000000821117156200014f57600080fd5b8083526020830192505050908051906020019080838360005b838110156200018557808201518184015260208101905062000168565b50505050905090810190601f168015620001b35780820380516001836020036101000a031916815260200191505b506040526020018051906020019092919050505033600460006101000a81548173ffffffffffffffffffffffffffffffffffffffff021916908373ffffffffffffffffffffffffffffffffffffffff16021790555062000227600254600a0a82620002ca60201b62000d2a1790919060201c565b600560003373ffffffffffffffffffffffffffffffffffffffff1673ffffffffffffffffffffffffffffffffffffffff1681526020019081526020016000208190555082600090805190602001906200028292919062000355565b5081600190805190602001906200029b92919062000355565b50620002bb600254600a0a82620002ca60201b62000d2a1790919060201c565b60038190555050505062000404565b600080831415620002df57600090506200034f565b6000828402905082848281620002f157fe5b04146200034a576040517f08c379a00000000000000000000000000000000000000000000000000000000081526004018080602001828103825260218152602001806200121a6021913960400191505060405180910390fd5b809150505b92915050565b828054600181600116156101000203166002900490600052602060002090601f016020900481019282601f106200039857805160ff1916838001178555620003c9565b82800160010185558215620003c9579182015b82811115620003c8578251825591602001919060010190620003ab565b5b509050620003d89190620003dc565b5090565b6200040191905b80821115620003fd576000816000905550600101620003e3565b5090565b90565b610e0680620004146000396000f3fe608060405234801561001057600080fd5b50600436106100b45760003560e01c806370a082311161007157806370a08231146102bc5780638da5cb5b1461031457806395d89b411461035e578063a44b47f7146103e1578063a9059cbb146103ff578063dd62ed3e14610465576100b4565b806306fdde03146100b9578063095ea7b31461013c57806318160ddd146101a257806323b872dd146101c057806327e235e314610246578063313ce5671461029e575b600080fd5b6100c16104dd565b6040518080602001828103825283818151815260200191508051906020019080838360005b838110156101015780820151818401526020810190506100e6565b50505050905090810190601f16801561012e5780820380516001836020036101000a031916815260200191505b509250505060405180910390f35b6101886004803603604081101561015257600080fd5b81019080803573ffffffffffffffffffffffffffffffffffffffff1690602001909291908035906020019092919050505061057b565b604051808215151515815260200191505060405180910390f35b6101aa61066d565b6040518082815260200191505060405180910390f35b61022c600480360360608110156101d657600080fd5b81019080803573ffffffffffffffffffffffffffffffffffffffff169060200190929190803573ffffffffffffffffffffffffffffffffffffffff16906020019092919080359060200190929190505050610677565b604051808215151515815260200191505060405180910390f35b6102886004803603602081101561025c57600080fd5b81019080803573ffffffffffffffffffffffffffffffffffffffff16906020019092919050505061097e565b6040518082815260200191505060405180910390f35b6102a6610996565b6040518082815260200191505060405180910390f35b6102fe600480360360208110156102d257600080fd5b81019080803573ffffffffffffffffffffffffffffffffffffffff16906020019092919050505061099c565b6040518082815260200191505060405180910390f35b61031c6109e5565b604051808273ffffffffffffffffffffffffffffffffffffffff1673ffffffffffffffffffffffffffffffffffffffff16815260200191505060405180910390f35b610366610a0b565b6040518080602001828103825283818151815260200191508051906020019080838360005b838110156103a657808201518184015260208101905061038b565b50505050905090810190601f1680156103d35780820380516001836020036101000a031916815260200191505b509250505060405180910390f35b6103e9610aa9565b6040518082815260200191505060405180910390f35b61044b6004803603604081101561041557600080fd5b81019080803573ffffffffffffffffffffffffffffffffffffffff16906020019092919080359060200190929190505050610aaf565b604051808215151515815260200191505060405180910390f35b6104c76004803603604081101561047b57600080fd5b81019080803573ffffffffffffffffffffffffffffffffffffffff169060200190929190803573ffffffffffffffffffffffffffffffffffffffff169060200190929190505050610ca3565b6040518082815260200191505060405180910390f35b60018054600181600116156101000203166002900480601f0160208091040260200160405190810160405280929190818152602001828054600181600116156101000203166002900480156105735780601f1061054857610100808354040283529160200191610573565b820191906000526020600020905b81548152906001019060200180831161055657829003601f168201915b505050505081565b600081600660003373ffffffffffffffffffffffffffffffffffffffff1673ffffffffffffffffffffffffffffffffffffffff16815260200190815260200160002060008573ffffffffffffffffffffffffffffffffffffffff1673ffffffffffffffffffffffffffffffffffffffff168152602001908152602001600020819055508273ffffffffffffffffffffffffffffffffffffffff163373ffffffffffffffffffffffffffffffffffffffff167f8c5be1e5ebec7d5bd14f71427d1e84f3dd0314c0f7b2291e5b200ac8c7c3b925846040518082815260200191505060405180910390a36001905092915050565b6000600354905090565b600081600560008673ffffffffffffffffffffffffffffffffffffffff1673ffffffffffffffffffffffffffffffffffffffff1681526020019081526020016000205410158015610744575081600660008673ffffffffffffffffffffffffffffffffffffffff1673ffffffffffffffffffffffffffffffffffffffff16815260200190815260200160002060003373ffffffffffffffffffffffffffffffffffffffff1673ffffffffffffffffffffffffffffffffffffffff1681526020019081526020016000205410155b80156107505750600082115b80156107db5750600560008473ffffffffffffffffffffffffffffffffffffffff1673ffffffffffffffffffffffffffffffffffffffff1681526020019081526020016000205482600560008673ffffffffffffffffffffffffffffffffffffffff1673ffffffffffffffffffffffffffffffffffffffff1681526020019081526020016000205401115b156109725781600560008673ffffffffffffffffffffffffffffffffffffffff1673ffffffffffffffffffffffffffffffffffffffff1681526020019081526020016000206000828254039250508190555081600660008673ffffffffffffffffffffffffffffffffffffffff1673ffffffffffffffffffffffffffffffffffffffff16815260200190815260200160002060003373ffffffffffffffffffffffffffffffffffffffff1673ffffffffffffffffffffffffffffffffffffffff1681526020019081526020016000206000828254039250508190555081600560008573ffffffffffffffffffffffffffffffffffffffff1673ffffffffffffffffffffffffffffffffffffffff168152602001908152602001600020600082825401925050819055508273ffffffffffffffffffffffffffffffffffffffff168473ffffffffffffffffffffffffffffffffffffffff167fddf252ad1be2c89b69c2b068fc378daa952ba7f163c4a11628f55a4df523b3ef846040518082815260200191505060405180910390a360019050610977565b600090505b9392505050565b60056020528060005260406000206000915090505481565b60025481565b6000600560008373ffffffffffffffffffffffffffffffffffffffff1673ffffffffffffffffffffffffffffffffffffffff168152602001908152602001600020549050919050565b600460009054906101000a900473ffffffffffffffffffffffffffffffffffffffff1681565b60008054600181600116156101000203166002900480601f016020809104026020016040519081016040528092919081815260200182805460018160011615610100020316600290048015610aa15780601f10610a7657610100808354040283529160200191610aa1565b820191906000526020600020905b815481529060010190602001808311610a8457829003601f168201915b505050505081565b60035481565b600081600560003373ffffffffffffffffffffffffffffffffffffffff1673ffffffffffffffffffffffffffffffffffffffff1681526020019081526020016000205410158015610b005750600082115b8015610b8b5750600560008473ffffffffffffffffffffffffffffffffffffffff1673ffffffffffffffffffffffffffffffffffffffff1681526020019081526020016000205482600560008673ffffffffffffffffffffffffffffffffffffffff1673ffffffffffffffffffffffffffffffffffffffff1681526020019081526020016000205401115b15610c985781600560003373ffffffffffffffffffffffffffffffffffffffff1673ffffffffffffffffffffffffffffffffffffffff1681526020019081526020016000206000828254039250508190555081600560008573ffffffffffffffffffffffffffffffffffffffff1673ffffffffffffffffffffffffffffffffffffffff168152602001908152602001600020600082825401925050819055508273ffffffffffffffffffffffffffffffffffffffff163373ffffffffffffffffffffffffffffffffffffffff167fddf252ad1be2c89b69c2b068fc378daa952ba7f163c4a11628f55a4df523b3ef846040518082815260200191505060405180910390a360019050610c9d565b600090505b92915050565b6000600660008473ffffffffffffffffffffffffffffffffffffffff1673ffffffffffffffffffffffffffffffffffffffff16815260200190815260200160002060008373ffffffffffffffffffffffffffffffffffffffff1673ffffffffffffffffffffffffffffffffffffffff16815260200190815260200160002054905092915050565b600080831415610d3d5760009050610daa565b6000828402905082848281610d4e57fe5b0414610da5576040517f08c379a0000000000000000000000000000000000000000000000000000000008152600401808060200182810382526021815260200180610db16021913960400191505060405180910390fd5b809150505b9291505056fe536166654d6174683a206d756c7469706c69636174696f6e206f766572666c6f77a265627a7a72315820bcb15ee37396b4e50fb3590d45b9c77dad14dd2e91536a0086ac89e9f6b1bd5664736f6c63430005100032536166654d6174683a206d756c7469706c69636174696f6e206f766572666c6f77536166654d6174683a206d756c7469706c69636174696f6e206f766572666c6f77a265627a7a72315820d3ceafc8498039795fbd73c644ae9e697db227ceea656e792043252907277b3464736f6c63430005100032a265627a7a72315820445fbc83fb5e4974952c10d5d1df9cb85ae4517afd516610e019be2bc32aec8f64736f6c63430005100032",
  "source": "pragma solidity ^0.5.1;\n\nimport \"./SafeMath.sol\";\nimport \"./MovieContract.sol\";\n\ncontract FactoryContract {\n  \n    using SafeMath for uint256;\n\n\tuint256 public contractCount;\n\taddress[] public contractContainer;\n\taddress public recentContract;\n\n\tmapping(uint256 => address) public IdToMovieContracts;\n\n\tfunction newMovieContract(string memory _movieName) public returns(MovieContract){\n\t\tMovieContract instance = new MovieContract(_movieName,msg.sender);\n\t\trecentContract = address(instance);\n\t\tcontractCount++;\n\t\tcontractContainer.push(address(instance));\n\t\tIdToMovieContracts[contractCount] = address(instance);\n\n\t}\n\n\tfunction  checkSpecificContract(uint256 _id) public view returns(address){\n\t\treturn IdToMovieContracts[_id];\n\t}\n\n}",
  "sourcePath": "/home/zaryab/blockchain_begins/all_about_ethereum/dapps/dapp_Jedi/contracts/FactoryContract.sol",
  "compiler": {
    "name": "solc",
    "version": "0.5.16+commit.9c3226ce.Emscripten.clang"
  },
  "schemaVersion": "3.0.23",
  "updatedAt": "2020-08-31T04:36:25.496Z",
  "devdoc": {
    "methods": {}
  },
  "userdoc": {
    "methods": {}
  }
}