{
  "contractName": "FactoryContract",
  "abi": [
    {
      "constant": true,
      "inputs": [
        {
          "internalType": "uint256",
          "name": "",
          "type": "uint256"
        }
      ],
      "name": "IdToMovieContracts",
      "outputs": [
        {
          "internalType": "address",
          "name": "",
          "type": "address"
        }
      ],
      "payable": false,
      "stateMutability": "view",
      "type": "function"
    },
    {
      "constant": true,
      "inputs": [
        {
          "internalType": "uint256",
          "name": "",
          "type": "uint256"
        }
      ],
      "name": "contractContainer",
      "outputs": [
        {
          "internalType": "address",
          "name": "",
          "type": "address"
        }
      ],
      "payable": false,
      "stateMutability": "view",
      "type": "function"
    },
    {
      "constant": true,
      "inputs": [],
      "name": "contractCount",
      "outputs": [
        {
          "internalType": "uint256",
          "name": "",
          "type": "uint256"
        }
      ],
      "payable": false,
      "stateMutability": "view",
      "type": "function"
    },
    {
      "constant": true,
      "inputs": [],
      "name": "recentContract",
      "outputs": [
        {
          "internalType": "address",
          "name": "",
          "type": "address"
        }
      ],
      "payable": false,
      "stateMutability": "view",
      "type": "function"
    },
    {
      "constant": false,
      "inputs": [
        {
          "internalType": "string",
          "name": "_movieName",
          "type": "string"
        }
      ],
      "name": "newMovieContract",
      "outputs": [
        {
          "internalType": "contract MovieContract",
          "name": "",
          "type": "address"
        }
      ],
      "payable": false,
      "stateMutability": "nonpayable",
      "type": "function"
    },
    {
      "constant": true,
      "inputs": [
        {
          "internalType": "uint256",
          "name": "_id",
          "type": "uint256"
        }
      ],
      "name": "checkSpecificContract",
      "outputs": [
        {
          "internalType": "address",
          "name": "",
          "type": "address"
        }
      ],
      "payable": false,
      "stateMutability": "view",
      "type": "function"
    }
  ],
  "bytecode": "0x608060405234801561001057600080fd5b506139af806100206000396000f3fe608060405234801561001057600080fd5b50600436106100625760003560e01c806384f2c477146100675780638736381a146100d5578063a039a6fe146100f3578063a4d07fab146101ee578063b9885c8314610238578063da321197146102a6575b600080fd5b6100936004803603602081101561007d57600080fd5b8101908080359060200190929190505050610314565b604051808273ffffffffffffffffffffffffffffffffffffffff1673ffffffffffffffffffffffffffffffffffffffff16815260200191505060405180910390f35b6100dd610351565b6040518082815260200191505060405180910390f35b6101ac6004803603602081101561010957600080fd5b810190808035906020019064010000000081111561012657600080fd5b82018360208201111561013857600080fd5b8035906020019184600183028401116401000000008311171561015a57600080fd5b91908080601f016020809104026020016040519081016040528093929190818152602001838380828437600081840152601f19601f820116905080830192505050505050509192919290505050610357565b604051808273ffffffffffffffffffffffffffffffffffffffff1673ffffffffffffffffffffffffffffffffffffffff16815260200191505060405180910390f35b6101f661053a565b604051808273ffffffffffffffffffffffffffffffffffffffff1673ffffffffffffffffffffffffffffffffffffffff16815260200191505060405180910390f35b6102646004803603602081101561024e57600080fd5b8101908080359060200190929190505050610560565b604051808273ffffffffffffffffffffffffffffffffffffffff1673ffffffffffffffffffffffffffffffffffffffff16815260200191505060405180910390f35b6102d2600480360360208110156102bc57600080fd5b8101908080359060200190929190505050610593565b604051808273ffffffffffffffffffffffffffffffffffffffff1673ffffffffffffffffffffffffffffffffffffffff16815260200191505060405180910390f35b60006003600083815260200190815260200160002060009054906101000a900473ffffffffffffffffffffffffffffffffffffffff169050919050565b60005481565b6000808233604051610368906105cf565b80806020018373ffffffffffffffffffffffffffffffffffffffff1673ffffffffffffffffffffffffffffffffffffffff168152602001828103825284818151815260200191508051906020019080838360005b838110156103d75780820151818401526020810190506103bc565b50505050905090810190601f1680156104045780820380516001836020036101000a031916815260200191505b509350505050604051809103906000f080158015610426573d6000803e3d6000fd5b50905080600260006101000a81548173ffffffffffffffffffffffffffffffffffffffff021916908373ffffffffffffffffffffffffffffffffffffffff160217905550600080815480929190600101919050555060018190806001815401808255809150509060018203906000526020600020016000909192909190916101000a81548173ffffffffffffffffffffffffffffffffffffffff021916908373ffffffffffffffffffffffffffffffffffffffff1602179055505080600360008054815260200190815260200160002060006101000a81548173ffffffffffffffffffffffffffffffffffffffff021916908373ffffffffffffffffffffffffffffffffffffffff16021790555050919050565b600260009054906101000a900473ffffffffffffffffffffffffffffffffffffffff1681565b60036020528060005260406000206000915054906101000a900473ffffffffffffffffffffffffffffffffffffffff1681565b600181815481106105a057fe5b906000526020600020016000915054906101000a900473ffffffffffffffffffffffffffffffffffffffff1681565b61339e806105dd8339019056fe60806040526103e86007553480156200001757600080fd5b506040516200339e3803806200339e833981810160405260408110156200003d57600080fd5b81019080805160405193929190846401000000008211156200005e57600080fd5b838201915060208201858111156200007557600080fd5b82518660018202830111640100000000821117156200009357600080fd5b8083526020830192505050908051906020019080838360005b83811015620000c9578082015181840152602081019050620000ac565b50505050905090810190601f168015620000f75780820380516001836020036101000a031916815260200191505b5060405260200180519060200190929190505050806000806101000a81548173ffffffffffffffffffffffffffffffffffffffff021916908373ffffffffffffffffffffffffffffffffffffffff16021790555081600290805190602001906200016392919062000173565b5042600881905550505062000222565b828054600181600116156101000203166002900490600052602060002090601f016020900481019282601f10620001b657805160ff1916838001178555620001e7565b82800160010185558215620001e7579182015b82811115620001e6578251825591602001919060010190620001c9565b5b509050620001f69190620001fa565b5090565b6200021f91905b808211156200021b57600081600090555060010162000201565b5090565b90565b61316c80620002326000396000f3fe6080604052600436106200013a5760003560e01c80639b98f71f11620000af578063d7e64c00116200006d578063d7e64c0014620008dc578063d9895de0146200090a578063e362bcac1462000a65578063f012666e1462000bd9578063fc0c546a1462000d4c576200013a565b80639b98f71f146200057c5780639d76ea581462000678578063ae4cc89414620006d2578063b5f7f6361462000845578063cff774441462000873576200013a565b80633feb5f2b11620000fd5780633feb5f2b14620002cc5780634cc05a7114620004305780636c02a931146200045e5780637ff9b59614620004f45780638da5cb5b1462000522576200013a565b806305b34410146200013f57806318160ddd146200016d57806320a1d4e5146200019b57806327eef6f3146200020857806329dcb0cf146200029e575b600080fd5b3480156200014c57600080fd5b506200015762000da6565b6040518082815260200191505060405180910390f35b3480156200017a57600080fd5b506200018562000dac565b6040518082815260200191505060405180910390f35b348015620001a857600080fd5b50620001ee60048036036020811015620001c157600080fd5b81019080803573ffffffffffffffffffffffffffffffffffffffff16906020019092919050505062000db2565b604051808215151515815260200191505060405180910390f35b3480156200021557600080fd5b506200022062000dd2565b6040518080602001828103825283818151815260200191508051906020019080838360005b838110156200026257808201518184015260208101905062000245565b50505050905090810190601f168015620002905780820380516001836020036101000a031916815260200191505b509250505060405180910390f35b348015620002ab57600080fd5b50620002b662000e74565b6040518082815260200191505060405180910390f35b348015620002d957600080fd5b506200030960048036036020811015620002f257600080fd5b810190808035906020019092919050505062000e7a565b6040518080602001806020018573ffffffffffffffffffffffffffffffffffffffff1673ffffffffffffffffffffffffffffffffffffffff168152602001848152602001838103835287818151815260200191508051906020019080838360005b83811015620003875780820151818401526020810190506200036a565b50505050905090810190601f168015620003b55780820380516001836020036101000a031916815260200191505b50838103825286818151815260200191508051906020019080838360005b83811015620003f0578082015181840152602081019050620003d3565b50505050905090810190601f1680156200041e5780820380516001836020036101000a031916815260200191505b50965050505050505060405180910390f35b3480156200043d57600080fd5b506200044862001002565b6040518082815260200191505060405180910390f35b3480156200046b57600080fd5b506200047662001008565b6040518080602001828103825283818151815260200191508051906020019080838360005b83811015620004b85780820151818401526020810190506200049b565b50505050905090810190601f168015620004e65780820380516001836020036101000a031916815260200191505b509250505060405180910390f35b3480156200050157600080fd5b506200050c620010aa565b6040518082815260200191505060405180910390f35b3480156200052f57600080fd5b506200053a620010b0565b604051808273ffffffffffffffffffffffffffffffffffffffff1673ffffffffffffffffffffffffffffffffffffffff16815260200191505060405180910390f35b3480156200058957600080fd5b50620005b960048036036020811015620005a257600080fd5b8101908080359060200190929190505050620010d5565b604051808573ffffffffffffffffffffffffffffffffffffffff1673ffffffffffffffffffffffffffffffffffffffff16815260200184815260200183815260200180602001828103825283818151815260200191508051906020019080838360005b83811015620006395780820151818401526020810190506200061c565b50505050905090810190601f168015620006675780820380516001836020036101000a031916815260200191505b509550505050505060405180910390f35b3480156200068557600080fd5b5062000690620011c1565b604051808273ffffffffffffffffffffffffffffffffffffffff1673ffffffffffffffffffffffffffffffffffffffff16815260200191505060405180910390f35b348015620006df57600080fd5b506200084360048036036060811015620006f857600080fd5b81019080803590602001906401000000008111156200071657600080fd5b8201836020820111156200072957600080fd5b803590602001918460018302840111640100000000831117156200074c57600080fd5b91908080601f016020809104026020016040519081016040528093929190818152602001838380828437600081840152601f19601f82011690508083019250505050505050919291929080359060200190640100000000811115620007b057600080fd5b820183602082011115620007c357600080fd5b80359060200191846001830284011164010000000083111715620007e657600080fd5b91908080601f016020809104026020016040519081016040528093929190818152602001838380828437600081840152601f19601f82011690508083019250505050505050919291929080359060200190929190505050620011e7565b005b3480156200085257600080fd5b506200085d62001420565b6040518082815260200191505060405180910390f35b3480156200088057600080fd5b50620008c6600480360360208110156200089957600080fd5b81019080803573ffffffffffffffffffffffffffffffffffffffff16906020019092919050505062001426565b6040518082815260200191505060405180910390f35b348015620008e957600080fd5b50620008f46200143e565b6040518082815260200191505060405180910390f35b62000a63600480360360408110156200092257600080fd5b81019080803590602001906401000000008111156200094057600080fd5b8201836020820111156200095357600080fd5b803590602001918460018302840111640100000000831117156200097657600080fd5b91908080601f016020809104026020016040519081016040528093929190818152602001838380828437600081840152601f19601f82011690508083019250505050505050919291929080359060200190640100000000811115620009da57600080fd5b820183602082011115620009ed57600080fd5b8035906020019184600183028401116401000000008311171562000a1057600080fd5b91908080601f016020809104026020016040519081016040528093929190818152602001838380828437600081840152601f19601f82011690508083019250505050505050919291929050505062001444565b005b34801562000a7257600080fd5b5062000a7d62001887565b60405180806020018060200180602001848103845287818151815260200191508051906020019080838360005b8381101562000ac757808201518184015260208101905062000aaa565b50505050905090810190601f16801562000af55780820380516001836020036101000a031916815260200191505b50848103835286818151815260200191508051906020019080838360005b8381101562000b3057808201518184015260208101905062000b13565b50505050905090810190601f16801562000b5e5780820380516001836020036101000a031916815260200191505b50848103825285818151815260200191508051906020019080838360005b8381101562000b9957808201518184015260208101905062000b7c565b50505050905090810190601f16801562000bc75780820380516001836020036101000a031916815260200191505b50965050505050505060405180910390f35b34801562000be657600080fd5b5062000d4a6004803603606081101562000bff57600080fd5b810190808035906020019064010000000081111562000c1d57600080fd5b82018360208201111562000c3057600080fd5b8035906020019184600183028401116401000000008311171562000c5357600080fd5b91908080601f016020809104026020016040519081016040528093929190818152602001838380828437600081840152601f19601f8201169050808301925050505050505091929192908035906020019064010000000081111562000cb757600080fd5b82018360208201111562000cca57600080fd5b8035906020019184600183028401116401000000008311171562000ced57600080fd5b91908080601f016020809104026020016040519081016040528093929190818152602001838380828437600081840152601f19601f8201169050808301925050505050505091929192908035906020019092919050505062001a73565b005b34801562000d5957600080fd5b5062000d6462001b41565b604051808273ffffffffffffffffffffffffffffffffffffffff1673ffffffffffffffffffffffffffffffffffffffff16815260200191505060405180910390f35b60085481565b60055481565b600f6020528060005260406000206000915054906101000a900460ff1681565b60028054600181600116156101000203166002900480601f01602080910402602001604051908101604052809291908181526020018280546001816001161561010002031660029004801562000e6c5780601f1062000e405761010080835404028352916020019162000e6c565b820191906000526020600020905b81548152906001019060200180831162000e4e57829003601f168201915b505050505081565b60045481565b6011602052806000526040600020600091509050806000018054600181600116156101000203166002900480601f01602080910402602001604051908101604052809291908181526020018280546001816001161561010002031660029004801562000f2a5780601f1062000efe5761010080835404028352916020019162000f2a565b820191906000526020600020905b81548152906001019060200180831162000f0c57829003601f168201915b505050505090806001018054600181600116156101000203166002900480601f01602080910402602001604051908101604052809291908181526020018280546001816001161561010002031660029004801562000fcc5780601f1062000fa05761010080835404028352916020019162000fcc565b820191906000526020600020905b81548152906001019060200180831162000fae57829003601f168201915b5050505050908060020160009054906101000a900473ffffffffffffffffffffffffffffffffffffffff16908060030154905084565b600a5481565b60038054600181600116156101000203166002900480601f016020809104026020016040519081016040528092919081815260200182805460018160011615610100020316600290048015620010a25780601f106200107657610100808354040283529160200191620010a2565b820191906000526020600020905b8154815290600101906020018083116200108457829003601f168201915b505050505081565b60075481565b6000809054906101000a900473ffffffffffffffffffffffffffffffffffffffff1681565b60106020528060005260406000206000915090508060000160009054906101000a900473ffffffffffffffffffffffffffffffffffffffff1690806001015490806002015490806003018054600181600116156101000203166002900480601f016020809104026020016040519081016040528092919081815260200182805460018160011615610100020316600290048015620011b75780601f106200118b57610100808354040283529160200191620011b7565b820191906000526020600020905b8154815290600101906020018083116200119957829003601f168201915b5050505050905084565b600160009054906101000a900473ffffffffffffffffffffffffffffffffffffffff1681565b6000809054906101000a900473ffffffffffffffffffffffffffffffffffffffff1673ffffffffffffffffffffffffffffffffffffffff163373ffffffffffffffffffffffffffffffffffffffff16146200124157600080fd5b828282604051620012529062001d09565b808060200180602001848152602001838103835286818151815260200191508051906020019080838360005b838110156200129b5780820151818401526020810190506200127e565b50505050905090810190601f168015620012c95780820380516001836020036101000a031916815260200191505b50838103825285818151815260200191508051906020019080838360005b8381101562001304578082015181840152602081019050620012e7565b50505050905090810190601f168015620013325780820380516001836020036101000a031916815260200191505b5095505050505050604051809103906000f08015801562001357573d6000803e3d6000fd5b50600b60006101000a81548173ffffffffffffffffffffffffffffffffffffffff021916908373ffffffffffffffffffffffffffffffffffffffff160217905550600b60009054906101000a900473ffffffffffffffffffffffffffffffffffffffff16600160006101000a81548173ffffffffffffffffffffffffffffffffffffffff021916908373ffffffffffffffffffffffffffffffffffffffff16021790555081600390805190602001906200141392919062001d17565b5080600581905550505050565b60065481565b60126020528060005260406000206000915090505481565b60095481565b600034116200145257600080fd5b60045442116200146157600080fd5b600160009054906101000a900473ffffffffffffffffffffffffffffffffffffffff16600b60006101000a81548173ffffffffffffffffffffffffffffffffffffffff021916908373ffffffffffffffffffffffffffffffffffffffff1602179055506000620014dd3460075462001b6790919063ffffffff16565b9050600033905081600b60009054906101000a900473ffffffffffffffffffffffffffffffffffffffff1673ffffffffffffffffffffffffffffffffffffffff166370a08231306040518263ffffffff1660e01b8152600401808273ffffffffffffffffffffffffffffffffffffffff1673ffffffffffffffffffffffffffffffffffffffff168152602001915050602060405180830381600087803b1580156200158757600080fd5b505af11580156200159c573d6000803e3d6000fd5b505050506040513d6020811015620015b357600080fd5b8101908080519060200190929190505050101562001639576040517f08c379a00000000000000000000000000000000000000000000000000000000081526004018080602001828103825260178152602001807f546f6b656e205175616e7469747920457863656564656400000000000000000081525060200191505060405180910390fd5b60096000815480929190600101919050555060405180608001604052808581526020018481526020018273ffffffffffffffffffffffffffffffffffffffff1681526020016200169b670de0b6b3a76400008562001bf290919063ffffffff16565b8152506011600060095481526020019081526020016000206000820151816000019080519060200190620016d192919062001d9e565b506020820151816001019080519060200190620016f092919062001d9e565b5060408201518160020160006101000a81548173ffffffffffffffffffffffffffffffffffffffff021916908373ffffffffffffffffffffffffffffffffffffffff1602179055506060820151816003015590505034601260008373ffffffffffffffffffffffffffffffffffffffff1673ffffffffffffffffffffffffffffffffffffffff16815260200190815260200160002081905550600b60009054906101000a900473ffffffffffffffffffffffffffffffffffffffff1673ffffffffffffffffffffffffffffffffffffffff1663a9059cbb82846040518363ffffffff1660e01b8152600401808373ffffffffffffffffffffffffffffffffffffffff1673ffffffffffffffffffffffffffffffffffffffff16815260200182815260200192505050602060405180830381600087803b1580156200183357600080fd5b505af115801562001848573d6000803e3d6000fd5b505050506040513d60208110156200185f57600080fd5b8101908080519060200190929190505050508160066000828254019250508190555050505050565b600c806000018054600181600116156101000203166002900480601f016020809104026020016040519081016040528092919081815260200182805460018160011615610100020316600290048015620019255780601f10620018f95761010080835404028352916020019162001925565b820191906000526020600020905b8154815290600101906020018083116200190757829003601f168201915b505050505090806001018054600181600116156101000203166002900480601f016020809104026020016040519081016040528092919081815260200182805460018160011615610100020316600290048015620019c75780601f106200199b57610100808354040283529160200191620019c7565b820191906000526020600020905b815481529060010190602001808311620019a957829003601f168201915b505050505090806002018054600181600116156101000203166002900480601f01602080910402602001604051908101604052809291908181526020018280546001816001161561010002031660029004801562001a695780601f1062001a3d5761010080835404028352916020019162001a69565b820191906000526020600020905b81548152906001019060200180831162001a4b57829003601f168201915b5050505050905083565b6000809054906101000a900473ffffffffffffffffffffffffffffffffffffffff1673ffffffffffffffffffffffffffffffffffffffff163373ffffffffffffffffffffffffffffffffffffffff161462001acd57600080fd5b6002600c600001908054600181600116156101000203166002900462001af592919062001e25565b5082600c600101908051906020019062001b1192919062001d17565b5081600c600201908051906020019062001b2d92919062001d17565b506201518081024201600481905550505050565b600b60009054906101000a900473ffffffffffffffffffffffffffffffffffffffff1681565b60008083141562001b7c576000905062001bec565b600082840290508284828162001b8e57fe5b041462001be7576040517f08c379a0000000000000000000000000000000000000000000000000000000008152600401808060200182810382526021815260200180620031176021913960400191505060405180910390fd5b809150505b92915050565b600062001c3683836040518060400160405280601a81526020017f536166654d6174683a206469766973696f6e206279207a65726f00000000000081525062001c3e565b905092915050565b6000808311829062001cee576040517f08c379a00000000000000000000000000000000000000000000000000000000081526004018080602001828103825283818151815260200191508051906020019080838360005b8381101562001cb257808201518184015260208101905062001c95565b50505050905090810190601f16801562001ce05780820380516001836020036101000a031916815260200191505b509250505060405180910390fd5b50600083858162001cfb57fe5b049050809150509392505050565b61123b8062001edc83390190565b828054600181600116156101000203166002900490600052602060002090601f016020900481019282601f1062001d5a57805160ff191683800117855562001d8b565b8280016001018555821562001d8b579182015b8281111562001d8a57825182559160200191906001019062001d6d565b5b50905062001d9a919062001eb3565b5090565b828054600181600116156101000203166002900490600052602060002090601f016020900481019282601f1062001de157805160ff191683800117855562001e12565b8280016001018555821562001e12579182015b8281111562001e1157825182559160200191906001019062001df4565b5b50905062001e21919062001eb3565b5090565b828054600181600116156101000203166002900490600052602060002090601f016020900481019282601f1062001e60578054855562001ea0565b8280016001018555821562001ea057600052602060002091601f016020900482015b8281111562001e9f57825482559160010191906001019062001e82565b5b50905062001eaf919062001eb3565b5090565b62001ed891905b8082111562001ed457600081600090555060010162001eba565b5090565b9056fe608060405260126002553480156200001657600080fd5b506040516200123b3803806200123b833981810160405260608110156200003c57600080fd5b81019080805160405193929190846401000000008211156200005d57600080fd5b838201915060208201858111156200007457600080fd5b82518660018202830111640100000000821117156200009257600080fd5b8083526020830192505050908051906020019080838360005b83811015620000c8578082015181840152602081019050620000ab565b50505050905090810190601f168015620000f65780820380516001836020036101000a031916815260200191505b50604052602001805160405193929190846401000000008211156200011a57600080fd5b838201915060208201858111156200013157600080fd5b82518660018202830111640100000000821117156200014f57600080fd5b8083526020830192505050908051906020019080838360005b838110156200018557808201518184015260208101905062000168565b50505050905090810190601f168015620001b35780820380516001836020036101000a031916815260200191505b506040526020018051906020019092919050505033600460006101000a81548173ffffffffffffffffffffffffffffffffffffffff021916908373ffffffffffffffffffffffffffffffffffffffff16021790555062000227600254600a0a82620002ca60201b62000d2a1790919060201c565b600560003373ffffffffffffffffffffffffffffffffffffffff1673ffffffffffffffffffffffffffffffffffffffff1681526020019081526020016000208190555082600090805190602001906200028292919062000355565b5081600190805190602001906200029b92919062000355565b50620002bb600254600a0a82620002ca60201b62000d2a1790919060201c565b60038190555050505062000404565b600080831415620002df57600090506200034f565b6000828402905082848281620002f157fe5b04146200034a576040517f08c379a00000000000000000000000000000000000000000000000000000000081526004018080602001828103825260218152602001806200121a6021913960400191505060405180910390fd5b809150505b92915050565b828054600181600116156101000203166002900490600052602060002090601f016020900481019282601f106200039857805160ff1916838001178555620003c9565b82800160010185558215620003c9579182015b82811115620003c8578251825591602001919060010190620003ab565b5b509050620003d89190620003dc565b5090565b6200040191905b80821115620003fd576000816000905550600101620003e3565b5090565b90565b610e0680620004146000396000f3fe608060405234801561001057600080fd5b50600436106100b45760003560e01c806370a082311161007157806370a08231146102bc5780638da5cb5b1461031457806395d89b411461035e578063a44b47f7146103e1578063a9059cbb146103ff578063dd62ed3e14610465576100b4565b806306fdde03146100b9578063095ea7b31461013c57806318160ddd146101a257806323b872dd146101c057806327e235e314610246578063313ce5671461029e575b600080fd5b6100c16104dd565b6040518080602001828103825283818151815260200191508051906020019080838360005b838110156101015780820151818401526020810190506100e6565b50505050905090810190601f16801561012e5780820380516001836020036101000a031916815260200191505b509250505060405180910390f35b6101886004803603604081101561015257600080fd5b81019080803573ffffffffffffffffffffffffffffffffffffffff1690602001909291908035906020019092919050505061057b565b604051808215151515815260200191505060405180910390f35b6101aa61066d565b6040518082815260200191505060405180910390f35b61022c600480360360608110156101d657600080fd5b81019080803573ffffffffffffffffffffffffffffffffffffffff169060200190929190803573ffffffffffffffffffffffffffffffffffffffff16906020019092919080359060200190929190505050610677565b604051808215151515815260200191505060405180910390f35b6102886004803603602081101561025c57600080fd5b81019080803573ffffffffffffffffffffffffffffffffffffffff16906020019092919050505061097e565b6040518082815260200191505060405180910390f35b6102a6610996565b6040518082815260200191505060405180910390f35b6102fe600480360360208110156102d257600080fd5b81019080803573ffffffffffffffffffffffffffffffffffffffff16906020019092919050505061099c565b6040518082815260200191505060405180910390f35b61031c6109e5565b604051808273ffffffffffffffffffffffffffffffffffffffff1673ffffffffffffffffffffffffffffffffffffffff16815260200191505060405180910390f35b610366610a0b565b6040518080602001828103825283818151815260200191508051906020019080838360005b838110156103a657808201518184015260208101905061038b565b50505050905090810190601f1680156103d35780820380516001836020036101000a031916815260200191505b509250505060405180910390f35b6103e9610aa9565b6040518082815260200191505060405180910390f35b61044b6004803603604081101561041557600080fd5b81019080803573ffffffffffffffffffffffffffffffffffffffff16906020019092919080359060200190929190505050610aaf565b604051808215151515815260200191505060405180910390f35b6104c76004803603604081101561047b57600080fd5b81019080803573ffffffffffffffffffffffffffffffffffffffff169060200190929190803573ffffffffffffffffffffffffffffffffffffffff169060200190929190505050610ca3565b6040518082815260200191505060405180910390f35b60018054600181600116156101000203166002900480601f0160208091040260200160405190810160405280929190818152602001828054600181600116156101000203166002900480156105735780601f1061054857610100808354040283529160200191610573565b820191906000526020600020905b81548152906001019060200180831161055657829003601f168201915b505050505081565b600081600660003373ffffffffffffffffffffffffffffffffffffffff1673ffffffffffffffffffffffffffffffffffffffff16815260200190815260200160002060008573ffffffffffffffffffffffffffffffffffffffff1673ffffffffffffffffffffffffffffffffffffffff168152602001908152602001600020819055508273ffffffffffffffffffffffffffffffffffffffff163373ffffffffffffffffffffffffffffffffffffffff167f8c5be1e5ebec7d5bd14f71427d1e84f3dd0314c0f7b2291e5b200ac8c7c3b925846040518082815260200191505060405180910390a36001905092915050565b6000600354905090565b600081600560008673ffffffffffffffffffffffffffffffffffffffff1673ffffffffffffffffffffffffffffffffffffffff1681526020019081526020016000205410158015610744575081600660008673ffffffffffffffffffffffffffffffffffffffff1673ffffffffffffffffffffffffffffffffffffffff16815260200190815260200160002060003373ffffffffffffffffffffffffffffffffffffffff1673ffffffffffffffffffffffffffffffffffffffff1681526020019081526020016000205410155b80156107505750600082115b80156107db5750600560008473ffffffffffffffffffffffffffffffffffffffff1673ffffffffffffffffffffffffffffffffffffffff1681526020019081526020016000205482600560008673ffffffffffffffffffffffffffffffffffffffff1673ffffffffffffffffffffffffffffffffffffffff1681526020019081526020016000205401115b156109725781600560008673ffffffffffffffffffffffffffffffffffffffff1673ffffffffffffffffffffffffffffffffffffffff1681526020019081526020016000206000828254039250508190555081600660008673ffffffffffffffffffffffffffffffffffffffff1673ffffffffffffffffffffffffffffffffffffffff16815260200190815260200160002060003373ffffffffffffffffffffffffffffffffffffffff1673ffffffffffffffffffffffffffffffffffffffff1681526020019081526020016000206000828254039250508190555081600560008573ffffffffffffffffffffffffffffffffffffffff1673ffffffffffffffffffffffffffffffffffffffff168152602001908152602001600020600082825401925050819055508273ffffffffffffffffffffffffffffffffffffffff168473ffffffffffffffffffffffffffffffffffffffff167fddf252ad1be2c89b69c2b068fc378daa952ba7f163c4a11628f55a4df523b3ef846040518082815260200191505060405180910390a360019050610977565b600090505b9392505050565b60056020528060005260406000206000915090505481565b60025481565b6000600560008373ffffffffffffffffffffffffffffffffffffffff1673ffffffffffffffffffffffffffffffffffffffff168152602001908152602001600020549050919050565b600460009054906101000a900473ffffffffffffffffffffffffffffffffffffffff1681565b60008054600181600116156101000203166002900480601f016020809104026020016040519081016040528092919081815260200182805460018160011615610100020316600290048015610aa15780601f10610a7657610100808354040283529160200191610aa1565b820191906000526020600020905b815481529060010190602001808311610a8457829003601f168201915b505050505081565b60035481565b600081600560003373ffffffffffffffffffffffffffffffffffffffff1673ffffffffffffffffffffffffffffffffffffffff1681526020019081526020016000205410158015610b005750600082115b8015610b8b5750600560008473ffffffffffffffffffffffffffffffffffffffff1673ffffffffffffffffffffffffffffffffffffffff1681526020019081526020016000205482600560008673ffffffffffffffffffffffffffffffffffffffff1673ffffffffffffffffffffffffffffffffffffffff1681526020019081526020016000205401115b15610c985781600560003373ffffffffffffffffffffffffffffffffffffffff1673ffffffffffffffffffffffffffffffffffffffff1681526020019081526020016000206000828254039250508190555081600560008573ffffffffffffffffffffffffffffffffffffffff1673ffffffffffffffffffffffffffffffffffffffff168152602001908152602001600020600082825401925050819055508273ffffffffffffffffffffffffffffffffffffffff163373ffffffffffffffffffffffffffffffffffffffff167fddf252ad1be2c89b69c2b068fc378daa952ba7f163c4a11628f55a4df523b3ef846040518082815260200191505060405180910390a360019050610c9d565b600090505b92915050565b6000600660008473ffffffffffffffffffffffffffffffffffffffff1673ffffffffffffffffffffffffffffffffffffffff16815260200190815260200160002060008373ffffffffffffffffffffffffffffffffffffffff1673ffffffffffffffffffffffffffffffffffffffff16815260200190815260200160002054905092915050565b600080831415610d3d5760009050610daa565b6000828402905082848281610d4e57fe5b0414610da5576040517f08c379a0000000000000000000000000000000000000000000000000000000008152600401808060200182810382526021815260200180610db16021913960400191505060405180910390fd5b809150505b9291505056fe536166654d6174683a206d756c7469706c69636174696f6e206f766572666c6f77a265627a7a72315820bcb15ee37396b4e50fb3590d45b9c77dad14dd2e91536a0086ac89e9f6b1bd5664736f6c63430005100032536166654d6174683a206d756c7469706c69636174696f6e206f766572666c6f77536166654d6174683a206d756c7469706c69636174696f6e206f766572666c6f77a265627a7a7231582055be7fe23fe0dc575893326650892d73da074f8223469667c85d12bf5e5daf3c64736f6c63430005100032a265627a7a72315820d1f65915509ef69cad69ba361214b54f32d3042aac5e51c48b8f1da5c4abee2264736f6c63430005100032",
  "source": "pragma solidity ^0.5.1;\n\nimport \"./SafeMath.sol\";\nimport \"./MovieContract.sol\";\n\ncontract FactoryContract {\n  \n    using SafeMath for uint256;\n\n\tuint256 public contractCount;\n\taddress[] public contractContainer;\n\taddress public recentContract;\n\n\tmapping(uint256 => address) public IdToMovieContracts;\n\n\tfunction newMovieContract(string memory _movieName) public returns(MovieContract){\n\t\tMovieContract instance = new MovieContract(_movieName,msg.sender);\n\t\trecentContract = address(instance);\n\t\tcontractCount++;\n\t\tcontractContainer.push(address(instance));\n\t\tIdToMovieContracts[contractCount] = address(instance);\n\n\t}\n\n\tfunction  checkSpecificContract(uint256 _id) public view returns(address){\n\t\treturn IdToMovieContracts[_id];\n\t}\n\n}",
  "sourcePath": "/home/zaryab/blockchain_begins/all_about_ethereum/dapps/dapp_Jedi/contracts/FactoryContract.sol",
  "compiler": {
    "name": "solc",
    "version": "0.5.16+commit.9c3226ce.Emscripten.clang"
  },
  "schemaVersion": "3.0.23",
  "updatedAt": "2020-08-31T03:59:44.411Z",
  "devdoc": {
    "methods": {}
  },
  "userdoc": {
    "methods": {}
  }
}