{
  "contractName": "FactoryContract",
  "abi": [
    {
      "constant": true,
      "inputs": [
        {
          "internalType": "address",
          "name": "",
          "type": "address"
        }
      ],
      "name": "AddressToMovieContracts",
      "outputs": [
        {
          "internalType": "address",
          "name": "",
          "type": "address"
        }
      ],
      "payable": false,
      "stateMutability": "view",
      "type": "function"
    },
    {
      "constant": true,
      "inputs": [
        {
          "internalType": "uint256",
          "name": "",
          "type": "uint256"
        }
      ],
      "name": "IdToMovieContracts",
      "outputs": [
        {
          "internalType": "address",
          "name": "",
          "type": "address"
        }
      ],
      "payable": false,
      "stateMutability": "view",
      "type": "function"
    },
    {
      "constant": true,
      "inputs": [
        {
          "internalType": "string",
          "name": "",
          "type": "string"
        }
      ],
      "name": "NameToMovieContracts",
      "outputs": [
        {
          "internalType": "address",
          "name": "",
          "type": "address"
        }
      ],
      "payable": false,
      "stateMutability": "view",
      "type": "function"
    },
    {
      "constant": true,
      "inputs": [
        {
          "internalType": "uint256",
          "name": "",
          "type": "uint256"
        }
      ],
      "name": "contractContainer",
      "outputs": [
        {
          "internalType": "address",
          "name": "",
          "type": "address"
        }
      ],
      "payable": false,
      "stateMutability": "view",
      "type": "function"
    },
    {
      "constant": true,
      "inputs": [],
      "name": "contractCount",
      "outputs": [
        {
          "internalType": "uint256",
          "name": "",
          "type": "uint256"
        }
      ],
      "payable": false,
      "stateMutability": "view",
      "type": "function"
    },
    {
      "constant": true,
      "inputs": [],
      "name": "recentContract",
      "outputs": [
        {
          "internalType": "address",
          "name": "",
          "type": "address"
        }
      ],
      "payable": false,
      "stateMutability": "view",
      "type": "function"
    },
    {
      "constant": false,
      "inputs": [
        {
          "internalType": "string",
          "name": "_movieName",
          "type": "string"
        }
      ],
      "name": "newMovieContract",
      "outputs": [],
      "payable": false,
      "stateMutability": "nonpayable",
      "type": "function"
    },
    {
      "constant": true,
      "inputs": [
        {
          "internalType": "string",
          "name": "_name",
          "type": "string"
        }
      ],
      "name": "checkSpecificContract",
      "outputs": [
        {
          "internalType": "address",
          "name": "",
          "type": "address"
        }
      ],
      "payable": false,
      "stateMutability": "view",
      "type": "function"
    },
    {
      "constant": true,
      "inputs": [
        {
          "internalType": "address",
          "name": "_owner",
          "type": "address"
        }
      ],
      "name": "findByAddress",
      "outputs": [
        {
          "internalType": "address",
          "name": "",
          "type": "address"
        }
      ],
      "payable": false,
      "stateMutability": "view",
      "type": "function"
    },
    {
      "constant": true,
      "inputs": [
        {
          "internalType": "uint256",
          "name": "_id",
          "type": "uint256"
        }
      ],
      "name": "findById",
      "outputs": [
        {
          "internalType": "address",
          "name": "",
          "type": "address"
        }
      ],
      "payable": false,
      "stateMutability": "view",
      "type": "function"
    }
  ],
  "bytecode": "0x608060405234801561001057600080fd5b50615fa3806100206000396000f3fe608060405234801561001057600080fd5b506004361061009e5760003560e01c8063a4d07fab11610066578063a4d07fab14610369578063b9885c83146103b3578063da32119714610421578063dc5a4a6f1461048f578063dd0a8311146105135761009e565b806360ed9a6a146100a35780638736381a1461019e57806394bbfc0d146101bc5780639a64a27614610240578063a039a6fe146102ae575b600080fd5b61015c600480360360208110156100b957600080fd5b81019080803590602001906401000000008111156100d657600080fd5b8201836020820111156100e857600080fd5b8035906020019184600183028401116401000000008311171561010a57600080fd5b91908080601f016020809104026020016040519081016040528093929190818152602001838380828437600081840152601f19601f82011690508083019250505050505050919291929050505061060e565b604051808273ffffffffffffffffffffffffffffffffffffffff1673ffffffffffffffffffffffffffffffffffffffff16815260200191505060405180910390f35b6101a6610657565b6040518082815260200191505060405180910390f35b6101fe600480360360208110156101d257600080fd5b81019080803573ffffffffffffffffffffffffffffffffffffffff16906020019092919050505061065d565b604051808273ffffffffffffffffffffffffffffffffffffffff1673ffffffffffffffffffffffffffffffffffffffff16815260200191505060405180910390f35b61026c6004803603602081101561025657600080fd5b81019080803590602001909291905050506106c6565b604051808273ffffffffffffffffffffffffffffffffffffffff1673ffffffffffffffffffffffffffffffffffffffff16815260200191505060405180910390f35b610367600480360360208110156102c457600080fd5b81019080803590602001906401000000008111156102e157600080fd5b8201836020820111156102f357600080fd5b8035906020019184600183028401116401000000008311171561031557600080fd5b91908080601f016020809104026020016040519081016040528093929190818152602001838380828437600081840152601f19601f820116905080830192505050505050509192919290505050610703565b005b610371610a09565b604051808273ffffffffffffffffffffffffffffffffffffffff1673ffffffffffffffffffffffffffffffffffffffff16815260200191505060405180910390f35b6103df600480360360208110156103c957600080fd5b8101908080359060200190929190505050610a2f565b604051808273ffffffffffffffffffffffffffffffffffffffff1673ffffffffffffffffffffffffffffffffffffffff16815260200191505060405180910390f35b61044d6004803603602081101561043757600080fd5b8101908080359060200190929190505050610a62565b604051808273ffffffffffffffffffffffffffffffffffffffff1673ffffffffffffffffffffffffffffffffffffffff16815260200191505060405180910390f35b6104d1600480360360208110156104a557600080fd5b81019080803573ffffffffffffffffffffffffffffffffffffffff169060200190929190505050610a9e565b604051808273ffffffffffffffffffffffffffffffffffffffff1673ffffffffffffffffffffffffffffffffffffffff16815260200191505060405180910390f35b6105cc6004803603602081101561052957600080fd5b810190808035906020019064010000000081111561054657600080fd5b82018360208201111561055857600080fd5b8035906020019184600183028401116401000000008311171561057a57600080fd5b91908080601f016020809104026020016040519081016040528093929190818152602001838380828437600081840152601f19601f820116905080830192505050505050509192919290505050610ad1565b604051808273ffffffffffffffffffffffffffffffffffffffff1673ffffffffffffffffffffffffffffffffffffffff16815260200191505060405180910390f35b6003818051602081018201805184825260208301602085012081835280955050505050506000915054906101000a900473ffffffffffffffffffffffffffffffffffffffff1681565b60005481565b6000600460008373ffffffffffffffffffffffffffffffffffffffff1673ffffffffffffffffffffffffffffffffffffffff16815260200190815260200160002060009054906101000a900473ffffffffffffffffffffffffffffffffffffffff169050919050565b60006005600083815260200190815260200160002060009054906101000a900473ffffffffffffffffffffffffffffffffffffffff169050919050565b6000813360405161071390610b64565b80806020018373ffffffffffffffffffffffffffffffffffffffff1673ffffffffffffffffffffffffffffffffffffffff168152602001828103825284818151815260200191508051906020019080838360005b83811015610782578082015181840152602081019050610767565b50505050905090810190601f1680156107af5780820380516001836020036101000a031916815260200191505b509350505050604051809103906000f0801580156107d1573d6000803e3d6000fd5b50905080600260006101000a81548173ffffffffffffffffffffffffffffffffffffffff021916908373ffffffffffffffffffffffffffffffffffffffff160217905550600080815480929190600101919050555060018190806001815401808255809150509060018203906000526020600020016000909192909190916101000a81548173ffffffffffffffffffffffffffffffffffffffff021916908373ffffffffffffffffffffffffffffffffffffffff1602179055505080600460003373ffffffffffffffffffffffffffffffffffffffff1673ffffffffffffffffffffffffffffffffffffffff16815260200190815260200160002060006101000a81548173ffffffffffffffffffffffffffffffffffffffff021916908373ffffffffffffffffffffffffffffffffffffffff16021790555080600560008054815260200190815260200160002060006101000a81548173ffffffffffffffffffffffffffffffffffffffff021916908373ffffffffffffffffffffffffffffffffffffffff160217905550806003836040518082805190602001908083835b602083106109945780518252602082019150602081019050602083039250610971565b6001836020036101000a038019825116818451168082178552505050505050905001915050908152602001604051809103902060006101000a81548173ffffffffffffffffffffffffffffffffffffffff021916908373ffffffffffffffffffffffffffffffffffffffff1602179055505050565b600260009054906101000a900473ffffffffffffffffffffffffffffffffffffffff1681565b60056020528060005260406000206000915054906101000a900473ffffffffffffffffffffffffffffffffffffffff1681565b60018181548110610a6f57fe5b906000526020600020016000915054906101000a900473ffffffffffffffffffffffffffffffffffffffff1681565b60046020528060005260406000206000915054906101000a900473ffffffffffffffffffffffffffffffffffffffff1681565b60006003826040518082805190602001908083835b60208310610b095780518252602082019150602081019050602083039250610ae6565b6001836020036101000a038019825116818451168082178552505050505050905001915050908152602001604051809103902060009054906101000a900473ffffffffffffffffffffffffffffffffffffffff169050919050565b6153fd80610b728339019056fe60806040526103e860075566038d7ea4c68000600f556000601060006101000a81548160ff021916908360038111156200003557fe5b02179055503480156200004757600080fd5b50604051620053fd380380620053fd833981810160405260408110156200006d57600080fd5b81019080805160405193929190846401000000008211156200008e57600080fd5b83820191506020820185811115620000a557600080fd5b8251866001820283011164010000000082111715620000c357600080fd5b8083526020830192505050908051906020019080838360005b83811015620000f9578082015181840152602081019050620000dc565b50505050905090810190601f168015620001275780820380516001836020036101000a031916815260200191505b5060405260200180519060200190929190505050806000806101000a81548173ffffffffffffffffffffffffffffffffffffffff021916908373ffffffffffffffffffffffffffffffffffffffff160217905550816002908051906020019062000193929190620001a6565b5042601160020181905550505062000255565b828054600181600116156101000203166002900490600052602060002090601f016020900481019282601f10620001e957805160ff19168380011785556200021a565b828001600101855582156200021a579182015b8281111562000219578251825591602001919060010190620001fc565b5b5090506200022991906200022d565b5090565b6200025291905b808211156200024e57600081600090555060010162000234565b5090565b90565b61519880620002656000396000f3fe6080604052600436106200022a5760003560e01c80636c02a9311162000127578063b16a867c11620000af578063d7e64c001162000079578063d7e64c001462001023578063d9895de01462001051578063e362bcac14620011ac578063f012666e146200132e578063fc0c546a14620014a1576200022a565b8063b16a867c1462000e3b578063b4c2f7271462000ed1578063b5f7f6361462000f8c578063cff774441462000fba576200022a565b80638600151911620000f1578063860015191462000be65780638da5cb5b1462000c145780639d76ea581462000c6e578063ae4cc8941462000cc8576200022a565b80636c02a93114620008325780636f7bc9be14620008c85780637ff9b5961462000a4257806381d12c581462000a70576200022a565b806327eef6f311620001b757806342169e48116200018157806342169e4814620005465780634cc05a7114620005745780635badbe4c14620005a2578063623c168f14620005d0578063640ff7201462000763576200022a565b806327eef6f314620004045780632c4e722e146200049a5780633bed33ce14620004c85780633d2f5bda1462000507576200022a565b806310ea13df11620001f957806310ea13df146200030d57806312065fe0146200033b57806318160ddd146200036957806320a1d4e51462000397576200022a565b80630591d3ab146200022f5780630ab9408614620002855780630bbdc98d14620002c45780630c3f6acf14620002d0575b600080fd5b3480156200023c57600080fd5b506200026f600480360360208110156200025557600080fd5b81019080803560ff169060200190929190505050620014fb565b6040518082815260200191505060405180910390f35b3480156200029257600080fd5b50620002c260048036036020811015620002ab57600080fd5b81019080803590602001909291905050506200167e565b005b620002ce62001b11565b005b348015620002dd57600080fd5b50620002e862001ca7565b60405180826003811115620002f957fe5b60ff16815260200191505060405180910390f35b3480156200031a57600080fd5b506200032562001cba565b6040518082815260200191505060405180910390f35b3480156200034857600080fd5b506200035362001cc0565b6040518082815260200191505060405180910390f35b3480156200037657600080fd5b506200038162001cc8565b6040518082815260200191505060405180910390f35b348015620003a457600080fd5b50620003ea60048036036020811015620003bd57600080fd5b81019080803573ffffffffffffffffffffffffffffffffffffffff16906020019092919050505062001cce565b604051808215151515815260200191505060405180910390f35b3480156200041157600080fd5b506200041c62001cee565b6040518080602001828103825283818151815260200191508051906020019080838360005b838110156200045e57808201518184015260208101905062000441565b50505050905090810190601f1680156200048c5780820380516001836020036101000a031916815260200191505b509250505060405180910390f35b348015620004a757600080fd5b50620004b262001d90565b6040518082815260200191505060405180910390f35b348015620004d557600080fd5b506200050560048036036020811015620004ee57600080fd5b810190808035906020019092919050505062001d96565b005b3480156200051457600080fd5b5062000544600480360360208110156200052d57600080fd5b8101908080359060200190929190505050620021b2565b005b3480156200055357600080fd5b506200055e620023bc565b6040518082815260200191505060405180910390f35b3480156200058157600080fd5b506200058c620023c2565b6040518082815260200191505060405180910390f35b348015620005af57600080fd5b50620005ba620023c8565b6040518082815260200191505060405180910390f35b348015620005dd57600080fd5b506200076160048036036080811015620005f657600080fd5b81019080803590602001906401000000008111156200061457600080fd5b8201836020820111156200062757600080fd5b803590602001918460018302840111640100000000831117156200064a57600080fd5b91908080601f016020809104026020016040519081016040528093929190818152602001838380828437600081840152601f19601f820116905080830192505050505050509192919290803573ffffffffffffffffffffffffffffffffffffffff16906020019092919080359060200190640100000000811115620006ce57600080fd5b820183602082011115620006e157600080fd5b803590602001918460018302840111640100000000831117156200070457600080fd5b91908080601f016020809104026020016040519081016040528093929190818152602001838380828437600081840152601f19601f82011690508083019250505050505050919291929080359060200190929190505050620023ce565b005b3480156200077057600080fd5b5062000830600480360360208110156200078957600080fd5b8101908080359060200190640100000000811115620007a757600080fd5b820183602082011115620007ba57600080fd5b80359060200191846001830284011164010000000083111715620007dd57600080fd5b91908080601f016020809104026020016040519081016040528093929190818152602001838380828437600081840152601f19601f820116905080830192505050505050509192919290505050620025dd565b005b3480156200083f57600080fd5b506200084a620026e4565b6040518080602001828103825283818151815260200191508051906020019080838360005b838110156200088c5780820151818401526020810190506200086f565b50505050905090810190601f168015620008ba5780820380516001836020036101000a031916815260200191505b509250505060405180910390f35b348015620008d557600080fd5b506200091b60048036036020811015620008ee57600080fd5b81019080803573ffffffffffffffffffffffffffffffffffffffff16906020019092919050505062002786565b6040518080602001806020018573ffffffffffffffffffffffffffffffffffffffff1673ffffffffffffffffffffffffffffffffffffffff168152602001848152602001838103835287818151815260200191508051906020019080838360005b83811015620009995780820151818401526020810190506200097c565b50505050905090810190601f168015620009c75780820380516001836020036101000a031916815260200191505b50838103825286818151815260200191508051906020019080838360005b8381101562000a02578082015181840152602081019050620009e5565b50505050905090810190601f16801562000a305780820380516001836020036101000a031916815260200191505b50965050505050505060405180910390f35b34801562000a4f57600080fd5b5062000a5a6200290e565b6040518082815260200191505060405180910390f35b34801562000a7d57600080fd5b5062000aad6004803603602081101562000a9657600080fd5b810190808035906020019092919050505062002914565b604051808781526020018681526020018060200180602001851515151581526020018473ffffffffffffffffffffffffffffffffffffffff1673ffffffffffffffffffffffffffffffffffffffff168152602001838103835287818151815260200191508051906020019080838360005b8381101562000b3b57808201518184015260208101905062000b1e565b50505050905090810190601f16801562000b695780820380516001836020036101000a031916815260200191505b50838103825286818151815260200191508051906020019080838360005b8381101562000ba457808201518184015260208101905062000b87565b50505050905090810190601f16801562000bd25780820380516001836020036101000a031916815260200191505b509850505050505050505060405180910390f35b34801562000bf357600080fd5b5062000bfe62002ab5565b6040518082815260200191505060405180910390f35b34801562000c2157600080fd5b5062000c2c62002abb565b604051808273ffffffffffffffffffffffffffffffffffffffff1673ffffffffffffffffffffffffffffffffffffffff16815260200191505060405180910390f35b34801562000c7b57600080fd5b5062000c8662002ae0565b604051808273ffffffffffffffffffffffffffffffffffffffff1673ffffffffffffffffffffffffffffffffffffffff16815260200191505060405180910390f35b34801562000cd557600080fd5b5062000e396004803603606081101562000cee57600080fd5b810190808035906020019064010000000081111562000d0c57600080fd5b82018360208201111562000d1f57600080fd5b8035906020019184600183028401116401000000008311171562000d4257600080fd5b91908080601f016020809104026020016040519081016040528093929190818152602001838380828437600081840152601f19601f8201169050808301925050505050505091929192908035906020019064010000000081111562000da657600080fd5b82018360208201111562000db957600080fd5b8035906020019184600183028401116401000000008311171562000ddc57600080fd5b91908080601f016020809104026020016040519081016040528093929190818152602001838380828437600081840152601f19601f8201169050808301925050505050505091929192908035906020019092919050505062002b06565b005b34801562000e4857600080fd5b5062000e5362002da8565b6040518080602001828103825283818151815260200191508051906020019080838360005b8381101562000e9557808201518184015260208101905062000e78565b50505050905090810190601f16801562000ec35780820380516001836020036101000a031916815260200191505b509250505060405180910390f35b34801562000ede57600080fd5b5062000f0e6004803603602081101562000ef757600080fd5b810190808035906020019092919050505062002e4a565b6040518080602001828103825283818151815260200191508051906020019080838360005b8381101562000f5057808201518184015260208101905062000f33565b50505050905090810190601f16801562000f7e5780820380516001836020036101000a031916815260200191505b509250505060405180910390f35b34801562000f9957600080fd5b5062000fa462002f08565b6040518082815260200191505060405180910390f35b34801562000fc757600080fd5b506200100d6004803603602081101562000fe057600080fd5b81019080803573ffffffffffffffffffffffffffffffffffffffff16906020019092919050505062002f0e565b6040518082815260200191505060405180910390f35b3480156200103057600080fd5b506200103b62002f26565b6040518082815260200191505060405180910390f35b620011aa600480360360408110156200106957600080fd5b81019080803590602001906401000000008111156200108757600080fd5b8201836020820111156200109a57600080fd5b80359060200191846001830284011164010000000083111715620010bd57600080fd5b91908080601f016020809104026020016040519081016040528093929190818152602001838380828437600081840152601f19601f820116905080830192505050505050509192919290803590602001906401000000008111156200112157600080fd5b8201836020820111156200113457600080fd5b803590602001918460018302840111640100000000831117156200115757600080fd5b91908080601f016020809104026020016040519081016040528093929190818152602001838380828437600081840152601f19601f82011690508083019250505050505050919291929050505062002f2c565b005b348015620011b957600080fd5b50620011c462003405565b60405180806020018060200186815260200185815260200180602001848103845289818151815260200191508051906020019080838360005b838110156200121a578082015181840152602081019050620011fd565b50505050905090810190601f168015620012485780820380516001836020036101000a031916815260200191505b50848103835288818151815260200191508051906020019080838360005b838110156200128357808201518184015260208101905062001266565b50505050905090810190601f168015620012b15780820380516001836020036101000a031916815260200191505b50848103825285818151815260200191508051906020019080838360005b83811015620012ec578082015181840152602081019050620012cf565b50505050905090810190601f1680156200131a5780820380516001836020036101000a031916815260200191505b509850505050505050505060405180910390f35b3480156200133b57600080fd5b506200149f600480360360608110156200135457600080fd5b81019080803590602001906401000000008111156200137257600080fd5b8201836020820111156200138557600080fd5b80359060200191846001830284011164010000000083111715620013a857600080fd5b91908080601f016020809104026020016040519081016040528093929190818152602001838380828437600081840152601f19601f820116905080830192505050505050509192919290803590602001906401000000008111156200140c57600080fd5b8201836020820111156200141f57600080fd5b803590602001918460018302840111640100000000831117156200144257600080fd5b91908080601f016020809104026020016040519081016040528093929190818152602001838380828437600081840152601f19601f82011690508083019250505050505050919291929080359060200190929190505050620035fd565b005b348015620014ae57600080fd5b50620014b962003750565b604051808273ffffffffffffffffffffffffffffffffffffffff1673ffffffffffffffffffffffffffffffffffffffff16815260200191505060405180910390f35b60008060009054906101000a900473ffffffffffffffffffffffffffffffffffffffff1673ffffffffffffffffffffffffffffffffffffffff163373ffffffffffffffffffffffffffffffffffffffff1614620015c0576040517f08c379a00000000000000000000000000000000000000000000000000000000081526004018080602001828103825260178152602001807f43616c6c6572206973206e6f7420746865206f776e657200000000000000000081525060200191505060405180910390fd5b81601060006101000a81548160ff02191690836003811115620015df57fe5b021790555060016003811115620015f257fe5b826003811115620015ff57fe5b14156200161557660aa87bee538000600f819055505b7f8380c3893c41ffaaf694da88cd05bcc5b16767300762228932eb5bb85e904f16601060009054906101000a900460ff16600f54604051808360038111156200165a57fe5b60ff1681526020018281526020019250505060405180910390a1600f549050919050565b6011600301544210620016f9576040517f08c379a00000000000000000000000000000000000000000000000000000000081526004018080602001828103825260198152602001807f446561646c696e6520616c72656164792041636869657665640000000000000081525060200191505060405180910390fd5b6000339050600160009054906101000a900473ffffffffffffffffffffffffffffffffffffffff16601060016101000a81548173ffffffffffffffffffffffffffffffffffffffff021916908373ffffffffffffffffffffffffffffffffffffffff1602179055506000601060019054906101000a900473ffffffffffffffffffffffffffffffffffffffff1673ffffffffffffffffffffffffffffffffffffffff166370a08231836040518263ffffffff1660e01b8152600401808273ffffffffffffffffffffffffffffffffffffffff1673ffffffffffffffffffffffffffffffffffffffff168152602001915050602060405180830381600087803b1580156200180557600080fd5b505af11580156200181a573d6000803e3d6000fd5b505050506040513d60208110156200183157600080fd5b81019080805190602001909291905050509050808310620018ba576040517f08c379a00000000000000000000000000000000000000000000000000000000081526004018080602001828103825260118152602001807f4e6f7420456e6f75676820746f6b656e7300000000000000000000000000000081525060200191505060405180910390fd5b6000620018d3600f54856200377690919063ffffffff16565b905080601860003373ffffffffffffffffffffffffffffffffffffffff1673ffffffffffffffffffffffffffffffffffffffff16815260200190815260200160002054116200192157600080fd5b80471162001997576040517f08c379a000000000000000000000000000000000000000000000000000000000815260040180806020018281038252601c8152602001807f4e6f7420456e6f75676820457468657220746f207472616e736665720000000081525060200191505060405180910390fd5b80601860008573ffffffffffffffffffffffffffffffffffffffff1673ffffffffffffffffffffffffffffffffffffffff168152602001908152602001600020600082825403925050819055508273ffffffffffffffffffffffffffffffffffffffff166108fc829081150290604051600060405180830381858888f1935050505015801562001a2b573d6000803e3d6000fd5b50601060019054906101000a900473ffffffffffffffffffffffffffffffffffffffff1673ffffffffffffffffffffffffffffffffffffffff16639dc29fac8462001a88670de0b6b3a7640000886200377690919063ffffffff16565b6040518363ffffffff1660e01b8152600401808373ffffffffffffffffffffffffffffffffffffffff1673ffffffffffffffffffffffffffffffffffffffff16815260200182815260200192505050600060405180830381600087803b15801562001af257600080fd5b505af115801562001b07573d6000803e3d6000fd5b5050505050505050565b6000809054906101000a900473ffffffffffffffffffffffffffffffffffffffff1673ffffffffffffffffffffffffffffffffffffffff163373ffffffffffffffffffffffffffffffffffffffff161462001bd4576040517f08c379a00000000000000000000000000000000000000000000000000000000081526004018080602001828103825260178152602001807f43616c6c6572206973206e6f7420746865206f776e657200000000000000000081525060200191505060405180910390fd5b6002600381111562001be257fe5b601060009054906101000a900460ff16600381111562001bfe57fe5b1462001c0957600080fd5b6000341162001c1757600080fd5b34600d6000828254019250508190555062001c40600c54600d546200380190919063ffffffff16565b600f819055507f8380c3893c41ffaaf694da88cd05bcc5b16767300762228932eb5bb85e904f16601060009054906101000a900460ff16600f546040518083600381111562001c8b57fe5b60ff1681526020018281526020019250505060405180910390a1565b601060009054906101000a900460ff1681565b600c5481565b600047905090565b60055481565b60166020528060005260406000206000915054906101000a900460ff1681565b60028054600181600116156101000203166002900480601f01602080910402602001604051908101604052809291908181526020018280546001816001161561010002031660029004801562001d885780601f1062001d5c5761010080835404028352916020019162001d88565b820191906000526020600020905b81548152906001019060200180831162001d6a57829003601f168201915b505050505081565b600f5481565b6000809054906101000a900473ffffffffffffffffffffffffffffffffffffffff1673ffffffffffffffffffffffffffffffffffffffff163373ffffffffffffffffffffffffffffffffffffffff161462001e59576040517f08c379a00000000000000000000000000000000000000000000000000000000081526004018080602001828103825260178152602001807f43616c6c6572206973206e6f7420746865206f776e657200000000000000000081525060200191505060405180910390fd5b600015156019600083815260200190815260200160002060040160009054906101000a900460ff1615151462001ef7576040517f08c379a000000000000000000000000000000000000000000000000000000000815260040180806020018281038252601d8152602001807f54686973205265717565737420616c726561647920457865637574656400000081525060200191505060405180910390fd5b62001f0f60026008546200380190919063ffffffff16565b60196000838152602001908152602001600020600101541162001f9a576040517f08c379a00000000000000000000000000000000000000000000000000000000081526004018080602001828103825260178152602001807f566f746520526573756c74206973204e4547415449564500000000000000000081525060200191505060405180910390fd5b6019600082815260200190815260200160002060040160019054906101000a900473ffffffffffffffffffffffffffffffffffffffff1673ffffffffffffffffffffffffffffffffffffffff166108fc60196000848152602001908152602001600020600001549081150290604051600060405180830381858888f193505050501580156200202d573d6000803e3d6000fd5b50600115156019600083815260200190815260200160002060040160009054906101000a905050507fa284cf4031f940c95fbab070f97ea7bcb884df993d1852728e9d9dd5e4e032c66019600083815260200190815260200160002060040160019054906101000a900473ffffffffffffffffffffffffffffffffffffffff16601960008481526020019081526020016000206003016019600085815260200190815260200160002060000154604051808473ffffffffffffffffffffffffffffffffffffffff1673ffffffffffffffffffffffffffffffffffffffff168152602001806020018381526020018281038252848181546001816001161561010002031660029004815260200191508054600181600116156101000203166002900480156200219f5780601f1062002173576101008083540402835291602001916200219f565b820191906000526020600020905b8154815290600101906020018083116200218157829003601f168201915b505094505050505060405180910390a150565b6000601860003373ffffffffffffffffffffffffffffffffffffffff1673ffffffffffffffffffffffffffffffffffffffff168152602001908152602001600020541162002268576040517f08c379a000000000000000000000000000000000000000000000000000000000815260040180806020018281038252601d8152602001807f496e766573746f72204e6f7420456c696769626c6520746f20564f544500000081525060200191505060405180910390fd5b600015156019600083815260200190815260200160002060050160003373ffffffffffffffffffffffffffffffffffffffff1673ffffffffffffffffffffffffffffffffffffffff16815260200190815260200160002060009054906101000a900460ff1615151462002327576040517f08c379a000000000000000000000000000000000000000000000000000000000815260040180806020018281038252602a8152602001806200513a602a913960400191505060405180910390fd5b60016019600083815260200190815260200160002060050160003373ffffffffffffffffffffffffffffffffffffffff1673ffffffffffffffffffffffffffffffffffffffff16815260200190815260200160002060006101000a81548160ff021916908315150217905550601960008281526020019081526020016000206001016000815480929190600101919050555050565b600a5481565b600b5481565b60095481565b6000809054906101000a900473ffffffffffffffffffffffffffffffffffffffff1673ffffffffffffffffffffffffffffffffffffffff163373ffffffffffffffffffffffffffffffffffffffff161462002491576040517f08c379a00000000000000000000000000000000000000000000000000000000081526004018080602001828103825260178152602001807f43616c6c6572206973206e6f7420746865206f776e657200000000000000000081525060200191505060405180910390fd5b6009600081548092919060010191905055506040518060c00160405280620024cb670de0b6b3a7640000846200377690919063ffffffff16565b8152602001600081526020018581526020018381526020016000151581526020018473ffffffffffffffffffffffffffffffffffffffff16815250601960006009548152602001908152602001600020600082015181600001556020820151816001015560408201518160020190805190602001906200254d92919062003918565b5060608201518160030190805190602001906200256c92919062003918565b5060808201518160040160006101000a81548160ff02191690831515021790555060a08201518160040160016101000a81548173ffffffffffffffffffffffffffffffffffffffff021916908373ffffffffffffffffffffffffffffffffffffffff16021790555090505050505050565b6000809054906101000a900473ffffffffffffffffffffffffffffffffffffffff1673ffffffffffffffffffffffffffffffffffffffff163373ffffffffffffffffffffffffffffffffffffffff1614620026a0576040517f08c379a00000000000000000000000000000000000000000000000000000000081526004018080602001828103825260178152602001807f43616c6c6572206973206e6f7420746865206f776e657200000000000000000081525060200191505060405180910390fd5b600e819080600181540180825580915050906001820390600052602060002001600090919290919091509080519060200190620026df9291906200399f565b505050565b60048054600181600116156101000203166002900480601f0160208091040260200160405190810160405280929190818152602001828054600181600116156101000203166002900480156200277e5780601f1062002752576101008083540402835291602001916200277e565b820191906000526020600020905b8154815290600101906020018083116200276057829003601f168201915b505050505081565b6017602052806000526040600020600091509050806000018054600181600116156101000203166002900480601f016020809104026020016040519081016040528092919081815260200182805460018160011615610100020316600290048015620028365780601f106200280a5761010080835404028352916020019162002836565b820191906000526020600020905b8154815290600101906020018083116200281857829003601f168201915b505050505090806001018054600181600116156101000203166002900480601f016020809104026020016040519081016040528092919081815260200182805460018160011615610100020316600290048015620028d85780601f10620028ac57610100808354040283529160200191620028d8565b820191906000526020600020905b815481529060010190602001808311620028ba57829003601f168201915b5050505050908060020160009054906101000a900473ffffffffffffffffffffffffffffffffffffffff16908060030154905084565b60075481565b6019602052806000526040600020600091509050806000015490806001015490806002018054600181600116156101000203166002900480601f016020809104026020016040519081016040528092919081815260200182805460018160011615610100020316600290048015620029d05780601f10620029a457610100808354040283529160200191620029d0565b820191906000526020600020905b815481529060010190602001808311620029b257829003601f168201915b505050505090806003018054600181600116156101000203166002900480601f01602080910402602001604051908101604052809291908181526020018280546001816001161561010002031660029004801562002a725780601f1062002a465761010080835404028352916020019162002a72565b820191906000526020600020905b81548152906001019060200180831162002a5457829003601f168201915b5050505050908060040160009054906101000a900460ff16908060040160019054906101000a900473ffffffffffffffffffffffffffffffffffffffff16905086565b600d5481565b6000809054906101000a900473ffffffffffffffffffffffffffffffffffffffff1681565b600160009054906101000a900473ffffffffffffffffffffffffffffffffffffffff1681565b6000809054906101000a900473ffffffffffffffffffffffffffffffffffffffff1673ffffffffffffffffffffffffffffffffffffffff163373ffffffffffffffffffffffffffffffffffffffff161462002bc9576040517f08c379a00000000000000000000000000000000000000000000000000000000081526004018080602001828103825260178152602001807f43616c6c6572206973206e6f7420746865206f776e657200000000000000000081525060200191505060405180910390fd5b82828260405162002bda9062003a26565b808060200180602001848152602001838103835286818151815260200191508051906020019080838360005b8381101562002c2357808201518184015260208101905062002c06565b50505050905090810190601f16801562002c515780820380516001836020036101000a031916815260200191505b50838103825285818151815260200191508051906020019080838360005b8381101562002c8c57808201518184015260208101905062002c6f565b50505050905090810190601f16801562002cba5780820380516001836020036101000a031916815260200191505b5095505050505050604051809103906000f08015801562002cdf573d6000803e3d6000fd5b50601060016101000a81548173ffffffffffffffffffffffffffffffffffffffff021916908373ffffffffffffffffffffffffffffffffffffffff160217905550601060019054906101000a900473ffffffffffffffffffffffffffffffffffffffff16600160006101000a81548173ffffffffffffffffffffffffffffffffffffffff021916908373ffffffffffffffffffffffffffffffffffffffff160217905550816004908051906020019062002d9b9291906200399f565b5080600581905550505050565b60038054600181600116156101000203166002900480601f01602080910402602001604051908101604052809291908181526020018280546001816001161561010002031660029004801562002e425780601f1062002e165761010080835404028352916020019162002e42565b820191906000526020600020905b81548152906001019060200180831162002e2457829003601f168201915b505050505081565b600e818154811062002e5857fe5b906000526020600020016000915090508054600181600116156101000203166002900480601f01602080910402602001604051908101604052809291908181526020018280546001816001161561010002031660029004801562002f005780601f1062002ed45761010080835404028352916020019162002f00565b820191906000526020600020905b81548152906001019060200180831162002ee257829003601f168201915b505050505081565b60065481565b60186020528060005260406000206000915090505481565b60085481565b6000341162002f3a57600080fd5b600160009054906101000a900473ffffffffffffffffffffffffffffffffffffffff16601060016101000a81548173ffffffffffffffffffffffffffffffffffffffff021916908373ffffffffffffffffffffffffffffffffffffffff160217905550600062002fb6600f54346200380190919063ffffffff16565b9050600033905081601060019054906101000a900473ffffffffffffffffffffffffffffffffffffffff1673ffffffffffffffffffffffffffffffffffffffff166370a08231306040518263ffffffff1660e01b8152600401808273ffffffffffffffffffffffffffffffffffffffff1673ffffffffffffffffffffffffffffffffffffffff168152602001915050602060405180830381600087803b1580156200306057600080fd5b505af115801562003075573d6000803e3d6000fd5b505050506040513d60208110156200308c57600080fd5b8101908080519060200190929190505050101562003112576040517f08c379a00000000000000000000000000000000000000000000000000000000081526004018080602001828103825260178152602001807f546f6b656e205175616e7469747920457863656564656400000000000000000081525060200191505060405180910390fd5b60086000815480929190600101919050555060405180608001604052808581526020018481526020018273ffffffffffffffffffffffffffffffffffffffff16815260200162003174670de0b6b3a7640000856200380190919063ffffffff16565b815250601760003373ffffffffffffffffffffffffffffffffffffffff1673ffffffffffffffffffffffffffffffffffffffff1681526020019081526020016000206000820151816000019080519060200190620031d492919062003918565b506020820151816001019080519060200190620031f392919062003918565b5060408201518160020160006101000a81548173ffffffffffffffffffffffffffffffffffffffff021916908373ffffffffffffffffffffffffffffffffffffffff1602179055506060820151816003015590505034601860008373ffffffffffffffffffffffffffffffffffffffff1673ffffffffffffffffffffffffffffffffffffffff16815260200190815260200160002081905550601060019054906101000a900473ffffffffffffffffffffffffffffffffffffffff1673ffffffffffffffffffffffffffffffffffffffff1663a9059cbb82846040518363ffffffff1660e01b8152600401808373ffffffffffffffffffffffffffffffffffffffff1673ffffffffffffffffffffffffffffffffffffffff16815260200182815260200192505050602060405180830381600087803b1580156200333657600080fd5b505af11580156200334b573d6000803e3d6000fd5b505050506040513d60208110156200336257600080fd5b8101908080519060200190929190505050508160066000828254019250508190555034600c600082825401925050819055507ffe2ff4cf36ff7d2c2b06eb960897ee0d76d9c3e58da12feb7b93e86b226dd3448183604051808373ffffffffffffffffffffffffffffffffffffffff1673ffffffffffffffffffffffffffffffffffffffff1681526020018281526020019250505060405180910390a150505050565b6011806000018054600181600116156101000203166002900480601f016020809104026020016040519081016040528092919081815260200182805460018160011615610100020316600290048015620034a35780601f106200347757610100808354040283529160200191620034a3565b820191906000526020600020905b8154815290600101906020018083116200348557829003601f168201915b505050505090806001018054600181600116156101000203166002900480601f016020809104026020016040519081016040528092919081815260200182805460018160011615610100020316600290048015620035455780601f10620035195761010080835404028352916020019162003545565b820191906000526020600020905b8154815290600101906020018083116200352757829003601f168201915b505050505090806002015490806003015490806004018054600181600116156101000203166002900480601f016020809104026020016040519081016040528092919081815260200182805460018160011615610100020316600290048015620035f35780601f10620035c757610100808354040283529160200191620035f3565b820191906000526020600020905b815481529060010190602001808311620035d557829003601f168201915b5050505050905085565b6000809054906101000a900473ffffffffffffffffffffffffffffffffffffffff1673ffffffffffffffffffffffffffffffffffffffff163373ffffffffffffffffffffffffffffffffffffffff1614620036c0576040517f08c379a00000000000000000000000000000000000000000000000000000000081526004018080602001828103825260178152602001807f43616c6c6572206973206e6f7420746865206f776e657200000000000000000081525060200191505060405180910390fd5b600260116000019080546001816001161561010002031660029004620036e892919062003a34565b508260116001019080519060200190620037049291906200399f565b5082600390805190602001906200371d9291906200399f565b508160116004019080519060200190620037399291906200399f565b506201518081024201601160030181905550505050565b601060019054906101000a900473ffffffffffffffffffffffffffffffffffffffff1681565b6000808314156200378b5760009050620037fb565b60008284029050828482816200379d57fe5b0414620037f6576040517f08c379a0000000000000000000000000000000000000000000000000000000008152600401808060200182810382526021815260200180620051196021913960400191505060405180910390fd5b809150505b92915050565b60006200384583836040518060400160405280601a81526020017f536166654d6174683a206469766973696f6e206279207a65726f0000000000008152506200384d565b905092915050565b60008083118290620038fd576040517f08c379a00000000000000000000000000000000000000000000000000000000081526004018080602001828103825283818151815260200191508051906020019080838360005b83811015620038c1578082015181840152602081019050620038a4565b50505050905090810190601f168015620038ef5780820380516001836020036101000a031916815260200191505b509250505060405180910390fd5b5060008385816200390a57fe5b049050809150509392505050565b828054600181600116156101000203166002900490600052602060002090601f016020900481019282601f106200395b57805160ff19168380011785556200398c565b828001600101855582156200398c579182015b828111156200398b5782518255916020019190600101906200396e565b5b5090506200399b919062003ac2565b5090565b828054600181600116156101000203166002900490600052602060002090601f016020900481019282601f10620039e257805160ff191683800117855562003a13565b8280016001018555821562003a13579182015b8281111562003a12578251825591602001919060010190620039f5565b5b50905062003a22919062003ac2565b5090565b61162e8062003aeb83390190565b828054600181600116156101000203166002900490600052602060002090601f016020900481019282601f1062003a6f578054855562003aaf565b8280016001018555821562003aaf57600052602060002091601f016020900482015b8281111562003aae57825482559160010191906001019062003a91565b5b50905062003abe919062003ac2565b5090565b62003ae791905b8082111562003ae357600081600090555060010162003ac9565b5090565b9056fe608060405260126002553480156200001657600080fd5b506040516200162e3803806200162e833981810160405260608110156200003c57600080fd5b81019080805160405193929190846401000000008211156200005d57600080fd5b838201915060208201858111156200007457600080fd5b82518660018202830111640100000000821117156200009257600080fd5b8083526020830192505050908051906020019080838360005b83811015620000c8578082015181840152602081019050620000ab565b50505050905090810190601f168015620000f65780820380516001836020036101000a031916815260200191505b50604052602001805160405193929190846401000000008211156200011a57600080fd5b838201915060208201858111156200013157600080fd5b82518660018202830111640100000000821117156200014f57600080fd5b8083526020830192505050908051906020019080838360005b838110156200018557808201518184015260208101905062000168565b50505050905090810190601f168015620001b35780820380516001836020036101000a031916815260200191505b506040526020018051906020019092919050505033600460006101000a81548173ffffffffffffffffffffffffffffffffffffffff021916908373ffffffffffffffffffffffffffffffffffffffff16021790555062000227600254600a0a82620002ca60201b6200111d1790919060201c565b600560003373ffffffffffffffffffffffffffffffffffffffff1673ffffffffffffffffffffffffffffffffffffffff1681526020019081526020016000208190555082600090805190602001906200028292919062000355565b5081600190805190602001906200029b92919062000355565b50620002bb600254600a0a82620002ca60201b6200111d1790919060201c565b60038190555050505062000404565b600080831415620002df57600090506200034f565b6000828402905082848281620002f157fe5b04146200034a576040517f08c379a00000000000000000000000000000000000000000000000000000000081526004018080602001828103825260218152602001806200160d6021913960400191505060405180910390fd5b809150505b92915050565b828054600181600116156101000203166002900490600052602060002090601f016020900481019282601f106200039857805160ff1916838001178555620003c9565b82800160010185558215620003c9579182015b82811115620003c8578251825591602001919060010190620003ab565b5b509050620003d89190620003dc565b5090565b6200040191905b80821115620003fd576000816000905550600101620003e3565b5090565b90565b6111f980620004146000396000f3fe608060405234801561001057600080fd5b50600436106100cf5760003560e01c806370a082311161008c5780639dc29fac116100665780639dc29fac146103fc578063a44b47f71461044a578063a9059cbb14610468578063dd62ed3e146104ce576100cf565b806370a08231146102d75780638da5cb5b1461032f57806395d89b4114610379576100cf565b806306fdde03146100d4578063095ea7b31461015757806318160ddd146101bd57806323b872dd146101db57806327e235e314610261578063313ce567146102b9575b600080fd5b6100dc610546565b6040518080602001828103825283818151815260200191508051906020019080838360005b8381101561011c578082015181840152602081019050610101565b50505050905090810190601f1680156101495780820380516001836020036101000a031916815260200191505b509250505060405180910390f35b6101a36004803603604081101561016d57600080fd5b81019080803573ffffffffffffffffffffffffffffffffffffffff169060200190929190803590602001909291905050506105e4565b604051808215151515815260200191505060405180910390f35b6101c56106d6565b6040518082815260200191505060405180910390f35b610247600480360360608110156101f157600080fd5b81019080803573ffffffffffffffffffffffffffffffffffffffff169060200190929190803573ffffffffffffffffffffffffffffffffffffffff169060200190929190803590602001909291905050506106e0565b604051808215151515815260200191505060405180910390f35b6102a36004803603602081101561027757600080fd5b81019080803573ffffffffffffffffffffffffffffffffffffffff1690602001909291905050506109e7565b6040518082815260200191505060405180910390f35b6102c16109ff565b6040518082815260200191505060405180910390f35b610319600480360360208110156102ed57600080fd5b81019080803573ffffffffffffffffffffffffffffffffffffffff169060200190929190505050610a05565b6040518082815260200191505060405180910390f35b610337610a4e565b604051808273ffffffffffffffffffffffffffffffffffffffff1673ffffffffffffffffffffffffffffffffffffffff16815260200191505060405180910390f35b610381610a74565b6040518080602001828103825283818151815260200191508051906020019080838360005b838110156103c15780820151818401526020810190506103a6565b50505050905090810190601f1680156103ee5780820380516001836020036101000a031916815260200191505b509250505060405180910390f35b6104486004803603604081101561041257600080fd5b81019080803573ffffffffffffffffffffffffffffffffffffffff16906020019092919080359060200190929190505050610b12565b005b610452610d92565b6040518082815260200191505060405180910390f35b6104b46004803603604081101561047e57600080fd5b81019080803573ffffffffffffffffffffffffffffffffffffffff16906020019092919080359060200190929190505050610d98565b604051808215151515815260200191505060405180910390f35b610530600480360360408110156104e457600080fd5b81019080803573ffffffffffffffffffffffffffffffffffffffff169060200190929190803573ffffffffffffffffffffffffffffffffffffffff169060200190929190505050610f8c565b6040518082815260200191505060405180910390f35b60018054600181600116156101000203166002900480601f0160208091040260200160405190810160405280929190818152602001828054600181600116156101000203166002900480156105dc5780601f106105b1576101008083540402835291602001916105dc565b820191906000526020600020905b8154815290600101906020018083116105bf57829003601f168201915b505050505081565b600081600660003373ffffffffffffffffffffffffffffffffffffffff1673ffffffffffffffffffffffffffffffffffffffff16815260200190815260200160002060008573ffffffffffffffffffffffffffffffffffffffff1673ffffffffffffffffffffffffffffffffffffffff168152602001908152602001600020819055508273ffffffffffffffffffffffffffffffffffffffff163373ffffffffffffffffffffffffffffffffffffffff167f8c5be1e5ebec7d5bd14f71427d1e84f3dd0314c0f7b2291e5b200ac8c7c3b925846040518082815260200191505060405180910390a36001905092915050565b6000600354905090565b600081600560008673ffffffffffffffffffffffffffffffffffffffff1673ffffffffffffffffffffffffffffffffffffffff16815260200190815260200160002054101580156107ad575081600660008673ffffffffffffffffffffffffffffffffffffffff1673ffffffffffffffffffffffffffffffffffffffff16815260200190815260200160002060003373ffffffffffffffffffffffffffffffffffffffff1673ffffffffffffffffffffffffffffffffffffffff1681526020019081526020016000205410155b80156107b95750600082115b80156108445750600560008473ffffffffffffffffffffffffffffffffffffffff1673ffffffffffffffffffffffffffffffffffffffff1681526020019081526020016000205482600560008673ffffffffffffffffffffffffffffffffffffffff1673ffffffffffffffffffffffffffffffffffffffff1681526020019081526020016000205401115b156109db5781600560008673ffffffffffffffffffffffffffffffffffffffff1673ffffffffffffffffffffffffffffffffffffffff1681526020019081526020016000206000828254039250508190555081600660008673ffffffffffffffffffffffffffffffffffffffff1673ffffffffffffffffffffffffffffffffffffffff16815260200190815260200160002060003373ffffffffffffffffffffffffffffffffffffffff1673ffffffffffffffffffffffffffffffffffffffff1681526020019081526020016000206000828254039250508190555081600560008573ffffffffffffffffffffffffffffffffffffffff1673ffffffffffffffffffffffffffffffffffffffff168152602001908152602001600020600082825401925050819055508273ffffffffffffffffffffffffffffffffffffffff168473ffffffffffffffffffffffffffffffffffffffff167fddf252ad1be2c89b69c2b068fc378daa952ba7f163c4a11628f55a4df523b3ef846040518082815260200191505060405180910390a3600190506109e0565b600090505b9392505050565b60056020528060005260406000206000915090505481565b60025481565b6000600560008373ffffffffffffffffffffffffffffffffffffffff1673ffffffffffffffffffffffffffffffffffffffff168152602001908152602001600020549050919050565b600460009054906101000a900473ffffffffffffffffffffffffffffffffffffffff1681565b60008054600181600116156101000203166002900480601f016020809104026020016040519081016040528092919081815260200182805460018160011615610100020316600290048015610b0a5780601f10610adf57610100808354040283529160200191610b0a565b820191906000526020600020905b815481529060010190602001808311610aed57829003601f168201915b505050505081565b600073ffffffffffffffffffffffffffffffffffffffff168273ffffffffffffffffffffffffffffffffffffffff161415610bb5576040517f08c379a00000000000000000000000000000000000000000000000000000000081526004018080602001828103825260208152602001807f4552433230206275726e2066726f6d207a65726f20616464726573732077746681525060200191505060405180910390fd5b600460009054906101000a900473ffffffffffffffffffffffffffffffffffffffff1673ffffffffffffffffffffffffffffffffffffffff163373ffffffffffffffffffffffffffffffffffffffff1614610c78576040517f08c379a00000000000000000000000000000000000000000000000000000000081526004018080602001828103825260138152602001807f6f6e6c79206f776e65722063616e206275726e0000000000000000000000000081525060200191505060405180910390fd5b610cca81600560008573ffffffffffffffffffffffffffffffffffffffff1673ffffffffffffffffffffffffffffffffffffffff1681526020019081526020016000205461101390919063ffffffff16565b600560008473ffffffffffffffffffffffffffffffffffffffff1673ffffffffffffffffffffffffffffffffffffffff16815260200190815260200160002081905550610d228160035461101390919063ffffffff16565b600381905550600073ffffffffffffffffffffffffffffffffffffffff168273ffffffffffffffffffffffffffffffffffffffff167fddf252ad1be2c89b69c2b068fc378daa952ba7f163c4a11628f55a4df523b3ef836040518082815260200191505060405180910390a35050565b60035481565b600081600560003373ffffffffffffffffffffffffffffffffffffffff1673ffffffffffffffffffffffffffffffffffffffff1681526020019081526020016000205410158015610de95750600082115b8015610e745750600560008473ffffffffffffffffffffffffffffffffffffffff1673ffffffffffffffffffffffffffffffffffffffff1681526020019081526020016000205482600560008673ffffffffffffffffffffffffffffffffffffffff1673ffffffffffffffffffffffffffffffffffffffff1681526020019081526020016000205401115b15610f815781600560003373ffffffffffffffffffffffffffffffffffffffff1673ffffffffffffffffffffffffffffffffffffffff1681526020019081526020016000206000828254039250508190555081600560008573ffffffffffffffffffffffffffffffffffffffff1673ffffffffffffffffffffffffffffffffffffffff168152602001908152602001600020600082825401925050819055508273ffffffffffffffffffffffffffffffffffffffff163373ffffffffffffffffffffffffffffffffffffffff167fddf252ad1be2c89b69c2b068fc378daa952ba7f163c4a11628f55a4df523b3ef846040518082815260200191505060405180910390a360019050610f86565b600090505b92915050565b6000600660008473ffffffffffffffffffffffffffffffffffffffff1673ffffffffffffffffffffffffffffffffffffffff16815260200190815260200160002060008373ffffffffffffffffffffffffffffffffffffffff1673ffffffffffffffffffffffffffffffffffffffff16815260200190815260200160002054905092915050565b600061105583836040518060400160405280601e81526020017f536166654d6174683a207375627472616374696f6e206f766572666c6f77000081525061105d565b905092915050565b600083831115829061110a576040517f08c379a00000000000000000000000000000000000000000000000000000000081526004018080602001828103825283818151815260200191508051906020019080838360005b838110156110cf5780820151818401526020810190506110b4565b50505050905090810190601f1680156110fc5780820380516001836020036101000a031916815260200191505b509250505060405180910390fd5b5060008385039050809150509392505050565b600080831415611130576000905061119d565b600082840290508284828161114157fe5b0414611198576040517f08c379a00000000000000000000000000000000000000000000000000000000081526004018080602001828103825260218152602001806111a46021913960400191505060405180910390fd5b809150505b9291505056fe536166654d6174683a206d756c7469706c69636174696f6e206f766572666c6f77a265627a7a723158201aeced5d51fdf22a2c73ad93fff97530edcee058c350e5ed8272b77146727f8d64736f6c63430005100032536166654d6174683a206d756c7469706c69636174696f6e206f766572666c6f77536166654d6174683a206d756c7469706c69636174696f6e206f766572666c6f77566f746520416c726561647920726567697374657265642066726f6d2074686973206164647265657373a265627a7a7231582062356ee3db1345b9432e9a51d84dcd5a82cfd6e422e17f7f320897f6e9972c4064736f6c63430005100032a265627a7a7231582082bb2f44813755a82ab09e688833c00d329f1cf6bbda47b88e5ba18cccd5f50e64736f6c63430005100032",
  "source": "pragma solidity ^0.5.1;\r\n\r\nimport \"./MovieContract.sol\";\r\n\r\ncontract FactoryContract {\r\n\r\n\tuint public contractCount;\r\n\taddress[] public contractContainer;\r\n\taddress public recentContract;\r\n\r\n\tmapping(string => address) public NameToMovieContracts;\r\n\tmapping(address => address) public AddressToMovieContracts;\r\n\tmapping(uint => address) public IdToMovieContracts;\r\n\r\n\tfunction newMovieContract(string memory _movieName) public{\r\n\t\tMovieContract instance = new MovieContract(_movieName,msg.sender);\r\n\t\trecentContract = address(instance);\r\n\t\tcontractCount++;\r\n\t\tcontractContainer.push(address(instance));\r\n\t\tAddressToMovieContracts[msg.sender] = address(instance);\r\n\t\tIdToMovieContracts[contractCount] = address(instance);\r\n\t\tNameToMovieContracts[_movieName] = address(instance);\r\n\r\n\t}\r\n\r\n\tfunction checkSpecificContract(string memory _name) public view returns(address){\r\n\t\treturn NameToMovieContracts[_name];\r\n\t}\r\n\r\n\tfunction findByAddress(address _owner) public view returns(address){\r\n\t\treturn AddressToMovieContracts[_owner];\r\n\t}\r\n\t\r\n\tfunction findById(uint _id) public view returns(address){\r\n\t\treturn IdToMovieContracts[_id];\r\n\t}\r\n\t\r\n\r\n}",
  "sourcePath": "C:/Users/dhair/Desktop/eth/proj/CineBlocks/contracts/FactoryContract.sol",
  "compiler": {
    "name": "solc",
    "version": "0.5.16+commit.9c3226ce.Emscripten.clang"
  },
  "schemaVersion": "3.0.22",
  "updatedAt": "2020-09-04T17:20:01.453Z",
  "networkType": "ethereum",
  "devdoc": {
    "methods": {}
  },
  "userdoc": {
    "methods": {}
  }
}