{
  "contractName": "FactoryContract",
  "abi": [
    {
      "constant": true,
      "inputs": [
        {
          "internalType": "address",
          "name": "",
          "type": "address"
        }
      ],
      "name": "AddressToMovieContracts",
      "outputs": [
        {
          "internalType": "address",
          "name": "",
          "type": "address"
        }
      ],
      "payable": false,
      "stateMutability": "view",
      "type": "function"
    },
    {
      "constant": true,
      "inputs": [
        {
          "internalType": "uint256",
          "name": "",
          "type": "uint256"
        }
      ],
      "name": "IdToMovieContracts",
      "outputs": [
        {
          "internalType": "address",
          "name": "",
          "type": "address"
        }
      ],
      "payable": false,
      "stateMutability": "view",
      "type": "function"
    },
    {
      "constant": true,
      "inputs": [
        {
          "internalType": "string",
          "name": "",
          "type": "string"
        }
      ],
      "name": "NameToMovieContracts",
      "outputs": [
        {
          "internalType": "address",
          "name": "",
          "type": "address"
        }
      ],
      "payable": false,
      "stateMutability": "view",
      "type": "function"
    },
    {
      "constant": true,
      "inputs": [
        {
          "internalType": "uint256",
          "name": "",
          "type": "uint256"
        }
      ],
      "name": "contractContainer",
      "outputs": [
        {
          "internalType": "address",
          "name": "",
          "type": "address"
        }
      ],
      "payable": false,
      "stateMutability": "view",
      "type": "function"
    },
    {
      "constant": true,
      "inputs": [],
      "name": "contractCount",
      "outputs": [
        {
          "internalType": "uint256",
          "name": "",
          "type": "uint256"
        }
      ],
      "payable": false,
      "stateMutability": "view",
      "type": "function"
    },
    {
      "constant": true,
      "inputs": [],
      "name": "recentContract",
      "outputs": [
        {
          "internalType": "address",
          "name": "",
          "type": "address"
        }
      ],
      "payable": false,
      "stateMutability": "view",
      "type": "function"
    },
    {
      "constant": false,
      "inputs": [
        {
          "internalType": "string",
          "name": "_movieName",
          "type": "string"
        }
      ],
      "name": "newMovieContract",
      "outputs": [],
      "payable": false,
      "stateMutability": "nonpayable",
      "type": "function"
    },
    {
      "constant": true,
      "inputs": [
        {
          "internalType": "string",
          "name": "_name",
          "type": "string"
        }
      ],
      "name": "checkSpecificContract",
      "outputs": [
        {
          "internalType": "address",
          "name": "",
          "type": "address"
        }
      ],
      "payable": false,
      "stateMutability": "view",
      "type": "function"
    },
    {
      "constant": true,
      "inputs": [
        {
          "internalType": "address",
          "name": "_owner",
          "type": "address"
        }
      ],
      "name": "findByAddress",
      "outputs": [
        {
          "internalType": "address",
          "name": "",
          "type": "address"
        }
      ],
      "payable": false,
      "stateMutability": "view",
      "type": "function"
    },
    {
      "constant": true,
      "inputs": [
        {
          "internalType": "uint256",
          "name": "_id",
          "type": "uint256"
        }
      ],
      "name": "findById",
      "outputs": [
        {
          "internalType": "address",
          "name": "",
          "type": "address"
        }
      ],
      "payable": false,
      "stateMutability": "view",
      "type": "function"
    }
  ],
  "bytecode": "0x608060405234801561001057600080fd5b5061586c806100206000396000f3fe608060405234801561001057600080fd5b506004361061009e5760003560e01c8063a4d07fab11610066578063a4d07fab14610369578063b9885c83146103b3578063da32119714610421578063dc5a4a6f1461048f578063dd0a8311146105135761009e565b806360ed9a6a146100a35780638736381a1461019e57806394bbfc0d146101bc5780639a64a27614610240578063a039a6fe146102ae575b600080fd5b61015c600480360360208110156100b957600080fd5b81019080803590602001906401000000008111156100d657600080fd5b8201836020820111156100e857600080fd5b8035906020019184600183028401116401000000008311171561010a57600080fd5b91908080601f016020809104026020016040519081016040528093929190818152602001838380828437600081840152601f19601f82011690508083019250505050505050919291929050505061060e565b604051808273ffffffffffffffffffffffffffffffffffffffff1673ffffffffffffffffffffffffffffffffffffffff16815260200191505060405180910390f35b6101a6610657565b6040518082815260200191505060405180910390f35b6101fe600480360360208110156101d257600080fd5b81019080803573ffffffffffffffffffffffffffffffffffffffff16906020019092919050505061065d565b604051808273ffffffffffffffffffffffffffffffffffffffff1673ffffffffffffffffffffffffffffffffffffffff16815260200191505060405180910390f35b61026c6004803603602081101561025657600080fd5b81019080803590602001909291905050506106c6565b604051808273ffffffffffffffffffffffffffffffffffffffff1673ffffffffffffffffffffffffffffffffffffffff16815260200191505060405180910390f35b610367600480360360208110156102c457600080fd5b81019080803590602001906401000000008111156102e157600080fd5b8201836020820111156102f357600080fd5b8035906020019184600183028401116401000000008311171561031557600080fd5b91908080601f016020809104026020016040519081016040528093929190818152602001838380828437600081840152601f19601f820116905080830192505050505050509192919290505050610703565b005b610371610a09565b604051808273ffffffffffffffffffffffffffffffffffffffff1673ffffffffffffffffffffffffffffffffffffffff16815260200191505060405180910390f35b6103df600480360360208110156103c957600080fd5b8101908080359060200190929190505050610a2f565b604051808273ffffffffffffffffffffffffffffffffffffffff1673ffffffffffffffffffffffffffffffffffffffff16815260200191505060405180910390f35b61044d6004803603602081101561043757600080fd5b8101908080359060200190929190505050610a62565b604051808273ffffffffffffffffffffffffffffffffffffffff1673ffffffffffffffffffffffffffffffffffffffff16815260200191505060405180910390f35b6104d1600480360360208110156104a557600080fd5b81019080803573ffffffffffffffffffffffffffffffffffffffff169060200190929190505050610a9e565b604051808273ffffffffffffffffffffffffffffffffffffffff1673ffffffffffffffffffffffffffffffffffffffff16815260200191505060405180910390f35b6105cc6004803603602081101561052957600080fd5b810190808035906020019064010000000081111561054657600080fd5b82018360208201111561055857600080fd5b8035906020019184600183028401116401000000008311171561057a57600080fd5b91908080601f016020809104026020016040519081016040528093929190818152602001838380828437600081840152601f19601f820116905080830192505050505050509192919290505050610ad1565b604051808273ffffffffffffffffffffffffffffffffffffffff1673ffffffffffffffffffffffffffffffffffffffff16815260200191505060405180910390f35b6003818051602081018201805184825260208301602085012081835280955050505050506000915054906101000a900473ffffffffffffffffffffffffffffffffffffffff1681565b60005481565b6000600460008373ffffffffffffffffffffffffffffffffffffffff1673ffffffffffffffffffffffffffffffffffffffff16815260200190815260200160002060009054906101000a900473ffffffffffffffffffffffffffffffffffffffff169050919050565b60006005600083815260200190815260200160002060009054906101000a900473ffffffffffffffffffffffffffffffffffffffff169050919050565b6000813360405161071390610b64565b80806020018373ffffffffffffffffffffffffffffffffffffffff1673ffffffffffffffffffffffffffffffffffffffff168152602001828103825284818151815260200191508051906020019080838360005b83811015610782578082015181840152602081019050610767565b50505050905090810190601f1680156107af5780820380516001836020036101000a031916815260200191505b509350505050604051809103906000f0801580156107d1573d6000803e3d6000fd5b50905080600260006101000a81548173ffffffffffffffffffffffffffffffffffffffff021916908373ffffffffffffffffffffffffffffffffffffffff160217905550600080815480929190600101919050555060018190806001815401808255809150509060018203906000526020600020016000909192909190916101000a81548173ffffffffffffffffffffffffffffffffffffffff021916908373ffffffffffffffffffffffffffffffffffffffff1602179055505080600460003373ffffffffffffffffffffffffffffffffffffffff1673ffffffffffffffffffffffffffffffffffffffff16815260200190815260200160002060006101000a81548173ffffffffffffffffffffffffffffffffffffffff021916908373ffffffffffffffffffffffffffffffffffffffff16021790555080600560008054815260200190815260200160002060006101000a81548173ffffffffffffffffffffffffffffffffffffffff021916908373ffffffffffffffffffffffffffffffffffffffff160217905550806003836040518082805190602001908083835b602083106109945780518252602082019150602081019050602083039250610971565b6001836020036101000a038019825116818451168082178552505050505050905001915050908152602001604051809103902060006101000a81548173ffffffffffffffffffffffffffffffffffffffff021916908373ffffffffffffffffffffffffffffffffffffffff1602179055505050565b600260009054906101000a900473ffffffffffffffffffffffffffffffffffffffff1681565b60056020528060005260406000206000915054906101000a900473ffffffffffffffffffffffffffffffffffffffff1681565b60018181548110610a6f57fe5b906000526020600020016000915054906101000a900473ffffffffffffffffffffffffffffffffffffffff1681565b60046020528060005260406000206000915054906101000a900473ffffffffffffffffffffffffffffffffffffffff1681565b60006003826040518082805190602001908083835b60208310610b095780518252602082019150602081019050602083039250610ae6565b6001836020036101000a038019825116818451168082178552505050505050905001915050908152602001604051809103902060009054906101000a900473ffffffffffffffffffffffffffffffffffffffff169050919050565b614cc680610b728339019056fe60806040526103e860075566038d7ea4c68000600f556000601060006101000a81548160ff021916908360038111156200003557fe5b02179055503480156200004757600080fd5b5060405162004cc638038062004cc6833981810160405260408110156200006d57600080fd5b81019080805160405193929190846401000000008211156200008e57600080fd5b83820191506020820185811115620000a557600080fd5b8251866001820283011164010000000082111715620000c357600080fd5b8083526020830192505050908051906020019080838360005b83811015620000f9578082015181840152602081019050620000dc565b50505050905090810190601f168015620001275780820380516001836020036101000a031916815260200191505b5060405260200180519060200190929190505050806000806101000a81548173ffffffffffffffffffffffffffffffffffffffff021916908373ffffffffffffffffffffffffffffffffffffffff160217905550816002908051906020019062000193929190620001a6565b5042601160020181905550505062000255565b828054600181600116156101000203166002900490600052602060002090601f016020900481019282601f10620001e957805160ff19168380011785556200021a565b828001600101855582156200021a579182015b8281111562000219578251825591602001919060010190620001fc565b5b5090506200022991906200022d565b5090565b6200025291905b808211156200024e57600081600090555060010162000234565b5090565b90565b614a6180620002656000396000f3fe608060405260043610620002125760003560e01c80637ff9b596116200011b578063b5f7f63611620000a3578063d9895de0116200006d578063d9895de01462000ef3578063e362bcac146200104e578063f012666e14620011d7578063fc0c546a146200134a5762000212565b8063b5f7f6361462000d63578063cff774441462000d91578063d1375d8f1462000dfa578063d7e64c001462000ec55762000212565b80639d76ea5811620000e55780639d76ea581462000a45578063ae4cc8941462000a9f578063b16a867c1462000c12578063b4c2f7271462000ca85762000212565b80637ff9b596146200081957806381d12c5814620008475780638600151914620009bd5780638da5cb5b14620009eb5762000212565b806327eef6f3116200019f5780635badbe4c11620001695780635badbe4c146200050c578063640ff720146200053a5780636c02a93114620006095780636f7bc9be146200069f5762000212565b806327eef6f314620003ec5780632c4e722e146200048257806342169e4814620004b05780634cc05a7114620004de5762000212565b806310ea13df11620001e157806310ea13df14620002f557806312065fe0146200032357806318160ddd146200035157806320a1d4e5146200037f5762000212565b80630591d3ab14620002175780630ab94086146200026d5780630bbdc98d14620002ac5780630c3f6acf14620002b8575b600080fd5b3480156200022457600080fd5b5062000257600480360360208110156200023d57600080fd5b81019080803560ff169060200190929190505050620013a4565b6040518082815260200191505060405180910390f35b3480156200027a57600080fd5b50620002aa600480360360208110156200029357600080fd5b810190808035906020019092919050505062001527565b005b620002b6620019ae565b005b348015620002c557600080fd5b50620002d062001b60565b60405180826003811115620002e157fe5b60ff16815260200191505060405180910390f35b3480156200030257600080fd5b506200030d62001b73565b6040518082815260200191505060405180910390f35b3480156200033057600080fd5b506200033b62001b79565b6040518082815260200191505060405180910390f35b3480156200035e57600080fd5b506200036962001b81565b6040518082815260200191505060405180910390f35b3480156200038c57600080fd5b50620003d260048036036020811015620003a557600080fd5b81019080803573ffffffffffffffffffffffffffffffffffffffff16906020019092919050505062001b87565b604051808215151515815260200191505060405180910390f35b348015620003f957600080fd5b506200040462001ba7565b6040518080602001828103825283818151815260200191508051906020019080838360005b838110156200044657808201518184015260208101905062000429565b50505050905090810190601f168015620004745780820380516001836020036101000a031916815260200191505b509250505060405180910390f35b3480156200048f57600080fd5b506200049a62001c49565b6040518082815260200191505060405180910390f35b348015620004bd57600080fd5b50620004c862001c4f565b6040518082815260200191505060405180910390f35b348015620004eb57600080fd5b50620004f662001c55565b6040518082815260200191505060405180910390f35b3480156200051957600080fd5b506200052462001c5b565b6040518082815260200191505060405180910390f35b3480156200054757600080fd5b5062000607600480360360208110156200056057600080fd5b81019080803590602001906401000000008111156200057e57600080fd5b8201836020820111156200059157600080fd5b80359060200191846001830284011164010000000083111715620005b457600080fd5b91908080601f016020809104026020016040519081016040528093929190818152602001838380828437600081840152601f19601f82011690508083019250505050505050919291929050505062001c61565b005b3480156200061657600080fd5b506200062162001d68565b6040518080602001828103825283818151815260200191508051906020019080838360005b838110156200066357808201518184015260208101905062000646565b50505050905090810190601f168015620006915780820380516001836020036101000a031916815260200191505b509250505060405180910390f35b348015620006ac57600080fd5b50620006f260048036036020811015620006c557600080fd5b81019080803573ffffffffffffffffffffffffffffffffffffffff16906020019092919050505062001e0a565b6040518080602001806020018573ffffffffffffffffffffffffffffffffffffffff1673ffffffffffffffffffffffffffffffffffffffff168152602001848152602001838103835287818151815260200191508051906020019080838360005b838110156200077057808201518184015260208101905062000753565b50505050905090810190601f1680156200079e5780820380516001836020036101000a031916815260200191505b50838103825286818151815260200191508051906020019080838360005b83811015620007d9578082015181840152602081019050620007bc565b50505050905090810190601f168015620008075780820380516001836020036101000a031916815260200191505b50965050505050505060405180910390f35b3480156200082657600080fd5b506200083162001f92565b6040518082815260200191505060405180910390f35b3480156200085457600080fd5b5062000884600480360360208110156200086d57600080fd5b810190808035906020019092919050505062001f98565b604051808781526020018681526020018060200180602001851515151581526020018473ffffffffffffffffffffffffffffffffffffffff1673ffffffffffffffffffffffffffffffffffffffff168152602001838103835287818151815260200191508051906020019080838360005b8381101562000912578082015181840152602081019050620008f5565b50505050905090810190601f168015620009405780820380516001836020036101000a031916815260200191505b50838103825286818151815260200191508051906020019080838360005b838110156200097b5780820151818401526020810190506200095e565b50505050905090810190601f168015620009a95780820380516001836020036101000a031916815260200191505b509850505050505050505060405180910390f35b348015620009ca57600080fd5b50620009d562002139565b6040518082815260200191505060405180910390f35b348015620009f857600080fd5b5062000a036200213f565b604051808273ffffffffffffffffffffffffffffffffffffffff1673ffffffffffffffffffffffffffffffffffffffff16815260200191505060405180910390f35b34801562000a5257600080fd5b5062000a5d62002164565b604051808273ffffffffffffffffffffffffffffffffffffffff1673ffffffffffffffffffffffffffffffffffffffff16815260200191505060405180910390f35b34801562000aac57600080fd5b5062000c106004803603606081101562000ac557600080fd5b810190808035906020019064010000000081111562000ae357600080fd5b82018360208201111562000af657600080fd5b8035906020019184600183028401116401000000008311171562000b1957600080fd5b91908080601f016020809104026020016040519081016040528093929190818152602001838380828437600081840152601f19601f8201169050808301925050505050505091929192908035906020019064010000000081111562000b7d57600080fd5b82018360208201111562000b9057600080fd5b8035906020019184600183028401116401000000008311171562000bb357600080fd5b91908080601f016020809104026020016040519081016040528093929190818152602001838380828437600081840152601f19601f820116905080830192505050505050509192919290803590602001909291905050506200218a565b005b34801562000c1f57600080fd5b5062000c2a6200242c565b6040518080602001828103825283818151815260200191508051906020019080838360005b8381101562000c6c57808201518184015260208101905062000c4f565b50505050905090810190601f16801562000c9a5780820380516001836020036101000a031916815260200191505b509250505060405180910390f35b34801562000cb557600080fd5b5062000ce56004803603602081101562000cce57600080fd5b8101908080359060200190929190505050620024ce565b6040518080602001828103825283818151815260200191508051906020019080838360005b8381101562000d2757808201518184015260208101905062000d0a565b50505050905090810190601f16801562000d555780820380516001836020036101000a031916815260200191505b509250505060405180910390f35b34801562000d7057600080fd5b5062000d7b6200258c565b6040518082815260200191505060405180910390f35b34801562000d9e57600080fd5b5062000de46004803603602081101562000db757600080fd5b81019080803573ffffffffffffffffffffffffffffffffffffffff16906020019092919050505062002592565b6040518082815260200191505060405180910390f35b62000ec36004803603604081101562000e1257600080fd5b81019080803590602001909291908035906020019064010000000081111562000e3a57600080fd5b82018360208201111562000e4d57600080fd5b8035906020019184600183028401116401000000008311171562000e7057600080fd5b91908080601f016020809104026020016040519081016040528093929190818152602001838380828437600081840152601f19601f820116905080830192505050505050509192919290505050620025aa565b005b34801562000ed257600080fd5b5062000edd620027e0565b6040518082815260200191505060405180910390f35b6200104c6004803603604081101562000f0b57600080fd5b810190808035906020019064010000000081111562000f2957600080fd5b82018360208201111562000f3c57600080fd5b8035906020019184600183028401116401000000008311171562000f5f57600080fd5b91908080601f016020809104026020016040519081016040528093929190818152602001838380828437600081840152601f19601f8201169050808301925050505050505091929192908035906020019064010000000081111562000fc357600080fd5b82018360208201111562000fd657600080fd5b8035906020019184600183028401116401000000008311171562000ff957600080fd5b91908080601f016020809104026020016040519081016040528093929190818152602001838380828437600081840152601f19601f820116905080830192505050505050509192919290505050620027e6565b005b3480156200105b57600080fd5b506200106662002cbf565b6040518080602001806020018781526020018681526020018581526020018060200184810384528a818151815260200191508051906020019080838360005b83811015620010c2578082015181840152602081019050620010a5565b50505050905090810190601f168015620010f05780820380516001836020036101000a031916815260200191505b50848103835289818151815260200191508051906020019080838360005b838110156200112b5780820151818401526020810190506200110e565b50505050905090810190601f168015620011595780820380516001836020036101000a031916815260200191505b50848103825285818151815260200191508051906020019080838360005b838110156200119457808201518184015260208101905062001177565b50505050905090810190601f168015620011c25780820380516001836020036101000a031916815260200191505b50995050505050505050505060405180910390f35b348015620011e457600080fd5b506200134860048036036060811015620011fd57600080fd5b81019080803590602001906401000000008111156200121b57600080fd5b8201836020820111156200122e57600080fd5b803590602001918460018302840111640100000000831117156200125157600080fd5b91908080601f016020809104026020016040519081016040528093929190818152602001838380828437600081840152601f19601f82011690508083019250505050505050919291929080359060200190640100000000811115620012b557600080fd5b820183602082011115620012c857600080fd5b80359060200191846001830284011164010000000083111715620012eb57600080fd5b91908080601f016020809104026020016040519081016040528093929190818152602001838380828437600081840152601f19601f8201169050808301925050505050505091929192908035906020019092919050505062002ebd565b005b3480156200135757600080fd5b506200136262003022565b604051808273ffffffffffffffffffffffffffffffffffffffff1673ffffffffffffffffffffffffffffffffffffffff16815260200191505060405180910390f35b60008060009054906101000a900473ffffffffffffffffffffffffffffffffffffffff1673ffffffffffffffffffffffffffffffffffffffff163373ffffffffffffffffffffffffffffffffffffffff161462001469576040517f08c379a00000000000000000000000000000000000000000000000000000000081526004018080602001828103825260178152602001807f43616c6c6572206973206e6f7420746865206f776e657200000000000000000081525060200191505060405180910390fd5b81601060006101000a81548160ff021916908360038111156200148857fe5b0217905550600160038111156200149b57fe5b826003811115620014a857fe5b1415620014be57660aa87bee538000600f819055505b7f8380c3893c41ffaaf694da88cd05bcc5b16767300762228932eb5bb85e904f16601060009054906101000a900460ff16600f54604051808360038111156200150357fe5b60ff1681526020018281526020019250505060405180910390a1600f549050919050565b6011600301544210620015a2576040517f08c379a00000000000000000000000000000000000000000000000000000000081526004018080602001828103825260198152602001807f446561646c696e6520616c72656164792041636869657665640000000000000081525060200191505060405180910390fd5b6000339050600160009054906101000a900473ffffffffffffffffffffffffffffffffffffffff16601060016101000a81548173ffffffffffffffffffffffffffffffffffffffff021916908373ffffffffffffffffffffffffffffffffffffffff1602179055506000601060019054906101000a900473ffffffffffffffffffffffffffffffffffffffff1673ffffffffffffffffffffffffffffffffffffffff166370a08231836040518263ffffffff1660e01b8152600401808273ffffffffffffffffffffffffffffffffffffffff1673ffffffffffffffffffffffffffffffffffffffff168152602001915050602060405180830381600087803b158015620016ae57600080fd5b505af1158015620016c3573d6000803e3d6000fd5b505050506040513d6020811015620016da57600080fd5b8101908080519060200190929190505050905080831062001763576040517f08c379a00000000000000000000000000000000000000000000000000000000081526004018080602001828103825260118152602001807f4e6f7420456e6f75676820746f6b656e7300000000000000000000000000000081525060200191505060405180910390fd5b60006200177c600f54856200304890919063ffffffff16565b905080601960003373ffffffffffffffffffffffffffffffffffffffff1673ffffffffffffffffffffffffffffffffffffffff1681526020019081526020016000205411620017ca57600080fd5b80471162001840576040517f08c379a000000000000000000000000000000000000000000000000000000000815260040180806020018281038252601c8152602001807f4e6f7420456e6f75676820457468657220746f207472616e736665720000000081525060200191505060405180910390fd5b80601960008573ffffffffffffffffffffffffffffffffffffffff1673ffffffffffffffffffffffffffffffffffffffff16815260200190815260200160002060008282540392505081905550836006600082825403925050819055508273ffffffffffffffffffffffffffffffffffffffff166108fc829081150290604051600060405180830381858888f19350505050158015620018e4573d6000803e3d6000fd5b50601060019054906101000a900473ffffffffffffffffffffffffffffffffffffffff1673ffffffffffffffffffffffffffffffffffffffff16639dc29fac84866040518363ffffffff1660e01b8152600401808373ffffffffffffffffffffffffffffffffffffffff1673ffffffffffffffffffffffffffffffffffffffff16815260200182815260200192505050600060405180830381600087803b1580156200198f57600080fd5b505af1158015620019a4573d6000803e3d6000fd5b5050505050505050565b6000809054906101000a900473ffffffffffffffffffffffffffffffffffffffff1673ffffffffffffffffffffffffffffffffffffffff163373ffffffffffffffffffffffffffffffffffffffff161462001a71576040517f08c379a00000000000000000000000000000000000000000000000000000000081526004018080602001828103825260178152602001807f43616c6c6572206973206e6f7420746865206f776e657200000000000000000081525060200191505060405180910390fd5b6002600381111562001a7f57fe5b601060009054906101000a900460ff16600381111562001a9b57fe5b1462001aa657600080fd5b6000341162001ab457600080fd5b34600d6000828254019250508190555062001af9670de0b6b3a764000062001aea600c54600d54620030d390919063ffffffff16565b6200304890919063ffffffff16565b600f819055507f8380c3893c41ffaaf694da88cd05bcc5b16767300762228932eb5bb85e904f16601060009054906101000a900460ff16600f546040518083600381111562001b4457fe5b60ff1681526020018281526020019250505060405180910390a1565b601060009054906101000a900460ff1681565b600c5481565b600047905090565b60055481565b60176020528060005260406000206000915054906101000a900460ff1681565b60028054600181600116156101000203166002900480601f01602080910402602001604051908101604052809291908181526020018280546001816001161561010002031660029004801562001c415780601f1062001c155761010080835404028352916020019162001c41565b820191906000526020600020905b81548152906001019060200180831162001c2357829003601f168201915b505050505081565b600f5481565b600a5481565b600b5481565b60095481565b6000809054906101000a900473ffffffffffffffffffffffffffffffffffffffff1673ffffffffffffffffffffffffffffffffffffffff163373ffffffffffffffffffffffffffffffffffffffff161462001d24576040517f08c379a00000000000000000000000000000000000000000000000000000000081526004018080602001828103825260178152602001807f43616c6c6572206973206e6f7420746865206f776e657200000000000000000081525060200191505060405180910390fd5b600e81908060018154018082558091505090600182039060005260206000200160009091929091909150908051906020019062001d63929190620031ea565b505050565b60048054600181600116156101000203166002900480601f01602080910402602001604051908101604052809291908181526020018280546001816001161561010002031660029004801562001e025780601f1062001dd65761010080835404028352916020019162001e02565b820191906000526020600020905b81548152906001019060200180831162001de457829003601f168201915b505050505081565b6018602052806000526040600020600091509050806000018054600181600116156101000203166002900480601f01602080910402602001604051908101604052809291908181526020018280546001816001161561010002031660029004801562001eba5780601f1062001e8e5761010080835404028352916020019162001eba565b820191906000526020600020905b81548152906001019060200180831162001e9c57829003601f168201915b505050505090806001018054600181600116156101000203166002900480601f01602080910402602001604051908101604052809291908181526020018280546001816001161561010002031660029004801562001f5c5780601f1062001f305761010080835404028352916020019162001f5c565b820191906000526020600020905b81548152906001019060200180831162001f3e57829003601f168201915b5050505050908060020160009054906101000a900473ffffffffffffffffffffffffffffffffffffffff16908060030154905084565b60075481565b601a602052806000526040600020600091509050806000015490806001015490806002018054600181600116156101000203166002900480601f016020809104026020016040519081016040528092919081815260200182805460018160011615610100020316600290048015620020545780601f10620020285761010080835404028352916020019162002054565b820191906000526020600020905b8154815290600101906020018083116200203657829003601f168201915b505050505090806003018054600181600116156101000203166002900480601f016020809104026020016040519081016040528092919081815260200182805460018160011615610100020316600290048015620020f65780601f10620020ca57610100808354040283529160200191620020f6565b820191906000526020600020905b815481529060010190602001808311620020d857829003601f168201915b5050505050908060040160009054906101000a900460ff16908060040160019054906101000a900473ffffffffffffffffffffffffffffffffffffffff16905086565b600d5481565b6000809054906101000a900473ffffffffffffffffffffffffffffffffffffffff1681565b600160009054906101000a900473ffffffffffffffffffffffffffffffffffffffff1681565b6000809054906101000a900473ffffffffffffffffffffffffffffffffffffffff1673ffffffffffffffffffffffffffffffffffffffff163373ffffffffffffffffffffffffffffffffffffffff16146200224d576040517f08c379a00000000000000000000000000000000000000000000000000000000081526004018080602001828103825260178152602001807f43616c6c6572206973206e6f7420746865206f776e657200000000000000000081525060200191505060405180910390fd5b8282826040516200225e9062003271565b808060200180602001848152602001838103835286818151815260200191508051906020019080838360005b83811015620022a75780820151818401526020810190506200228a565b50505050905090810190601f168015620022d55780820380516001836020036101000a031916815260200191505b50838103825285818151815260200191508051906020019080838360005b8381101562002310578082015181840152602081019050620022f3565b50505050905090810190601f1680156200233e5780820380516001836020036101000a031916815260200191505b5095505050505050604051809103906000f08015801562002363573d6000803e3d6000fd5b50601060016101000a81548173ffffffffffffffffffffffffffffffffffffffff021916908373ffffffffffffffffffffffffffffffffffffffff160217905550601060019054906101000a900473ffffffffffffffffffffffffffffffffffffffff16600160006101000a81548173ffffffffffffffffffffffffffffffffffffffff021916908373ffffffffffffffffffffffffffffffffffffffff16021790555081600490805190602001906200241f929190620031ea565b5080600581905550505050565b60038054600181600116156101000203166002900480601f016020809104026020016040519081016040528092919081815260200182805460018160011615610100020316600290048015620024c65780601f106200249a57610100808354040283529160200191620024c6565b820191906000526020600020905b815481529060010190602001808311620024a857829003601f168201915b505050505081565b600e8181548110620024dc57fe5b906000526020600020016000915090508054600181600116156101000203166002900480601f016020809104026020016040519081016040528092919081815260200182805460018160011615610100020316600290048015620025845780601f10620025585761010080835404028352916020019162002584565b820191906000526020600020905b8154815290600101906020018083116200256657829003601f168201915b505050505081565b60065481565b60196020528060005260406000206000915090505481565b6000809054906101000a900473ffffffffffffffffffffffffffffffffffffffff1673ffffffffffffffffffffffffffffffffffffffff163373ffffffffffffffffffffffffffffffffffffffff16146200266d576040517f08c379a00000000000000000000000000000000000000000000000000000000081526004018080602001828103825260178152602001807f43616c6c6572206973206e6f7420746865206f776e657200000000000000000081525060200191505060405180910390fd5b6011600401548210620026cc576040517f08c379a000000000000000000000000000000000000000000000000000000000815260040180806020018281038252602181526020018062004a0c6021913960400191505060405180910390fd5b6000809054906101000a900473ffffffffffffffffffffffffffffffffffffffff1673ffffffffffffffffffffffffffffffffffffffff166108fc839081150290604051600060405180830381858888f1935050505015801562002734573d6000803e3d6000fd5b507f54607caf30554497bff9b248e86fb7da8bc90543376aa8fcc4a0337fad5f975a82826040518083815260200180602001828103825283818151815260200191508051906020019080838360005b83811015620027a057808201518184015260208101905062002783565b50505050905090810190601f168015620027ce5780820380516001836020036101000a031916815260200191505b50935050505060405180910390a15050565b60085481565b60003411620027f457600080fd5b600160009054906101000a900473ffffffffffffffffffffffffffffffffffffffff16601060016101000a81548173ffffffffffffffffffffffffffffffffffffffff021916908373ffffffffffffffffffffffffffffffffffffffff160217905550600062002870600f5434620030d390919063ffffffff16565b9050600033905081601060019054906101000a900473ffffffffffffffffffffffffffffffffffffffff1673ffffffffffffffffffffffffffffffffffffffff166370a08231306040518263ffffffff1660e01b8152600401808273ffffffffffffffffffffffffffffffffffffffff1673ffffffffffffffffffffffffffffffffffffffff168152602001915050602060405180830381600087803b1580156200291a57600080fd5b505af11580156200292f573d6000803e3d6000fd5b505050506040513d60208110156200294657600080fd5b81019080805190602001909291905050501015620029cc576040517f08c379a00000000000000000000000000000000000000000000000000000000081526004018080602001828103825260178152602001807f546f6b656e205175616e7469747920457863656564656400000000000000000081525060200191505060405180910390fd5b60086000815480929190600101919050555060405180608001604052808581526020018481526020018273ffffffffffffffffffffffffffffffffffffffff16815260200162002a2e670de0b6b3a764000085620030d390919063ffffffff16565b815250601860003373ffffffffffffffffffffffffffffffffffffffff1673ffffffffffffffffffffffffffffffffffffffff168152602001908152602001600020600082015181600001908051906020019062002a8e9291906200327f565b50602082015181600101908051906020019062002aad9291906200327f565b5060408201518160020160006101000a81548173ffffffffffffffffffffffffffffffffffffffff021916908373ffffffffffffffffffffffffffffffffffffffff1602179055506060820151816003015590505034601960008373ffffffffffffffffffffffffffffffffffffffff1673ffffffffffffffffffffffffffffffffffffffff16815260200190815260200160002081905550601060019054906101000a900473ffffffffffffffffffffffffffffffffffffffff1673ffffffffffffffffffffffffffffffffffffffff1663a9059cbb82846040518363ffffffff1660e01b8152600401808373ffffffffffffffffffffffffffffffffffffffff1673ffffffffffffffffffffffffffffffffffffffff16815260200182815260200192505050602060405180830381600087803b15801562002bf057600080fd5b505af115801562002c05573d6000803e3d6000fd5b505050506040513d602081101562002c1c57600080fd5b8101908080519060200190929190505050508160066000828254019250508190555034600c600082825401925050819055507ffe2ff4cf36ff7d2c2b06eb960897ee0d76d9c3e58da12feb7b93e86b226dd3448183604051808373ffffffffffffffffffffffffffffffffffffffff1673ffffffffffffffffffffffffffffffffffffffff1681526020018281526020019250505060405180910390a150505050565b6011806000018054600181600116156101000203166002900480601f01602080910402602001604051908101604052809291908181526020018280546001816001161561010002031660029004801562002d5d5780601f1062002d315761010080835404028352916020019162002d5d565b820191906000526020600020905b81548152906001019060200180831162002d3f57829003601f168201915b505050505090806001018054600181600116156101000203166002900480601f01602080910402602001604051908101604052809291908181526020018280546001816001161561010002031660029004801562002dff5780601f1062002dd35761010080835404028352916020019162002dff565b820191906000526020600020905b81548152906001019060200180831162002de157829003601f168201915b505050505090806002015490806003015490806004015490806005018054600181600116156101000203166002900480601f01602080910402602001604051908101604052809291908181526020018280546001816001161561010002031660029004801562002eb35780601f1062002e875761010080835404028352916020019162002eb3565b820191906000526020600020905b81548152906001019060200180831162002e9557829003601f168201915b5050505050905086565b6000809054906101000a900473ffffffffffffffffffffffffffffffffffffffff1673ffffffffffffffffffffffffffffffffffffffff163373ffffffffffffffffffffffffffffffffffffffff161462002f80576040517f08c379a00000000000000000000000000000000000000000000000000000000081526004018080602001828103825260178152602001807f43616c6c6572206973206e6f7420746865206f776e657200000000000000000081525060200191505060405180910390fd5b60026011600001908054600181600116156101000203166002900462002fa892919062003306565b50826011600101908051906020019062002fc4929190620031ea565b50826003908051906020019062002fdd929190620031ea565b50816011600501908051906020019062002ff9929190620031ea565b506201518081024201601160030181905550674563918244f40000601160040181905550505050565b601060019054906101000a900473ffffffffffffffffffffffffffffffffffffffff1681565b6000808314156200305d5760009050620030cd565b60008284029050828482816200306f57fe5b0414620030c8576040517f08c379a0000000000000000000000000000000000000000000000000000000008152600401808060200182810382526021815260200180620049eb6021913960400191505060405180910390fd5b809150505b92915050565b60006200311783836040518060400160405280601a81526020017f536166654d6174683a206469766973696f6e206279207a65726f0000000000008152506200311f565b905092915050565b60008083118290620031cf576040517f08c379a00000000000000000000000000000000000000000000000000000000081526004018080602001828103825283818151815260200191508051906020019080838360005b838110156200319357808201518184015260208101905062003176565b50505050905090810190601f168015620031c15780820380516001836020036101000a031916815260200191505b509250505060405180910390fd5b506000838581620031dc57fe5b049050809150509392505050565b828054600181600116156101000203166002900490600052602060002090601f016020900481019282601f106200322d57805160ff19168380011785556200325e565b828001600101855582156200325e579182015b828111156200325d57825182559160200191906001019062003240565b5b5090506200326d919062003394565b5090565b61162e80620033bd83390190565b828054600181600116156101000203166002900490600052602060002090601f016020900481019282601f10620032c257805160ff1916838001178555620032f3565b82800160010185558215620032f3579182015b82811115620032f2578251825591602001919060010190620032d5565b5b50905062003302919062003394565b5090565b828054600181600116156101000203166002900490600052602060002090601f016020900481019282601f1062003341578054855562003381565b828001600101855582156200338157600052602060002091601f016020900482015b828111156200338057825482559160010191906001019062003363565b5b50905062003390919062003394565b5090565b620033b991905b80821115620033b55760008160009055506001016200339b565b5090565b9056fe608060405260126002553480156200001657600080fd5b506040516200162e3803806200162e833981810160405260608110156200003c57600080fd5b81019080805160405193929190846401000000008211156200005d57600080fd5b838201915060208201858111156200007457600080fd5b82518660018202830111640100000000821117156200009257600080fd5b8083526020830192505050908051906020019080838360005b83811015620000c8578082015181840152602081019050620000ab565b50505050905090810190601f168015620000f65780820380516001836020036101000a031916815260200191505b50604052602001805160405193929190846401000000008211156200011a57600080fd5b838201915060208201858111156200013157600080fd5b82518660018202830111640100000000821117156200014f57600080fd5b8083526020830192505050908051906020019080838360005b838110156200018557808201518184015260208101905062000168565b50505050905090810190601f168015620001b35780820380516001836020036101000a031916815260200191505b506040526020018051906020019092919050505033600460006101000a81548173ffffffffffffffffffffffffffffffffffffffff021916908373ffffffffffffffffffffffffffffffffffffffff16021790555062000227600254600a0a82620002ca60201b6200111d1790919060201c565b600560003373ffffffffffffffffffffffffffffffffffffffff1673ffffffffffffffffffffffffffffffffffffffff1681526020019081526020016000208190555082600090805190602001906200028292919062000355565b5081600190805190602001906200029b92919062000355565b50620002bb600254600a0a82620002ca60201b6200111d1790919060201c565b60038190555050505062000404565b600080831415620002df57600090506200034f565b6000828402905082848281620002f157fe5b04146200034a576040517f08c379a00000000000000000000000000000000000000000000000000000000081526004018080602001828103825260218152602001806200160d6021913960400191505060405180910390fd5b809150505b92915050565b828054600181600116156101000203166002900490600052602060002090601f016020900481019282601f106200039857805160ff1916838001178555620003c9565b82800160010185558215620003c9579182015b82811115620003c8578251825591602001919060010190620003ab565b5b509050620003d89190620003dc565b5090565b6200040191905b80821115620003fd576000816000905550600101620003e3565b5090565b90565b6111f980620004146000396000f3fe608060405234801561001057600080fd5b50600436106100cf5760003560e01c806370a082311161008c5780639dc29fac116100665780639dc29fac146103fc578063a44b47f71461044a578063a9059cbb14610468578063dd62ed3e146104ce576100cf565b806370a08231146102d75780638da5cb5b1461032f57806395d89b4114610379576100cf565b806306fdde03146100d4578063095ea7b31461015757806318160ddd146101bd57806323b872dd146101db57806327e235e314610261578063313ce567146102b9575b600080fd5b6100dc610546565b6040518080602001828103825283818151815260200191508051906020019080838360005b8381101561011c578082015181840152602081019050610101565b50505050905090810190601f1680156101495780820380516001836020036101000a031916815260200191505b509250505060405180910390f35b6101a36004803603604081101561016d57600080fd5b81019080803573ffffffffffffffffffffffffffffffffffffffff169060200190929190803590602001909291905050506105e4565b604051808215151515815260200191505060405180910390f35b6101c56106d6565b6040518082815260200191505060405180910390f35b610247600480360360608110156101f157600080fd5b81019080803573ffffffffffffffffffffffffffffffffffffffff169060200190929190803573ffffffffffffffffffffffffffffffffffffffff169060200190929190803590602001909291905050506106e0565b604051808215151515815260200191505060405180910390f35b6102a36004803603602081101561027757600080fd5b81019080803573ffffffffffffffffffffffffffffffffffffffff1690602001909291905050506109e7565b6040518082815260200191505060405180910390f35b6102c16109ff565b6040518082815260200191505060405180910390f35b610319600480360360208110156102ed57600080fd5b81019080803573ffffffffffffffffffffffffffffffffffffffff169060200190929190505050610a05565b6040518082815260200191505060405180910390f35b610337610a4e565b604051808273ffffffffffffffffffffffffffffffffffffffff1673ffffffffffffffffffffffffffffffffffffffff16815260200191505060405180910390f35b610381610a74565b6040518080602001828103825283818151815260200191508051906020019080838360005b838110156103c15780820151818401526020810190506103a6565b50505050905090810190601f1680156103ee5780820380516001836020036101000a031916815260200191505b509250505060405180910390f35b6104486004803603604081101561041257600080fd5b81019080803573ffffffffffffffffffffffffffffffffffffffff16906020019092919080359060200190929190505050610b12565b005b610452610d92565b6040518082815260200191505060405180910390f35b6104b46004803603604081101561047e57600080fd5b81019080803573ffffffffffffffffffffffffffffffffffffffff16906020019092919080359060200190929190505050610d98565b604051808215151515815260200191505060405180910390f35b610530600480360360408110156104e457600080fd5b81019080803573ffffffffffffffffffffffffffffffffffffffff169060200190929190803573ffffffffffffffffffffffffffffffffffffffff169060200190929190505050610f8c565b6040518082815260200191505060405180910390f35b60018054600181600116156101000203166002900480601f0160208091040260200160405190810160405280929190818152602001828054600181600116156101000203166002900480156105dc5780601f106105b1576101008083540402835291602001916105dc565b820191906000526020600020905b8154815290600101906020018083116105bf57829003601f168201915b505050505081565b600081600660003373ffffffffffffffffffffffffffffffffffffffff1673ffffffffffffffffffffffffffffffffffffffff16815260200190815260200160002060008573ffffffffffffffffffffffffffffffffffffffff1673ffffffffffffffffffffffffffffffffffffffff168152602001908152602001600020819055508273ffffffffffffffffffffffffffffffffffffffff163373ffffffffffffffffffffffffffffffffffffffff167f8c5be1e5ebec7d5bd14f71427d1e84f3dd0314c0f7b2291e5b200ac8c7c3b925846040518082815260200191505060405180910390a36001905092915050565b6000600354905090565b600081600560008673ffffffffffffffffffffffffffffffffffffffff1673ffffffffffffffffffffffffffffffffffffffff16815260200190815260200160002054101580156107ad575081600660008673ffffffffffffffffffffffffffffffffffffffff1673ffffffffffffffffffffffffffffffffffffffff16815260200190815260200160002060003373ffffffffffffffffffffffffffffffffffffffff1673ffffffffffffffffffffffffffffffffffffffff1681526020019081526020016000205410155b80156107b95750600082115b80156108445750600560008473ffffffffffffffffffffffffffffffffffffffff1673ffffffffffffffffffffffffffffffffffffffff1681526020019081526020016000205482600560008673ffffffffffffffffffffffffffffffffffffffff1673ffffffffffffffffffffffffffffffffffffffff1681526020019081526020016000205401115b156109db5781600560008673ffffffffffffffffffffffffffffffffffffffff1673ffffffffffffffffffffffffffffffffffffffff1681526020019081526020016000206000828254039250508190555081600660008673ffffffffffffffffffffffffffffffffffffffff1673ffffffffffffffffffffffffffffffffffffffff16815260200190815260200160002060003373ffffffffffffffffffffffffffffffffffffffff1673ffffffffffffffffffffffffffffffffffffffff1681526020019081526020016000206000828254039250508190555081600560008573ffffffffffffffffffffffffffffffffffffffff1673ffffffffffffffffffffffffffffffffffffffff168152602001908152602001600020600082825401925050819055508273ffffffffffffffffffffffffffffffffffffffff168473ffffffffffffffffffffffffffffffffffffffff167fddf252ad1be2c89b69c2b068fc378daa952ba7f163c4a11628f55a4df523b3ef846040518082815260200191505060405180910390a3600190506109e0565b600090505b9392505050565b60056020528060005260406000206000915090505481565b60025481565b6000600560008373ffffffffffffffffffffffffffffffffffffffff1673ffffffffffffffffffffffffffffffffffffffff168152602001908152602001600020549050919050565b600460009054906101000a900473ffffffffffffffffffffffffffffffffffffffff1681565b60008054600181600116156101000203166002900480601f016020809104026020016040519081016040528092919081815260200182805460018160011615610100020316600290048015610b0a5780601f10610adf57610100808354040283529160200191610b0a565b820191906000526020600020905b815481529060010190602001808311610aed57829003601f168201915b505050505081565b600073ffffffffffffffffffffffffffffffffffffffff168273ffffffffffffffffffffffffffffffffffffffff161415610bb5576040517f08c379a00000000000000000000000000000000000000000000000000000000081526004018080602001828103825260208152602001807f4552433230206275726e2066726f6d207a65726f20616464726573732077746681525060200191505060405180910390fd5b600460009054906101000a900473ffffffffffffffffffffffffffffffffffffffff1673ffffffffffffffffffffffffffffffffffffffff163373ffffffffffffffffffffffffffffffffffffffff1614610c78576040517f08c379a00000000000000000000000000000000000000000000000000000000081526004018080602001828103825260138152602001807f6f6e6c79206f776e65722063616e206275726e0000000000000000000000000081525060200191505060405180910390fd5b610cca81600560008573ffffffffffffffffffffffffffffffffffffffff1673ffffffffffffffffffffffffffffffffffffffff1681526020019081526020016000205461101390919063ffffffff16565b600560008473ffffffffffffffffffffffffffffffffffffffff1673ffffffffffffffffffffffffffffffffffffffff16815260200190815260200160002081905550610d228160035461101390919063ffffffff16565b600381905550600073ffffffffffffffffffffffffffffffffffffffff168273ffffffffffffffffffffffffffffffffffffffff167fddf252ad1be2c89b69c2b068fc378daa952ba7f163c4a11628f55a4df523b3ef836040518082815260200191505060405180910390a35050565b60035481565b600081600560003373ffffffffffffffffffffffffffffffffffffffff1673ffffffffffffffffffffffffffffffffffffffff1681526020019081526020016000205410158015610de95750600082115b8015610e745750600560008473ffffffffffffffffffffffffffffffffffffffff1673ffffffffffffffffffffffffffffffffffffffff1681526020019081526020016000205482600560008673ffffffffffffffffffffffffffffffffffffffff1673ffffffffffffffffffffffffffffffffffffffff1681526020019081526020016000205401115b15610f815781600560003373ffffffffffffffffffffffffffffffffffffffff1673ffffffffffffffffffffffffffffffffffffffff1681526020019081526020016000206000828254039250508190555081600560008573ffffffffffffffffffffffffffffffffffffffff1673ffffffffffffffffffffffffffffffffffffffff168152602001908152602001600020600082825401925050819055508273ffffffffffffffffffffffffffffffffffffffff163373ffffffffffffffffffffffffffffffffffffffff167fddf252ad1be2c89b69c2b068fc378daa952ba7f163c4a11628f55a4df523b3ef846040518082815260200191505060405180910390a360019050610f86565b600090505b92915050565b6000600660008473ffffffffffffffffffffffffffffffffffffffff1673ffffffffffffffffffffffffffffffffffffffff16815260200190815260200160002060008373ffffffffffffffffffffffffffffffffffffffff1673ffffffffffffffffffffffffffffffffffffffff16815260200190815260200160002054905092915050565b600061105583836040518060400160405280601e81526020017f536166654d6174683a207375627472616374696f6e206f766572666c6f77000081525061105d565b905092915050565b600083831115829061110a576040517f08c379a00000000000000000000000000000000000000000000000000000000081526004018080602001828103825283818151815260200191508051906020019080838360005b838110156110cf5780820151818401526020810190506110b4565b50505050905090810190601f1680156110fc5780820380516001836020036101000a031916815260200191505b509250505060405180910390fd5b5060008385039050809150509392505050565b600080831415611130576000905061119d565b600082840290508284828161114157fe5b0414611198576040517f08c379a00000000000000000000000000000000000000000000000000000000081526004018080602001828103825260218152602001806111a46021913960400191505060405180910390fd5b809150505b9291505056fe536166654d6174683a206d756c7469706c69636174696f6e206f766572666c6f77a265627a7a723158205254c73e88e97ff7dcf8a24ed6dc142b2974ea4b87c640294550b209209400cb64736f6c63430005100032536166654d6174683a206d756c7469706c69636174696f6e206f766572666c6f77536166654d6174683a206d756c7469706c69636174696f6e206f766572666c6f774f70656e20766f746520746f207769746864726177206d6f72652065746865722ea265627a7a72315820bc40e99d7312fff0d8ee7fac5f9e6c8c34c6b8d018fad142eb70b331f2562ce464736f6c63430005100032a265627a7a72315820df7c1d1c929170ee3b0fc97db3fb36c9bcba500c46da2ac1036e9c674a0346e864736f6c63430005100032",
  "source": "pragma solidity ^0.5.1;\r\n\r\nimport \"./MovieContract.sol\";\r\n\r\ncontract FactoryContract {\r\n\r\n\tuint public contractCount;\r\n\taddress[] public contractContainer;\r\n\taddress public recentContract;\r\n\r\n\tmapping(string => address) public NameToMovieContracts;\r\n\tmapping(address => address) public AddressToMovieContracts;\r\n\tmapping(uint => address) public IdToMovieContracts;\r\n\r\n\tfunction newMovieContract(string memory _movieName) public{\r\n\t\tMovieContract instance = new MovieContract(_movieName,msg.sender);\r\n\t\trecentContract = address(instance);\r\n\t\tcontractCount++;\r\n\t\tcontractContainer.push(address(instance));\r\n\t\tAddressToMovieContracts[msg.sender] = address(instance);\r\n\t\tIdToMovieContracts[contractCount] = address(instance);\r\n\t\tNameToMovieContracts[_movieName] = address(instance);\r\n\r\n\t}\r\n\r\n\tfunction checkSpecificContract(string memory _name) public view returns(address){\r\n\t\treturn NameToMovieContracts[_name];\r\n\t}\r\n\r\n\tfunction findByAddress(address _owner) public view returns(address){\r\n\t\treturn AddressToMovieContracts[_owner];\r\n\t}\r\n\t\r\n\tfunction findById(uint _id) public view returns(address){\r\n\t\treturn IdToMovieContracts[_id];\r\n\t}\r\n\t\r\n\r\n}",
  "sourcePath": "C:/Users/dhair/Desktop/ETH/proj/CineBlocks/contracts/FactoryContract.sol",
  "compiler": {
    "name": "solc",
    "version": "0.5.16+commit.9c3226ce.Emscripten.clang"
  },
  "schemaVersion": "3.0.22",
  "updatedAt": "2020-09-06T14:23:48.287Z",
  "networkType": "ethereum",
  "devdoc": {
    "methods": {}
  },
  "userdoc": {
    "methods": {}
  }
}