{
  "contractName": "MovieContract",
  "abi": [
    {
      "inputs": [
        {
          "internalType": "string",
          "name": "_movieName",
          "type": "string"
        },
        {
          "internalType": "address payable",
          "name": "_movieCreator",
          "type": "address"
        }
      ],
      "payable": false,
      "stateMutability": "nonpayable",
      "type": "constructor"
    },
    {
      "anonymous": false,
      "inputs": [
        {
          "indexed": false,
          "internalType": "address",
          "name": "buyer",
          "type": "address"
        },
        {
          "indexed": false,
          "internalType": "uint256",
          "name": "amount",
          "type": "uint256"
        }
      ],
      "name": "TokenSold",
      "type": "event"
    },
    {
      "anonymous": false,
      "inputs": [
        {
          "indexed": false,
          "internalType": "address",
          "name": "rec",
          "type": "address"
        },
        {
          "indexed": false,
          "internalType": "string",
          "name": "designation",
          "type": "string"
        },
        {
          "indexed": false,
          "internalType": "uint256",
          "name": "amount",
          "type": "uint256"
        }
      ],
      "name": "etherWithdrawn",
      "type": "event"
    },
    {
      "constant": true,
      "inputs": [],
      "name": "creationDate",
      "outputs": [
        {
          "internalType": "uint256",
          "name": "",
          "type": "uint256"
        }
      ],
      "payable": false,
      "stateMutability": "view",
      "type": "function"
    },
    {
      "constant": true,
      "inputs": [],
      "name": "deadline",
      "outputs": [
        {
          "internalType": "uint256",
          "name": "",
          "type": "uint256"
        }
      ],
      "payable": false,
      "stateMutability": "view",
      "type": "function"
    },
    {
      "constant": true,
      "inputs": [
        {
          "internalType": "address",
          "name": "",
          "type": "address"
        }
      ],
      "name": "investedAmount",
      "outputs": [
        {
          "internalType": "uint256",
          "name": "",
          "type": "uint256"
        }
      ],
      "payable": false,
      "stateMutability": "view",
      "type": "function"
    },
    {
      "constant": true,
      "inputs": [],
      "name": "investorCount",
      "outputs": [
        {
          "internalType": "uint256",
          "name": "",
          "type": "uint256"
        }
      ],
      "payable": false,
      "stateMutability": "view",
      "type": "function"
    },
    {
      "constant": true,
      "inputs": [
        {
          "internalType": "address",
          "name": "",
          "type": "address"
        }
      ],
      "name": "investors",
      "outputs": [
        {
          "internalType": "string",
          "name": "name",
          "type": "string"
        },
        {
          "internalType": "string",
          "name": "contactDetails",
          "type": "string"
        },
        {
          "internalType": "address payable",
          "name": "investorAddress",
          "type": "address"
        },
        {
          "internalType": "uint256",
          "name": "tokensBought",
          "type": "uint256"
        }
      ],
      "payable": false,
      "stateMutability": "view",
      "type": "function"
    },
    {
      "constant": true,
      "inputs": [],
      "name": "movie",
      "outputs": [
        {
          "internalType": "string",
          "name": "name",
          "type": "string"
        },
        {
          "internalType": "string",
          "name": "details",
          "type": "string"
        },
        {
          "internalType": "string",
          "name": "ipfsHash",
          "type": "string"
        }
      ],
      "payable": false,
      "stateMutability": "view",
      "type": "function"
    },
    {
      "constant": true,
      "inputs": [],
      "name": "movieName",
      "outputs": [
        {
          "internalType": "string",
          "name": "",
          "type": "string"
        }
      ],
      "payable": false,
      "stateMutability": "view",
      "type": "function"
    },
    {
      "constant": true,
      "inputs": [],
      "name": "owner",
      "outputs": [
        {
          "internalType": "address payable",
          "name": "",
          "type": "address"
        }
      ],
      "payable": false,
      "stateMutability": "view",
      "type": "function"
    },
    {
      "constant": true,
      "inputs": [
        {
          "internalType": "address",
          "name": "",
          "type": "address"
        }
      ],
      "name": "profitAdded",
      "outputs": [
        {
          "internalType": "bool",
          "name": "",
          "type": "bool"
        }
      ],
      "payable": false,
      "stateMutability": "view",
      "type": "function"
    },
    {
      "constant": true,
      "inputs": [],
      "name": "requestCount",
      "outputs": [
        {
          "internalType": "uint256",
          "name": "",
          "type": "uint256"
        }
      ],
      "payable": false,
      "stateMutability": "view",
      "type": "function"
    },
    {
      "constant": true,
      "inputs": [
        {
          "internalType": "uint256",
          "name": "",
          "type": "uint256"
        }
      ],
      "name": "requests",
      "outputs": [
        {
          "internalType": "uint256",
          "name": "amountOfEth",
          "type": "uint256"
        },
        {
          "internalType": "uint256",
          "name": "numberOfVoters",
          "type": "uint256"
        },
        {
          "internalType": "string",
          "name": "description",
          "type": "string"
        },
        {
          "internalType": "string",
          "name": "receiverDesignation",
          "type": "string"
        },
        {
          "internalType": "bool",
          "name": "completed",
          "type": "bool"
        },
        {
          "internalType": "address payable",
          "name": "recipient",
          "type": "address"
        }
      ],
      "payable": false,
      "stateMutability": "view",
      "type": "function"
    },
    {
      "constant": true,
      "inputs": [],
      "name": "token",
      "outputs": [
        {
          "internalType": "contract TokenFactory",
          "name": "",
          "type": "address"
        }
      ],
      "payable": false,
      "stateMutability": "view",
      "type": "function"
    },
    {
      "constant": true,
      "inputs": [],
      "name": "tokenAddress",
      "outputs": [
        {
          "internalType": "address",
          "name": "",
          "type": "address"
        }
      ],
      "payable": false,
      "stateMutability": "view",
      "type": "function"
    },
    {
      "constant": true,
      "inputs": [],
      "name": "tokenName",
      "outputs": [
        {
          "internalType": "string",
          "name": "",
          "type": "string"
        }
      ],
      "payable": false,
      "stateMutability": "view",
      "type": "function"
    },
    {
      "constant": true,
      "inputs": [],
      "name": "tokenPrice",
      "outputs": [
        {
          "internalType": "uint256",
          "name": "",
          "type": "uint256"
        }
      ],
      "payable": false,
      "stateMutability": "view",
      "type": "function"
    },
    {
      "constant": true,
      "inputs": [],
      "name": "totalSupply",
      "outputs": [
        {
          "internalType": "uint256",
          "name": "",
          "type": "uint256"
        }
      ],
      "payable": false,
      "stateMutability": "view",
      "type": "function"
    },
    {
      "constant": true,
      "inputs": [],
      "name": "totalTokenSold",
      "outputs": [
        {
          "internalType": "uint256",
          "name": "",
          "type": "uint256"
        }
      ],
      "payable": false,
      "stateMutability": "view",
      "type": "function"
    },
    {
      "constant": true,
      "inputs": [],
      "name": "voterCount",
      "outputs": [
        {
          "internalType": "uint256",
          "name": "",
          "type": "uint256"
        }
      ],
      "payable": false,
      "stateMutability": "view",
      "type": "function"
    },
    {
      "constant": false,
      "inputs": [
        {
          "internalType": "string",
          "name": "_details",
          "type": "string"
        },
        {
          "internalType": "string",
          "name": "_ipfs",
          "type": "string"
        },
        {
          "internalType": "uint256",
          "name": "_timeInDays",
          "type": "uint256"
        }
      ],
      "name": "addMovie",
      "outputs": [],
      "payable": false,
      "stateMutability": "nonpayable",
      "type": "function"
    },
    {
      "constant": false,
      "inputs": [
        {
          "internalType": "string",
          "name": "_symbol",
          "type": "string"
        },
        {
          "internalType": "string",
          "name": "_name",
          "type": "string"
        },
        {
          "internalType": "uint256",
          "name": "_totalSupply",
          "type": "uint256"
        }
      ],
      "name": "createMovieToken",
      "outputs": [],
      "payable": false,
      "stateMutability": "nonpayable",
      "type": "function"
    },
    {
      "constant": false,
      "inputs": [
        {
          "internalType": "string",
          "name": "_name",
          "type": "string"
        },
        {
          "internalType": "string",
          "name": "_contact",
          "type": "string"
        }
      ],
      "name": "buyMovieTokens",
      "outputs": [],
      "payable": true,
      "stateMutability": "payable",
      "type": "function"
    },
    {
      "constant": false,
      "inputs": [
        {
          "internalType": "string",
          "name": "_desc",
          "type": "string"
        },
        {
          "internalType": "address payable",
          "name": "_rec",
          "type": "address"
        },
        {
          "internalType": "string",
          "name": "_receiverDesignation",
          "type": "string"
        },
        {
          "internalType": "uint256",
          "name": "_val",
          "type": "uint256"
        }
      ],
      "name": "initiateRequest",
      "outputs": [],
      "payable": false,
      "stateMutability": "nonpayable",
      "type": "function"
    },
    {
      "constant": false,
      "inputs": [
        {
          "internalType": "uint256",
          "name": "_index",
          "type": "uint256"
        }
      ],
      "name": "startVoting",
      "outputs": [],
      "payable": false,
      "stateMutability": "nonpayable",
      "type": "function"
    },
    {
      "constant": false,
      "inputs": [
        {
          "internalType": "uint256",
          "name": "_index",
          "type": "uint256"
        }
      ],
      "name": "withdrawEther",
      "outputs": [],
      "payable": false,
      "stateMutability": "nonpayable",
      "type": "function"
    },
    {
      "constant": true,
      "inputs": [],
      "name": "getBalance",
      "outputs": [
        {
          "internalType": "uint256",
          "name": "",
          "type": "uint256"
        }
      ],
      "payable": false,
      "stateMutability": "view",
      "type": "function"
    },
    {
      "constant": false,
      "inputs": [
        {
          "internalType": "uint256",
          "name": "_amountOfTokens",
          "type": "uint256"
        }
      ],
      "name": "unlockEther",
      "outputs": [
        {
          "internalType": "uint256",
          "name": "",
          "type": "uint256"
        }
      ],
      "payable": false,
      "stateMutability": "nonpayable",
      "type": "function"
    }
  ],
  "bytecode": "0x60806040526103e86007553480156200001757600080fd5b506040516200444538038062004445833981810160405260408110156200003d57600080fd5b81019080805160405193929190846401000000008211156200005e57600080fd5b838201915060208201858111156200007557600080fd5b82518660018202830111640100000000821117156200009357600080fd5b8083526020830192505050908051906020019080838360005b83811015620000c9578082015181840152602081019050620000ac565b50505050905090810190601f168015620000f75780820380516001836020036101000a031916815260200191505b5060405260200180519060200190929190505050806000806101000a81548173ffffffffffffffffffffffffffffffffffffffff021916908373ffffffffffffffffffffffffffffffffffffffff16021790555081600290805190602001906200016392919062000173565b5042600881905550505062000222565b828054600181600116156101000203166002900490600052602060002090601f016020900481019282601f10620001b657805160ff1916838001178555620001e7565b82800160010185558215620001e7579182015b82811115620001e6578251825591602001919060010190620001c9565b5b509050620001f69190620001fa565b5090565b6200021f91905b808211156200021b57600081600090555060010162000201565b5090565b90565b61421380620002326000396000f3fe608060405260043610620001a65760003560e01c80636f7bc9be11620000e5578063b5f7f6361162000097578063d9895de0116200006d578063d9895de01462000cc6578063e362bcac1462000e21578063f012666e1462000f95578063fc0c546a146200110857620001a6565b8063b5f7f6361462000c01578063cff774441462000c2f578063d7e64c001462000c9857620001a6565b80636f7bc9be14620006bc5780637ff9b596146200083657806381d12c5814620008645780638da5cb5b14620009da5780639d76ea581462000a34578063ae4cc8941462000a8e57620001a6565b806329dcb0cf116200015d57806342169e48116200013357806342169e4814620004375780635badbe4c1462000465578063623c168f14620004935780636c02a931146200062657620001a6565b806329dcb0cf146200038b5780633bed33ce14620003b95780633d2f5bda14620003f857620001a6565b806305b3441014620001ab5780630ab9408614620001d957806312065fe0146200022c57806318160ddd146200025a57806320a1d4e5146200028857806327eef6f314620002f5575b600080fd5b348015620001b857600080fd5b50620001c362001162565b6040518082815260200191505060405180910390f35b348015620001e657600080fd5b506200021660048036036020811015620001ff57600080fd5b810190808035906020019092919050505062001168565b6040518082815260200191505060405180910390f35b3480156200023957600080fd5b50620002446200153e565b6040518082815260200191505060405180910390f35b3480156200026757600080fd5b506200027262001546565b6040518082815260200191505060405180910390f35b3480156200029557600080fd5b50620002db60048036036020811015620002ae57600080fd5b81019080803573ffffffffffffffffffffffffffffffffffffffff1690602001909291905050506200154c565b604051808215151515815260200191505060405180910390f35b3480156200030257600080fd5b506200030d6200156c565b6040518080602001828103825283818151815260200191508051906020019080838360005b838110156200034f57808201518184015260208101905062000332565b50505050905090810190601f1680156200037d5780820380516001836020036101000a031916815260200191505b509250505060405180910390f35b3480156200039857600080fd5b50620003a36200160e565b6040518082815260200191505060405180910390f35b348015620003c657600080fd5b50620003f660048036036020811015620003df57600080fd5b810190808035906020019092919050505062001614565b005b3480156200040557600080fd5b5062000435600480360360208110156200041e57600080fd5b81019080803590602001909291905050506200195e565b005b3480156200044457600080fd5b506200044f62001b1b565b6040518082815260200191505060405180910390f35b3480156200047257600080fd5b506200047d62001b21565b6040518082815260200191505060405180910390f35b348015620004a057600080fd5b506200062460048036036080811015620004b957600080fd5b8101908080359060200190640100000000811115620004d757600080fd5b820183602082011115620004ea57600080fd5b803590602001918460018302840111640100000000831117156200050d57600080fd5b91908080601f016020809104026020016040519081016040528093929190818152602001838380828437600081840152601f19601f820116905080830192505050505050509192919290803573ffffffffffffffffffffffffffffffffffffffff169060200190929190803590602001906401000000008111156200059157600080fd5b820183602082011115620005a457600080fd5b80359060200191846001830284011164010000000083111715620005c757600080fd5b91908080601f016020809104026020016040519081016040528093929190818152602001838380828437600081840152601f19601f8201169050808301925050505050505091929192908035906020019092919050505062001b27565b005b3480156200063357600080fd5b506200063e62001d1a565b6040518080602001828103825283818151815260200191508051906020019080838360005b838110156200068057808201518184015260208101905062000663565b50505050905090810190601f168015620006ae5780820380516001836020036101000a031916815260200191505b509250505060405180910390f35b348015620006c957600080fd5b506200070f60048036036020811015620006e257600080fd5b81019080803573ffffffffffffffffffffffffffffffffffffffff16906020019092919050505062001dbc565b6040518080602001806020018573ffffffffffffffffffffffffffffffffffffffff1673ffffffffffffffffffffffffffffffffffffffff168152602001848152602001838103835287818151815260200191508051906020019080838360005b838110156200078d57808201518184015260208101905062000770565b50505050905090810190601f168015620007bb5780820380516001836020036101000a031916815260200191505b50838103825286818151815260200191508051906020019080838360005b83811015620007f6578082015181840152602081019050620007d9565b50505050905090810190601f168015620008245780820380516001836020036101000a031916815260200191505b50965050505050505060405180910390f35b3480156200084357600080fd5b506200084e62001f44565b6040518082815260200191505060405180910390f35b3480156200087157600080fd5b50620008a1600480360360208110156200088a57600080fd5b810190808035906020019092919050505062001f4a565b604051808781526020018681526020018060200180602001851515151581526020018473ffffffffffffffffffffffffffffffffffffffff1673ffffffffffffffffffffffffffffffffffffffff168152602001838103835287818151815260200191508051906020019080838360005b838110156200092f57808201518184015260208101905062000912565b50505050905090810190601f1680156200095d5780820380516001836020036101000a031916815260200191505b50838103825286818151815260200191508051906020019080838360005b83811015620009985780820151818401526020810190506200097b565b50505050905090810190601f168015620009c65780820380516001836020036101000a031916815260200191505b509850505050505050505060405180910390f35b348015620009e757600080fd5b50620009f2620020eb565b604051808273ffffffffffffffffffffffffffffffffffffffff1673ffffffffffffffffffffffffffffffffffffffff16815260200191505060405180910390f35b34801562000a4157600080fd5b5062000a4c62002110565b604051808273ffffffffffffffffffffffffffffffffffffffff1673ffffffffffffffffffffffffffffffffffffffff16815260200191505060405180910390f35b34801562000a9b57600080fd5b5062000bff6004803603606081101562000ab457600080fd5b810190808035906020019064010000000081111562000ad257600080fd5b82018360208201111562000ae557600080fd5b8035906020019184600183028401116401000000008311171562000b0857600080fd5b91908080601f016020809104026020016040519081016040528093929190818152602001838380828437600081840152601f19601f8201169050808301925050505050505091929192908035906020019064010000000081111562000b6c57600080fd5b82018360208201111562000b7f57600080fd5b8035906020019184600183028401116401000000008311171562000ba257600080fd5b91908080601f016020809104026020016040519081016040528093929190818152602001838380828437600081840152601f19601f8201169050808301925050505050505091929192908035906020019092919050505062002136565b005b34801562000c0e57600080fd5b5062000c19620023d8565b6040518082815260200191505060405180910390f35b34801562000c3c57600080fd5b5062000c826004803603602081101562000c5557600080fd5b81019080803573ffffffffffffffffffffffffffffffffffffffff169060200190929190505050620023de565b6040518082815260200191505060405180910390f35b34801562000ca557600080fd5b5062000cb0620023f6565b6040518082815260200191505060405180910390f35b62000e1f6004803603604081101562000cde57600080fd5b810190808035906020019064010000000081111562000cfc57600080fd5b82018360208201111562000d0f57600080fd5b8035906020019184600183028401116401000000008311171562000d3257600080fd5b91908080601f016020809104026020016040519081016040528093929190818152602001838380828437600081840152601f19601f8201169050808301925050505050505091929192908035906020019064010000000081111562000d9657600080fd5b82018360208201111562000da957600080fd5b8035906020019184600183028401116401000000008311171562000dcc57600080fd5b91908080601f016020809104026020016040519081016040528093929190818152602001838380828437600081840152601f19601f820116905080830192505050505050509192919290505050620023fc565b005b34801562000e2e57600080fd5b5062000e39620028c5565b60405180806020018060200180602001848103845287818151815260200191508051906020019080838360005b8381101562000e8357808201518184015260208101905062000e66565b50505050905090810190601f16801562000eb15780820380516001836020036101000a031916815260200191505b50848103835286818151815260200191508051906020019080838360005b8381101562000eec57808201518184015260208101905062000ecf565b50505050905090810190601f16801562000f1a5780820380516001836020036101000a031916815260200191505b50848103825285818151815260200191508051906020019080838360005b8381101562000f5557808201518184015260208101905062000f38565b50505050905090810190601f16801562000f835780820380516001836020036101000a031916815260200191505b50965050505050505060405180910390f35b34801562000fa257600080fd5b50620011066004803603606081101562000fbb57600080fd5b810190808035906020019064010000000081111562000fd957600080fd5b82018360208201111562000fec57600080fd5b803590602001918460018302840111640100000000831117156200100f57600080fd5b91908080601f016020809104026020016040519081016040528093929190818152602001838380828437600081840152601f19601f820116905080830192505050505050509192919290803590602001906401000000008111156200107357600080fd5b8201836020820111156200108657600080fd5b80359060200191846001830284011164010000000083111715620010a957600080fd5b91908080601f016020809104026020016040519081016040528093929190818152602001838380828437600081840152601f19601f8201169050808301925050505050505091929192908035906020019092919050505062002ab1565b005b3480156200111557600080fd5b506200112062002be8565b604051808273ffffffffffffffffffffffffffffffffffffffff1673ffffffffffffffffffffffffffffffffffffffff16815260200191505060405180910390f35b60085481565b60006004544210620011e2576040517f08c379a00000000000000000000000000000000000000000000000000000000081526004018080602001828103825260198152602001807f446561646c696e6520616c72656164792041636869657665640000000000000081525060200191505060405180910390fd5b6000339050600160009054906101000a900473ffffffffffffffffffffffffffffffffffffffff16600c60006101000a81548173ffffffffffffffffffffffffffffffffffffffff021916908373ffffffffffffffffffffffffffffffffffffffff1602179055506000600c60009054906101000a900473ffffffffffffffffffffffffffffffffffffffff1673ffffffffffffffffffffffffffffffffffffffff166370a08231836040518263ffffffff1660e01b8152600401808273ffffffffffffffffffffffffffffffffffffffff1673ffffffffffffffffffffffffffffffffffffffff168152602001915050602060405180830381600087803b158015620012ee57600080fd5b505af115801562001303573d6000803e3d6000fd5b505050506040513d60208110156200131a57600080fd5b81019080805190602001909291905050509050806200134b670de0b6b3a76400008662002c0e90919063ffffffff16565b10620013bf576040517f08c379a00000000000000000000000000000000000000000000000000000000081526004018080602001828103825260118152602001807f4e6f7420456e6f75676820746f6b656e7300000000000000000000000000000081525060200191505060405180910390fd5b6000620013dd66038d7ea4c680008662002c0e90919063ffffffff16565b905080601260003373ffffffffffffffffffffffffffffffffffffffff1673ffffffffffffffffffffffffffffffffffffffff16815260200190815260200160002054116200142b57600080fd5b804711620014a1576040517f08c379a000000000000000000000000000000000000000000000000000000000815260040180806020018281038252601c8152602001807f4e6f7420456e6f75676820457468657220746f207472616e736665720000000081525060200191505060405180910390fd5b80601260008573ffffffffffffffffffffffffffffffffffffffff1673ffffffffffffffffffffffffffffffffffffffff168152602001908152602001600020600082825403925050819055508273ffffffffffffffffffffffffffffffffffffffff166108fc829081150290604051600060405180830381858888f1935050505015801562001535573d6000803e3d6000fd5b50505050919050565b600047905090565b60055481565b60106020528060005260406000206000915054906101000a900460ff1681565b60028054600181600116156101000203166002900480601f016020809104026020016040519081016040528092919081815260200182805460018160011615610100020316600290048015620016065780601f10620015da5761010080835404028352916020019162001606565b820191906000526020600020905b815481529060010190602001808311620015e857829003601f168201915b505050505081565b60045481565b6000809054906101000a900473ffffffffffffffffffffffffffffffffffffffff1673ffffffffffffffffffffffffffffffffffffffff163373ffffffffffffffffffffffffffffffffffffffff1614620016d7576040517f08c379a00000000000000000000000000000000000000000000000000000000081526004018080602001828103825260178152602001807f43616c6c6572206973206e6f7420746865206f776e657200000000000000000081525060200191505060405180910390fd5b600015156013600083815260200190815260200160002060040160009054906101000a900460ff161515146200170c57600080fd5b62001724600260095462002c9990919063ffffffff16565b6013600083815260200190815260200160002060010154116200174657600080fd5b6013600082815260200190815260200160002060040160019054906101000a900473ffffffffffffffffffffffffffffffffffffffff1673ffffffffffffffffffffffffffffffffffffffff166108fc60136000848152602001908152602001600020600001549081150290604051600060405180830381858888f19350505050158015620017d9573d6000803e3d6000fd5b50600115156013600083815260200190815260200160002060040160009054906101000a905050507fa284cf4031f940c95fbab070f97ea7bcb884df993d1852728e9d9dd5e4e032c66013600083815260200190815260200160002060040160019054906101000a900473ffffffffffffffffffffffffffffffffffffffff16601360008481526020019081526020016000206003016013600085815260200190815260200160002060000154604051808473ffffffffffffffffffffffffffffffffffffffff1673ffffffffffffffffffffffffffffffffffffffff168152602001806020018381526020018281038252848181546001816001161561010002031660029004815260200191508054600181600116156101000203166002900480156200194b5780601f106200191f576101008083540402835291602001916200194b565b820191906000526020600020905b8154815290600101906020018083116200192d57829003601f168201915b505094505050505060405180910390a150565b6000601260003373ffffffffffffffffffffffffffffffffffffffff1673ffffffffffffffffffffffffffffffffffffffff168152602001908152602001600020541162001a14576040517f08c379a000000000000000000000000000000000000000000000000000000000815260040180806020018281038252601d8152602001807f496e766573746f72204e6f7420456c696769626c6520746f20564f544500000081525060200191505060405180910390fd5b600015156013600083815260200190815260200160002060050160003373ffffffffffffffffffffffffffffffffffffffff1673ffffffffffffffffffffffffffffffffffffffff16815260200190815260200160002060009054906101000a900460ff1615151462001a8657600080fd5b60016013600083815260200190815260200160002060050160003373ffffffffffffffffffffffffffffffffffffffff1673ffffffffffffffffffffffffffffffffffffffff16815260200190815260200160002060006101000a81548160ff021916908315150217905550601360008281526020019081526020016000206001016000815480929190600101919050555050565b600b5481565b600a5481565b6000809054906101000a900473ffffffffffffffffffffffffffffffffffffffff1673ffffffffffffffffffffffffffffffffffffffff163373ffffffffffffffffffffffffffffffffffffffff161462001bea576040517f08c379a00000000000000000000000000000000000000000000000000000000081526004018080602001828103825260178152602001807f43616c6c6572206973206e6f7420746865206f776e657200000000000000000081525060200191505060405180910390fd5b600a600081548092919060010191905055506040518060c00160405280828152602001600081526020018581526020018381526020016000151581526020018473ffffffffffffffffffffffffffffffffffffffff1681525060136000600a5481526020019081526020016000206000820151816000015560208201518160010155604082015181600201908051906020019062001c8a92919062002db0565b50606082015181600301908051906020019062001ca992919062002db0565b5060808201518160040160006101000a81548160ff02191690831515021790555060a08201518160040160016101000a81548173ffffffffffffffffffffffffffffffffffffffff021916908373ffffffffffffffffffffffffffffffffffffffff16021790555090505050505050565b60038054600181600116156101000203166002900480601f01602080910402602001604051908101604052809291908181526020018280546001816001161561010002031660029004801562001db45780601f1062001d885761010080835404028352916020019162001db4565b820191906000526020600020905b81548152906001019060200180831162001d9657829003601f168201915b505050505081565b6011602052806000526040600020600091509050806000018054600181600116156101000203166002900480601f01602080910402602001604051908101604052809291908181526020018280546001816001161561010002031660029004801562001e6c5780601f1062001e405761010080835404028352916020019162001e6c565b820191906000526020600020905b81548152906001019060200180831162001e4e57829003601f168201915b505050505090806001018054600181600116156101000203166002900480601f01602080910402602001604051908101604052809291908181526020018280546001816001161561010002031660029004801562001f0e5780601f1062001ee25761010080835404028352916020019162001f0e565b820191906000526020600020905b81548152906001019060200180831162001ef057829003601f168201915b5050505050908060020160009054906101000a900473ffffffffffffffffffffffffffffffffffffffff16908060030154905084565b60075481565b6013602052806000526040600020600091509050806000015490806001015490806002018054600181600116156101000203166002900480601f016020809104026020016040519081016040528092919081815260200182805460018160011615610100020316600290048015620020065780601f1062001fda5761010080835404028352916020019162002006565b820191906000526020600020905b81548152906001019060200180831162001fe857829003601f168201915b505050505090806003018054600181600116156101000203166002900480601f016020809104026020016040519081016040528092919081815260200182805460018160011615610100020316600290048015620020a85780601f106200207c57610100808354040283529160200191620020a8565b820191906000526020600020905b8154815290600101906020018083116200208a57829003601f168201915b5050505050908060040160009054906101000a900460ff16908060040160019054906101000a900473ffffffffffffffffffffffffffffffffffffffff16905086565b6000809054906101000a900473ffffffffffffffffffffffffffffffffffffffff1681565b600160009054906101000a900473ffffffffffffffffffffffffffffffffffffffff1681565b6000809054906101000a900473ffffffffffffffffffffffffffffffffffffffff1673ffffffffffffffffffffffffffffffffffffffff163373ffffffffffffffffffffffffffffffffffffffff1614620021f9576040517f08c379a00000000000000000000000000000000000000000000000000000000081526004018080602001828103825260178152602001807f43616c6c6572206973206e6f7420746865206f776e657200000000000000000081525060200191505060405180910390fd5b8282826040516200220a9062002e37565b808060200180602001848152602001838103835286818151815260200191508051906020019080838360005b838110156200225357808201518184015260208101905062002236565b50505050905090810190601f168015620022815780820380516001836020036101000a031916815260200191505b50838103825285818151815260200191508051906020019080838360005b83811015620022bc5780820151818401526020810190506200229f565b50505050905090810190601f168015620022ea5780820380516001836020036101000a031916815260200191505b5095505050505050604051809103906000f0801580156200230f573d6000803e3d6000fd5b50600c60006101000a81548173ffffffffffffffffffffffffffffffffffffffff021916908373ffffffffffffffffffffffffffffffffffffffff160217905550600c60009054906101000a900473ffffffffffffffffffffffffffffffffffffffff16600160006101000a81548173ffffffffffffffffffffffffffffffffffffffff021916908373ffffffffffffffffffffffffffffffffffffffff1602179055508160039080519060200190620023cb92919062002e45565b5080600581905550505050565b60065481565b60126020528060005260406000206000915090505481565b60095481565b600034116200240a57600080fd5b600160009054906101000a900473ffffffffffffffffffffffffffffffffffffffff16600c60006101000a81548173ffffffffffffffffffffffffffffffffffffffff021916908373ffffffffffffffffffffffffffffffffffffffff1602179055506000620024863460075462002c0e90919063ffffffff16565b9050600033905081600c60009054906101000a900473ffffffffffffffffffffffffffffffffffffffff1673ffffffffffffffffffffffffffffffffffffffff166370a08231306040518263ffffffff1660e01b8152600401808273ffffffffffffffffffffffffffffffffffffffff1673ffffffffffffffffffffffffffffffffffffffff168152602001915050602060405180830381600087803b1580156200253057600080fd5b505af115801562002545573d6000803e3d6000fd5b505050506040513d60208110156200255c57600080fd5b81019080805190602001909291905050501015620025e2576040517f08c379a00000000000000000000000000000000000000000000000000000000081526004018080602001828103825260178152602001807f546f6b656e205175616e7469747920457863656564656400000000000000000081525060200191505060405180910390fd5b60096000815480929190600101919050555060405180608001604052808581526020018481526020018273ffffffffffffffffffffffffffffffffffffffff16815260200162002644670de0b6b3a76400008562002c9990919063ffffffff16565b815250601160003373ffffffffffffffffffffffffffffffffffffffff1673ffffffffffffffffffffffffffffffffffffffff1681526020019081526020016000206000820151816000019080519060200190620026a492919062002db0565b506020820151816001019080519060200190620026c392919062002db0565b5060408201518160020160006101000a81548173ffffffffffffffffffffffffffffffffffffffff021916908373ffffffffffffffffffffffffffffffffffffffff1602179055506060820151816003015590505034601260008373ffffffffffffffffffffffffffffffffffffffff1673ffffffffffffffffffffffffffffffffffffffff16815260200190815260200160002081905550600c60009054906101000a900473ffffffffffffffffffffffffffffffffffffffff1673ffffffffffffffffffffffffffffffffffffffff1663a9059cbb82846040518363ffffffff1660e01b8152600401808373ffffffffffffffffffffffffffffffffffffffff1673ffffffffffffffffffffffffffffffffffffffff16815260200182815260200192505050602060405180830381600087803b1580156200280657600080fd5b505af11580156200281b573d6000803e3d6000fd5b505050506040513d60208110156200283257600080fd5b810190808051906020019092919050505050816006600082825401925050819055507ffe2ff4cf36ff7d2c2b06eb960897ee0d76d9c3e58da12feb7b93e86b226dd3448183604051808373ffffffffffffffffffffffffffffffffffffffff1673ffffffffffffffffffffffffffffffffffffffff1681526020018281526020019250505060405180910390a150505050565b600d806000018054600181600116156101000203166002900480601f016020809104026020016040519081016040528092919081815260200182805460018160011615610100020316600290048015620029635780601f10620029375761010080835404028352916020019162002963565b820191906000526020600020905b8154815290600101906020018083116200294557829003601f168201915b505050505090806001018054600181600116156101000203166002900480601f01602080910402602001604051908101604052809291908181526020018280546001816001161561010002031660029004801562002a055780601f10620029d95761010080835404028352916020019162002a05565b820191906000526020600020905b815481529060010190602001808311620029e757829003601f168201915b505050505090806002018054600181600116156101000203166002900480601f01602080910402602001604051908101604052809291908181526020018280546001816001161561010002031660029004801562002aa75780601f1062002a7b5761010080835404028352916020019162002aa7565b820191906000526020600020905b81548152906001019060200180831162002a8957829003601f168201915b5050505050905083565b6000809054906101000a900473ffffffffffffffffffffffffffffffffffffffff1673ffffffffffffffffffffffffffffffffffffffff163373ffffffffffffffffffffffffffffffffffffffff161462002b74576040517f08c379a00000000000000000000000000000000000000000000000000000000081526004018080602001828103825260178152602001807f43616c6c6572206973206e6f7420746865206f776e657200000000000000000081525060200191505060405180910390fd5b6002600d600001908054600181600116156101000203166002900462002b9c92919062002ecc565b5082600d600101908051906020019062002bb892919062002e45565b5081600d600201908051906020019062002bd492919062002e45565b506201518081024201600481905550505050565b600c60009054906101000a900473ffffffffffffffffffffffffffffffffffffffff1681565b60008083141562002c23576000905062002c93565b600082840290508284828162002c3557fe5b041462002c8e576040517f08c379a0000000000000000000000000000000000000000000000000000000008152600401808060200182810382526021815260200180620041be6021913960400191505060405180910390fd5b809150505b92915050565b600062002cdd83836040518060400160405280601a81526020017f536166654d6174683a206469766973696f6e206279207a65726f00000000000081525062002ce5565b905092915050565b6000808311829062002d95576040517f08c379a00000000000000000000000000000000000000000000000000000000081526004018080602001828103825283818151815260200191508051906020019080838360005b8381101562002d5957808201518184015260208101905062002d3c565b50505050905090810190601f16801562002d875780820380516001836020036101000a031916815260200191505b509250505060405180910390fd5b50600083858162002da257fe5b049050809150509392505050565b828054600181600116156101000203166002900490600052602060002090601f016020900481019282601f1062002df357805160ff191683800117855562002e24565b8280016001018555821562002e24579182015b8281111562002e2357825182559160200191906001019062002e06565b5b50905062002e33919062002f5a565b5090565b61123b8062002f8383390190565b828054600181600116156101000203166002900490600052602060002090601f016020900481019282601f1062002e8857805160ff191683800117855562002eb9565b8280016001018555821562002eb9579182015b8281111562002eb857825182559160200191906001019062002e9b565b5b50905062002ec8919062002f5a565b5090565b828054600181600116156101000203166002900490600052602060002090601f016020900481019282601f1062002f07578054855562002f47565b8280016001018555821562002f4757600052602060002091601f016020900482015b8281111562002f4657825482559160010191906001019062002f29565b5b50905062002f56919062002f5a565b5090565b62002f7f91905b8082111562002f7b57600081600090555060010162002f61565b5090565b9056fe608060405260126002553480156200001657600080fd5b506040516200123b3803806200123b833981810160405260608110156200003c57600080fd5b81019080805160405193929190846401000000008211156200005d57600080fd5b838201915060208201858111156200007457600080fd5b82518660018202830111640100000000821117156200009257600080fd5b8083526020830192505050908051906020019080838360005b83811015620000c8578082015181840152602081019050620000ab565b50505050905090810190601f168015620000f65780820380516001836020036101000a031916815260200191505b50604052602001805160405193929190846401000000008211156200011a57600080fd5b838201915060208201858111156200013157600080fd5b82518660018202830111640100000000821117156200014f57600080fd5b8083526020830192505050908051906020019080838360005b838110156200018557808201518184015260208101905062000168565b50505050905090810190601f168015620001b35780820380516001836020036101000a031916815260200191505b506040526020018051906020019092919050505033600460006101000a81548173ffffffffffffffffffffffffffffffffffffffff021916908373ffffffffffffffffffffffffffffffffffffffff16021790555062000227600254600a0a82620002ca60201b62000d2a1790919060201c565b600560003373ffffffffffffffffffffffffffffffffffffffff1673ffffffffffffffffffffffffffffffffffffffff1681526020019081526020016000208190555082600090805190602001906200028292919062000355565b5081600190805190602001906200029b92919062000355565b50620002bb600254600a0a82620002ca60201b62000d2a1790919060201c565b60038190555050505062000404565b600080831415620002df57600090506200034f565b6000828402905082848281620002f157fe5b04146200034a576040517f08c379a00000000000000000000000000000000000000000000000000000000081526004018080602001828103825260218152602001806200121a6021913960400191505060405180910390fd5b809150505b92915050565b828054600181600116156101000203166002900490600052602060002090601f016020900481019282601f106200039857805160ff1916838001178555620003c9565b82800160010185558215620003c9579182015b82811115620003c8578251825591602001919060010190620003ab565b5b509050620003d89190620003dc565b5090565b6200040191905b80821115620003fd576000816000905550600101620003e3565b5090565b90565b610e0680620004146000396000f3fe608060405234801561001057600080fd5b50600436106100b45760003560e01c806370a082311161007157806370a08231146102bc5780638da5cb5b1461031457806395d89b411461035e578063a44b47f7146103e1578063a9059cbb146103ff578063dd62ed3e14610465576100b4565b806306fdde03146100b9578063095ea7b31461013c57806318160ddd146101a257806323b872dd146101c057806327e235e314610246578063313ce5671461029e575b600080fd5b6100c16104dd565b6040518080602001828103825283818151815260200191508051906020019080838360005b838110156101015780820151818401526020810190506100e6565b50505050905090810190601f16801561012e5780820380516001836020036101000a031916815260200191505b509250505060405180910390f35b6101886004803603604081101561015257600080fd5b81019080803573ffffffffffffffffffffffffffffffffffffffff1690602001909291908035906020019092919050505061057b565b604051808215151515815260200191505060405180910390f35b6101aa61066d565b6040518082815260200191505060405180910390f35b61022c600480360360608110156101d657600080fd5b81019080803573ffffffffffffffffffffffffffffffffffffffff169060200190929190803573ffffffffffffffffffffffffffffffffffffffff16906020019092919080359060200190929190505050610677565b604051808215151515815260200191505060405180910390f35b6102886004803603602081101561025c57600080fd5b81019080803573ffffffffffffffffffffffffffffffffffffffff16906020019092919050505061097e565b6040518082815260200191505060405180910390f35b6102a6610996565b6040518082815260200191505060405180910390f35b6102fe600480360360208110156102d257600080fd5b81019080803573ffffffffffffffffffffffffffffffffffffffff16906020019092919050505061099c565b6040518082815260200191505060405180910390f35b61031c6109e5565b604051808273ffffffffffffffffffffffffffffffffffffffff1673ffffffffffffffffffffffffffffffffffffffff16815260200191505060405180910390f35b610366610a0b565b6040518080602001828103825283818151815260200191508051906020019080838360005b838110156103a657808201518184015260208101905061038b565b50505050905090810190601f1680156103d35780820380516001836020036101000a031916815260200191505b509250505060405180910390f35b6103e9610aa9565b6040518082815260200191505060405180910390f35b61044b6004803603604081101561041557600080fd5b81019080803573ffffffffffffffffffffffffffffffffffffffff16906020019092919080359060200190929190505050610aaf565b604051808215151515815260200191505060405180910390f35b6104c76004803603604081101561047b57600080fd5b81019080803573ffffffffffffffffffffffffffffffffffffffff169060200190929190803573ffffffffffffffffffffffffffffffffffffffff169060200190929190505050610ca3565b6040518082815260200191505060405180910390f35b60018054600181600116156101000203166002900480601f0160208091040260200160405190810160405280929190818152602001828054600181600116156101000203166002900480156105735780601f1061054857610100808354040283529160200191610573565b820191906000526020600020905b81548152906001019060200180831161055657829003601f168201915b505050505081565b600081600660003373ffffffffffffffffffffffffffffffffffffffff1673ffffffffffffffffffffffffffffffffffffffff16815260200190815260200160002060008573ffffffffffffffffffffffffffffffffffffffff1673ffffffffffffffffffffffffffffffffffffffff168152602001908152602001600020819055508273ffffffffffffffffffffffffffffffffffffffff163373ffffffffffffffffffffffffffffffffffffffff167f8c5be1e5ebec7d5bd14f71427d1e84f3dd0314c0f7b2291e5b200ac8c7c3b925846040518082815260200191505060405180910390a36001905092915050565b6000600354905090565b600081600560008673ffffffffffffffffffffffffffffffffffffffff1673ffffffffffffffffffffffffffffffffffffffff1681526020019081526020016000205410158015610744575081600660008673ffffffffffffffffffffffffffffffffffffffff1673ffffffffffffffffffffffffffffffffffffffff16815260200190815260200160002060003373ffffffffffffffffffffffffffffffffffffffff1673ffffffffffffffffffffffffffffffffffffffff1681526020019081526020016000205410155b80156107505750600082115b80156107db5750600560008473ffffffffffffffffffffffffffffffffffffffff1673ffffffffffffffffffffffffffffffffffffffff1681526020019081526020016000205482600560008673ffffffffffffffffffffffffffffffffffffffff1673ffffffffffffffffffffffffffffffffffffffff1681526020019081526020016000205401115b156109725781600560008673ffffffffffffffffffffffffffffffffffffffff1673ffffffffffffffffffffffffffffffffffffffff1681526020019081526020016000206000828254039250508190555081600660008673ffffffffffffffffffffffffffffffffffffffff1673ffffffffffffffffffffffffffffffffffffffff16815260200190815260200160002060003373ffffffffffffffffffffffffffffffffffffffff1673ffffffffffffffffffffffffffffffffffffffff1681526020019081526020016000206000828254039250508190555081600560008573ffffffffffffffffffffffffffffffffffffffff1673ffffffffffffffffffffffffffffffffffffffff168152602001908152602001600020600082825401925050819055508273ffffffffffffffffffffffffffffffffffffffff168473ffffffffffffffffffffffffffffffffffffffff167fddf252ad1be2c89b69c2b068fc378daa952ba7f163c4a11628f55a4df523b3ef846040518082815260200191505060405180910390a360019050610977565b600090505b9392505050565b60056020528060005260406000206000915090505481565b60025481565b6000600560008373ffffffffffffffffffffffffffffffffffffffff1673ffffffffffffffffffffffffffffffffffffffff168152602001908152602001600020549050919050565b600460009054906101000a900473ffffffffffffffffffffffffffffffffffffffff1681565b60008054600181600116156101000203166002900480601f016020809104026020016040519081016040528092919081815260200182805460018160011615610100020316600290048015610aa15780601f10610a7657610100808354040283529160200191610aa1565b820191906000526020600020905b815481529060010190602001808311610a8457829003601f168201915b505050505081565b60035481565b600081600560003373ffffffffffffffffffffffffffffffffffffffff1673ffffffffffffffffffffffffffffffffffffffff1681526020019081526020016000205410158015610b005750600082115b8015610b8b5750600560008473ffffffffffffffffffffffffffffffffffffffff1673ffffffffffffffffffffffffffffffffffffffff1681526020019081526020016000205482600560008673ffffffffffffffffffffffffffffffffffffffff1673ffffffffffffffffffffffffffffffffffffffff1681526020019081526020016000205401115b15610c985781600560003373ffffffffffffffffffffffffffffffffffffffff1673ffffffffffffffffffffffffffffffffffffffff1681526020019081526020016000206000828254039250508190555081600560008573ffffffffffffffffffffffffffffffffffffffff1673ffffffffffffffffffffffffffffffffffffffff168152602001908152602001600020600082825401925050819055508273ffffffffffffffffffffffffffffffffffffffff163373ffffffffffffffffffffffffffffffffffffffff167fddf252ad1be2c89b69c2b068fc378daa952ba7f163c4a11628f55a4df523b3ef846040518082815260200191505060405180910390a360019050610c9d565b600090505b92915050565b6000600660008473ffffffffffffffffffffffffffffffffffffffff1673ffffffffffffffffffffffffffffffffffffffff16815260200190815260200160002060008373ffffffffffffffffffffffffffffffffffffffff1673ffffffffffffffffffffffffffffffffffffffff16815260200190815260200160002054905092915050565b600080831415610d3d5760009050610daa565b6000828402905082848281610d4e57fe5b0414610da5576040517f08c379a0000000000000000000000000000000000000000000000000000000008152600401808060200182810382526021815260200180610db16021913960400191505060405180910390fd5b809150505b9291505056fe536166654d6174683a206d756c7469706c69636174696f6e206f766572666c6f77a265627a7a72315820bcb15ee37396b4e50fb3590d45b9c77dad14dd2e91536a0086ac89e9f6b1bd5664736f6c63430005100032536166654d6174683a206d756c7469706c69636174696f6e206f766572666c6f77536166654d6174683a206d756c7469706c69636174696f6e206f766572666c6f77a265627a7a72315820359b55be2bb6afe3e0f3353341d29774dd694a4e11b86d0f7c2745697c889c3964736f6c63430005100032",
  "source": "pragma solidity ^0.5.1;\n\nimport \"./TokenFactory.sol\";\nimport \"./SafeMath.sol\";\n\ncontract MovieContract {\n  using SafeMath for uint256;\n\n  address payable public owner;\n  address public tokenAddress;\n  string public movieName;\n  string public tokenName;\n  uint256 public deadline;\n  uint256 public totalSupply;\n  uint256 public totalTokenSold;\n  uint256 public tokenPrice = 1000;\n  uint256 public creationDate;\n  uint256 public investorCount;\n  uint256 public requestCount;\n  uint256 public voterCount;\n  \nTokenFactory public token;\n\n\nconstructor(string memory _movieName, address payable _movieCreator) public{\n    owner = _movieCreator;\n    movieName = _movieName;\n    creationDate = now;\n  }\n// Stucts\n  struct movieDetails{\n    string name;\n    string details;\n    string ipfsHash;\n  }\n\n  struct investorDetails{\n    string name;\n    string contactDetails;\n    address payable investorAddress;\n    uint256 tokensBought;\n  }\n\n  struct WithdrawRequest{\n  \t uint256 amountOfEth;\n     uint256 numberOfVoters;\n  \t string description;\n  \t string receiverDesignation;\n     bool completed;\n     address payable recipient;\n    \n    mapping(address=>bool) voters;\n  }\n\n   movieDetails public movie;\n\n//Mappings\n  mapping (address => bool) public profitAdded;\n  mapping (address => investorDetails)public investors;\n  mapping (address => uint256 ) public investedAmount;\n  mapping (uint256 => WithdrawRequest) public requests;\n  \n\n  modifier  onlyOwner() { \n    require(msg.sender == owner, \"Caller is not the owner\"); \n    _; \n  }\n  \n//Events\n  event TokenSold(address buyer,uint256 amount);\n  event etherWithdrawn(address rec,string designation,uint256 amount);\n\n\n\n  function addMovie(string memory _details, string memory _ipfs, uint256 _timeInDays) public onlyOwner{\n    movie.name = movieName;\n    movie.details = _details;\n    movie.ipfsHash = _ipfs;\n    deadline = now + _timeInDays * 1 days;\n  }\n\n  function  createMovieToken(string memory _symbol, string memory _name, uint256 _totalSupply) public onlyOwner{\n      token = new TokenFactory(_symbol, _name, _totalSupply);\n      tokenAddress = address(token);\n      tokenName = _name;\n      totalSupply = _totalSupply;\n  }\n\n//amountToGive = rate.mul(msg.value); // if user send 1 ETH it will give 1000 tokens.\n  function buyMovieTokens(string memory _name, string memory _contact) public payable{\n    require (msg.value > 0);\n    token = TokenFactory(tokenAddress);\n    uint256 _numberOfTokens = tokenPrice.mul(msg.value);\n    address payable _to = msg.sender;\n\n    require(token.balanceOf(address(this)) >= _numberOfTokens, \"Token Quantity Exceeded\");\n    investorCount++;\n    investors[msg.sender] = investorDetails(_name, _contact,_to,_numberOfTokens.div(1000000000000000000));\n    investedAmount[_to] = msg.value;\n    token.transfer(_to,_numberOfTokens);\n    totalTokenSold += _numberOfTokens;\n    emit TokenSold(_to,_numberOfTokens);\n  }\n\n  function  initiateRequest(string memory _desc,address payable _rec,string memory _receiverDesignation,uint256 _val) public onlyOwner{\n  \trequestCount++;\n  \trequests[requestCount] = WithdrawRequest(_val,0,_desc,_receiverDesignation,false,_rec);\n  }\n  \n  function startVoting(uint256 _index) public{\n  \t\trequire (investedAmount[msg.sender] > 0,\"Investor Not Eligible to VOTE\");\n  \t\trequire (requests[_index].voters[msg.sender] == false);\n\n  \t\trequests[_index].voters[msg.sender] = true;\n  \t\trequests[_index].numberOfVoters++;\t\n  }\n  \n\n  function  withdrawEther(uint256 _index) public onlyOwner{\n    require (requests[_index].completed == false);\n    require (requests[_index].numberOfVoters > investorCount.div(2));\n\n    requests[_index].recipient.transfer(requests[_index].amountOfEth);\n    requests[_index].completed == true;\n    \n    \n    emit etherWithdrawn(requests[_index].recipient,requests[_index].receiverDesignation,requests[_index].amountOfEth);\n  }\n  \n\nfunction getBalance() public view returns(uint256){\n    return address(this).balance;\n}\n\n  function unlockEther(uint256 _amountOfTokens) public returns(uint256){\n    require(now < deadline, \"Deadline already Achieved\");\n    address payable user = msg.sender;\n    token = TokenFactory(tokenAddress);\n  \n    uint256 totalTokens = token.balanceOf(user);\n    require (_amountOfTokens.mul(1000000000000000000) < totalTokens, \"Not Enough tokens\");\n    uint256 totalEth = _amountOfTokens.mul(1000000000000000);\n    require(investedAmount[msg.sender] > totalEth);\n    require(address(this).balance > totalEth, \"Not Enough Ether to transfer\");\n    investedAmount[user] -= totalEth;\n    user.transfer(totalEth);\n    //Deaduct User's Token Balnace ????\n    //Transfer the user's submitted tokens to the contract.\n  }\n    \n   \n}\n",
  "sourcePath": "/home/zaryab/blockchain_begins/all_about_ethereum/dapps/dapp_Jedi/contracts/MovieContract.sol",
  "compiler": {
    "name": "solc",
    "version": "0.5.16+commit.9c3226ce.Emscripten.clang"
  },
  "schemaVersion": "3.0.23",
  "updatedAt": "2020-09-02T12:51:30.813Z",
  "devdoc": {
    "methods": {}
  },
  "userdoc": {
    "methods": {}
  }
}