{
  "contractName": "MovieContract",
  "abi": [
    {
      "inputs": [
        {
          "internalType": "string",
          "name": "_movieName",
          "type": "string"
        },
        {
          "internalType": "address payable",
          "name": "_movieCreator",
          "type": "address"
        }
      ],
      "payable": false,
      "stateMutability": "nonpayable",
      "type": "constructor"
    },
    {
      "constant": true,
      "inputs": [],
      "name": "creationDate",
      "outputs": [
        {
          "internalType": "uint256",
          "name": "",
          "type": "uint256"
        }
      ],
      "payable": false,
      "stateMutability": "view",
      "type": "function"
    },
    {
      "constant": true,
      "inputs": [],
      "name": "deadline",
      "outputs": [
        {
          "internalType": "uint256",
          "name": "",
          "type": "uint256"
        }
      ],
      "payable": false,
      "stateMutability": "view",
      "type": "function"
    },
    {
      "constant": true,
      "inputs": [
        {
          "internalType": "address",
          "name": "",
          "type": "address"
        }
      ],
      "name": "investedAmount",
      "outputs": [
        {
          "internalType": "uint256",
          "name": "",
          "type": "uint256"
        }
      ],
      "payable": false,
      "stateMutability": "view",
      "type": "function"
    },
    {
      "constant": true,
      "inputs": [],
      "name": "investorCount",
      "outputs": [
        {
          "internalType": "uint256",
          "name": "",
          "type": "uint256"
        }
      ],
      "payable": false,
      "stateMutability": "view",
      "type": "function"
    },
    {
      "constant": true,
      "inputs": [
        {
          "internalType": "uint256",
          "name": "",
          "type": "uint256"
        }
      ],
      "name": "investors",
      "outputs": [
        {
          "internalType": "string",
          "name": "name",
          "type": "string"
        },
        {
          "internalType": "string",
          "name": "contactDetails",
          "type": "string"
        },
        {
          "internalType": "address payable",
          "name": "investorAddress",
          "type": "address"
        },
        {
          "internalType": "uint256",
          "name": "tokensBought",
          "type": "uint256"
        }
      ],
      "payable": false,
      "stateMutability": "view",
      "type": "function"
    },
    {
      "constant": true,
      "inputs": [],
      "name": "movie",
      "outputs": [
        {
          "internalType": "string",
          "name": "name",
          "type": "string"
        },
        {
          "internalType": "string",
          "name": "details",
          "type": "string"
        },
        {
          "internalType": "string",
          "name": "ipfsHash",
          "type": "string"
        }
      ],
      "payable": false,
      "stateMutability": "view",
      "type": "function"
    },
    {
      "constant": true,
      "inputs": [],
      "name": "movieName",
      "outputs": [
        {
          "internalType": "string",
          "name": "",
          "type": "string"
        }
      ],
      "payable": false,
      "stateMutability": "view",
      "type": "function"
    },
    {
      "constant": true,
      "inputs": [],
      "name": "owner",
      "outputs": [
        {
          "internalType": "address payable",
          "name": "",
          "type": "address"
        }
      ],
      "payable": false,
      "stateMutability": "view",
      "type": "function"
    },
    {
      "constant": true,
      "inputs": [
        {
          "internalType": "address",
          "name": "",
          "type": "address"
        }
      ],
      "name": "profitAdded",
      "outputs": [
        {
          "internalType": "bool",
          "name": "",
          "type": "bool"
        }
      ],
      "payable": false,
      "stateMutability": "view",
      "type": "function"
    },
    {
      "constant": true,
      "inputs": [],
      "name": "token",
      "outputs": [
        {
          "internalType": "contract TokenFactory",
          "name": "",
          "type": "address"
        }
      ],
      "payable": false,
      "stateMutability": "view",
      "type": "function"
    },
    {
      "constant": true,
      "inputs": [],
      "name": "tokenAddress",
      "outputs": [
        {
          "internalType": "address",
          "name": "",
          "type": "address"
        }
      ],
      "payable": false,
      "stateMutability": "view",
      "type": "function"
    },
    {
      "constant": true,
      "inputs": [],
      "name": "tokenName",
      "outputs": [
        {
          "internalType": "string",
          "name": "",
          "type": "string"
        }
      ],
      "payable": false,
      "stateMutability": "view",
      "type": "function"
    },
    {
      "constant": true,
      "inputs": [],
      "name": "tokenPrice",
      "outputs": [
        {
          "internalType": "uint256",
          "name": "",
          "type": "uint256"
        }
      ],
      "payable": false,
      "stateMutability": "view",
      "type": "function"
    },
    {
      "constant": true,
      "inputs": [],
      "name": "totalSupply",
      "outputs": [
        {
          "internalType": "uint256",
          "name": "",
          "type": "uint256"
        }
      ],
      "payable": false,
      "stateMutability": "view",
      "type": "function"
    },
    {
      "constant": true,
      "inputs": [],
      "name": "totalTokenSold",
      "outputs": [
        {
          "internalType": "uint256",
          "name": "",
          "type": "uint256"
        }
      ],
      "payable": false,
      "stateMutability": "view",
      "type": "function"
    },
    {
      "constant": true,
      "inputs": [],
      "name": "withdrawCount",
      "outputs": [
        {
          "internalType": "uint256",
          "name": "",
          "type": "uint256"
        }
      ],
      "payable": false,
      "stateMutability": "view",
      "type": "function"
    },
    {
      "constant": true,
      "inputs": [
        {
          "internalType": "uint256",
          "name": "",
          "type": "uint256"
        }
      ],
      "name": "withdrawlsByOwner",
      "outputs": [
        {
          "internalType": "address",
          "name": "withdrawnBy",
          "type": "address"
        },
        {
          "internalType": "uint256",
          "name": "amountWithdrawn",
          "type": "uint256"
        },
        {
          "internalType": "uint256",
          "name": "time",
          "type": "uint256"
        },
        {
          "internalType": "string",
          "name": "reason",
          "type": "string"
        }
      ],
      "payable": false,
      "stateMutability": "view",
      "type": "function"
    },
    {
      "constant": false,
      "inputs": [
        {
          "internalType": "string",
          "name": "_details",
          "type": "string"
        },
        {
          "internalType": "string",
          "name": "_ipfs",
          "type": "string"
        },
        {
          "internalType": "uint256",
          "name": "_timeInDays",
          "type": "uint256"
        }
      ],
      "name": "addMovie",
      "outputs": [],
      "payable": false,
      "stateMutability": "nonpayable",
      "type": "function"
    },
    {
      "constant": false,
      "inputs": [
        {
          "internalType": "string",
          "name": "_symbol",
          "type": "string"
        },
        {
          "internalType": "string",
          "name": "_name",
          "type": "string"
        },
        {
          "internalType": "uint256",
          "name": "_totalSupply",
          "type": "uint256"
        }
      ],
      "name": "createMovieToken",
      "outputs": [],
      "payable": false,
      "stateMutability": "nonpayable",
      "type": "function"
    }
  ],
  "bytecode": "0x60806040526103e86007553480156200001757600080fd5b5060405162002aae38038062002aae833981810160405260408110156200003d57600080fd5b81019080805160405193929190846401000000008211156200005e57600080fd5b838201915060208201858111156200007557600080fd5b82518660018202830111640100000000821117156200009357600080fd5b8083526020830192505050908051906020019080838360005b83811015620000c9578082015181840152602081019050620000ac565b50505050905090810190601f168015620000f75780820380516001836020036101000a031916815260200191505b5060405260200180519060200190929190505050806000806101000a81548173ffffffffffffffffffffffffffffffffffffffff021916908373ffffffffffffffffffffffffffffffffffffffff16021790555081600290805190602001906200016392919062000173565b5042600881905550505062000222565b828054600181600116156101000203166002900490600052602060002090601f016020900481019282601f10620001b657805160ff1916838001178555620001e7565b82800160010185558215620001e7579182015b82811115620001e6578251825591602001919060010190620001c9565b5b509050620001f69190620001fa565b5090565b6200021f91905b808211156200021b57600081600090555060010162000201565b5090565b90565b61287c80620002326000396000f3fe60806040523480156200001157600080fd5b50600436106200013c5760003560e01c80638da5cb5b11620000bd578063cff77444116200007b578063cff7744414620007b1578063d7e64c00146200080c578063e362bcac146200082c578063f012666e1462000992578063fc0c546a1462000af7576200013c565b80638da5cb5b14620004a65780639b98f71f14620004f25780639d76ea5814620005e0578063ae4cc894146200062c578063b5f7f6361462000791576200013c565b806329dcb0cf116200010b57806329dcb0cf14620002685780633feb5f2b14620002885780634cc05a7114620003de5780636c02a93114620003fe5780637ff9b5961462000486576200013c565b806305b34410146200014157806318160ddd146200016157806320a1d4e5146200018157806327eef6f314620001e0575b600080fd5b6200014b62000b43565b6040518082815260200191505060405180910390f35b6200016b62000b49565b6040518082815260200191505060405180910390f35b620001c6600480360360208110156200019957600080fd5b81019080803573ffffffffffffffffffffffffffffffffffffffff16906020019092919050505062000b4f565b604051808215151515815260200191505060405180910390f35b620001ea62000b6f565b6040518080602001828103825283818151815260200191508051906020019080838360005b838110156200022c5780820151818401526020810190506200020f565b50505050905090810190601f1680156200025a5780820380516001836020036101000a031916815260200191505b509250505060405180910390f35b6200027262000c11565b6040518082815260200191505060405180910390f35b620002b760048036036020811015620002a057600080fd5b810190808035906020019092919050505062000c17565b6040518080602001806020018573ffffffffffffffffffffffffffffffffffffffff1673ffffffffffffffffffffffffffffffffffffffff168152602001848152602001838103835287818151815260200191508051906020019080838360005b838110156200033557808201518184015260208101905062000318565b50505050905090810190601f168015620003635780820380516001836020036101000a031916815260200191505b50838103825286818151815260200191508051906020019080838360005b838110156200039e57808201518184015260208101905062000381565b50505050905090810190601f168015620003cc5780820380516001836020036101000a031916815260200191505b50965050505050505060405180910390f35b620003e862000d9f565b6040518082815260200191505060405180910390f35b6200040862000da5565b6040518080602001828103825283818151815260200191508051906020019080838360005b838110156200044a5780820151818401526020810190506200042d565b50505050905090810190601f168015620004785780820380516001836020036101000a031916815260200191505b509250505060405180910390f35b6200049062000e47565b6040518082815260200191505060405180910390f35b620004b062000e4d565b604051808273ffffffffffffffffffffffffffffffffffffffff1673ffffffffffffffffffffffffffffffffffffffff16815260200191505060405180910390f35b62000521600480360360208110156200050a57600080fd5b810190808035906020019092919050505062000e72565b604051808573ffffffffffffffffffffffffffffffffffffffff1673ffffffffffffffffffffffffffffffffffffffff16815260200184815260200183815260200180602001828103825283818151815260200191508051906020019080838360005b83811015620005a157808201518184015260208101905062000584565b50505050905090810190601f168015620005cf5780820380516001836020036101000a031916815260200191505b509550505050505060405180910390f35b620005ea62000f5e565b604051808273ffffffffffffffffffffffffffffffffffffffff1673ffffffffffffffffffffffffffffffffffffffff16815260200191505060405180910390f35b6200078f600480360360608110156200064457600080fd5b81019080803590602001906401000000008111156200066257600080fd5b8201836020820111156200067557600080fd5b803590602001918460018302840111640100000000831117156200069857600080fd5b91908080601f016020809104026020016040519081016040528093929190818152602001838380828437600081840152601f19601f82011690508083019250505050505050919291929080359060200190640100000000811115620006fc57600080fd5b8201836020820111156200070f57600080fd5b803590602001918460018302840111640100000000831117156200073257600080fd5b91908080601f016020809104026020016040519081016040528093929190818152602001838380828437600081840152601f19601f8201169050808301925050505050505091929192908035906020019092919050505062000f84565b005b6200079b620011bd565b6040518082815260200191505060405180910390f35b620007f660048036036020811015620007c957600080fd5b81019080803573ffffffffffffffffffffffffffffffffffffffff169060200190929190505050620011c3565b6040518082815260200191505060405180910390f35b62000816620011db565b6040518082815260200191505060405180910390f35b62000836620011e1565b60405180806020018060200180602001848103845287818151815260200191508051906020019080838360005b838110156200088057808201518184015260208101905062000863565b50505050905090810190601f168015620008ae5780820380516001836020036101000a031916815260200191505b50848103835286818151815260200191508051906020019080838360005b83811015620008e9578082015181840152602081019050620008cc565b50505050905090810190601f168015620009175780820380516001836020036101000a031916815260200191505b50848103825285818151815260200191508051906020019080838360005b838110156200095257808201518184015260208101905062000935565b50505050905090810190601f168015620009805780820380516001836020036101000a031916815260200191505b50965050505050505060405180910390f35b62000af560048036036060811015620009aa57600080fd5b8101908080359060200190640100000000811115620009c857600080fd5b820183602082011115620009db57600080fd5b80359060200191846001830284011164010000000083111715620009fe57600080fd5b91908080601f016020809104026020016040519081016040528093929190818152602001838380828437600081840152601f19601f8201169050808301925050505050505091929192908035906020019064010000000081111562000a6257600080fd5b82018360208201111562000a7557600080fd5b8035906020019184600183028401116401000000008311171562000a9857600080fd5b91908080601f016020809104026020016040519081016040528093929190818152602001838380828437600081840152601f19601f82011690508083019250505050505050919291929080359060200190929190505050620013cd565b005b62000b016200149b565b604051808273ffffffffffffffffffffffffffffffffffffffff1673ffffffffffffffffffffffffffffffffffffffff16815260200191505060405180910390f35b60085481565b60055481565b600f6020528060005260406000206000915054906101000a900460ff1681565b60028054600181600116156101000203166002900480601f01602080910402602001604051908101604052809291908181526020018280546001816001161561010002031660029004801562000c095780601f1062000bdd5761010080835404028352916020019162000c09565b820191906000526020600020905b81548152906001019060200180831162000beb57829003601f168201915b505050505081565b60045481565b6011602052806000526040600020600091509050806000018054600181600116156101000203166002900480601f01602080910402602001604051908101604052809291908181526020018280546001816001161561010002031660029004801562000cc75780601f1062000c9b5761010080835404028352916020019162000cc7565b820191906000526020600020905b81548152906001019060200180831162000ca957829003601f168201915b505050505090806001018054600181600116156101000203166002900480601f01602080910402602001604051908101604052809291908181526020018280546001816001161561010002031660029004801562000d695780601f1062000d3d5761010080835404028352916020019162000d69565b820191906000526020600020905b81548152906001019060200180831162000d4b57829003601f168201915b5050505050908060020160009054906101000a900473ffffffffffffffffffffffffffffffffffffffff16908060030154905084565b600a5481565b60038054600181600116156101000203166002900480601f01602080910402602001604051908101604052809291908181526020018280546001816001161561010002031660029004801562000e3f5780601f1062000e135761010080835404028352916020019162000e3f565b820191906000526020600020905b81548152906001019060200180831162000e2157829003601f168201915b505050505081565b60075481565b6000809054906101000a900473ffffffffffffffffffffffffffffffffffffffff1681565b60106020528060005260406000206000915090508060000160009054906101000a900473ffffffffffffffffffffffffffffffffffffffff1690806001015490806002015490806003018054600181600116156101000203166002900480601f01602080910402602001604051908101604052809291908181526020018280546001816001161561010002031660029004801562000f545780601f1062000f285761010080835404028352916020019162000f54565b820191906000526020600020905b81548152906001019060200180831162000f3657829003601f168201915b5050505050905084565b600160009054906101000a900473ffffffffffffffffffffffffffffffffffffffff1681565b6000809054906101000a900473ffffffffffffffffffffffffffffffffffffffff1673ffffffffffffffffffffffffffffffffffffffff163373ffffffffffffffffffffffffffffffffffffffff161462000fde57600080fd5b82828260405162000fef90620014c1565b808060200180602001848152602001838103835286818151815260200191508051906020019080838360005b83811015620010385780820151818401526020810190506200101b565b50505050905090810190601f168015620010665780820380516001836020036101000a031916815260200191505b50838103825285818151815260200191508051906020019080838360005b83811015620010a157808201518184015260208101905062001084565b50505050905090810190601f168015620010cf5780820380516001836020036101000a031916815260200191505b5095505050505050604051809103906000f080158015620010f4573d6000803e3d6000fd5b50600b60006101000a81548173ffffffffffffffffffffffffffffffffffffffff021916908373ffffffffffffffffffffffffffffffffffffffff160217905550600b60009054906101000a900473ffffffffffffffffffffffffffffffffffffffff16600160006101000a81548173ffffffffffffffffffffffffffffffffffffffff021916908373ffffffffffffffffffffffffffffffffffffffff1602179055508160039080519060200190620011b0929190620014cf565b5080600581905550505050565b60065481565b60126020528060005260406000206000915090505481565b60095481565b600c806000018054600181600116156101000203166002900480601f0160208091040260200160405190810160405280929190818152602001828054600181600116156101000203166002900480156200127f5780601f1062001253576101008083540402835291602001916200127f565b820191906000526020600020905b8154815290600101906020018083116200126157829003601f168201915b505050505090806001018054600181600116156101000203166002900480601f016020809104026020016040519081016040528092919081815260200182805460018160011615610100020316600290048015620013215780601f10620012f55761010080835404028352916020019162001321565b820191906000526020600020905b8154815290600101906020018083116200130357829003601f168201915b505050505090806002018054600181600116156101000203166002900480601f016020809104026020016040519081016040528092919081815260200182805460018160011615610100020316600290048015620013c35780601f106200139757610100808354040283529160200191620013c3565b820191906000526020600020905b815481529060010190602001808311620013a557829003601f168201915b5050505050905083565b6000809054906101000a900473ffffffffffffffffffffffffffffffffffffffff1673ffffffffffffffffffffffffffffffffffffffff163373ffffffffffffffffffffffffffffffffffffffff16146200142757600080fd5b6002600c60000190805460018160011615610100020316600290046200144f92919062001556565b5082600c60010190805190602001906200146b929190620014cf565b5081600c600201908051906020019062001487929190620014cf565b506201518081024201600481905550505050565b600b60009054906101000a900473ffffffffffffffffffffffffffffffffffffffff1681565b61123b806200160d83390190565b828054600181600116156101000203166002900490600052602060002090601f016020900481019282601f106200151257805160ff191683800117855562001543565b8280016001018555821562001543579182015b828111156200154257825182559160200191906001019062001525565b5b509050620015529190620015e4565b5090565b828054600181600116156101000203166002900490600052602060002090601f016020900481019282601f10620015915780548555620015d1565b82800160010185558215620015d157600052602060002091601f016020900482015b82811115620015d0578254825591600101919060010190620015b3565b5b509050620015e09190620015e4565b5090565b6200160991905b8082111562001605576000816000905550600101620015eb565b5090565b9056fe608060405260126002553480156200001657600080fd5b506040516200123b3803806200123b833981810160405260608110156200003c57600080fd5b81019080805160405193929190846401000000008211156200005d57600080fd5b838201915060208201858111156200007457600080fd5b82518660018202830111640100000000821117156200009257600080fd5b8083526020830192505050908051906020019080838360005b83811015620000c8578082015181840152602081019050620000ab565b50505050905090810190601f168015620000f65780820380516001836020036101000a031916815260200191505b50604052602001805160405193929190846401000000008211156200011a57600080fd5b838201915060208201858111156200013157600080fd5b82518660018202830111640100000000821117156200014f57600080fd5b8083526020830192505050908051906020019080838360005b838110156200018557808201518184015260208101905062000168565b50505050905090810190601f168015620001b35780820380516001836020036101000a031916815260200191505b506040526020018051906020019092919050505033600460006101000a81548173ffffffffffffffffffffffffffffffffffffffff021916908373ffffffffffffffffffffffffffffffffffffffff16021790555062000227600254600a0a82620002ca60201b62000d2a1790919060201c565b600560003373ffffffffffffffffffffffffffffffffffffffff1673ffffffffffffffffffffffffffffffffffffffff1681526020019081526020016000208190555082600090805190602001906200028292919062000355565b5081600190805190602001906200029b92919062000355565b50620002bb600254600a0a82620002ca60201b62000d2a1790919060201c565b60038190555050505062000404565b600080831415620002df57600090506200034f565b6000828402905082848281620002f157fe5b04146200034a576040517f08c379a00000000000000000000000000000000000000000000000000000000081526004018080602001828103825260218152602001806200121a6021913960400191505060405180910390fd5b809150505b92915050565b828054600181600116156101000203166002900490600052602060002090601f016020900481019282601f106200039857805160ff1916838001178555620003c9565b82800160010185558215620003c9579182015b82811115620003c8578251825591602001919060010190620003ab565b5b509050620003d89190620003dc565b5090565b6200040191905b80821115620003fd576000816000905550600101620003e3565b5090565b90565b610e0680620004146000396000f3fe608060405234801561001057600080fd5b50600436106100b45760003560e01c806370a082311161007157806370a08231146102bc5780638da5cb5b1461031457806395d89b411461035e578063a44b47f7146103e1578063a9059cbb146103ff578063dd62ed3e14610465576100b4565b806306fdde03146100b9578063095ea7b31461013c57806318160ddd146101a257806323b872dd146101c057806327e235e314610246578063313ce5671461029e575b600080fd5b6100c16104dd565b6040518080602001828103825283818151815260200191508051906020019080838360005b838110156101015780820151818401526020810190506100e6565b50505050905090810190601f16801561012e5780820380516001836020036101000a031916815260200191505b509250505060405180910390f35b6101886004803603604081101561015257600080fd5b81019080803573ffffffffffffffffffffffffffffffffffffffff1690602001909291908035906020019092919050505061057b565b604051808215151515815260200191505060405180910390f35b6101aa61066d565b6040518082815260200191505060405180910390f35b61022c600480360360608110156101d657600080fd5b81019080803573ffffffffffffffffffffffffffffffffffffffff169060200190929190803573ffffffffffffffffffffffffffffffffffffffff16906020019092919080359060200190929190505050610677565b604051808215151515815260200191505060405180910390f35b6102886004803603602081101561025c57600080fd5b81019080803573ffffffffffffffffffffffffffffffffffffffff16906020019092919050505061097e565b6040518082815260200191505060405180910390f35b6102a6610996565b6040518082815260200191505060405180910390f35b6102fe600480360360208110156102d257600080fd5b81019080803573ffffffffffffffffffffffffffffffffffffffff16906020019092919050505061099c565b6040518082815260200191505060405180910390f35b61031c6109e5565b604051808273ffffffffffffffffffffffffffffffffffffffff1673ffffffffffffffffffffffffffffffffffffffff16815260200191505060405180910390f35b610366610a0b565b6040518080602001828103825283818151815260200191508051906020019080838360005b838110156103a657808201518184015260208101905061038b565b50505050905090810190601f1680156103d35780820380516001836020036101000a031916815260200191505b509250505060405180910390f35b6103e9610aa9565b6040518082815260200191505060405180910390f35b61044b6004803603604081101561041557600080fd5b81019080803573ffffffffffffffffffffffffffffffffffffffff16906020019092919080359060200190929190505050610aaf565b604051808215151515815260200191505060405180910390f35b6104c76004803603604081101561047b57600080fd5b81019080803573ffffffffffffffffffffffffffffffffffffffff169060200190929190803573ffffffffffffffffffffffffffffffffffffffff169060200190929190505050610ca3565b6040518082815260200191505060405180910390f35b60018054600181600116156101000203166002900480601f0160208091040260200160405190810160405280929190818152602001828054600181600116156101000203166002900480156105735780601f1061054857610100808354040283529160200191610573565b820191906000526020600020905b81548152906001019060200180831161055657829003601f168201915b505050505081565b600081600660003373ffffffffffffffffffffffffffffffffffffffff1673ffffffffffffffffffffffffffffffffffffffff16815260200190815260200160002060008573ffffffffffffffffffffffffffffffffffffffff1673ffffffffffffffffffffffffffffffffffffffff168152602001908152602001600020819055508273ffffffffffffffffffffffffffffffffffffffff163373ffffffffffffffffffffffffffffffffffffffff167f8c5be1e5ebec7d5bd14f71427d1e84f3dd0314c0f7b2291e5b200ac8c7c3b925846040518082815260200191505060405180910390a36001905092915050565b6000600354905090565b600081600560008673ffffffffffffffffffffffffffffffffffffffff1673ffffffffffffffffffffffffffffffffffffffff1681526020019081526020016000205410158015610744575081600660008673ffffffffffffffffffffffffffffffffffffffff1673ffffffffffffffffffffffffffffffffffffffff16815260200190815260200160002060003373ffffffffffffffffffffffffffffffffffffffff1673ffffffffffffffffffffffffffffffffffffffff1681526020019081526020016000205410155b80156107505750600082115b80156107db5750600560008473ffffffffffffffffffffffffffffffffffffffff1673ffffffffffffffffffffffffffffffffffffffff1681526020019081526020016000205482600560008673ffffffffffffffffffffffffffffffffffffffff1673ffffffffffffffffffffffffffffffffffffffff1681526020019081526020016000205401115b156109725781600560008673ffffffffffffffffffffffffffffffffffffffff1673ffffffffffffffffffffffffffffffffffffffff1681526020019081526020016000206000828254039250508190555081600660008673ffffffffffffffffffffffffffffffffffffffff1673ffffffffffffffffffffffffffffffffffffffff16815260200190815260200160002060003373ffffffffffffffffffffffffffffffffffffffff1673ffffffffffffffffffffffffffffffffffffffff1681526020019081526020016000206000828254039250508190555081600560008573ffffffffffffffffffffffffffffffffffffffff1673ffffffffffffffffffffffffffffffffffffffff168152602001908152602001600020600082825401925050819055508273ffffffffffffffffffffffffffffffffffffffff168473ffffffffffffffffffffffffffffffffffffffff167fddf252ad1be2c89b69c2b068fc378daa952ba7f163c4a11628f55a4df523b3ef846040518082815260200191505060405180910390a360019050610977565b600090505b9392505050565b60056020528060005260406000206000915090505481565b60025481565b6000600560008373ffffffffffffffffffffffffffffffffffffffff1673ffffffffffffffffffffffffffffffffffffffff168152602001908152602001600020549050919050565b600460009054906101000a900473ffffffffffffffffffffffffffffffffffffffff1681565b60008054600181600116156101000203166002900480601f016020809104026020016040519081016040528092919081815260200182805460018160011615610100020316600290048015610aa15780601f10610a7657610100808354040283529160200191610aa1565b820191906000526020600020905b815481529060010190602001808311610a8457829003601f168201915b505050505081565b60035481565b600081600560003373ffffffffffffffffffffffffffffffffffffffff1673ffffffffffffffffffffffffffffffffffffffff1681526020019081526020016000205410158015610b005750600082115b8015610b8b5750600560008473ffffffffffffffffffffffffffffffffffffffff1673ffffffffffffffffffffffffffffffffffffffff1681526020019081526020016000205482600560008673ffffffffffffffffffffffffffffffffffffffff1673ffffffffffffffffffffffffffffffffffffffff1681526020019081526020016000205401115b15610c985781600560003373ffffffffffffffffffffffffffffffffffffffff1673ffffffffffffffffffffffffffffffffffffffff1681526020019081526020016000206000828254039250508190555081600560008573ffffffffffffffffffffffffffffffffffffffff1673ffffffffffffffffffffffffffffffffffffffff168152602001908152602001600020600082825401925050819055508273ffffffffffffffffffffffffffffffffffffffff163373ffffffffffffffffffffffffffffffffffffffff167fddf252ad1be2c89b69c2b068fc378daa952ba7f163c4a11628f55a4df523b3ef846040518082815260200191505060405180910390a360019050610c9d565b600090505b92915050565b6000600660008473ffffffffffffffffffffffffffffffffffffffff1673ffffffffffffffffffffffffffffffffffffffff16815260200190815260200160002060008373ffffffffffffffffffffffffffffffffffffffff1673ffffffffffffffffffffffffffffffffffffffff16815260200190815260200160002054905092915050565b600080831415610d3d5760009050610daa565b6000828402905082848281610d4e57fe5b0414610da5576040517f08c379a0000000000000000000000000000000000000000000000000000000008152600401808060200182810382526021815260200180610db16021913960400191505060405180910390fd5b809150505b9291505056fe536166654d6174683a206d756c7469706c69636174696f6e206f766572666c6f77a265627a7a72315820bcb15ee37396b4e50fb3590d45b9c77dad14dd2e91536a0086ac89e9f6b1bd5664736f6c63430005100032536166654d6174683a206d756c7469706c69636174696f6e206f766572666c6f77a265627a7a7231582012757d1f33c0c79b8990a3fe1fd3d726162c07ef3c396e657b705617ca62964464736f6c63430005100032",
  "source": "pragma solidity ^0.5.1;\n\nimport \"./TokenFactory.sol\";\nimport \"./SafeMath.sol\";\n\ncontract MovieContract {\n  using SafeMath for uint256;\n\n  address payable public owner;\n  address public tokenAddress;\n  string public movieName;\n  string public tokenName;\n  uint256 public deadline;\n  uint256 public totalSupply;\n  uint256 public totalTokenSold;\n  uint256 public tokenPrice = 1000;\n  uint256 public creationDate;\n  uint256 public investorCount;\n  uint256 public withdrawCount;\n\n    \nTokenFactory public token;\n\n\nconstructor(string memory _movieName, address payable _movieCreator) public{\n    owner = _movieCreator;\n    movieName = _movieName;\n    creationDate = now;\n  }\n\n  struct movieDetails{\n    string name;\n    string details;\n    string ipfsHash;\n  }\n\n  struct investorDetails{\n    string name;\n    string contactDetails;\n    address payable investorAddress;\n    uint256 tokensBought;\n  }\n\n  struct withdrawDetails{\n    address withdrawnBy;\n    uint256 amountWithdrawn;\n    uint256 time;\n    string reason;\n  }\n\n   movieDetails public movie;\n\n  mapping(address => bool) public profitAdded;\n  mapping (uint256 => withdrawDetails) public withdrawlsByOwner;\n  mapping (uint256 => investorDetails)public investors;\n  mapping (address => uint256 ) public investedAmount;\n\n  modifier  onlyOwner() { \n    require(msg.sender == owner); \n    _; \n  }\n  \n\n  function addMovie(string memory _details, string memory _ipfs, uint256 _timeInDays) public onlyOwner{\n    movie.name = movieName;\n    movie.details = _details;\n    movie.ipfsHash = _ipfs;\n    deadline = now + _timeInDays * 1 days;\n  }\n\n  function  createMovieToken(string memory _symbol, string memory _name, uint256 _totalSupply) public onlyOwner{\n      token = new TokenFactory(_symbol, _name, _totalSupply);\n      tokenAddress = address(token);\n      tokenName = _name;\n      totalSupply = _totalSupply;\n  }\n\n\n}",
  "sourcePath": "/home/zaryab/blockchain_begins/all_about_ethereum/dapps/dapp_Jedi/contracts/MovieContract.sol",
  "compiler": {
    "name": "solc",
    "version": "0.5.16+commit.9c3226ce.Emscripten.clang"
  },
  "schemaVersion": "3.0.23",
  "updatedAt": "2020-08-31T03:28:24.380Z",
  "devdoc": {
    "methods": {}
  },
  "userdoc": {
    "methods": {}
  }
}