{
  "contractName": "MovieContract",
  "abi": [
    {
      "inputs": [
        {
          "internalType": "string",
          "name": "_movieName",
          "type": "string"
        },
        {
          "internalType": "address payable",
          "name": "_movieCreator",
          "type": "address"
        }
      ],
      "payable": false,
      "stateMutability": "nonpayable",
      "type": "constructor"
    },
    {
      "constant": true,
      "inputs": [],
      "name": "creationDate",
      "outputs": [
        {
          "internalType": "uint256",
          "name": "",
          "type": "uint256"
        }
      ],
      "payable": false,
      "stateMutability": "view",
      "type": "function"
    },
    {
      "constant": true,
      "inputs": [],
      "name": "deadline",
      "outputs": [
        {
          "internalType": "uint256",
          "name": "",
          "type": "uint256"
        }
      ],
      "payable": false,
      "stateMutability": "view",
      "type": "function"
    },
    {
      "constant": true,
      "inputs": [
        {
          "internalType": "address",
          "name": "",
          "type": "address"
        }
      ],
      "name": "investedAmount",
      "outputs": [
        {
          "internalType": "uint256",
          "name": "",
          "type": "uint256"
        }
      ],
      "payable": false,
      "stateMutability": "view",
      "type": "function"
    },
    {
      "constant": true,
      "inputs": [],
      "name": "investorCount",
      "outputs": [
        {
          "internalType": "uint256",
          "name": "",
          "type": "uint256"
        }
      ],
      "payable": false,
      "stateMutability": "view",
      "type": "function"
    },
    {
      "constant": true,
      "inputs": [
        {
          "internalType": "uint256",
          "name": "",
          "type": "uint256"
        }
      ],
      "name": "investors",
      "outputs": [
        {
          "internalType": "string",
          "name": "name",
          "type": "string"
        },
        {
          "internalType": "string",
          "name": "contactDetails",
          "type": "string"
        },
        {
          "internalType": "address payable",
          "name": "investorAddress",
          "type": "address"
        },
        {
          "internalType": "uint256",
          "name": "tokensBought",
          "type": "uint256"
        }
      ],
      "payable": false,
      "stateMutability": "view",
      "type": "function"
    },
    {
      "constant": true,
      "inputs": [],
      "name": "movie",
      "outputs": [
        {
          "internalType": "string",
          "name": "name",
          "type": "string"
        },
        {
          "internalType": "string",
          "name": "details",
          "type": "string"
        },
        {
          "internalType": "string",
          "name": "ipfsHash",
          "type": "string"
        }
      ],
      "payable": false,
      "stateMutability": "view",
      "type": "function"
    },
    {
      "constant": true,
      "inputs": [],
      "name": "movieName",
      "outputs": [
        {
          "internalType": "string",
          "name": "",
          "type": "string"
        }
      ],
      "payable": false,
      "stateMutability": "view",
      "type": "function"
    },
    {
      "constant": true,
      "inputs": [],
      "name": "owner",
      "outputs": [
        {
          "internalType": "address payable",
          "name": "",
          "type": "address"
        }
      ],
      "payable": false,
      "stateMutability": "view",
      "type": "function"
    },
    {
      "constant": true,
      "inputs": [
        {
          "internalType": "address",
          "name": "",
          "type": "address"
        }
      ],
      "name": "profitAdded",
      "outputs": [
        {
          "internalType": "bool",
          "name": "",
          "type": "bool"
        }
      ],
      "payable": false,
      "stateMutability": "view",
      "type": "function"
    },
    {
      "constant": true,
      "inputs": [],
      "name": "token",
      "outputs": [
        {
          "internalType": "contract TokenFactory",
          "name": "",
          "type": "address"
        }
      ],
      "payable": false,
      "stateMutability": "view",
      "type": "function"
    },
    {
      "constant": true,
      "inputs": [],
      "name": "tokenAddress",
      "outputs": [
        {
          "internalType": "address",
          "name": "",
          "type": "address"
        }
      ],
      "payable": false,
      "stateMutability": "view",
      "type": "function"
    },
    {
      "constant": true,
      "inputs": [],
      "name": "tokenName",
      "outputs": [
        {
          "internalType": "string",
          "name": "",
          "type": "string"
        }
      ],
      "payable": false,
      "stateMutability": "view",
      "type": "function"
    },
    {
      "constant": true,
      "inputs": [],
      "name": "tokenPrice",
      "outputs": [
        {
          "internalType": "uint256",
          "name": "",
          "type": "uint256"
        }
      ],
      "payable": false,
      "stateMutability": "view",
      "type": "function"
    },
    {
      "constant": true,
      "inputs": [],
      "name": "totalSupply",
      "outputs": [
        {
          "internalType": "uint256",
          "name": "",
          "type": "uint256"
        }
      ],
      "payable": false,
      "stateMutability": "view",
      "type": "function"
    },
    {
      "constant": true,
      "inputs": [],
      "name": "totalTokenSold",
      "outputs": [
        {
          "internalType": "uint256",
          "name": "",
          "type": "uint256"
        }
      ],
      "payable": false,
      "stateMutability": "view",
      "type": "function"
    },
    {
      "constant": true,
      "inputs": [],
      "name": "withdrawCount",
      "outputs": [
        {
          "internalType": "uint256",
          "name": "",
          "type": "uint256"
        }
      ],
      "payable": false,
      "stateMutability": "view",
      "type": "function"
    },
    {
      "constant": true,
      "inputs": [
        {
          "internalType": "uint256",
          "name": "",
          "type": "uint256"
        }
      ],
      "name": "withdrawlsByOwner",
      "outputs": [
        {
          "internalType": "address",
          "name": "withdrawnBy",
          "type": "address"
        },
        {
          "internalType": "uint256",
          "name": "amountWithdrawn",
          "type": "uint256"
        },
        {
          "internalType": "uint256",
          "name": "time",
          "type": "uint256"
        },
        {
          "internalType": "string",
          "name": "reason",
          "type": "string"
        }
      ],
      "payable": false,
      "stateMutability": "view",
      "type": "function"
    },
    {
      "constant": false,
      "inputs": [
        {
          "internalType": "string",
          "name": "_details",
          "type": "string"
        },
        {
          "internalType": "string",
          "name": "_ipfs",
          "type": "string"
        },
        {
          "internalType": "uint256",
          "name": "_timeInDays",
          "type": "uint256"
        }
      ],
      "name": "addMovie",
      "outputs": [],
      "payable": false,
      "stateMutability": "nonpayable",
      "type": "function"
    },
    {
      "constant": false,
      "inputs": [
        {
          "internalType": "string",
          "name": "_symbol",
          "type": "string"
        },
        {
          "internalType": "string",
          "name": "_name",
          "type": "string"
        },
        {
          "internalType": "uint256",
          "name": "_totalSupply",
          "type": "uint256"
        }
      ],
      "name": "createMovieToken",
      "outputs": [],
      "payable": false,
      "stateMutability": "nonpayable",
      "type": "function"
    },
    {
      "constant": false,
      "inputs": [
        {
          "internalType": "string",
          "name": "_name",
          "type": "string"
        },
        {
          "internalType": "string",
          "name": "_contact",
          "type": "string"
        }
      ],
      "name": "buyMovieTokens",
      "outputs": [],
      "payable": true,
      "stateMutability": "payable",
      "type": "function"
    },
    {
      "constant": false,
      "inputs": [
        {
          "internalType": "uint256",
          "name": "_amount",
          "type": "uint256"
        },
        {
          "internalType": "string",
          "name": "_reason",
          "type": "string"
        }
      ],
      "name": "useEther",
      "outputs": [],
      "payable": false,
      "stateMutability": "nonpayable",
      "type": "function"
    }
  ],
  "bytecode": "0x60806040526103e86007553480156200001757600080fd5b50604051620036aa380380620036aa833981810160405260408110156200003d57600080fd5b81019080805160405193929190846401000000008211156200005e57600080fd5b838201915060208201858111156200007557600080fd5b82518660018202830111640100000000821117156200009357600080fd5b8083526020830192505050908051906020019080838360005b83811015620000c9578082015181840152602081019050620000ac565b50505050905090810190601f168015620000f75780820380516001836020036101000a031916815260200191505b5060405260200180519060200190929190505050806000806101000a81548173ffffffffffffffffffffffffffffffffffffffff021916908373ffffffffffffffffffffffffffffffffffffffff16021790555081600290805190602001906200016392919062000173565b5042600881905550505062000222565b828054600181600116156101000203166002900490600052602060002090601f016020900481019282601f10620001b657805160ff1916838001178555620001e7565b82800160010185558215620001e7579182015b82811115620001e6578251825591602001919060010190620001c9565b5b509050620001f69190620001fa565b5090565b6200021f91905b808211156200021b57600081600090555060010162000201565b5090565b90565b61347880620002326000396000f3fe608060405260043610620001465760003560e01c80638da5cb5b11620000bb578063cff774441162000079578063cff774441462000958578063d7e64c0014620009c1578063d9895de014620009ef578063e362bcac1462000b4a578063f012666e1462000cbe578063fc0c546a1462000e315762000146565b80638da5cb5b14620006075780639b98f71f14620006615780639d76ea58146200075d578063ae4cc89414620007b7578063b5f7f636146200092a5762000146565b80633feb5f2b11620001095780633feb5f2b14620002d85780634cc05a71146200043c5780636c02a931146200046a5780637981c22714620005005780637ff9b59614620005d95762000146565b806305b34410146200014b57806318160ddd146200017957806320a1d4e514620001a757806327eef6f3146200021457806329dcb0cf14620002aa575b600080fd5b3480156200015857600080fd5b506200016362000e8b565b6040518082815260200191505060405180910390f35b3480156200018657600080fd5b506200019162000e91565b6040518082815260200191505060405180910390f35b348015620001b457600080fd5b50620001fa60048036036020811015620001cd57600080fd5b81019080803573ffffffffffffffffffffffffffffffffffffffff16906020019092919050505062000e97565b604051808215151515815260200191505060405180910390f35b3480156200022157600080fd5b506200022c62000eb7565b6040518080602001828103825283818151815260200191508051906020019080838360005b838110156200026e57808201518184015260208101905062000251565b50505050905090810190601f1680156200029c5780820380516001836020036101000a031916815260200191505b509250505060405180910390f35b348015620002b757600080fd5b50620002c262000f59565b6040518082815260200191505060405180910390f35b348015620002e557600080fd5b506200031560048036036020811015620002fe57600080fd5b810190808035906020019092919050505062000f5f565b6040518080602001806020018573ffffffffffffffffffffffffffffffffffffffff1673ffffffffffffffffffffffffffffffffffffffff168152602001848152602001838103835287818151815260200191508051906020019080838360005b838110156200039357808201518184015260208101905062000376565b50505050905090810190601f168015620003c15780820380516001836020036101000a031916815260200191505b50838103825286818151815260200191508051906020019080838360005b83811015620003fc578082015181840152602081019050620003df565b50505050905090810190601f1680156200042a5780820380516001836020036101000a031916815260200191505b50965050505050505060405180910390f35b3480156200044957600080fd5b5062000454620010e7565b6040518082815260200191505060405180910390f35b3480156200047757600080fd5b5062000482620010ed565b6040518080602001828103825283818151815260200191508051906020019080838360005b83811015620004c4578082015181840152602081019050620004a7565b50505050905090810190601f168015620004f25780820380516001836020036101000a031916815260200191505b509250505060405180910390f35b3480156200050d57600080fd5b50620005d7600480360360408110156200052657600080fd5b8101908080359060200190929190803590602001906401000000008111156200054e57600080fd5b8201836020820111156200056157600080fd5b803590602001918460018302840111640100000000831117156200058457600080fd5b91908080601f016020809104026020016040519081016040528093929190818152602001838380828437600081840152601f19601f8201169050808301925050505050505091929192905050506200118f565b005b348015620005e657600080fd5b50620005f1620013b6565b6040518082815260200191505060405180910390f35b3480156200061457600080fd5b506200061f620013bc565b604051808273ffffffffffffffffffffffffffffffffffffffff1673ffffffffffffffffffffffffffffffffffffffff16815260200191505060405180910390f35b3480156200066e57600080fd5b506200069e600480360360208110156200068757600080fd5b8101908080359060200190929190505050620013e1565b604051808573ffffffffffffffffffffffffffffffffffffffff1673ffffffffffffffffffffffffffffffffffffffff16815260200184815260200183815260200180602001828103825283818151815260200191508051906020019080838360005b838110156200071e57808201518184015260208101905062000701565b50505050905090810190601f1680156200074c5780820380516001836020036101000a031916815260200191505b509550505050505060405180910390f35b3480156200076a57600080fd5b5062000775620014cd565b604051808273ffffffffffffffffffffffffffffffffffffffff1673ffffffffffffffffffffffffffffffffffffffff16815260200191505060405180910390f35b348015620007c457600080fd5b506200092860048036036060811015620007dd57600080fd5b8101908080359060200190640100000000811115620007fb57600080fd5b8201836020820111156200080e57600080fd5b803590602001918460018302840111640100000000831117156200083157600080fd5b91908080601f016020809104026020016040519081016040528093929190818152602001838380828437600081840152601f19601f820116905080830192505050505050509192919290803590602001906401000000008111156200089557600080fd5b820183602082011115620008a857600080fd5b80359060200191846001830284011164010000000083111715620008cb57600080fd5b91908080601f016020809104026020016040519081016040528093929190818152602001838380828437600081840152601f19601f82011690508083019250505050505050919291929080359060200190929190505050620014f3565b005b3480156200093757600080fd5b50620009426200172c565b6040518082815260200191505060405180910390f35b3480156200096557600080fd5b50620009ab600480360360208110156200097e57600080fd5b81019080803573ffffffffffffffffffffffffffffffffffffffff16906020019092919050505062001732565b6040518082815260200191505060405180910390f35b348015620009ce57600080fd5b50620009d96200174a565b6040518082815260200191505060405180910390f35b62000b486004803603604081101562000a0757600080fd5b810190808035906020019064010000000081111562000a2557600080fd5b82018360208201111562000a3857600080fd5b8035906020019184600183028401116401000000008311171562000a5b57600080fd5b91908080601f016020809104026020016040519081016040528093929190818152602001838380828437600081840152601f19601f8201169050808301925050505050505091929192908035906020019064010000000081111562000abf57600080fd5b82018360208201111562000ad257600080fd5b8035906020019184600183028401116401000000008311171562000af557600080fd5b91908080601f016020809104026020016040519081016040528093929190818152602001838380828437600081840152601f19601f82011690508083019250505050505050919291929050505062001750565b005b34801562000b5757600080fd5b5062000b6262001b93565b60405180806020018060200180602001848103845287818151815260200191508051906020019080838360005b8381101562000bac57808201518184015260208101905062000b8f565b50505050905090810190601f16801562000bda5780820380516001836020036101000a031916815260200191505b50848103835286818151815260200191508051906020019080838360005b8381101562000c1557808201518184015260208101905062000bf8565b50505050905090810190601f16801562000c435780820380516001836020036101000a031916815260200191505b50848103825285818151815260200191508051906020019080838360005b8381101562000c7e57808201518184015260208101905062000c61565b50505050905090810190601f16801562000cac5780820380516001836020036101000a031916815260200191505b50965050505050505060405180910390f35b34801562000ccb57600080fd5b5062000e2f6004803603606081101562000ce457600080fd5b810190808035906020019064010000000081111562000d0257600080fd5b82018360208201111562000d1557600080fd5b8035906020019184600183028401116401000000008311171562000d3857600080fd5b91908080601f016020809104026020016040519081016040528093929190818152602001838380828437600081840152601f19601f8201169050808301925050505050505091929192908035906020019064010000000081111562000d9c57600080fd5b82018360208201111562000daf57600080fd5b8035906020019184600183028401116401000000008311171562000dd257600080fd5b91908080601f016020809104026020016040519081016040528093929190818152602001838380828437600081840152601f19601f8201169050808301925050505050505091929192908035906020019092919050505062001d7f565b005b34801562000e3e57600080fd5b5062000e4962001e4d565b604051808273ffffffffffffffffffffffffffffffffffffffff1673ffffffffffffffffffffffffffffffffffffffff16815260200191505060405180910390f35b60085481565b60055481565b600f6020528060005260406000206000915054906101000a900460ff1681565b60028054600181600116156101000203166002900480601f01602080910402602001604051908101604052809291908181526020018280546001816001161561010002031660029004801562000f515780601f1062000f255761010080835404028352916020019162000f51565b820191906000526020600020905b81548152906001019060200180831162000f3357829003601f168201915b505050505081565b60045481565b6011602052806000526040600020600091509050806000018054600181600116156101000203166002900480601f0160208091040260200160405190810160405280929190818152602001828054600181600116156101000203166002900480156200100f5780601f1062000fe3576101008083540402835291602001916200100f565b820191906000526020600020905b81548152906001019060200180831162000ff157829003601f168201915b505050505090806001018054600181600116156101000203166002900480601f016020809104026020016040519081016040528092919081815260200182805460018160011615610100020316600290048015620010b15780601f106200108557610100808354040283529160200191620010b1565b820191906000526020600020905b8154815290600101906020018083116200109357829003601f168201915b5050505050908060020160009054906101000a900473ffffffffffffffffffffffffffffffffffffffff16908060030154905084565b600a5481565b60038054600181600116156101000203166002900480601f016020809104026020016040519081016040528092919081815260200182805460018160011615610100020316600290048015620011875780601f106200115b5761010080835404028352916020019162001187565b820191906000526020600020905b8154815290600101906020018083116200116957829003601f168201915b505050505081565b6000809054906101000a900473ffffffffffffffffffffffffffffffffffffffff1673ffffffffffffffffffffffffffffffffffffffff163373ffffffffffffffffffffffffffffffffffffffff1614620011e957600080fd5b6004544211620011f857600080fd5b8147116200126e576040517f08c379a000000000000000000000000000000000000000000000000000000000815260040180806020018281038252601c8152602001807f4e6f7420456e6f75676820455448455220746f2057697468647261770000000081525060200191505060405180910390fd5b600a6000815480929190600101919050555060405180608001604052803373ffffffffffffffffffffffffffffffffffffffff1681526020018381526020014281526020018281525060106000600a54815260200190815260200160002060008201518160000160006101000a81548173ffffffffffffffffffffffffffffffffffffffff021916908373ffffffffffffffffffffffffffffffffffffffff160217905550602082015181600101556040820151816002015560608201518160030190805190602001906200134592919062002015565b509050506000809054906101000a900473ffffffffffffffffffffffffffffffffffffffff1673ffffffffffffffffffffffffffffffffffffffff166108fc839081150290604051600060405180830381858888f19350505050158015620013b1573d6000803e3d6000fd5b505050565b60075481565b6000809054906101000a900473ffffffffffffffffffffffffffffffffffffffff1681565b60106020528060005260406000206000915090508060000160009054906101000a900473ffffffffffffffffffffffffffffffffffffffff1690806001015490806002015490806003018054600181600116156101000203166002900480601f016020809104026020016040519081016040528092919081815260200182805460018160011615610100020316600290048015620014c35780601f106200149757610100808354040283529160200191620014c3565b820191906000526020600020905b815481529060010190602001808311620014a557829003601f168201915b5050505050905084565b600160009054906101000a900473ffffffffffffffffffffffffffffffffffffffff1681565b6000809054906101000a900473ffffffffffffffffffffffffffffffffffffffff1673ffffffffffffffffffffffffffffffffffffffff163373ffffffffffffffffffffffffffffffffffffffff16146200154d57600080fd5b8282826040516200155e906200209c565b808060200180602001848152602001838103835286818151815260200191508051906020019080838360005b83811015620015a75780820151818401526020810190506200158a565b50505050905090810190601f168015620015d55780820380516001836020036101000a031916815260200191505b50838103825285818151815260200191508051906020019080838360005b8381101562001610578082015181840152602081019050620015f3565b50505050905090810190601f1680156200163e5780820380516001836020036101000a031916815260200191505b5095505050505050604051809103906000f08015801562001663573d6000803e3d6000fd5b50600b60006101000a81548173ffffffffffffffffffffffffffffffffffffffff021916908373ffffffffffffffffffffffffffffffffffffffff160217905550600b60009054906101000a900473ffffffffffffffffffffffffffffffffffffffff16600160006101000a81548173ffffffffffffffffffffffffffffffffffffffff021916908373ffffffffffffffffffffffffffffffffffffffff16021790555081600390805190602001906200171f929190620020aa565b5080600581905550505050565b60065481565b60126020528060005260406000206000915090505481565b60095481565b600034116200175e57600080fd5b60045442116200176d57600080fd5b600160009054906101000a900473ffffffffffffffffffffffffffffffffffffffff16600b60006101000a81548173ffffffffffffffffffffffffffffffffffffffff021916908373ffffffffffffffffffffffffffffffffffffffff1602179055506000620017e93460075462001e7390919063ffffffff16565b9050600033905081600b60009054906101000a900473ffffffffffffffffffffffffffffffffffffffff1673ffffffffffffffffffffffffffffffffffffffff166370a08231306040518263ffffffff1660e01b8152600401808273ffffffffffffffffffffffffffffffffffffffff1673ffffffffffffffffffffffffffffffffffffffff168152602001915050602060405180830381600087803b1580156200189357600080fd5b505af1158015620018a8573d6000803e3d6000fd5b505050506040513d6020811015620018bf57600080fd5b8101908080519060200190929190505050101562001945576040517f08c379a00000000000000000000000000000000000000000000000000000000081526004018080602001828103825260178152602001807f546f6b656e205175616e7469747920457863656564656400000000000000000081525060200191505060405180910390fd5b60096000815480929190600101919050555060405180608001604052808581526020018481526020018273ffffffffffffffffffffffffffffffffffffffff168152602001620019a7670de0b6b3a76400008562001efe90919063ffffffff16565b8152506011600060095481526020019081526020016000206000820151816000019080519060200190620019dd92919062002015565b506020820151816001019080519060200190620019fc92919062002015565b5060408201518160020160006101000a81548173ffffffffffffffffffffffffffffffffffffffff021916908373ffffffffffffffffffffffffffffffffffffffff1602179055506060820151816003015590505034601260008373ffffffffffffffffffffffffffffffffffffffff1673ffffffffffffffffffffffffffffffffffffffff16815260200190815260200160002081905550600b60009054906101000a900473ffffffffffffffffffffffffffffffffffffffff1673ffffffffffffffffffffffffffffffffffffffff1663a9059cbb82846040518363ffffffff1660e01b8152600401808373ffffffffffffffffffffffffffffffffffffffff1673ffffffffffffffffffffffffffffffffffffffff16815260200182815260200192505050602060405180830381600087803b15801562001b3f57600080fd5b505af115801562001b54573d6000803e3d6000fd5b505050506040513d602081101562001b6b57600080fd5b8101908080519060200190929190505050508160066000828254019250508190555050505050565b600c806000018054600181600116156101000203166002900480601f01602080910402602001604051908101604052809291908181526020018280546001816001161561010002031660029004801562001c315780601f1062001c055761010080835404028352916020019162001c31565b820191906000526020600020905b81548152906001019060200180831162001c1357829003601f168201915b505050505090806001018054600181600116156101000203166002900480601f01602080910402602001604051908101604052809291908181526020018280546001816001161561010002031660029004801562001cd35780601f1062001ca75761010080835404028352916020019162001cd3565b820191906000526020600020905b81548152906001019060200180831162001cb557829003601f168201915b505050505090806002018054600181600116156101000203166002900480601f01602080910402602001604051908101604052809291908181526020018280546001816001161561010002031660029004801562001d755780601f1062001d495761010080835404028352916020019162001d75565b820191906000526020600020905b81548152906001019060200180831162001d5757829003601f168201915b5050505050905083565b6000809054906101000a900473ffffffffffffffffffffffffffffffffffffffff1673ffffffffffffffffffffffffffffffffffffffff163373ffffffffffffffffffffffffffffffffffffffff161462001dd957600080fd5b6002600c600001908054600181600116156101000203166002900462001e0192919062002131565b5082600c600101908051906020019062001e1d929190620020aa565b5081600c600201908051906020019062001e39929190620020aa565b506201518081024201600481905550505050565b600b60009054906101000a900473ffffffffffffffffffffffffffffffffffffffff1681565b60008083141562001e88576000905062001ef8565b600082840290508284828162001e9a57fe5b041462001ef3576040517f08c379a0000000000000000000000000000000000000000000000000000000008152600401808060200182810382526021815260200180620034236021913960400191505060405180910390fd5b809150505b92915050565b600062001f4283836040518060400160405280601a81526020017f536166654d6174683a206469766973696f6e206279207a65726f00000000000081525062001f4a565b905092915050565b6000808311829062001ffa576040517f08c379a00000000000000000000000000000000000000000000000000000000081526004018080602001828103825283818151815260200191508051906020019080838360005b8381101562001fbe57808201518184015260208101905062001fa1565b50505050905090810190601f16801562001fec5780820380516001836020036101000a031916815260200191505b509250505060405180910390fd5b5060008385816200200757fe5b049050809150509392505050565b828054600181600116156101000203166002900490600052602060002090601f016020900481019282601f106200205857805160ff191683800117855562002089565b8280016001018555821562002089579182015b82811115620020885782518255916020019190600101906200206b565b5b509050620020989190620021bf565b5090565b61123b80620021e883390190565b828054600181600116156101000203166002900490600052602060002090601f016020900481019282601f10620020ed57805160ff19168380011785556200211e565b828001600101855582156200211e579182015b828111156200211d57825182559160200191906001019062002100565b5b5090506200212d9190620021bf565b5090565b828054600181600116156101000203166002900490600052602060002090601f016020900481019282601f106200216c5780548555620021ac565b82800160010185558215620021ac57600052602060002091601f016020900482015b82811115620021ab5782548255916001019190600101906200218e565b5b509050620021bb9190620021bf565b5090565b620021e491905b80821115620021e0576000816000905550600101620021c6565b5090565b9056fe608060405260126002553480156200001657600080fd5b506040516200123b3803806200123b833981810160405260608110156200003c57600080fd5b81019080805160405193929190846401000000008211156200005d57600080fd5b838201915060208201858111156200007457600080fd5b82518660018202830111640100000000821117156200009257600080fd5b8083526020830192505050908051906020019080838360005b83811015620000c8578082015181840152602081019050620000ab565b50505050905090810190601f168015620000f65780820380516001836020036101000a031916815260200191505b50604052602001805160405193929190846401000000008211156200011a57600080fd5b838201915060208201858111156200013157600080fd5b82518660018202830111640100000000821117156200014f57600080fd5b8083526020830192505050908051906020019080838360005b838110156200018557808201518184015260208101905062000168565b50505050905090810190601f168015620001b35780820380516001836020036101000a031916815260200191505b506040526020018051906020019092919050505033600460006101000a81548173ffffffffffffffffffffffffffffffffffffffff021916908373ffffffffffffffffffffffffffffffffffffffff16021790555062000227600254600a0a82620002ca60201b62000d2a1790919060201c565b600560003373ffffffffffffffffffffffffffffffffffffffff1673ffffffffffffffffffffffffffffffffffffffff1681526020019081526020016000208190555082600090805190602001906200028292919062000355565b5081600190805190602001906200029b92919062000355565b50620002bb600254600a0a82620002ca60201b62000d2a1790919060201c565b60038190555050505062000404565b600080831415620002df57600090506200034f565b6000828402905082848281620002f157fe5b04146200034a576040517f08c379a00000000000000000000000000000000000000000000000000000000081526004018080602001828103825260218152602001806200121a6021913960400191505060405180910390fd5b809150505b92915050565b828054600181600116156101000203166002900490600052602060002090601f016020900481019282601f106200039857805160ff1916838001178555620003c9565b82800160010185558215620003c9579182015b82811115620003c8578251825591602001919060010190620003ab565b5b509050620003d89190620003dc565b5090565b6200040191905b80821115620003fd576000816000905550600101620003e3565b5090565b90565b610e0680620004146000396000f3fe608060405234801561001057600080fd5b50600436106100b45760003560e01c806370a082311161007157806370a08231146102bc5780638da5cb5b1461031457806395d89b411461035e578063a44b47f7146103e1578063a9059cbb146103ff578063dd62ed3e14610465576100b4565b806306fdde03146100b9578063095ea7b31461013c57806318160ddd146101a257806323b872dd146101c057806327e235e314610246578063313ce5671461029e575b600080fd5b6100c16104dd565b6040518080602001828103825283818151815260200191508051906020019080838360005b838110156101015780820151818401526020810190506100e6565b50505050905090810190601f16801561012e5780820380516001836020036101000a031916815260200191505b509250505060405180910390f35b6101886004803603604081101561015257600080fd5b81019080803573ffffffffffffffffffffffffffffffffffffffff1690602001909291908035906020019092919050505061057b565b604051808215151515815260200191505060405180910390f35b6101aa61066d565b6040518082815260200191505060405180910390f35b61022c600480360360608110156101d657600080fd5b81019080803573ffffffffffffffffffffffffffffffffffffffff169060200190929190803573ffffffffffffffffffffffffffffffffffffffff16906020019092919080359060200190929190505050610677565b604051808215151515815260200191505060405180910390f35b6102886004803603602081101561025c57600080fd5b81019080803573ffffffffffffffffffffffffffffffffffffffff16906020019092919050505061097e565b6040518082815260200191505060405180910390f35b6102a6610996565b6040518082815260200191505060405180910390f35b6102fe600480360360208110156102d257600080fd5b81019080803573ffffffffffffffffffffffffffffffffffffffff16906020019092919050505061099c565b6040518082815260200191505060405180910390f35b61031c6109e5565b604051808273ffffffffffffffffffffffffffffffffffffffff1673ffffffffffffffffffffffffffffffffffffffff16815260200191505060405180910390f35b610366610a0b565b6040518080602001828103825283818151815260200191508051906020019080838360005b838110156103a657808201518184015260208101905061038b565b50505050905090810190601f1680156103d35780820380516001836020036101000a031916815260200191505b509250505060405180910390f35b6103e9610aa9565b6040518082815260200191505060405180910390f35b61044b6004803603604081101561041557600080fd5b81019080803573ffffffffffffffffffffffffffffffffffffffff16906020019092919080359060200190929190505050610aaf565b604051808215151515815260200191505060405180910390f35b6104c76004803603604081101561047b57600080fd5b81019080803573ffffffffffffffffffffffffffffffffffffffff169060200190929190803573ffffffffffffffffffffffffffffffffffffffff169060200190929190505050610ca3565b6040518082815260200191505060405180910390f35b60018054600181600116156101000203166002900480601f0160208091040260200160405190810160405280929190818152602001828054600181600116156101000203166002900480156105735780601f1061054857610100808354040283529160200191610573565b820191906000526020600020905b81548152906001019060200180831161055657829003601f168201915b505050505081565b600081600660003373ffffffffffffffffffffffffffffffffffffffff1673ffffffffffffffffffffffffffffffffffffffff16815260200190815260200160002060008573ffffffffffffffffffffffffffffffffffffffff1673ffffffffffffffffffffffffffffffffffffffff168152602001908152602001600020819055508273ffffffffffffffffffffffffffffffffffffffff163373ffffffffffffffffffffffffffffffffffffffff167f8c5be1e5ebec7d5bd14f71427d1e84f3dd0314c0f7b2291e5b200ac8c7c3b925846040518082815260200191505060405180910390a36001905092915050565b6000600354905090565b600081600560008673ffffffffffffffffffffffffffffffffffffffff1673ffffffffffffffffffffffffffffffffffffffff1681526020019081526020016000205410158015610744575081600660008673ffffffffffffffffffffffffffffffffffffffff1673ffffffffffffffffffffffffffffffffffffffff16815260200190815260200160002060003373ffffffffffffffffffffffffffffffffffffffff1673ffffffffffffffffffffffffffffffffffffffff1681526020019081526020016000205410155b80156107505750600082115b80156107db5750600560008473ffffffffffffffffffffffffffffffffffffffff1673ffffffffffffffffffffffffffffffffffffffff1681526020019081526020016000205482600560008673ffffffffffffffffffffffffffffffffffffffff1673ffffffffffffffffffffffffffffffffffffffff1681526020019081526020016000205401115b156109725781600560008673ffffffffffffffffffffffffffffffffffffffff1673ffffffffffffffffffffffffffffffffffffffff1681526020019081526020016000206000828254039250508190555081600660008673ffffffffffffffffffffffffffffffffffffffff1673ffffffffffffffffffffffffffffffffffffffff16815260200190815260200160002060003373ffffffffffffffffffffffffffffffffffffffff1673ffffffffffffffffffffffffffffffffffffffff1681526020019081526020016000206000828254039250508190555081600560008573ffffffffffffffffffffffffffffffffffffffff1673ffffffffffffffffffffffffffffffffffffffff168152602001908152602001600020600082825401925050819055508273ffffffffffffffffffffffffffffffffffffffff168473ffffffffffffffffffffffffffffffffffffffff167fddf252ad1be2c89b69c2b068fc378daa952ba7f163c4a11628f55a4df523b3ef846040518082815260200191505060405180910390a360019050610977565b600090505b9392505050565b60056020528060005260406000206000915090505481565b60025481565b6000600560008373ffffffffffffffffffffffffffffffffffffffff1673ffffffffffffffffffffffffffffffffffffffff168152602001908152602001600020549050919050565b600460009054906101000a900473ffffffffffffffffffffffffffffffffffffffff1681565b60008054600181600116156101000203166002900480601f016020809104026020016040519081016040528092919081815260200182805460018160011615610100020316600290048015610aa15780601f10610a7657610100808354040283529160200191610aa1565b820191906000526020600020905b815481529060010190602001808311610a8457829003601f168201915b505050505081565b60035481565b600081600560003373ffffffffffffffffffffffffffffffffffffffff1673ffffffffffffffffffffffffffffffffffffffff1681526020019081526020016000205410158015610b005750600082115b8015610b8b5750600560008473ffffffffffffffffffffffffffffffffffffffff1673ffffffffffffffffffffffffffffffffffffffff1681526020019081526020016000205482600560008673ffffffffffffffffffffffffffffffffffffffff1673ffffffffffffffffffffffffffffffffffffffff1681526020019081526020016000205401115b15610c985781600560003373ffffffffffffffffffffffffffffffffffffffff1673ffffffffffffffffffffffffffffffffffffffff1681526020019081526020016000206000828254039250508190555081600560008573ffffffffffffffffffffffffffffffffffffffff1673ffffffffffffffffffffffffffffffffffffffff168152602001908152602001600020600082825401925050819055508273ffffffffffffffffffffffffffffffffffffffff163373ffffffffffffffffffffffffffffffffffffffff167fddf252ad1be2c89b69c2b068fc378daa952ba7f163c4a11628f55a4df523b3ef846040518082815260200191505060405180910390a360019050610c9d565b600090505b92915050565b6000600660008473ffffffffffffffffffffffffffffffffffffffff1673ffffffffffffffffffffffffffffffffffffffff16815260200190815260200160002060008373ffffffffffffffffffffffffffffffffffffffff1673ffffffffffffffffffffffffffffffffffffffff16815260200190815260200160002054905092915050565b600080831415610d3d5760009050610daa565b6000828402905082848281610d4e57fe5b0414610da5576040517f08c379a0000000000000000000000000000000000000000000000000000000008152600401808060200182810382526021815260200180610db16021913960400191505060405180910390fd5b809150505b9291505056fe536166654d6174683a206d756c7469706c69636174696f6e206f766572666c6f77a265627a7a72315820bcb15ee37396b4e50fb3590d45b9c77dad14dd2e91536a0086ac89e9f6b1bd5664736f6c63430005100032536166654d6174683a206d756c7469706c69636174696f6e206f766572666c6f77536166654d6174683a206d756c7469706c69636174696f6e206f766572666c6f77a265627a7a723158201210c1ac399a3d7a76e9f81ed5a54690153c8cb59229505a87e6edd2934f693064736f6c63430005100032",
  "source": "pragma solidity ^0.5.1;\n\nimport \"./TokenFactory.sol\";\nimport \"./SafeMath.sol\";\n\ncontract MovieContract {\n  using SafeMath for uint256;\n\n  address payable public owner;\n  address public tokenAddress;\n  string public movieName;\n  string public tokenName;\n  uint256 public deadline;\n  uint256 public totalSupply;\n  uint256 public totalTokenSold;\n  uint256 public tokenPrice = 1000;\n  uint256 public creationDate;\n  uint256 public investorCount;\n  uint256 public withdrawCount;\n\n    \nTokenFactory public token;\n\n\nconstructor(string memory _movieName, address payable _movieCreator) public{\n    owner = _movieCreator;\n    movieName = _movieName;\n    creationDate = now;\n  }\n\n  struct movieDetails{\n    string name;\n    string details;\n    string ipfsHash;\n  }\n\n  struct investorDetails{\n    string name;\n    string contactDetails;\n    address payable investorAddress;\n    uint256 tokensBought;\n  }\n\n  struct withdrawDetails{\n    address withdrawnBy;\n    uint256 amountWithdrawn;\n    uint256 time;\n    string reason;\n  }\n\n   movieDetails public movie;\n\n  mapping(address => bool) public profitAdded;\n  mapping (uint256 => withdrawDetails) public withdrawlsByOwner;\n  mapping (uint256 => investorDetails)public investors;\n  mapping (address => uint256 ) public investedAmount;\n\n  modifier  onlyOwner() { \n    require(msg.sender == owner); \n    _; \n  }\n  \n\n  function addMovie(string memory _details, string memory _ipfs, uint256 _timeInDays) public onlyOwner{\n    movie.name = movieName;\n    movie.details = _details;\n    movie.ipfsHash = _ipfs;\n    deadline = now + _timeInDays * 1 days;\n  }\n\n  function  createMovieToken(string memory _symbol, string memory _name, uint256 _totalSupply) public onlyOwner{\n      token = new TokenFactory(_symbol, _name, _totalSupply);\n      tokenAddress = address(token);\n      tokenName = _name;\n      totalSupply = _totalSupply;\n  }\n\n  //amountToGive = rate.mul(msg.value); // if user send 1 ETH it will give 1000 tokens.\n  function buyMovieTokens(string memory _name, string memory _contact) public payable{\n    require (msg.value > 0);\n    require (now > deadline);\n    \n    token = TokenFactory(tokenAddress);\n    uint256 _numberOfTokens = tokenPrice.mul(msg.value);\n    address payable _to = msg.sender;\n\n    require(token.balanceOf(address(this)) >= _numberOfTokens, \"Token Quantity Exceeded\");\n    investorCount++;\n    investors[investorCount] = investorDetails(_name, _contact,_to,_numberOfTokens.div(1000000000000000000));\n    investedAmount[_to] = msg.value;\n    token.transfer(_to,_numberOfTokens);\n    totalTokenSold += _numberOfTokens;\n  }\n\n   function  useEther(uint256 _amount, string memory _reason) public onlyOwner{\n    require(now > deadline);\n    require (address(this).balance > _amount, \"Not Enough ETHER to Withdraw\");\n    withdrawCount++;\n    withdrawlsByOwner[withdrawCount] = withdrawDetails(msg.sender, _amount,now, _reason);\n    owner.transfer(_amount);   \n    \n  }\n}",
  "sourcePath": "/home/zaryab/blockchain_begins/all_about_ethereum/dapps/dapp_Jedi/contracts/MovieContract.sol",
  "compiler": {
    "name": "solc",
    "version": "0.5.16+commit.9c3226ce.Emscripten.clang"
  },
  "schemaVersion": "3.0.23",
  "updatedAt": "2020-08-31T04:23:11.032Z",
  "devdoc": {
    "methods": {}
  },
  "userdoc": {
    "methods": {}
  }
}