{
  "contractName": "MovieContract",
  "abi": [
    {
      "inputs": [
        {
          "internalType": "string",
          "name": "_movieName",
          "type": "string"
        },
        {
          "internalType": "address payable",
          "name": "_movieCreator",
          "type": "address"
        }
      ],
      "payable": false,
      "stateMutability": "nonpayable",
      "type": "constructor"
    },
    {
      "anonymous": false,
      "inputs": [
        {
          "indexed": false,
          "internalType": "enum MovieContract.State",
          "name": "_currentState",
          "type": "uint8"
        },
        {
          "indexed": false,
          "internalType": "uint256",
          "name": "_currentRate",
          "type": "uint256"
        }
      ],
      "name": "MovieState",
      "type": "event"
    },
    {
      "anonymous": false,
      "inputs": [
        {
          "indexed": false,
          "internalType": "address",
          "name": "buyer",
          "type": "address"
        },
        {
          "indexed": false,
          "internalType": "uint256",
          "name": "amount",
          "type": "uint256"
        }
      ],
      "name": "TokenSold",
      "type": "event"
    },
    {
      "anonymous": false,
      "inputs": [
        {
          "indexed": false,
          "internalType": "uint256",
          "name": "_amount",
          "type": "uint256"
        },
        {
          "indexed": false,
          "internalType": "string",
          "name": "_reason",
          "type": "string"
        }
      ],
      "name": "etherReleased",
      "type": "event"
    },
    {
      "anonymous": false,
      "inputs": [
        {
          "indexed": false,
          "internalType": "address",
          "name": "rec",
          "type": "address"
        },
        {
          "indexed": false,
          "internalType": "string",
          "name": "designation",
          "type": "string"
        },
        {
          "indexed": false,
          "internalType": "uint256",
          "name": "amount",
          "type": "uint256"
        }
      ],
      "name": "etherWithdrawn",
      "type": "event"
    },
    {
      "constant": true,
      "inputs": [],
      "name": "currentState",
      "outputs": [
        {
          "internalType": "enum MovieContract.State",
          "name": "",
          "type": "uint8"
        }
      ],
      "payable": false,
      "stateMutability": "view",
      "type": "function"
    },
    {
      "constant": true,
      "inputs": [
        {
          "internalType": "address",
          "name": "",
          "type": "address"
        }
      ],
      "name": "investedAmount",
      "outputs": [
        {
          "internalType": "uint256",
          "name": "",
          "type": "uint256"
        }
      ],
      "payable": false,
      "stateMutability": "view",
      "type": "function"
    },
    {
      "constant": true,
      "inputs": [],
      "name": "investorCount",
      "outputs": [
        {
          "internalType": "uint256",
          "name": "",
          "type": "uint256"
        }
      ],
      "payable": false,
      "stateMutability": "view",
      "type": "function"
    },
    {
      "constant": true,
      "inputs": [
        {
          "internalType": "address",
          "name": "",
          "type": "address"
        }
      ],
      "name": "investors",
      "outputs": [
        {
          "internalType": "string",
          "name": "name",
          "type": "string"
        },
        {
          "internalType": "string",
          "name": "contactDetails",
          "type": "string"
        },
        {
          "internalType": "address payable",
          "name": "investorAddress",
          "type": "address"
        },
        {
          "internalType": "uint256",
          "name": "tokensBought",
          "type": "uint256"
        }
      ],
      "payable": false,
      "stateMutability": "view",
      "type": "function"
    },
    {
      "constant": true,
      "inputs": [],
      "name": "movie",
      "outputs": [
        {
          "internalType": "string",
          "name": "name",
          "type": "string"
        },
        {
          "internalType": "string",
          "name": "details",
          "type": "string"
        },
        {
          "internalType": "uint256",
          "name": "creationDate",
          "type": "uint256"
        },
        {
          "internalType": "uint256",
          "name": "deadline",
          "type": "uint256"
        },
        {
          "internalType": "uint256",
          "name": "maxReleaseLimit",
          "type": "uint256"
        },
        {
          "internalType": "string",
          "name": "ipfsHash",
          "type": "string"
        }
      ],
      "payable": false,
      "stateMutability": "view",
      "type": "function"
    },
    {
      "constant": true,
      "inputs": [],
      "name": "movieName",
      "outputs": [
        {
          "internalType": "string",
          "name": "",
          "type": "string"
        }
      ],
      "payable": false,
      "stateMutability": "view",
      "type": "function"
    },
    {
      "constant": true,
      "inputs": [],
      "name": "owner",
      "outputs": [
        {
          "internalType": "address payable",
          "name": "",
          "type": "address"
        }
      ],
      "payable": false,
      "stateMutability": "view",
      "type": "function"
    },
    {
      "constant": true,
      "inputs": [
        {
          "internalType": "address",
          "name": "",
          "type": "address"
        }
      ],
      "name": "profitAdded",
      "outputs": [
        {
          "internalType": "bool",
          "name": "",
          "type": "bool"
        }
      ],
      "payable": false,
      "stateMutability": "view",
      "type": "function"
    },
    {
      "constant": true,
      "inputs": [],
      "name": "rate",
      "outputs": [
        {
          "internalType": "uint256",
          "name": "",
          "type": "uint256"
        }
      ],
      "payable": false,
      "stateMutability": "view",
      "type": "function"
    },
    {
      "constant": true,
      "inputs": [],
      "name": "requestCount",
      "outputs": [
        {
          "internalType": "uint256",
          "name": "",
          "type": "uint256"
        }
      ],
      "payable": false,
      "stateMutability": "view",
      "type": "function"
    },
    {
      "constant": true,
      "inputs": [
        {
          "internalType": "uint256",
          "name": "",
          "type": "uint256"
        }
      ],
      "name": "requests",
      "outputs": [
        {
          "internalType": "uint256",
          "name": "amountOfEth",
          "type": "uint256"
        },
        {
          "internalType": "uint256",
          "name": "numberOfVoters",
          "type": "uint256"
        },
        {
          "internalType": "string",
          "name": "description",
          "type": "string"
        },
        {
          "internalType": "string",
          "name": "receiverDesignation",
          "type": "string"
        },
        {
          "internalType": "bool",
          "name": "completed",
          "type": "bool"
        },
        {
          "internalType": "address payable",
          "name": "recipient",
          "type": "address"
        }
      ],
      "payable": false,
      "stateMutability": "view",
      "type": "function"
    },
    {
      "constant": true,
      "inputs": [],
      "name": "summary",
      "outputs": [
        {
          "internalType": "string",
          "name": "",
          "type": "string"
        }
      ],
      "payable": false,
      "stateMutability": "view",
      "type": "function"
    },
    {
      "constant": true,
      "inputs": [],
      "name": "token",
      "outputs": [
        {
          "internalType": "contract TokenFactory",
          "name": "",
          "type": "address"
        }
      ],
      "payable": false,
      "stateMutability": "view",
      "type": "function"
    },
    {
      "constant": true,
      "inputs": [],
      "name": "tokenAddress",
      "outputs": [
        {
          "internalType": "address",
          "name": "",
          "type": "address"
        }
      ],
      "payable": false,
      "stateMutability": "view",
      "type": "function"
    },
    {
      "constant": true,
      "inputs": [],
      "name": "tokenName",
      "outputs": [
        {
          "internalType": "string",
          "name": "",
          "type": "string"
        }
      ],
      "payable": false,
      "stateMutability": "view",
      "type": "function"
    },
    {
      "constant": true,
      "inputs": [],
      "name": "totalInvestment",
      "outputs": [
        {
          "internalType": "uint256",
          "name": "",
          "type": "uint256"
        }
      ],
      "payable": false,
      "stateMutability": "view",
      "type": "function"
    },
    {
      "constant": true,
      "inputs": [],
      "name": "totalProfit",
      "outputs": [
        {
          "internalType": "uint256",
          "name": "",
          "type": "uint256"
        }
      ],
      "payable": false,
      "stateMutability": "view",
      "type": "function"
    },
    {
      "constant": true,
      "inputs": [],
      "name": "totalSupply",
      "outputs": [
        {
          "internalType": "uint256",
          "name": "",
          "type": "uint256"
        }
      ],
      "payable": false,
      "stateMutability": "view",
      "type": "function"
    },
    {
      "constant": true,
      "inputs": [],
      "name": "totalTokenSold",
      "outputs": [
        {
          "internalType": "uint256",
          "name": "",
          "type": "uint256"
        }
      ],
      "payable": false,
      "stateMutability": "view",
      "type": "function"
    },
    {
      "constant": true,
      "inputs": [
        {
          "internalType": "uint256",
          "name": "",
          "type": "uint256"
        }
      ],
      "name": "updates",
      "outputs": [
        {
          "internalType": "string",
          "name": "",
          "type": "string"
        }
      ],
      "payable": false,
      "stateMutability": "view",
      "type": "function"
    },
    {
      "constant": true,
      "inputs": [],
      "name": "voterCount",
      "outputs": [
        {
          "internalType": "uint256",
          "name": "",
          "type": "uint256"
        }
      ],
      "payable": false,
      "stateMutability": "view",
      "type": "function"
    },
    {
      "constant": true,
      "inputs": [],
      "name": "withdrawCount",
      "outputs": [
        {
          "internalType": "uint256",
          "name": "",
          "type": "uint256"
        }
      ],
      "payable": false,
      "stateMutability": "view",
      "type": "function"
    },
    {
      "constant": false,
      "inputs": [
        {
          "internalType": "string",
          "name": "_details",
          "type": "string"
        },
        {
          "internalType": "string",
          "name": "_ipfs",
          "type": "string"
        },
        {
          "internalType": "uint256",
          "name": "_timeInDays",
          "type": "uint256"
        }
      ],
      "name": "addMovie",
      "outputs": [],
      "payable": false,
      "stateMutability": "nonpayable",
      "type": "function"
    },
    {
      "constant": false,
      "inputs": [
        {
          "internalType": "string",
          "name": "_symbol",
          "type": "string"
        },
        {
          "internalType": "string",
          "name": "_name",
          "type": "string"
        },
        {
          "internalType": "uint256",
          "name": "_totalSupply",
          "type": "uint256"
        }
      ],
      "name": "createMovieToken",
      "outputs": [],
      "payable": false,
      "stateMutability": "nonpayable",
      "type": "function"
    },
    {
      "constant": false,
      "inputs": [
        {
          "internalType": "enum MovieContract.State",
          "name": "_state",
          "type": "uint8"
        }
      ],
      "name": "updateState",
      "outputs": [
        {
          "internalType": "uint256",
          "name": "_rate",
          "type": "uint256"
        }
      ],
      "payable": false,
      "stateMutability": "nonpayable",
      "type": "function"
    },
    {
      "constant": false,
      "inputs": [
        {
          "internalType": "string",
          "name": "_update",
          "type": "string"
        }
      ],
      "name": "projectUpdate",
      "outputs": [],
      "payable": false,
      "stateMutability": "nonpayable",
      "type": "function"
    },
    {
      "constant": false,
      "inputs": [],
      "name": "reportProfit",
      "outputs": [],
      "payable": true,
      "stateMutability": "payable",
      "type": "function"
    },
    {
      "constant": false,
      "inputs": [
        {
          "internalType": "string",
          "name": "_name",
          "type": "string"
        },
        {
          "internalType": "string",
          "name": "_contact",
          "type": "string"
        }
      ],
      "name": "buyMovieTokens",
      "outputs": [],
      "payable": true,
      "stateMutability": "payable",
      "type": "function"
    },
    {
      "constant": false,
      "inputs": [
        {
          "internalType": "uint256",
          "name": "_amount",
          "type": "uint256"
        },
        {
          "internalType": "string",
          "name": "_reason",
          "type": "string"
        }
      ],
      "name": "releaseFunds",
      "outputs": [],
      "payable": true,
      "stateMutability": "payable",
      "type": "function"
    },
    {
      "constant": true,
      "inputs": [],
      "name": "getBalance",
      "outputs": [
        {
          "internalType": "uint256",
          "name": "",
          "type": "uint256"
        }
      ],
      "payable": false,
      "stateMutability": "view",
      "type": "function"
    },
    {
      "constant": true,
      "inputs": [],
      "name": "updateCount",
      "outputs": [
        {
          "internalType": "uint256",
          "name": "",
          "type": "uint256"
        }
      ],
      "payable": false,
      "stateMutability": "view",
      "type": "function"
    },
    {
      "constant": false,
      "inputs": [
        {
          "internalType": "uint256",
          "name": "_amountOfTokens",
          "type": "uint256"
        }
      ],
      "name": "unlockEther",
      "outputs": [],
      "payable": false,
      "stateMutability": "nonpayable",
      "type": "function"
    }
  ],
  "bytecode": "0x608060405266038d7ea4c68000600e556000600f60006101000a81548160ff021916908360038111156200002f57fe5b02179055503480156200004157600080fd5b5060405162004cac38038062004cac833981810160405260408110156200006757600080fd5b81019080805160405193929190846401000000008211156200008857600080fd5b838201915060208201858111156200009f57600080fd5b8251866001820283011164010000000082111715620000bd57600080fd5b8083526020830192505050908051906020019080838360005b83811015620000f3578082015181840152602081019050620000d6565b50505050905090810190601f168015620001215780820380516001836020036101000a031916815260200191505b5060405260200180519060200190929190505050806000806101000a81548173ffffffffffffffffffffffffffffffffffffffff021916908373ffffffffffffffffffffffffffffffffffffffff16021790555081600290805190602001906200018d929190620001a0565b504260106002018190555050506200024f565b828054600181600116156101000203166002900490600052602060002090601f016020900481019282601f10620001e357805160ff191683800117855562000214565b8280016001018555821562000214579182015b8281111562000213578251825591602001919060010190620001f6565b5b50905062000223919062000227565b5090565b6200024c91905b80821115620002485760008160009055506001016200022e565b5090565b90565b614a4d806200025f6000396000f3fe608060405260043610620002125760003560e01c80636f7bc9be116200011b578063b5f7f63611620000a3578063d9895de0116200006d578063d9895de01462000ef3578063e362bcac146200104e578063f012666e14620011d7578063fc0c546a146200134a5762000212565b8063b5f7f6361462000d63578063cff774441462000d91578063d1375d8f1462000dfa578063d7e64c001462000ec55762000212565b80639d76ea5811620000e55780639d76ea581462000a45578063ae4cc8941462000a9f578063b16a867c1462000c12578063b4c2f7271462000ca85762000212565b80636f7bc9be14620006cd57806381d12c5814620008475780638600151914620009bd5780638da5cb5b14620009eb5762000212565b806327eef6f3116200019f5780635badbe4c11620001695780635badbe4c146200050c578063640ff720146200053a57806369b4ecc914620006095780636c02a93114620006375762000212565b806327eef6f314620003ec5780632c4e722e146200048257806342169e4814620004b05780634cc05a7114620004de5762000212565b806310ea13df11620001e157806310ea13df14620002f557806312065fe0146200032357806318160ddd146200035157806320a1d4e5146200037f5762000212565b80630591d3ab14620002175780630ab94086146200026d5780630bbdc98d14620002ac5780630c3f6acf14620002b8575b600080fd5b3480156200022457600080fd5b5062000257600480360360208110156200023d57600080fd5b81019080803560ff169060200190929190505050620013a4565b6040518082815260200191505060405180910390f35b3480156200027a57600080fd5b50620002aa600480360360208110156200029357600080fd5b810190808035906020019092919050505062001527565b005b620002b6620019af565b005b348015620002c557600080fd5b50620002d062001b45565b60405180826003811115620002e157fe5b60ff16815260200191505060405180910390f35b3480156200030257600080fd5b506200030d62001b58565b6040518082815260200191505060405180910390f35b3480156200033057600080fd5b506200033b62001b5e565b6040518082815260200191505060405180910390f35b3480156200035e57600080fd5b506200036962001b66565b6040518082815260200191505060405180910390f35b3480156200038c57600080fd5b50620003d260048036036020811015620003a557600080fd5b81019080803573ffffffffffffffffffffffffffffffffffffffff16906020019092919050505062001b6c565b604051808215151515815260200191505060405180910390f35b348015620003f957600080fd5b506200040462001b8c565b6040518080602001828103825283818151815260200191508051906020019080838360005b838110156200044657808201518184015260208101905062000429565b50505050905090810190601f168015620004745780820380516001836020036101000a031916815260200191505b509250505060405180910390f35b3480156200048f57600080fd5b506200049a62001c2e565b6040518082815260200191505060405180910390f35b348015620004bd57600080fd5b50620004c862001c34565b6040518082815260200191505060405180910390f35b348015620004eb57600080fd5b50620004f662001c3a565b6040518082815260200191505060405180910390f35b3480156200051957600080fd5b506200052462001c40565b6040518082815260200191505060405180910390f35b3480156200054757600080fd5b5062000607600480360360208110156200056057600080fd5b81019080803590602001906401000000008111156200057e57600080fd5b8201836020820111156200059157600080fd5b80359060200191846001830284011164010000000083111715620005b457600080fd5b91908080601f016020809104026020016040519081016040528093929190818152602001838380828437600081840152601f19601f82011690508083019250505050505050919291929050505062001c46565b005b3480156200061657600080fd5b506200062162001d4d565b6040518082815260200191505060405180910390f35b3480156200064457600080fd5b506200064f62001d5a565b6040518080602001828103825283818151815260200191508051906020019080838360005b838110156200069157808201518184015260208101905062000674565b50505050905090810190601f168015620006bf5780820380516001836020036101000a031916815260200191505b509250505060405180910390f35b348015620006da57600080fd5b506200072060048036036020811015620006f357600080fd5b81019080803573ffffffffffffffffffffffffffffffffffffffff16906020019092919050505062001dfc565b6040518080602001806020018573ffffffffffffffffffffffffffffffffffffffff1673ffffffffffffffffffffffffffffffffffffffff168152602001848152602001838103835287818151815260200191508051906020019080838360005b838110156200079e57808201518184015260208101905062000781565b50505050905090810190601f168015620007cc5780820380516001836020036101000a031916815260200191505b50838103825286818151815260200191508051906020019080838360005b8381101562000807578082015181840152602081019050620007ea565b50505050905090810190601f168015620008355780820380516001836020036101000a031916815260200191505b50965050505050505060405180910390f35b3480156200085457600080fd5b5062000884600480360360208110156200086d57600080fd5b810190808035906020019092919050505062001f84565b604051808781526020018681526020018060200180602001851515151581526020018473ffffffffffffffffffffffffffffffffffffffff1673ffffffffffffffffffffffffffffffffffffffff168152602001838103835287818151815260200191508051906020019080838360005b8381101562000912578082015181840152602081019050620008f5565b50505050905090810190601f168015620009405780820380516001836020036101000a031916815260200191505b50838103825286818151815260200191508051906020019080838360005b838110156200097b5780820151818401526020810190506200095e565b50505050905090810190601f168015620009a95780820380516001836020036101000a031916815260200191505b509850505050505050505060405180910390f35b348015620009ca57600080fd5b50620009d562002125565b6040518082815260200191505060405180910390f35b348015620009f857600080fd5b5062000a036200212b565b604051808273ffffffffffffffffffffffffffffffffffffffff1673ffffffffffffffffffffffffffffffffffffffff16815260200191505060405180910390f35b34801562000a5257600080fd5b5062000a5d62002150565b604051808273ffffffffffffffffffffffffffffffffffffffff1673ffffffffffffffffffffffffffffffffffffffff16815260200191505060405180910390f35b34801562000aac57600080fd5b5062000c106004803603606081101562000ac557600080fd5b810190808035906020019064010000000081111562000ae357600080fd5b82018360208201111562000af657600080fd5b8035906020019184600183028401116401000000008311171562000b1957600080fd5b91908080601f016020809104026020016040519081016040528093929190818152602001838380828437600081840152601f19601f8201169050808301925050505050505091929192908035906020019064010000000081111562000b7d57600080fd5b82018360208201111562000b9057600080fd5b8035906020019184600183028401116401000000008311171562000bb357600080fd5b91908080601f016020809104026020016040519081016040528093929190818152602001838380828437600081840152601f19601f8201169050808301925050505050505091929192908035906020019092919050505062002176565b005b34801562000c1f57600080fd5b5062000c2a62002418565b6040518080602001828103825283818151815260200191508051906020019080838360005b8381101562000c6c57808201518184015260208101905062000c4f565b50505050905090810190601f16801562000c9a5780820380516001836020036101000a031916815260200191505b509250505060405180910390f35b34801562000cb557600080fd5b5062000ce56004803603602081101562000cce57600080fd5b8101908080359060200190929190505050620024ba565b6040518080602001828103825283818151815260200191508051906020019080838360005b8381101562000d2757808201518184015260208101905062000d0a565b50505050905090810190601f16801562000d555780820380516001836020036101000a031916815260200191505b509250505060405180910390f35b34801562000d7057600080fd5b5062000d7b62002578565b6040518082815260200191505060405180910390f35b34801562000d9e57600080fd5b5062000de46004803603602081101562000db757600080fd5b81019080803573ffffffffffffffffffffffffffffffffffffffff1690602001909291905050506200257e565b6040518082815260200191505060405180910390f35b62000ec36004803603604081101562000e1257600080fd5b81019080803590602001909291908035906020019064010000000081111562000e3a57600080fd5b82018360208201111562000e4d57600080fd5b8035906020019184600183028401116401000000008311171562000e7057600080fd5b91908080601f016020809104026020016040519081016040528093929190818152602001838380828437600081840152601f19601f82011690508083019250505050505050919291929050505062002596565b005b34801562000ed257600080fd5b5062000edd620027cc565b6040518082815260200191505060405180910390f35b6200104c6004803603604081101562000f0b57600080fd5b810190808035906020019064010000000081111562000f2957600080fd5b82018360208201111562000f3c57600080fd5b8035906020019184600183028401116401000000008311171562000f5f57600080fd5b91908080601f016020809104026020016040519081016040528093929190818152602001838380828437600081840152601f19601f8201169050808301925050505050505091929192908035906020019064010000000081111562000fc357600080fd5b82018360208201111562000fd657600080fd5b8035906020019184600183028401116401000000008311171562000ff957600080fd5b91908080601f016020809104026020016040519081016040528093929190818152602001838380828437600081840152601f19601f820116905080830192505050505050509192919290505050620027d2565b005b3480156200105b57600080fd5b506200106662002cab565b6040518080602001806020018781526020018681526020018581526020018060200184810384528a818151815260200191508051906020019080838360005b83811015620010c2578082015181840152602081019050620010a5565b50505050905090810190601f168015620010f05780820380516001836020036101000a031916815260200191505b50848103835289818151815260200191508051906020019080838360005b838110156200112b5780820151818401526020810190506200110e565b50505050905090810190601f168015620011595780820380516001836020036101000a031916815260200191505b50848103825285818151815260200191508051906020019080838360005b838110156200119457808201518184015260208101905062001177565b50505050905090810190601f168015620011c25780820380516001836020036101000a031916815260200191505b50995050505050505050505060405180910390f35b348015620011e457600080fd5b506200134860048036036060811015620011fd57600080fd5b81019080803590602001906401000000008111156200121b57600080fd5b8201836020820111156200122e57600080fd5b803590602001918460018302840111640100000000831117156200125157600080fd5b91908080601f016020809104026020016040519081016040528093929190818152602001838380828437600081840152601f19601f82011690508083019250505050505050919291929080359060200190640100000000811115620012b557600080fd5b820183602082011115620012c857600080fd5b80359060200191846001830284011164010000000083111715620012eb57600080fd5b91908080601f016020809104026020016040519081016040528093929190818152602001838380828437600081840152601f19601f8201169050808301925050505050505091929192908035906020019092919050505062002ea9565b005b3480156200135757600080fd5b50620013626200300e565b604051808273ffffffffffffffffffffffffffffffffffffffff1673ffffffffffffffffffffffffffffffffffffffff16815260200191505060405180910390f35b60008060009054906101000a900473ffffffffffffffffffffffffffffffffffffffff1673ffffffffffffffffffffffffffffffffffffffff163373ffffffffffffffffffffffffffffffffffffffff161462001469576040517f08c379a00000000000000000000000000000000000000000000000000000000081526004018080602001828103825260178152602001807f43616c6c6572206973206e6f7420746865206f776e657200000000000000000081525060200191505060405180910390fd5b81600f60006101000a81548160ff021916908360038111156200148857fe5b0217905550600160038111156200149b57fe5b826003811115620014a857fe5b1415620014be57660aa87bee538000600e819055505b7f8380c3893c41ffaaf694da88cd05bcc5b16767300762228932eb5bb85e904f16600f60009054906101000a900460ff16600e54604051808360038111156200150357fe5b60ff1681526020018281526020019250505060405180910390a1600e549050919050565b6010600301544210620015a2576040517f08c379a00000000000000000000000000000000000000000000000000000000081526004018080602001828103825260198152602001807f446561646c696e6520616c72656164792041636869657665640000000000000081525060200191505060405180910390fd5b6000339050600160009054906101000a900473ffffffffffffffffffffffffffffffffffffffff16600f60016101000a81548173ffffffffffffffffffffffffffffffffffffffff021916908373ffffffffffffffffffffffffffffffffffffffff1602179055506000600f60019054906101000a900473ffffffffffffffffffffffffffffffffffffffff1673ffffffffffffffffffffffffffffffffffffffff166370a08231836040518263ffffffff1660e01b8152600401808273ffffffffffffffffffffffffffffffffffffffff1673ffffffffffffffffffffffffffffffffffffffff168152602001915050602060405180830381600087803b158015620016ae57600080fd5b505af1158015620016c3573d6000803e3d6000fd5b505050506040513d6020811015620016da57600080fd5b810190808051906020019092919050505090508083111562001764576040517f08c379a00000000000000000000000000000000000000000000000000000000081526004018080602001828103825260118152602001807f4e6f7420456e6f75676820746f6b656e7300000000000000000000000000000081525060200191505060405180910390fd5b60006200177d600e54856200303490919063ffffffff16565b905080601860003373ffffffffffffffffffffffffffffffffffffffff1673ffffffffffffffffffffffffffffffffffffffff1681526020019081526020016000205411620017cb57600080fd5b80471162001841576040517f08c379a000000000000000000000000000000000000000000000000000000000815260040180806020018281038252601c8152602001807f4e6f7420456e6f75676820457468657220746f207472616e736665720000000081525060200191505060405180910390fd5b80601860008573ffffffffffffffffffffffffffffffffffffffff1673ffffffffffffffffffffffffffffffffffffffff16815260200190815260200160002060008282540392505081905550836006600082825403925050819055508273ffffffffffffffffffffffffffffffffffffffff166108fc829081150290604051600060405180830381858888f19350505050158015620018e5573d6000803e3d6000fd5b50600f60019054906101000a900473ffffffffffffffffffffffffffffffffffffffff1673ffffffffffffffffffffffffffffffffffffffff16639dc29fac84866040518363ffffffff1660e01b8152600401808373ffffffffffffffffffffffffffffffffffffffff1673ffffffffffffffffffffffffffffffffffffffff16815260200182815260200192505050600060405180830381600087803b1580156200199057600080fd5b505af1158015620019a5573d6000803e3d6000fd5b5050505050505050565b6000809054906101000a900473ffffffffffffffffffffffffffffffffffffffff1673ffffffffffffffffffffffffffffffffffffffff163373ffffffffffffffffffffffffffffffffffffffff161462001a72576040517f08c379a00000000000000000000000000000000000000000000000000000000081526004018080602001828103825260178152602001807f43616c6c6572206973206e6f7420746865206f776e657200000000000000000081525060200191505060405180910390fd5b6002600381111562001a8057fe5b600f60009054906101000a900460ff16600381111562001a9c57fe5b1462001aa757600080fd5b6000341162001ab557600080fd5b34600c6000828254019250508190555062001ade600654600c54620030bf90919063ffffffff16565b600e819055507f8380c3893c41ffaaf694da88cd05bcc5b16767300762228932eb5bb85e904f16600f60009054906101000a900460ff16600e546040518083600381111562001b2957fe5b60ff1681526020018281526020019250505060405180910390a1565b600f60009054906101000a900460ff1681565b600b5481565b600047905090565b60055481565b60166020528060005260406000206000915054906101000a900460ff1681565b60028054600181600116156101000203166002900480601f01602080910402602001604051908101604052809291908181526020018280546001816001161561010002031660029004801562001c265780601f1062001bfa5761010080835404028352916020019162001c26565b820191906000526020600020905b81548152906001019060200180831162001c0857829003601f168201915b505050505081565b600e5481565b60095481565b600a5481565b60085481565b6000809054906101000a900473ffffffffffffffffffffffffffffffffffffffff1673ffffffffffffffffffffffffffffffffffffffff163373ffffffffffffffffffffffffffffffffffffffff161462001d09576040517f08c379a00000000000000000000000000000000000000000000000000000000081526004018080602001828103825260178152602001807f43616c6c6572206973206e6f7420746865206f776e657200000000000000000081525060200191505060405180910390fd5b600d81908060018154018082558091505090600182039060005260206000200160009091929091909150908051906020019062001d48929190620031d6565b505050565b6000600d80549050905090565b60048054600181600116156101000203166002900480601f01602080910402602001604051908101604052809291908181526020018280546001816001161561010002031660029004801562001df45780601f1062001dc85761010080835404028352916020019162001df4565b820191906000526020600020905b81548152906001019060200180831162001dd657829003601f168201915b505050505081565b6017602052806000526040600020600091509050806000018054600181600116156101000203166002900480601f01602080910402602001604051908101604052809291908181526020018280546001816001161561010002031660029004801562001eac5780601f1062001e805761010080835404028352916020019162001eac565b820191906000526020600020905b81548152906001019060200180831162001e8e57829003601f168201915b505050505090806001018054600181600116156101000203166002900480601f01602080910402602001604051908101604052809291908181526020018280546001816001161561010002031660029004801562001f4e5780601f1062001f225761010080835404028352916020019162001f4e565b820191906000526020600020905b81548152906001019060200180831162001f3057829003601f168201915b5050505050908060020160009054906101000a900473ffffffffffffffffffffffffffffffffffffffff16908060030154905084565b6019602052806000526040600020600091509050806000015490806001015490806002018054600181600116156101000203166002900480601f016020809104026020016040519081016040528092919081815260200182805460018160011615610100020316600290048015620020405780601f10620020145761010080835404028352916020019162002040565b820191906000526020600020905b8154815290600101906020018083116200202257829003601f168201915b505050505090806003018054600181600116156101000203166002900480601f016020809104026020016040519081016040528092919081815260200182805460018160011615610100020316600290048015620020e25780601f10620020b657610100808354040283529160200191620020e2565b820191906000526020600020905b815481529060010190602001808311620020c457829003601f168201915b5050505050908060040160009054906101000a900460ff16908060040160019054906101000a900473ffffffffffffffffffffffffffffffffffffffff16905086565b600c5481565b6000809054906101000a900473ffffffffffffffffffffffffffffffffffffffff1681565b600160009054906101000a900473ffffffffffffffffffffffffffffffffffffffff1681565b6000809054906101000a900473ffffffffffffffffffffffffffffffffffffffff1673ffffffffffffffffffffffffffffffffffffffff163373ffffffffffffffffffffffffffffffffffffffff161462002239576040517f08c379a00000000000000000000000000000000000000000000000000000000081526004018080602001828103825260178152602001807f43616c6c6572206973206e6f7420746865206f776e657200000000000000000081525060200191505060405180910390fd5b8282826040516200224a906200325d565b808060200180602001848152602001838103835286818151815260200191508051906020019080838360005b838110156200229357808201518184015260208101905062002276565b50505050905090810190601f168015620022c15780820380516001836020036101000a031916815260200191505b50838103825285818151815260200191508051906020019080838360005b83811015620022fc578082015181840152602081019050620022df565b50505050905090810190601f1680156200232a5780820380516001836020036101000a031916815260200191505b5095505050505050604051809103906000f0801580156200234f573d6000803e3d6000fd5b50600f60016101000a81548173ffffffffffffffffffffffffffffffffffffffff021916908373ffffffffffffffffffffffffffffffffffffffff160217905550600f60019054906101000a900473ffffffffffffffffffffffffffffffffffffffff16600160006101000a81548173ffffffffffffffffffffffffffffffffffffffff021916908373ffffffffffffffffffffffffffffffffffffffff16021790555081600490805190602001906200240b929190620031d6565b5080600581905550505050565b60038054600181600116156101000203166002900480601f016020809104026020016040519081016040528092919081815260200182805460018160011615610100020316600290048015620024b25780601f106200248657610100808354040283529160200191620024b2565b820191906000526020600020905b8154815290600101906020018083116200249457829003601f168201915b505050505081565b600d8181548110620024c857fe5b906000526020600020016000915090508054600181600116156101000203166002900480601f016020809104026020016040519081016040528092919081815260200182805460018160011615610100020316600290048015620025705780601f10620025445761010080835404028352916020019162002570565b820191906000526020600020905b8154815290600101906020018083116200255257829003601f168201915b505050505081565b60065481565b60186020528060005260406000206000915090505481565b6000809054906101000a900473ffffffffffffffffffffffffffffffffffffffff1673ffffffffffffffffffffffffffffffffffffffff163373ffffffffffffffffffffffffffffffffffffffff161462002659576040517f08c379a00000000000000000000000000000000000000000000000000000000081526004018080602001828103825260178152602001807f43616c6c6572206973206e6f7420746865206f776e657200000000000000000081525060200191505060405180910390fd5b6010600401548210620026b8576040517f08c379a0000000000000000000000000000000000000000000000000000000008152600401808060200182810382526021815260200180620049f86021913960400191505060405180910390fd5b6000809054906101000a900473ffffffffffffffffffffffffffffffffffffffff1673ffffffffffffffffffffffffffffffffffffffff166108fc839081150290604051600060405180830381858888f1935050505015801562002720573d6000803e3d6000fd5b507f54607caf30554497bff9b248e86fb7da8bc90543376aa8fcc4a0337fad5f975a82826040518083815260200180602001828103825283818151815260200191508051906020019080838360005b838110156200278c5780820151818401526020810190506200276f565b50505050905090810190601f168015620027ba5780820380516001836020036101000a031916815260200191505b50935050505060405180910390a15050565b60075481565b60003411620027e057600080fd5b600160009054906101000a900473ffffffffffffffffffffffffffffffffffffffff16600f60016101000a81548173ffffffffffffffffffffffffffffffffffffffff021916908373ffffffffffffffffffffffffffffffffffffffff16021790555060006200285c600e5434620030bf90919063ffffffff16565b9050600033905081600f60019054906101000a900473ffffffffffffffffffffffffffffffffffffffff1673ffffffffffffffffffffffffffffffffffffffff166370a08231306040518263ffffffff1660e01b8152600401808273ffffffffffffffffffffffffffffffffffffffff1673ffffffffffffffffffffffffffffffffffffffff168152602001915050602060405180830381600087803b1580156200290657600080fd5b505af11580156200291b573d6000803e3d6000fd5b505050506040513d60208110156200293257600080fd5b81019080805190602001909291905050501015620029b8576040517f08c379a00000000000000000000000000000000000000000000000000000000081526004018080602001828103825260178152602001807f546f6b656e205175616e7469747920457863656564656400000000000000000081525060200191505060405180910390fd5b60076000815480929190600101919050555060405180608001604052808581526020018481526020018273ffffffffffffffffffffffffffffffffffffffff16815260200162002a1a670de0b6b3a764000085620030bf90919063ffffffff16565b815250601760003373ffffffffffffffffffffffffffffffffffffffff1673ffffffffffffffffffffffffffffffffffffffff168152602001908152602001600020600082015181600001908051906020019062002a7a9291906200326b565b50602082015181600101908051906020019062002a999291906200326b565b5060408201518160020160006101000a81548173ffffffffffffffffffffffffffffffffffffffff021916908373ffffffffffffffffffffffffffffffffffffffff1602179055506060820151816003015590505034601860008373ffffffffffffffffffffffffffffffffffffffff1673ffffffffffffffffffffffffffffffffffffffff16815260200190815260200160002081905550600f60019054906101000a900473ffffffffffffffffffffffffffffffffffffffff1673ffffffffffffffffffffffffffffffffffffffff1663a9059cbb82846040518363ffffffff1660e01b8152600401808373ffffffffffffffffffffffffffffffffffffffff1673ffffffffffffffffffffffffffffffffffffffff16815260200182815260200192505050602060405180830381600087803b15801562002bdc57600080fd5b505af115801562002bf1573d6000803e3d6000fd5b505050506040513d602081101562002c0857600080fd5b8101908080519060200190929190505050508160066000828254019250508190555034600b600082825401925050819055507ffe2ff4cf36ff7d2c2b06eb960897ee0d76d9c3e58da12feb7b93e86b226dd3448183604051808373ffffffffffffffffffffffffffffffffffffffff1673ffffffffffffffffffffffffffffffffffffffff1681526020018281526020019250505060405180910390a150505050565b6010806000018054600181600116156101000203166002900480601f01602080910402602001604051908101604052809291908181526020018280546001816001161561010002031660029004801562002d495780601f1062002d1d5761010080835404028352916020019162002d49565b820191906000526020600020905b81548152906001019060200180831162002d2b57829003601f168201915b505050505090806001018054600181600116156101000203166002900480601f01602080910402602001604051908101604052809291908181526020018280546001816001161561010002031660029004801562002deb5780601f1062002dbf5761010080835404028352916020019162002deb565b820191906000526020600020905b81548152906001019060200180831162002dcd57829003601f168201915b505050505090806002015490806003015490806004015490806005018054600181600116156101000203166002900480601f01602080910402602001604051908101604052809291908181526020018280546001816001161561010002031660029004801562002e9f5780601f1062002e735761010080835404028352916020019162002e9f565b820191906000526020600020905b81548152906001019060200180831162002e8157829003601f168201915b5050505050905086565b6000809054906101000a900473ffffffffffffffffffffffffffffffffffffffff1673ffffffffffffffffffffffffffffffffffffffff163373ffffffffffffffffffffffffffffffffffffffff161462002f6c576040517f08c379a00000000000000000000000000000000000000000000000000000000081526004018080602001828103825260178152602001807f43616c6c6572206973206e6f7420746865206f776e657200000000000000000081525060200191505060405180910390fd5b60026010600001908054600181600116156101000203166002900462002f94929190620032f2565b50826010600101908051906020019062002fb0929190620031d6565b50826003908051906020019062002fc9929190620031d6565b50816010600501908051906020019062002fe5929190620031d6565b506201518081024201601060030181905550674563918244f40000601060040181905550505050565b600f60019054906101000a900473ffffffffffffffffffffffffffffffffffffffff1681565b600080831415620030495760009050620030b9565b60008284029050828482816200305b57fe5b0414620030b4576040517f08c379a0000000000000000000000000000000000000000000000000000000008152600401808060200182810382526021815260200180620049d76021913960400191505060405180910390fd5b809150505b92915050565b60006200310383836040518060400160405280601a81526020017f536166654d6174683a206469766973696f6e206279207a65726f0000000000008152506200310b565b905092915050565b60008083118290620031bb576040517f08c379a00000000000000000000000000000000000000000000000000000000081526004018080602001828103825283818151815260200191508051906020019080838360005b838110156200317f57808201518184015260208101905062003162565b50505050905090810190601f168015620031ad5780820380516001836020036101000a031916815260200191505b509250505060405180910390fd5b506000838581620031c857fe5b049050809150509392505050565b828054600181600116156101000203166002900490600052602060002090601f016020900481019282601f106200321957805160ff19168380011785556200324a565b828001600101855582156200324a579182015b82811115620032495782518255916020019190600101906200322c565b5b50905062003259919062003380565b5090565b61162e80620033a983390190565b828054600181600116156101000203166002900490600052602060002090601f016020900481019282601f10620032ae57805160ff1916838001178555620032df565b82800160010185558215620032df579182015b82811115620032de578251825591602001919060010190620032c1565b5b509050620032ee919062003380565b5090565b828054600181600116156101000203166002900490600052602060002090601f016020900481019282601f106200332d57805485556200336d565b828001600101855582156200336d57600052602060002091601f016020900482015b828111156200336c5782548255916001019190600101906200334f565b5b5090506200337c919062003380565b5090565b620033a591905b80821115620033a157600081600090555060010162003387565b5090565b9056fe608060405260126002553480156200001657600080fd5b506040516200162e3803806200162e833981810160405260608110156200003c57600080fd5b81019080805160405193929190846401000000008211156200005d57600080fd5b838201915060208201858111156200007457600080fd5b82518660018202830111640100000000821117156200009257600080fd5b8083526020830192505050908051906020019080838360005b83811015620000c8578082015181840152602081019050620000ab565b50505050905090810190601f168015620000f65780820380516001836020036101000a031916815260200191505b50604052602001805160405193929190846401000000008211156200011a57600080fd5b838201915060208201858111156200013157600080fd5b82518660018202830111640100000000821117156200014f57600080fd5b8083526020830192505050908051906020019080838360005b838110156200018557808201518184015260208101905062000168565b50505050905090810190601f168015620001b35780820380516001836020036101000a031916815260200191505b506040526020018051906020019092919050505033600460006101000a81548173ffffffffffffffffffffffffffffffffffffffff021916908373ffffffffffffffffffffffffffffffffffffffff16021790555062000227600254600a0a82620002ca60201b6200111d1790919060201c565b600560003373ffffffffffffffffffffffffffffffffffffffff1673ffffffffffffffffffffffffffffffffffffffff1681526020019081526020016000208190555082600090805190602001906200028292919062000355565b5081600190805190602001906200029b92919062000355565b50620002bb600254600a0a82620002ca60201b6200111d1790919060201c565b60038190555050505062000404565b600080831415620002df57600090506200034f565b6000828402905082848281620002f157fe5b04146200034a576040517f08c379a00000000000000000000000000000000000000000000000000000000081526004018080602001828103825260218152602001806200160d6021913960400191505060405180910390fd5b809150505b92915050565b828054600181600116156101000203166002900490600052602060002090601f016020900481019282601f106200039857805160ff1916838001178555620003c9565b82800160010185558215620003c9579182015b82811115620003c8578251825591602001919060010190620003ab565b5b509050620003d89190620003dc565b5090565b6200040191905b80821115620003fd576000816000905550600101620003e3565b5090565b90565b6111f980620004146000396000f3fe608060405234801561001057600080fd5b50600436106100cf5760003560e01c806370a082311161008c5780639dc29fac116100665780639dc29fac146103fc578063a44b47f71461044a578063a9059cbb14610468578063dd62ed3e146104ce576100cf565b806370a08231146102d75780638da5cb5b1461032f57806395d89b4114610379576100cf565b806306fdde03146100d4578063095ea7b31461015757806318160ddd146101bd57806323b872dd146101db57806327e235e314610261578063313ce567146102b9575b600080fd5b6100dc610546565b6040518080602001828103825283818151815260200191508051906020019080838360005b8381101561011c578082015181840152602081019050610101565b50505050905090810190601f1680156101495780820380516001836020036101000a031916815260200191505b509250505060405180910390f35b6101a36004803603604081101561016d57600080fd5b81019080803573ffffffffffffffffffffffffffffffffffffffff169060200190929190803590602001909291905050506105e4565b604051808215151515815260200191505060405180910390f35b6101c56106d6565b6040518082815260200191505060405180910390f35b610247600480360360608110156101f157600080fd5b81019080803573ffffffffffffffffffffffffffffffffffffffff169060200190929190803573ffffffffffffffffffffffffffffffffffffffff169060200190929190803590602001909291905050506106e0565b604051808215151515815260200191505060405180910390f35b6102a36004803603602081101561027757600080fd5b81019080803573ffffffffffffffffffffffffffffffffffffffff1690602001909291905050506109e7565b6040518082815260200191505060405180910390f35b6102c16109ff565b6040518082815260200191505060405180910390f35b610319600480360360208110156102ed57600080fd5b81019080803573ffffffffffffffffffffffffffffffffffffffff169060200190929190505050610a05565b6040518082815260200191505060405180910390f35b610337610a4e565b604051808273ffffffffffffffffffffffffffffffffffffffff1673ffffffffffffffffffffffffffffffffffffffff16815260200191505060405180910390f35b610381610a74565b6040518080602001828103825283818151815260200191508051906020019080838360005b838110156103c15780820151818401526020810190506103a6565b50505050905090810190601f1680156103ee5780820380516001836020036101000a031916815260200191505b509250505060405180910390f35b6104486004803603604081101561041257600080fd5b81019080803573ffffffffffffffffffffffffffffffffffffffff16906020019092919080359060200190929190505050610b12565b005b610452610d92565b6040518082815260200191505060405180910390f35b6104b46004803603604081101561047e57600080fd5b81019080803573ffffffffffffffffffffffffffffffffffffffff16906020019092919080359060200190929190505050610d98565b604051808215151515815260200191505060405180910390f35b610530600480360360408110156104e457600080fd5b81019080803573ffffffffffffffffffffffffffffffffffffffff169060200190929190803573ffffffffffffffffffffffffffffffffffffffff169060200190929190505050610f8c565b6040518082815260200191505060405180910390f35b60018054600181600116156101000203166002900480601f0160208091040260200160405190810160405280929190818152602001828054600181600116156101000203166002900480156105dc5780601f106105b1576101008083540402835291602001916105dc565b820191906000526020600020905b8154815290600101906020018083116105bf57829003601f168201915b505050505081565b600081600660003373ffffffffffffffffffffffffffffffffffffffff1673ffffffffffffffffffffffffffffffffffffffff16815260200190815260200160002060008573ffffffffffffffffffffffffffffffffffffffff1673ffffffffffffffffffffffffffffffffffffffff168152602001908152602001600020819055508273ffffffffffffffffffffffffffffffffffffffff163373ffffffffffffffffffffffffffffffffffffffff167f8c5be1e5ebec7d5bd14f71427d1e84f3dd0314c0f7b2291e5b200ac8c7c3b925846040518082815260200191505060405180910390a36001905092915050565b6000600354905090565b600081600560008673ffffffffffffffffffffffffffffffffffffffff1673ffffffffffffffffffffffffffffffffffffffff16815260200190815260200160002054101580156107ad575081600660008673ffffffffffffffffffffffffffffffffffffffff1673ffffffffffffffffffffffffffffffffffffffff16815260200190815260200160002060003373ffffffffffffffffffffffffffffffffffffffff1673ffffffffffffffffffffffffffffffffffffffff1681526020019081526020016000205410155b80156107b95750600082115b80156108445750600560008473ffffffffffffffffffffffffffffffffffffffff1673ffffffffffffffffffffffffffffffffffffffff1681526020019081526020016000205482600560008673ffffffffffffffffffffffffffffffffffffffff1673ffffffffffffffffffffffffffffffffffffffff1681526020019081526020016000205401115b156109db5781600560008673ffffffffffffffffffffffffffffffffffffffff1673ffffffffffffffffffffffffffffffffffffffff1681526020019081526020016000206000828254039250508190555081600660008673ffffffffffffffffffffffffffffffffffffffff1673ffffffffffffffffffffffffffffffffffffffff16815260200190815260200160002060003373ffffffffffffffffffffffffffffffffffffffff1673ffffffffffffffffffffffffffffffffffffffff1681526020019081526020016000206000828254039250508190555081600560008573ffffffffffffffffffffffffffffffffffffffff1673ffffffffffffffffffffffffffffffffffffffff168152602001908152602001600020600082825401925050819055508273ffffffffffffffffffffffffffffffffffffffff168473ffffffffffffffffffffffffffffffffffffffff167fddf252ad1be2c89b69c2b068fc378daa952ba7f163c4a11628f55a4df523b3ef846040518082815260200191505060405180910390a3600190506109e0565b600090505b9392505050565b60056020528060005260406000206000915090505481565b60025481565b6000600560008373ffffffffffffffffffffffffffffffffffffffff1673ffffffffffffffffffffffffffffffffffffffff168152602001908152602001600020549050919050565b600460009054906101000a900473ffffffffffffffffffffffffffffffffffffffff1681565b60008054600181600116156101000203166002900480601f016020809104026020016040519081016040528092919081815260200182805460018160011615610100020316600290048015610b0a5780601f10610adf57610100808354040283529160200191610b0a565b820191906000526020600020905b815481529060010190602001808311610aed57829003601f168201915b505050505081565b600073ffffffffffffffffffffffffffffffffffffffff168273ffffffffffffffffffffffffffffffffffffffff161415610bb5576040517f08c379a00000000000000000000000000000000000000000000000000000000081526004018080602001828103825260208152602001807f4552433230206275726e2066726f6d207a65726f20616464726573732077746681525060200191505060405180910390fd5b600460009054906101000a900473ffffffffffffffffffffffffffffffffffffffff1673ffffffffffffffffffffffffffffffffffffffff163373ffffffffffffffffffffffffffffffffffffffff1614610c78576040517f08c379a00000000000000000000000000000000000000000000000000000000081526004018080602001828103825260138152602001807f6f6e6c79206f776e65722063616e206275726e0000000000000000000000000081525060200191505060405180910390fd5b610cca81600560008573ffffffffffffffffffffffffffffffffffffffff1673ffffffffffffffffffffffffffffffffffffffff1681526020019081526020016000205461101390919063ffffffff16565b600560008473ffffffffffffffffffffffffffffffffffffffff1673ffffffffffffffffffffffffffffffffffffffff16815260200190815260200160002081905550610d228160035461101390919063ffffffff16565b600381905550600073ffffffffffffffffffffffffffffffffffffffff168273ffffffffffffffffffffffffffffffffffffffff167fddf252ad1be2c89b69c2b068fc378daa952ba7f163c4a11628f55a4df523b3ef836040518082815260200191505060405180910390a35050565b60035481565b600081600560003373ffffffffffffffffffffffffffffffffffffffff1673ffffffffffffffffffffffffffffffffffffffff1681526020019081526020016000205410158015610de95750600082115b8015610e745750600560008473ffffffffffffffffffffffffffffffffffffffff1673ffffffffffffffffffffffffffffffffffffffff1681526020019081526020016000205482600560008673ffffffffffffffffffffffffffffffffffffffff1673ffffffffffffffffffffffffffffffffffffffff1681526020019081526020016000205401115b15610f815781600560003373ffffffffffffffffffffffffffffffffffffffff1673ffffffffffffffffffffffffffffffffffffffff1681526020019081526020016000206000828254039250508190555081600560008573ffffffffffffffffffffffffffffffffffffffff1673ffffffffffffffffffffffffffffffffffffffff168152602001908152602001600020600082825401925050819055508273ffffffffffffffffffffffffffffffffffffffff163373ffffffffffffffffffffffffffffffffffffffff167fddf252ad1be2c89b69c2b068fc378daa952ba7f163c4a11628f55a4df523b3ef846040518082815260200191505060405180910390a360019050610f86565b600090505b92915050565b6000600660008473ffffffffffffffffffffffffffffffffffffffff1673ffffffffffffffffffffffffffffffffffffffff16815260200190815260200160002060008373ffffffffffffffffffffffffffffffffffffffff1673ffffffffffffffffffffffffffffffffffffffff16815260200190815260200160002054905092915050565b600061105583836040518060400160405280601e81526020017f536166654d6174683a207375627472616374696f6e206f766572666c6f77000081525061105d565b905092915050565b600083831115829061110a576040517f08c379a00000000000000000000000000000000000000000000000000000000081526004018080602001828103825283818151815260200191508051906020019080838360005b838110156110cf5780820151818401526020810190506110b4565b50505050905090810190601f1680156110fc5780820380516001836020036101000a031916815260200191505b509250505060405180910390fd5b5060008385039050809150509392505050565b600080831415611130576000905061119d565b600082840290508284828161114157fe5b0414611198576040517f08c379a00000000000000000000000000000000000000000000000000000000081526004018080602001828103825260218152602001806111a46021913960400191505060405180910390fd5b809150505b9291505056fe536166654d6174683a206d756c7469706c69636174696f6e206f766572666c6f77a265627a7a723158205254c73e88e97ff7dcf8a24ed6dc142b2974ea4b87c640294550b209209400cb64736f6c63430005100032536166654d6174683a206d756c7469706c69636174696f6e206f766572666c6f77536166654d6174683a206d756c7469706c69636174696f6e206f766572666c6f774f70656e20766f746520746f207769746864726177206d6f72652065746865722ea265627a7a72315820387bc0e625b99713acf262573cee2ef3e80615067c8f9eef1adc207a220fb8aa64736f6c63430005100032",
  "source": "pragma solidity ^0.5.1;\r\n\r\nimport \"./TokenFactory.sol\";\r\nimport \"./SafeMath.sol\";\r\n\r\ncontract MovieContract {\r\n  using SafeMath for uint256;\r\n\r\n  address payable public owner;\r\n  address public tokenAddress;\r\n  string public movieName;\r\n  string public summary;\r\n  string public tokenName;\r\n  // uint256 public deadline;\r\n  uint256 public totalSupply;\r\n  uint256 public totalTokenSold;\r\n  // uint256 public tokenPrice = 1000;\r\n  // uint256 public creationDate;\r\n  uint256 public investorCount;\r\n  uint256 public requestCount;\r\n  uint256 public voterCount;\r\n  uint256 public withdrawCount;\r\n  uint256 public totalInvestment;\r\n  uint256 public totalProfit;\r\n  string[] public updates;\r\n\r\n  uint256 public rate = 0.001 * 10 ** 18; //ETH per Token\r\n\r\n  enum State { PRE_PRODUCTION, PRODUCTION, RELEASED, OVER } // Rate - 0.001, 0.003, profitDependent\r\n  State public currentState = State.PRE_PRODUCTION;\r\n  \r\nTokenFactory public token;\r\n\r\n\r\nconstructor(string memory _movieName, address payable _movieCreator) public{\r\n    owner = _movieCreator;\r\n    movieName = _movieName;\r\n    movie.creationDate = now;\r\n  }\r\n// Stucts\r\n  struct movieDetails{\r\n    string name;\r\n    string details;\r\n    uint256 creationDate;\r\n    uint256 deadline;\r\n    uint256 maxReleaseLimit;\r\n    string ipfsHash;\r\n  }\r\n\r\n  struct investorDetails{\r\n    string name;\r\n    string contactDetails;\r\n    address payable investorAddress;\r\n    uint256 tokensBought;\r\n  }\r\n\r\n  struct WithdrawRequest{\r\n  \t uint256 amountOfEth;\r\n     uint256 numberOfVoters;\r\n  \t string description;\r\n  \t string receiverDesignation;\r\n     bool completed;\r\n     address payable recipient;\r\n    \r\n    mapping(address=>bool) voters;\r\n  }\r\n\r\n   movieDetails public movie;\r\n\r\n//Mappings\r\n  mapping (address => bool) public profitAdded;\r\n  mapping (address => investorDetails)public investors;\r\n  mapping (address => uint256 ) public investedAmount;\r\n  mapping (uint256 => WithdrawRequest) public requests;\r\n  \r\n\r\n  modifier  onlyOwner() { \r\n    require(msg.sender == owner, \"Caller is not the owner\"); \r\n    _; \r\n  }\r\n  \r\n//Events\r\n  event TokenSold(address buyer,uint256 amount);\r\n  event etherWithdrawn(address rec,string designation,uint256 amount);\r\n  event MovieState(State _currentState, uint _currentRate);\r\n  event etherReleased(uint256 _amount, string _reason); //only owner releases funds small expenses\r\n\r\n\r\n\r\n  function addMovie(string memory _details, string memory _ipfs, uint256 _timeInDays) public onlyOwner{\r\n    movie.name = movieName;\r\n    movie.details = _details;\r\n    summary = _details;\r\n    movie.ipfsHash = _ipfs;\r\n    movie.deadline = now + _timeInDays * 1 days;\r\n    movie.maxReleaseLimit = 5 ether;\r\n  }\r\n\r\n  function createMovieToken(string memory _symbol, string memory _name, uint256 _totalSupply) public onlyOwner{\r\n      token = new TokenFactory(_symbol, _name, _totalSupply);\r\n      tokenAddress = address(token);\r\n      tokenName = _name;\r\n      totalSupply = _totalSupply;\r\n  }\r\n\r\n  function updateState(State _state) public onlyOwner returns (uint _rate) {\r\n    currentState = _state;\r\n    if(_state == State.PRODUCTION) {\r\n      rate = 0.003 * 10 ** 18;\r\n    }\r\n    // else if(_state == State.RELEASED) {\r\n    //   rate = 0.1;\r\n    // }\r\n    emit MovieState(currentState, rate);\r\n    return rate;\r\n  }\r\n\r\n  function projectUpdate(string memory _update) public onlyOwner {\r\n    updates.push(_update);\r\n  }\r\n\r\n  function reportProfit() public payable onlyOwner {\r\n    require(currentState == State.RELEASED);\r\n    require(msg.value > 0);\r\n    totalProfit += msg.value;\r\n    // rate = totalProfit.div(totalInvestment).mul(10 ** 18);\r\n    rate = totalProfit.div(totalTokenSold);\r\n    emit MovieState(currentState, rate);    \r\n  }\r\n\r\n//amountToGive = rate.mul(msg.value); // if user send 1 ETH it will give 1000 tokens.\r\n  function buyMovieTokens(string memory _name, string memory _contact) public payable{\r\n    require (msg.value > 0);\r\n    token = TokenFactory(tokenAddress);\r\n    // uint256 _numberOfTokens = tokenPrice.mul(msg.value);\r\n    uint256 _numberOfTokens = msg.value.div(rate);\r\n    address payable _to = msg.sender;\r\n\r\n    require(token.balanceOf(address(this)) >= _numberOfTokens, \"Token Quantity Exceeded\");\r\n    investorCount++;\r\n    investors[msg.sender] = investorDetails(_name, _contact,_to,_numberOfTokens.div(1000000000000000000));\r\n    investedAmount[_to] = msg.value;\r\n    token.transfer(_to,_numberOfTokens);\r\n    totalTokenSold += _numberOfTokens;\r\n    totalInvestment += msg.value;\r\n    emit TokenSold(_to,_numberOfTokens);\r\n  }\r\n/*\r\n  function  initiateRequest(string memory _desc,address payable _rec,string memory _receiverDesignation,uint256 _val) public onlyOwner{\r\n  \trequestCount++;\r\n  \trequests[requestCount] = WithdrawRequest(_val.mul(1 ether),0,_desc,_receiverDesignation,false,_rec);\r\n  }\r\n  \r\n  function startVoting(uint256 _index) public{\r\n  \t\trequire (investedAmount[msg.sender] > 0,\"Investor Not Eligible to VOTE\");\r\n  \t\trequire (requests[_index].voters[msg.sender] == false,\"Vote Already registered from this addreess\");\r\n\r\n  \t\trequests[_index].voters[msg.sender] = true;\r\n  \t\trequests[_index].numberOfVoters++;\t\r\n  }\r\n  \r\n\r\n  function  withdrawEther(uint256 _index) public onlyOwner{\r\n    require (requests[_index].completed == false,\"This Request already Executed\");\r\n    require (requests[_index].numberOfVoters > investorCount.div(2),\"Vote Result is NEGATIVE\");\r\n\r\n    requests[_index].recipient.transfer(requests[_index].amountOfEth);\r\n    requests[_index].completed == true;\r\n    \r\n    \r\n    emit etherWithdrawn(requests[_index].recipient,requests[_index].receiverDesignation,requests[_index].amountOfEth);\r\n  }\r\n*/\r\n  function releaseFunds(uint256 _amount, string memory _reason) public onlyOwner payable {\r\n    require(_amount < movie.maxReleaseLimit, 'Open vote to withdraw more ether.');\r\n    owner.transfer(_amount);\r\n    emit etherReleased(_amount, _reason);\r\n  }\r\n  \r\n  function getBalance() public view returns(uint256){\r\n      return address(this).balance;\r\n  }\r\n\r\n  function updateCount() public view returns(uint) {\r\n    return updates.length;\r\n  }\r\n  \r\n  function unlockEther(uint256 _amountOfTokens) public{\r\n    require(now < movie.deadline, \"Deadline already Achieved\");\r\n    address payable user = msg.sender;\r\n    token = TokenFactory(tokenAddress);\r\n  \r\n    uint256 totalTokens = token.balanceOf(user);\r\n    require (_amountOfTokens <= totalTokens, \"Not Enough tokens\");\r\n    // uint256 totalEth = _amountOfTokens.mul(1000000000000000);\r\n    uint256 totalEth = _amountOfTokens.mul(rate);\r\n    require(investedAmount[msg.sender] > totalEth);\r\n    require(address(this).balance > totalEth, \"Not Enough Ether to transfer\");\r\n    investedAmount[user] -= totalEth;\r\n    totalTokenSold -= _amountOfTokens;\r\n    user.transfer(totalEth);\r\n    token.burn(user,_amountOfTokens);\r\n  }\r\n    \r\n   \r\n}",
  "sourcePath": "C:\\Users\\dhair\\Desktop\\ETH\\proj\\CineBlocks\\contracts\\MovieContract.sol",
  "compiler": {
    "name": "solc",
    "version": "0.5.16+commit.9c3226ce.Emscripten.clang"
  },
  "schemaVersion": "3.0.22",
  "updatedAt": "2020-09-10T21:53:40.654Z",
  "devdoc": {
    "methods": {}
  },
  "userdoc": {
    "methods": {}
  }
}