{
  "contractName": "MovieContract",
  "abi": [
    {
      "inputs": [
        {
          "internalType": "string",
          "name": "_movieName",
          "type": "string"
        },
        {
          "internalType": "address payable",
          "name": "_movieCreator",
          "type": "address"
        }
      ],
      "payable": false,
      "stateMutability": "nonpayable",
      "type": "constructor"
    },
    {
      "anonymous": false,
      "inputs": [
        {
          "indexed": false,
          "internalType": "enum MovieContract.State",
          "name": "_currentState",
          "type": "uint8"
        },
        {
          "indexed": false,
          "internalType": "uint256",
          "name": "_currentRate",
          "type": "uint256"
        }
      ],
      "name": "MovieState",
      "type": "event"
    },
    {
      "anonymous": false,
      "inputs": [
        {
          "indexed": false,
          "internalType": "address",
          "name": "buyer",
          "type": "address"
        },
        {
          "indexed": false,
          "internalType": "uint256",
          "name": "amount",
          "type": "uint256"
        }
      ],
      "name": "TokenSold",
      "type": "event"
    },
    {
      "anonymous": false,
      "inputs": [
        {
          "indexed": false,
          "internalType": "address",
          "name": "rec",
          "type": "address"
        },
        {
          "indexed": false,
          "internalType": "string",
          "name": "designation",
          "type": "string"
        },
        {
          "indexed": false,
          "internalType": "uint256",
          "name": "amount",
          "type": "uint256"
        }
      ],
      "name": "etherWithdrawn",
      "type": "event"
    },
    {
      "anonymous": false,
      "inputs": [
        {
          "indexed": false,
          "internalType": "address",
          "name": "rec",
          "type": "address"
        },
        {
          "indexed": false,
          "internalType": "uint256",
          "name": "amount",
          "type": "uint256"
        }
      ],
      "name": "etherWithdrawn",
      "type": "event"
    },
    {
      "constant": true,
      "inputs": [],
      "name": "creationDate",
      "outputs": [
        {
          "internalType": "uint256",
          "name": "",
          "type": "uint256"
        }
      ],
      "payable": false,
      "stateMutability": "view",
      "type": "function"
    },
    {
      "constant": true,
      "inputs": [],
      "name": "currentState",
      "outputs": [
        {
          "internalType": "enum MovieContract.State",
          "name": "",
          "type": "uint8"
        }
      ],
      "payable": false,
      "stateMutability": "view",
      "type": "function"
    },
    {
      "constant": true,
      "inputs": [],
      "name": "deadline",
      "outputs": [
        {
          "internalType": "uint256",
          "name": "",
          "type": "uint256"
        }
      ],
      "payable": false,
      "stateMutability": "view",
      "type": "function"
    },
    {
      "constant": true,
      "inputs": [
        {
          "internalType": "address",
          "name": "",
          "type": "address"
        }
      ],
      "name": "investedAmount",
      "outputs": [
        {
          "internalType": "uint256",
          "name": "",
          "type": "uint256"
        }
      ],
      "payable": false,
      "stateMutability": "view",
      "type": "function"
    },
    {
      "constant": true,
      "inputs": [],
      "name": "investorCount",
      "outputs": [
        {
          "internalType": "uint256",
          "name": "",
          "type": "uint256"
        }
      ],
      "payable": false,
      "stateMutability": "view",
      "type": "function"
    },
    {
      "constant": true,
      "inputs": [
        {
          "internalType": "address",
          "name": "",
          "type": "address"
        }
      ],
      "name": "investors",
      "outputs": [
        {
          "internalType": "string",
          "name": "name",
          "type": "string"
        },
        {
          "internalType": "string",
          "name": "contactDetails",
          "type": "string"
        },
        {
          "internalType": "address payable",
          "name": "investorAddress",
          "type": "address"
        },
        {
          "internalType": "uint256",
          "name": "tokensBought",
          "type": "uint256"
        }
      ],
      "payable": false,
      "stateMutability": "view",
      "type": "function"
    },
    {
      "constant": true,
      "inputs": [],
      "name": "movie",
      "outputs": [
        {
          "internalType": "string",
          "name": "name",
          "type": "string"
        },
        {
          "internalType": "string",
          "name": "details",
          "type": "string"
        },
        {
          "internalType": "string",
          "name": "ipfsHash",
          "type": "string"
        }
      ],
      "payable": false,
      "stateMutability": "view",
      "type": "function"
    },
    {
      "constant": true,
      "inputs": [],
      "name": "movieName",
      "outputs": [
        {
          "internalType": "string",
          "name": "",
          "type": "string"
        }
      ],
      "payable": false,
      "stateMutability": "view",
      "type": "function"
    },
    {
      "constant": true,
      "inputs": [],
      "name": "owner",
      "outputs": [
        {
          "internalType": "address payable",
          "name": "",
          "type": "address"
        }
      ],
      "payable": false,
      "stateMutability": "view",
      "type": "function"
    },
    {
      "constant": true,
      "inputs": [
        {
          "internalType": "address",
          "name": "",
          "type": "address"
        }
      ],
      "name": "profitAdded",
      "outputs": [
        {
          "internalType": "bool",
          "name": "",
          "type": "bool"
        }
      ],
      "payable": false,
      "stateMutability": "view",
      "type": "function"
    },
    {
      "constant": true,
      "inputs": [],
      "name": "rate",
      "outputs": [
        {
          "internalType": "uint256",
          "name": "",
          "type": "uint256"
        }
      ],
      "payable": false,
      "stateMutability": "view",
      "type": "function"
    },
    {
      "constant": true,
      "inputs": [],
      "name": "requestCount",
      "outputs": [
        {
          "internalType": "uint256",
          "name": "",
          "type": "uint256"
        }
      ],
      "payable": false,
      "stateMutability": "view",
      "type": "function"
    },
    {
      "constant": true,
      "inputs": [
        {
          "internalType": "uint256",
          "name": "",
          "type": "uint256"
        }
      ],
      "name": "requests",
      "outputs": [
        {
          "internalType": "uint256",
          "name": "amountOfEth",
          "type": "uint256"
        },
        {
          "internalType": "uint256",
          "name": "numberOfVoters",
          "type": "uint256"
        },
        {
          "internalType": "string",
          "name": "description",
          "type": "string"
        },
        {
          "internalType": "string",
          "name": "receiverDesignation",
          "type": "string"
        },
        {
          "internalType": "bool",
          "name": "completed",
          "type": "bool"
        },
        {
          "internalType": "address payable",
          "name": "recipient",
          "type": "address"
        }
      ],
      "payable": false,
      "stateMutability": "view",
      "type": "function"
    },
    {
      "constant": true,
      "inputs": [],
      "name": "summary",
      "outputs": [
        {
          "internalType": "string",
          "name": "",
          "type": "string"
        }
      ],
      "payable": false,
      "stateMutability": "view",
      "type": "function"
    },
    {
      "constant": true,
      "inputs": [],
      "name": "token",
      "outputs": [
        {
          "internalType": "contract TokenFactory",
          "name": "",
          "type": "address"
        }
      ],
      "payable": false,
      "stateMutability": "view",
      "type": "function"
    },
    {
      "constant": true,
      "inputs": [],
      "name": "tokenAddress",
      "outputs": [
        {
          "internalType": "address",
          "name": "",
          "type": "address"
        }
      ],
      "payable": false,
      "stateMutability": "view",
      "type": "function"
    },
    {
      "constant": true,
      "inputs": [],
      "name": "tokenName",
      "outputs": [
        {
          "internalType": "string",
          "name": "",
          "type": "string"
        }
      ],
      "payable": false,
      "stateMutability": "view",
      "type": "function"
    },
    {
      "constant": true,
      "inputs": [],
      "name": "tokenPrice",
      "outputs": [
        {
          "internalType": "uint256",
          "name": "",
          "type": "uint256"
        }
      ],
      "payable": false,
      "stateMutability": "view",
      "type": "function"
    },
    {
      "constant": true,
      "inputs": [],
      "name": "totalInvestment",
      "outputs": [
        {
          "internalType": "uint256",
          "name": "",
          "type": "uint256"
        }
      ],
      "payable": false,
      "stateMutability": "view",
      "type": "function"
    },
    {
      "constant": true,
      "inputs": [],
      "name": "totalProfit",
      "outputs": [
        {
          "internalType": "uint256",
          "name": "",
          "type": "uint256"
        }
      ],
      "payable": false,
      "stateMutability": "view",
      "type": "function"
    },
    {
      "constant": true,
      "inputs": [],
      "name": "totalSupply",
      "outputs": [
        {
          "internalType": "uint256",
          "name": "",
          "type": "uint256"
        }
      ],
      "payable": false,
      "stateMutability": "view",
      "type": "function"
    },
    {
      "constant": true,
      "inputs": [],
      "name": "totalTokenSold",
      "outputs": [
        {
          "internalType": "uint256",
          "name": "",
          "type": "uint256"
        }
      ],
      "payable": false,
      "stateMutability": "view",
      "type": "function"
    },
    {
      "constant": true,
      "inputs": [],
      "name": "voterCount",
      "outputs": [
        {
          "internalType": "uint256",
          "name": "",
          "type": "uint256"
        }
      ],
      "payable": false,
      "stateMutability": "view",
      "type": "function"
    },
    {
      "constant": true,
      "inputs": [],
      "name": "withdrawCount",
      "outputs": [
        {
          "internalType": "uint256",
          "name": "",
          "type": "uint256"
        }
      ],
      "payable": false,
      "stateMutability": "view",
      "type": "function"
    },
    {
      "constant": false,
      "inputs": [
        {
          "internalType": "string",
          "name": "_details",
          "type": "string"
        },
        {
          "internalType": "string",
          "name": "_ipfs",
          "type": "string"
        },
        {
          "internalType": "uint256",
          "name": "_timeInDays",
          "type": "uint256"
        }
      ],
      "name": "addMovie",
      "outputs": [],
      "payable": false,
      "stateMutability": "nonpayable",
      "type": "function"
    },
    {
      "constant": false,
      "inputs": [
        {
          "internalType": "string",
          "name": "_symbol",
          "type": "string"
        },
        {
          "internalType": "string",
          "name": "_name",
          "type": "string"
        },
        {
          "internalType": "uint256",
          "name": "_totalSupply",
          "type": "uint256"
        }
      ],
      "name": "createMovieToken",
      "outputs": [],
      "payable": false,
      "stateMutability": "nonpayable",
      "type": "function"
    },
    {
      "constant": false,
      "inputs": [
        {
          "internalType": "enum MovieContract.State",
          "name": "_state",
          "type": "uint8"
        }
      ],
      "name": "updateState",
      "outputs": [
        {
          "internalType": "uint256",
          "name": "_rate",
          "type": "uint256"
        }
      ],
      "payable": false,
      "stateMutability": "nonpayable",
      "type": "function"
    },
    {
      "constant": false,
      "inputs": [],
      "name": "reportProfit",
      "outputs": [],
      "payable": true,
      "stateMutability": "payable",
      "type": "function"
    },
    {
      "constant": false,
      "inputs": [
        {
          "internalType": "string",
          "name": "_name",
          "type": "string"
        },
        {
          "internalType": "string",
          "name": "_contact",
          "type": "string"
        }
      ],
      "name": "buyMovieTokens",
      "outputs": [],
      "payable": true,
      "stateMutability": "payable",
      "type": "function"
    },
    {
      "constant": false,
      "inputs": [
        {
          "internalType": "string",
          "name": "_desc",
          "type": "string"
        },
        {
          "internalType": "address payable",
          "name": "_rec",
          "type": "address"
        },
        {
          "internalType": "string",
          "name": "_receiverDesignation",
          "type": "string"
        },
        {
          "internalType": "uint256",
          "name": "_val",
          "type": "uint256"
        }
      ],
      "name": "initiateRequest",
      "outputs": [],
      "payable": false,
      "stateMutability": "nonpayable",
      "type": "function"
    },
    {
      "constant": false,
      "inputs": [
        {
          "internalType": "uint256",
          "name": "_index",
          "type": "uint256"
        }
      ],
      "name": "startVoting",
      "outputs": [],
      "payable": false,
      "stateMutability": "nonpayable",
      "type": "function"
    },
    {
      "constant": false,
      "inputs": [
        {
          "internalType": "uint256",
          "name": "_index",
          "type": "uint256"
        }
      ],
      "name": "withdrawEther",
      "outputs": [],
      "payable": false,
      "stateMutability": "nonpayable",
      "type": "function"
    },
    {
      "constant": true,
      "inputs": [],
      "name": "getBalance",
      "outputs": [
        {
          "internalType": "uint256",
          "name": "",
          "type": "uint256"
        }
      ],
      "payable": false,
      "stateMutability": "view",
      "type": "function"
    },
    {
      "constant": false,
      "inputs": [
        {
          "internalType": "uint256",
          "name": "_amountOfTokens",
          "type": "uint256"
        }
      ],
      "name": "unlockEther",
      "outputs": [
        {
          "internalType": "uint256",
          "name": "",
          "type": "uint256"
        }
      ],
      "payable": false,
      "stateMutability": "nonpayable",
      "type": "function"
    }
  ],
  "bytecode": "0x60806040526103e860085566038d7ea4c680006010556000601160006101000a81548160ff021916908360038111156200003557fe5b02179055503480156200004757600080fd5b5060405162004c5538038062004c55833981810160405260408110156200006d57600080fd5b81019080805160405193929190846401000000008211156200008e57600080fd5b83820191506020820185811115620000a557600080fd5b8251866001820283011164010000000082111715620000c357600080fd5b8083526020830192505050908051906020019080838360005b83811015620000f9578082015181840152602081019050620000dc565b50505050905090810190601f168015620001275780820380516001836020036101000a031916815260200191505b5060405260200180519060200190929190505050806000806101000a81548173ffffffffffffffffffffffffffffffffffffffff021916908373ffffffffffffffffffffffffffffffffffffffff160217905550816002908051906020019062000193929190620001a3565b5042600981905550505062000252565b828054600181600116156101000203166002900490600052602060002090601f016020900481019282601f10620001e657805160ff191683800117855562000217565b8280016001018555821562000217579182015b8281111562000216578251825591602001919060010190620001f9565b5b5090506200022691906200022a565b5090565b6200024f91905b808211156200024b57600081600090555060010162000231565b5090565b90565b6149f380620002626000396000f3fe6080604052600436106200022a5760003560e01c8063623c168f1162000127578063ae4cc89411620000af578063d7e64c001162000079578063d7e64c001462000f09578063d9895de01462000f37578063e362bcac1462001092578063f012666e1462001206578063fc0c546a1462001379576200022a565b8063ae4cc8941462000c69578063b16a867c1462000ddc578063b5f7f6361462000e72578063cff774441462000ea0576200022a565b806381d12c5811620000f157806381d12c581462000a11578063860015191462000b875780638da5cb5b1462000bb55780639d76ea581462000c0f576200022a565b8063623c168f14620006405780636c02a93114620007d35780636f7bc9be14620008695780637ff9b59614620009e3576200022a565b806320a1d4e511620001b75780633bed33ce11620001815780633bed33ce14620005385780633d2f5bda146200057757806342169e4814620005b65780634cc05a7114620005e45780635badbe4c1462000612576200022a565b806320a1d4e514620003d957806327eef6f3146200044657806329dcb0cf14620004dc5780632c4e722e146200050a576200022a565b80630c3f6acf11620001f95780630c3f6acf146200031257806310ea13df146200034f57806312065fe0146200037d57806318160ddd14620003ab576200022a565b80630591d3ab146200022f57806305b3441014620002855780630ab9408614620002b35780630bbdc98d1462000306575b600080fd5b3480156200023c57600080fd5b506200026f600480360360208110156200025557600080fd5b81019080803560ff169060200190929190505050620013d3565b6040518082815260200191505060405180910390f35b3480156200029257600080fd5b506200029d62001556565b6040518082815260200191505060405180910390f35b348015620002c057600080fd5b50620002f060048036036020811015620002d957600080fd5b81019080803590602001909291905050506200155c565b6040518082815260200191505060405180910390f35b620003106200192d565b005b3480156200031f57600080fd5b506200032a62001ac3565b604051808260038111156200033b57fe5b60ff16815260200191505060405180910390f35b3480156200035c57600080fd5b506200036762001ad6565b6040518082815260200191505060405180910390f35b3480156200038a57600080fd5b506200039562001adc565b6040518082815260200191505060405180910390f35b348015620003b857600080fd5b50620003c362001ae4565b6040518082815260200191505060405180910390f35b348015620003e657600080fd5b506200042c60048036036020811015620003ff57600080fd5b81019080803573ffffffffffffffffffffffffffffffffffffffff16906020019092919050505062001aea565b604051808215151515815260200191505060405180910390f35b3480156200045357600080fd5b506200045e62001b0a565b6040518080602001828103825283818151815260200191508051906020019080838360005b83811015620004a057808201518184015260208101905062000483565b50505050905090810190601f168015620004ce5780820380516001836020036101000a031916815260200191505b509250505060405180910390f35b348015620004e957600080fd5b50620004f462001bac565b6040518082815260200191505060405180910390f35b3480156200051757600080fd5b506200052262001bb2565b6040518082815260200191505060405180910390f35b3480156200054557600080fd5b5062000575600480360360208110156200055e57600080fd5b810190808035906020019092919050505062001bb8565b005b3480156200058457600080fd5b50620005b4600480360360208110156200059d57600080fd5b810190808035906020019092919050505062001fd4565b005b348015620005c357600080fd5b50620005ce620021de565b6040518082815260200191505060405180910390f35b348015620005f157600080fd5b50620005fc620021e4565b6040518082815260200191505060405180910390f35b3480156200061f57600080fd5b506200062a620021ea565b6040518082815260200191505060405180910390f35b3480156200064d57600080fd5b50620007d1600480360360808110156200066657600080fd5b81019080803590602001906401000000008111156200068457600080fd5b8201836020820111156200069757600080fd5b80359060200191846001830284011164010000000083111715620006ba57600080fd5b91908080601f016020809104026020016040519081016040528093929190818152602001838380828437600081840152601f19601f820116905080830192505050505050509192919290803573ffffffffffffffffffffffffffffffffffffffff169060200190929190803590602001906401000000008111156200073e57600080fd5b8201836020820111156200075157600080fd5b803590602001918460018302840111640100000000831117156200077457600080fd5b91908080601f016020809104026020016040519081016040528093929190818152602001838380828437600081840152601f19601f82011690508083019250505050505050919291929080359060200190929190505050620021f0565b005b348015620007e057600080fd5b50620007eb620023ff565b6040518080602001828103825283818151815260200191508051906020019080838360005b838110156200082d57808201518184015260208101905062000810565b50505050905090810190601f1680156200085b5780820380516001836020036101000a031916815260200191505b509250505060405180910390f35b3480156200087657600080fd5b50620008bc600480360360208110156200088f57600080fd5b81019080803573ffffffffffffffffffffffffffffffffffffffff169060200190929190505050620024a1565b6040518080602001806020018573ffffffffffffffffffffffffffffffffffffffff1673ffffffffffffffffffffffffffffffffffffffff168152602001848152602001838103835287818151815260200191508051906020019080838360005b838110156200093a5780820151818401526020810190506200091d565b50505050905090810190601f168015620009685780820380516001836020036101000a031916815260200191505b50838103825286818151815260200191508051906020019080838360005b83811015620009a357808201518184015260208101905062000986565b50505050905090810190601f168015620009d15780820380516001836020036101000a031916815260200191505b50965050505050505060405180910390f35b348015620009f057600080fd5b50620009fb62002629565b6040518082815260200191505060405180910390f35b34801562000a1e57600080fd5b5062000a4e6004803603602081101562000a3757600080fd5b81019080803590602001909291905050506200262f565b604051808781526020018681526020018060200180602001851515151581526020018473ffffffffffffffffffffffffffffffffffffffff1673ffffffffffffffffffffffffffffffffffffffff168152602001838103835287818151815260200191508051906020019080838360005b8381101562000adc57808201518184015260208101905062000abf565b50505050905090810190601f16801562000b0a5780820380516001836020036101000a031916815260200191505b50838103825286818151815260200191508051906020019080838360005b8381101562000b4557808201518184015260208101905062000b28565b50505050905090810190601f16801562000b735780820380516001836020036101000a031916815260200191505b509850505050505050505060405180910390f35b34801562000b9457600080fd5b5062000b9f620027d0565b6040518082815260200191505060405180910390f35b34801562000bc257600080fd5b5062000bcd620027d6565b604051808273ffffffffffffffffffffffffffffffffffffffff1673ffffffffffffffffffffffffffffffffffffffff16815260200191505060405180910390f35b34801562000c1c57600080fd5b5062000c27620027fb565b604051808273ffffffffffffffffffffffffffffffffffffffff1673ffffffffffffffffffffffffffffffffffffffff16815260200191505060405180910390f35b34801562000c7657600080fd5b5062000dda6004803603606081101562000c8f57600080fd5b810190808035906020019064010000000081111562000cad57600080fd5b82018360208201111562000cc057600080fd5b8035906020019184600183028401116401000000008311171562000ce357600080fd5b91908080601f016020809104026020016040519081016040528093929190818152602001838380828437600081840152601f19601f8201169050808301925050505050505091929192908035906020019064010000000081111562000d4757600080fd5b82018360208201111562000d5a57600080fd5b8035906020019184600183028401116401000000008311171562000d7d57600080fd5b91908080601f016020809104026020016040519081016040528093929190818152602001838380828437600081840152601f19601f8201169050808301925050505050505091929192908035906020019092919050505062002821565b005b34801562000de957600080fd5b5062000df462002ac3565b6040518080602001828103825283818151815260200191508051906020019080838360005b8381101562000e3657808201518184015260208101905062000e19565b50505050905090810190601f16801562000e645780820380516001836020036101000a031916815260200191505b509250505060405180910390f35b34801562000e7f57600080fd5b5062000e8a62002b65565b6040518082815260200191505060405180910390f35b34801562000ead57600080fd5b5062000ef36004803603602081101562000ec657600080fd5b81019080803573ffffffffffffffffffffffffffffffffffffffff16906020019092919050505062002b6b565b6040518082815260200191505060405180910390f35b34801562000f1657600080fd5b5062000f2162002b83565b6040518082815260200191505060405180910390f35b620010906004803603604081101562000f4f57600080fd5b810190808035906020019064010000000081111562000f6d57600080fd5b82018360208201111562000f8057600080fd5b8035906020019184600183028401116401000000008311171562000fa357600080fd5b91908080601f016020809104026020016040519081016040528093929190818152602001838380828437600081840152601f19601f820116905080830192505050505050509192919290803590602001906401000000008111156200100757600080fd5b8201836020820111156200101a57600080fd5b803590602001918460018302840111640100000000831117156200103d57600080fd5b91908080601f016020809104026020016040519081016040528093929190818152602001838380828437600081840152601f19601f82011690508083019250505050505050919291929050505062002b89565b005b3480156200109f57600080fd5b50620010aa62003062565b60405180806020018060200180602001848103845287818151815260200191508051906020019080838360005b83811015620010f4578082015181840152602081019050620010d7565b50505050905090810190601f168015620011225780820380516001836020036101000a031916815260200191505b50848103835286818151815260200191508051906020019080838360005b838110156200115d57808201518184015260208101905062001140565b50505050905090810190601f1680156200118b5780820380516001836020036101000a031916815260200191505b50848103825285818151815260200191508051906020019080838360005b83811015620011c6578082015181840152602081019050620011a9565b50505050905090810190601f168015620011f45780820380516001836020036101000a031916815260200191505b50965050505050505060405180910390f35b3480156200121357600080fd5b5062001377600480360360608110156200122c57600080fd5b81019080803590602001906401000000008111156200124a57600080fd5b8201836020820111156200125d57600080fd5b803590602001918460018302840111640100000000831117156200128057600080fd5b91908080601f016020809104026020016040519081016040528093929190818152602001838380828437600081840152601f19601f82011690508083019250505050505050919291929080359060200190640100000000811115620012e457600080fd5b820183602082011115620012f757600080fd5b803590602001918460018302840111640100000000831117156200131a57600080fd5b91908080601f016020809104026020016040519081016040528093929190818152602001838380828437600081840152601f19601f820116905080830192505050505050509192919290803590602001909291905050506200324e565b005b3480156200138657600080fd5b50620013916200339e565b604051808273ffffffffffffffffffffffffffffffffffffffff1673ffffffffffffffffffffffffffffffffffffffff16815260200191505060405180910390f35b60008060009054906101000a900473ffffffffffffffffffffffffffffffffffffffff1673ffffffffffffffffffffffffffffffffffffffff163373ffffffffffffffffffffffffffffffffffffffff161462001498576040517f08c379a00000000000000000000000000000000000000000000000000000000081526004018080602001828103825260178152602001807f43616c6c6572206973206e6f7420746865206f776e657200000000000000000081525060200191505060405180910390fd5b81601160006101000a81548160ff02191690836003811115620014b757fe5b021790555060016003811115620014ca57fe5b826003811115620014d757fe5b1415620014ed57660aa87bee5380006010819055505b7f8380c3893c41ffaaf694da88cd05bcc5b16767300762228932eb5bb85e904f16601160009054906101000a900460ff16601054604051808360038111156200153257fe5b60ff1681526020018281526020019250505060405180910390a16010549050919050565b60095481565b60006005544210620015d6576040517f08c379a00000000000000000000000000000000000000000000000000000000081526004018080602001828103825260198152602001807f446561646c696e6520616c72656164792041636869657665640000000000000081525060200191505060405180910390fd5b6000339050600160009054906101000a900473ffffffffffffffffffffffffffffffffffffffff16601160016101000a81548173ffffffffffffffffffffffffffffffffffffffff021916908373ffffffffffffffffffffffffffffffffffffffff1602179055506000601160019054906101000a900473ffffffffffffffffffffffffffffffffffffffff1673ffffffffffffffffffffffffffffffffffffffff166370a08231836040518263ffffffff1660e01b8152600401808273ffffffffffffffffffffffffffffffffffffffff1673ffffffffffffffffffffffffffffffffffffffff168152602001915050602060405180830381600087803b158015620016e257600080fd5b505af1158015620016f7573d6000803e3d6000fd5b505050506040513d60208110156200170e57600080fd5b81019080805190602001909291905050509050806200173f670de0b6b3a764000086620033c490919063ffffffff16565b10620017b3576040517f08c379a00000000000000000000000000000000000000000000000000000000081526004018080602001828103825260118152602001807f4e6f7420456e6f75676820746f6b656e7300000000000000000000000000000081525060200191505060405180910390fd5b6000620017cc60105486620033c490919063ffffffff16565b905080601760003373ffffffffffffffffffffffffffffffffffffffff1673ffffffffffffffffffffffffffffffffffffffff16815260200190815260200160002054116200181a57600080fd5b80471162001890576040517f08c379a000000000000000000000000000000000000000000000000000000000815260040180806020018281038252601c8152602001807f4e6f7420456e6f75676820457468657220746f207472616e736665720000000081525060200191505060405180910390fd5b80601760008573ffffffffffffffffffffffffffffffffffffffff1673ffffffffffffffffffffffffffffffffffffffff168152602001908152602001600020600082825403925050819055508273ffffffffffffffffffffffffffffffffffffffff166108fc829081150290604051600060405180830381858888f1935050505015801562001924573d6000803e3d6000fd5b50505050919050565b6000809054906101000a900473ffffffffffffffffffffffffffffffffffffffff1673ffffffffffffffffffffffffffffffffffffffff163373ffffffffffffffffffffffffffffffffffffffff1614620019f0576040517f08c379a00000000000000000000000000000000000000000000000000000000081526004018080602001828103825260178152602001807f43616c6c6572206973206e6f7420746865206f776e657200000000000000000081525060200191505060405180910390fd5b60026003811115620019fe57fe5b601160009054906101000a900460ff16600381111562001a1a57fe5b1462001a2557600080fd5b6000341162001a3357600080fd5b34600f6000828254019250508190555062001a5c600e54600f546200344f90919063ffffffff16565b6010819055507f8380c3893c41ffaaf694da88cd05bcc5b16767300762228932eb5bb85e904f16601160009054906101000a900460ff166010546040518083600381111562001aa757fe5b60ff1681526020018281526020019250505060405180910390a1565b601160009054906101000a900460ff1681565b600e5481565b600047905090565b60065481565b60156020528060005260406000206000915054906101000a900460ff1681565b60028054600181600116156101000203166002900480601f01602080910402602001604051908101604052809291908181526020018280546001816001161561010002031660029004801562001ba45780601f1062001b785761010080835404028352916020019162001ba4565b820191906000526020600020905b81548152906001019060200180831162001b8657829003601f168201915b505050505081565b60055481565b60105481565b6000809054906101000a900473ffffffffffffffffffffffffffffffffffffffff1673ffffffffffffffffffffffffffffffffffffffff163373ffffffffffffffffffffffffffffffffffffffff161462001c7b576040517f08c379a00000000000000000000000000000000000000000000000000000000081526004018080602001828103825260178152602001807f43616c6c6572206973206e6f7420746865206f776e657200000000000000000081525060200191505060405180910390fd5b600015156018600083815260200190815260200160002060040160009054906101000a900460ff1615151462001d19576040517f08c379a000000000000000000000000000000000000000000000000000000000815260040180806020018281038252601d8152602001807f54686973205265717565737420616c726561647920457865637574656400000081525060200191505060405180910390fd5b62001d316002600a546200344f90919063ffffffff16565b60186000838152602001908152602001600020600101541162001dbc576040517f08c379a00000000000000000000000000000000000000000000000000000000081526004018080602001828103825260178152602001807f566f746520526573756c74206973204e4547415449564500000000000000000081525060200191505060405180910390fd5b6018600082815260200190815260200160002060040160019054906101000a900473ffffffffffffffffffffffffffffffffffffffff1673ffffffffffffffffffffffffffffffffffffffff166108fc60186000848152602001908152602001600020600001549081150290604051600060405180830381858888f1935050505015801562001e4f573d6000803e3d6000fd5b50600115156018600083815260200190815260200160002060040160009054906101000a905050507fa284cf4031f940c95fbab070f97ea7bcb884df993d1852728e9d9dd5e4e032c66018600083815260200190815260200160002060040160019054906101000a900473ffffffffffffffffffffffffffffffffffffffff16601860008481526020019081526020016000206003016018600085815260200190815260200160002060000154604051808473ffffffffffffffffffffffffffffffffffffffff1673ffffffffffffffffffffffffffffffffffffffff1681526020018060200183815260200182810382528481815460018160011615610100020316600290048152602001915080546001816001161561010002031660029004801562001fc15780601f1062001f955761010080835404028352916020019162001fc1565b820191906000526020600020905b81548152906001019060200180831162001fa357829003601f168201915b505094505050505060405180910390a150565b6000601760003373ffffffffffffffffffffffffffffffffffffffff1673ffffffffffffffffffffffffffffffffffffffff16815260200190815260200160002054116200208a576040517f08c379a000000000000000000000000000000000000000000000000000000000815260040180806020018281038252601d8152602001807f496e766573746f72204e6f7420456c696769626c6520746f20564f544500000081525060200191505060405180910390fd5b600015156018600083815260200190815260200160002060050160003373ffffffffffffffffffffffffffffffffffffffff1673ffffffffffffffffffffffffffffffffffffffff16815260200190815260200160002060009054906101000a900460ff1615151462002149576040517f08c379a000000000000000000000000000000000000000000000000000000000815260040180806020018281038252602a81526020018062004995602a913960400191505060405180910390fd5b60016018600083815260200190815260200160002060050160003373ffffffffffffffffffffffffffffffffffffffff1673ffffffffffffffffffffffffffffffffffffffff16815260200190815260200160002060006101000a81548160ff021916908315150217905550601860008281526020019081526020016000206001016000815480929190600101919050555050565b600c5481565b600d5481565b600b5481565b6000809054906101000a900473ffffffffffffffffffffffffffffffffffffffff1673ffffffffffffffffffffffffffffffffffffffff163373ffffffffffffffffffffffffffffffffffffffff1614620022b3576040517f08c379a00000000000000000000000000000000000000000000000000000000081526004018080602001828103825260178152602001807f43616c6c6572206973206e6f7420746865206f776e657200000000000000000081525060200191505060405180910390fd5b600b600081548092919060010191905055506040518060c00160405280620022ed670de0b6b3a764000084620033c490919063ffffffff16565b8152602001600081526020018581526020018381526020016000151581526020018473ffffffffffffffffffffffffffffffffffffffff1681525060186000600b548152602001908152602001600020600082015181600001556020820151816001015560408201518160020190805190602001906200236f92919062003566565b5060608201518160030190805190602001906200238e92919062003566565b5060808201518160040160006101000a81548160ff02191690831515021790555060a08201518160040160016101000a81548173ffffffffffffffffffffffffffffffffffffffff021916908373ffffffffffffffffffffffffffffffffffffffff16021790555090505050505050565b60048054600181600116156101000203166002900480601f016020809104026020016040519081016040528092919081815260200182805460018160011615610100020316600290048015620024995780601f106200246d5761010080835404028352916020019162002499565b820191906000526020600020905b8154815290600101906020018083116200247b57829003601f168201915b505050505081565b6016602052806000526040600020600091509050806000018054600181600116156101000203166002900480601f016020809104026020016040519081016040528092919081815260200182805460018160011615610100020316600290048015620025515780601f10620025255761010080835404028352916020019162002551565b820191906000526020600020905b8154815290600101906020018083116200253357829003601f168201915b505050505090806001018054600181600116156101000203166002900480601f016020809104026020016040519081016040528092919081815260200182805460018160011615610100020316600290048015620025f35780601f10620025c757610100808354040283529160200191620025f3565b820191906000526020600020905b815481529060010190602001808311620025d557829003601f168201915b5050505050908060020160009054906101000a900473ffffffffffffffffffffffffffffffffffffffff16908060030154905084565b60085481565b6018602052806000526040600020600091509050806000015490806001015490806002018054600181600116156101000203166002900480601f016020809104026020016040519081016040528092919081815260200182805460018160011615610100020316600290048015620026eb5780601f10620026bf57610100808354040283529160200191620026eb565b820191906000526020600020905b815481529060010190602001808311620026cd57829003601f168201915b505050505090806003018054600181600116156101000203166002900480601f0160208091040260200160405190810160405280929190818152602001828054600181600116156101000203166002900480156200278d5780601f1062002761576101008083540402835291602001916200278d565b820191906000526020600020905b8154815290600101906020018083116200276f57829003601f168201915b5050505050908060040160009054906101000a900460ff16908060040160019054906101000a900473ffffffffffffffffffffffffffffffffffffffff16905086565b600f5481565b6000809054906101000a900473ffffffffffffffffffffffffffffffffffffffff1681565b600160009054906101000a900473ffffffffffffffffffffffffffffffffffffffff1681565b6000809054906101000a900473ffffffffffffffffffffffffffffffffffffffff1673ffffffffffffffffffffffffffffffffffffffff163373ffffffffffffffffffffffffffffffffffffffff1614620028e4576040517f08c379a00000000000000000000000000000000000000000000000000000000081526004018080602001828103825260178152602001807f43616c6c6572206973206e6f7420746865206f776e657200000000000000000081525060200191505060405180910390fd5b828282604051620028f590620035ed565b808060200180602001848152602001838103835286818151815260200191508051906020019080838360005b838110156200293e57808201518184015260208101905062002921565b50505050905090810190601f1680156200296c5780820380516001836020036101000a031916815260200191505b50838103825285818151815260200191508051906020019080838360005b83811015620029a75780820151818401526020810190506200298a565b50505050905090810190601f168015620029d55780820380516001836020036101000a031916815260200191505b5095505050505050604051809103906000f080158015620029fa573d6000803e3d6000fd5b50601160016101000a81548173ffffffffffffffffffffffffffffffffffffffff021916908373ffffffffffffffffffffffffffffffffffffffff160217905550601160019054906101000a900473ffffffffffffffffffffffffffffffffffffffff16600160006101000a81548173ffffffffffffffffffffffffffffffffffffffff021916908373ffffffffffffffffffffffffffffffffffffffff160217905550816004908051906020019062002ab6929190620035fb565b5080600681905550505050565b60038054600181600116156101000203166002900480601f01602080910402602001604051908101604052809291908181526020018280546001816001161561010002031660029004801562002b5d5780601f1062002b315761010080835404028352916020019162002b5d565b820191906000526020600020905b81548152906001019060200180831162002b3f57829003601f168201915b505050505081565b60075481565b60176020528060005260406000206000915090505481565b600a5481565b6000341162002b9757600080fd5b600160009054906101000a900473ffffffffffffffffffffffffffffffffffffffff16601160016101000a81548173ffffffffffffffffffffffffffffffffffffffff021916908373ffffffffffffffffffffffffffffffffffffffff160217905550600062002c13601054346200344f90919063ffffffff16565b9050600033905081601160019054906101000a900473ffffffffffffffffffffffffffffffffffffffff1673ffffffffffffffffffffffffffffffffffffffff166370a08231306040518263ffffffff1660e01b8152600401808273ffffffffffffffffffffffffffffffffffffffff1673ffffffffffffffffffffffffffffffffffffffff168152602001915050602060405180830381600087803b15801562002cbd57600080fd5b505af115801562002cd2573d6000803e3d6000fd5b505050506040513d602081101562002ce957600080fd5b8101908080519060200190929190505050101562002d6f576040517f08c379a00000000000000000000000000000000000000000000000000000000081526004018080602001828103825260178152602001807f546f6b656e205175616e7469747920457863656564656400000000000000000081525060200191505060405180910390fd5b600a6000815480929190600101919050555060405180608001604052808581526020018481526020018273ffffffffffffffffffffffffffffffffffffffff16815260200162002dd1670de0b6b3a7640000856200344f90919063ffffffff16565b815250601660003373ffffffffffffffffffffffffffffffffffffffff1673ffffffffffffffffffffffffffffffffffffffff168152602001908152602001600020600082015181600001908051906020019062002e3192919062003566565b50602082015181600101908051906020019062002e5092919062003566565b5060408201518160020160006101000a81548173ffffffffffffffffffffffffffffffffffffffff021916908373ffffffffffffffffffffffffffffffffffffffff1602179055506060820151816003015590505034601760008373ffffffffffffffffffffffffffffffffffffffff1673ffffffffffffffffffffffffffffffffffffffff16815260200190815260200160002081905550601160019054906101000a900473ffffffffffffffffffffffffffffffffffffffff1673ffffffffffffffffffffffffffffffffffffffff1663a9059cbb82846040518363ffffffff1660e01b8152600401808373ffffffffffffffffffffffffffffffffffffffff1673ffffffffffffffffffffffffffffffffffffffff16815260200182815260200192505050602060405180830381600087803b15801562002f9357600080fd5b505af115801562002fa8573d6000803e3d6000fd5b505050506040513d602081101562002fbf57600080fd5b8101908080519060200190929190505050508160076000828254019250508190555034600e600082825401925050819055507ffe2ff4cf36ff7d2c2b06eb960897ee0d76d9c3e58da12feb7b93e86b226dd3448183604051808373ffffffffffffffffffffffffffffffffffffffff1673ffffffffffffffffffffffffffffffffffffffff1681526020018281526020019250505060405180910390a150505050565b6012806000018054600181600116156101000203166002900480601f016020809104026020016040519081016040528092919081815260200182805460018160011615610100020316600290048015620031005780601f10620030d45761010080835404028352916020019162003100565b820191906000526020600020905b815481529060010190602001808311620030e257829003601f168201915b505050505090806001018054600181600116156101000203166002900480601f016020809104026020016040519081016040528092919081815260200182805460018160011615610100020316600290048015620031a25780601f106200317657610100808354040283529160200191620031a2565b820191906000526020600020905b8154815290600101906020018083116200318457829003601f168201915b505050505090806002018054600181600116156101000203166002900480601f016020809104026020016040519081016040528092919081815260200182805460018160011615610100020316600290048015620032445780601f10620032185761010080835404028352916020019162003244565b820191906000526020600020905b8154815290600101906020018083116200322657829003601f168201915b5050505050905083565b6000809054906101000a900473ffffffffffffffffffffffffffffffffffffffff1673ffffffffffffffffffffffffffffffffffffffff163373ffffffffffffffffffffffffffffffffffffffff161462003311576040517f08c379a00000000000000000000000000000000000000000000000000000000081526004018080602001828103825260178152602001807f43616c6c6572206973206e6f7420746865206f776e657200000000000000000081525060200191505060405180910390fd5b6002601260000190805460018160011615610100020316600290046200333992919062003682565b50826012600101908051906020019062003355929190620035fb565b5082600390805190602001906200336e929190620035fb565b5081601260020190805190602001906200338a929190620035fb565b506201518081024201600581905550505050565b601160019054906101000a900473ffffffffffffffffffffffffffffffffffffffff1681565b600080831415620033d9576000905062003449565b6000828402905082848281620033eb57fe5b041462003444576040517f08c379a0000000000000000000000000000000000000000000000000000000008152600401808060200182810382526021815260200180620049746021913960400191505060405180910390fd5b809150505b92915050565b60006200349383836040518060400160405280601a81526020017f536166654d6174683a206469766973696f6e206279207a65726f0000000000008152506200349b565b905092915050565b600080831182906200354b576040517f08c379a00000000000000000000000000000000000000000000000000000000081526004018080602001828103825283818151815260200191508051906020019080838360005b838110156200350f578082015181840152602081019050620034f2565b50505050905090810190601f1680156200353d5780820380516001836020036101000a031916815260200191505b509250505060405180910390fd5b5060008385816200355857fe5b049050809150509392505050565b828054600181600116156101000203166002900490600052602060002090601f016020900481019282601f10620035a957805160ff1916838001178555620035da565b82800160010185558215620035da579182015b82811115620035d9578251825591602001919060010190620035bc565b5b509050620035e9919062003710565b5090565b61123b806200373983390190565b828054600181600116156101000203166002900490600052602060002090601f016020900481019282601f106200363e57805160ff19168380011785556200366f565b828001600101855582156200366f579182015b828111156200366e57825182559160200191906001019062003651565b5b5090506200367e919062003710565b5090565b828054600181600116156101000203166002900490600052602060002090601f016020900481019282601f10620036bd5780548555620036fd565b82800160010185558215620036fd57600052602060002091601f016020900482015b82811115620036fc578254825591600101919060010190620036df565b5b5090506200370c919062003710565b5090565b6200373591905b808211156200373157600081600090555060010162003717565b5090565b9056fe608060405260126002553480156200001657600080fd5b506040516200123b3803806200123b833981810160405260608110156200003c57600080fd5b81019080805160405193929190846401000000008211156200005d57600080fd5b838201915060208201858111156200007457600080fd5b82518660018202830111640100000000821117156200009257600080fd5b8083526020830192505050908051906020019080838360005b83811015620000c8578082015181840152602081019050620000ab565b50505050905090810190601f168015620000f65780820380516001836020036101000a031916815260200191505b50604052602001805160405193929190846401000000008211156200011a57600080fd5b838201915060208201858111156200013157600080fd5b82518660018202830111640100000000821117156200014f57600080fd5b8083526020830192505050908051906020019080838360005b838110156200018557808201518184015260208101905062000168565b50505050905090810190601f168015620001b35780820380516001836020036101000a031916815260200191505b506040526020018051906020019092919050505033600460006101000a81548173ffffffffffffffffffffffffffffffffffffffff021916908373ffffffffffffffffffffffffffffffffffffffff16021790555062000227600254600a0a82620002ca60201b62000d2a1790919060201c565b600560003373ffffffffffffffffffffffffffffffffffffffff1673ffffffffffffffffffffffffffffffffffffffff1681526020019081526020016000208190555082600090805190602001906200028292919062000355565b5081600190805190602001906200029b92919062000355565b50620002bb600254600a0a82620002ca60201b62000d2a1790919060201c565b60038190555050505062000404565b600080831415620002df57600090506200034f565b6000828402905082848281620002f157fe5b04146200034a576040517f08c379a00000000000000000000000000000000000000000000000000000000081526004018080602001828103825260218152602001806200121a6021913960400191505060405180910390fd5b809150505b92915050565b828054600181600116156101000203166002900490600052602060002090601f016020900481019282601f106200039857805160ff1916838001178555620003c9565b82800160010185558215620003c9579182015b82811115620003c8578251825591602001919060010190620003ab565b5b509050620003d89190620003dc565b5090565b6200040191905b80821115620003fd576000816000905550600101620003e3565b5090565b90565b610e0680620004146000396000f3fe608060405234801561001057600080fd5b50600436106100b45760003560e01c806370a082311161007157806370a08231146102bc5780638da5cb5b1461031457806395d89b411461035e578063a44b47f7146103e1578063a9059cbb146103ff578063dd62ed3e14610465576100b4565b806306fdde03146100b9578063095ea7b31461013c57806318160ddd146101a257806323b872dd146101c057806327e235e314610246578063313ce5671461029e575b600080fd5b6100c16104dd565b6040518080602001828103825283818151815260200191508051906020019080838360005b838110156101015780820151818401526020810190506100e6565b50505050905090810190601f16801561012e5780820380516001836020036101000a031916815260200191505b509250505060405180910390f35b6101886004803603604081101561015257600080fd5b81019080803573ffffffffffffffffffffffffffffffffffffffff1690602001909291908035906020019092919050505061057b565b604051808215151515815260200191505060405180910390f35b6101aa61066d565b6040518082815260200191505060405180910390f35b61022c600480360360608110156101d657600080fd5b81019080803573ffffffffffffffffffffffffffffffffffffffff169060200190929190803573ffffffffffffffffffffffffffffffffffffffff16906020019092919080359060200190929190505050610677565b604051808215151515815260200191505060405180910390f35b6102886004803603602081101561025c57600080fd5b81019080803573ffffffffffffffffffffffffffffffffffffffff16906020019092919050505061097e565b6040518082815260200191505060405180910390f35b6102a6610996565b6040518082815260200191505060405180910390f35b6102fe600480360360208110156102d257600080fd5b81019080803573ffffffffffffffffffffffffffffffffffffffff16906020019092919050505061099c565b6040518082815260200191505060405180910390f35b61031c6109e5565b604051808273ffffffffffffffffffffffffffffffffffffffff1673ffffffffffffffffffffffffffffffffffffffff16815260200191505060405180910390f35b610366610a0b565b6040518080602001828103825283818151815260200191508051906020019080838360005b838110156103a657808201518184015260208101905061038b565b50505050905090810190601f1680156103d35780820380516001836020036101000a031916815260200191505b509250505060405180910390f35b6103e9610aa9565b6040518082815260200191505060405180910390f35b61044b6004803603604081101561041557600080fd5b81019080803573ffffffffffffffffffffffffffffffffffffffff16906020019092919080359060200190929190505050610aaf565b604051808215151515815260200191505060405180910390f35b6104c76004803603604081101561047b57600080fd5b81019080803573ffffffffffffffffffffffffffffffffffffffff169060200190929190803573ffffffffffffffffffffffffffffffffffffffff169060200190929190505050610ca3565b6040518082815260200191505060405180910390f35b60018054600181600116156101000203166002900480601f0160208091040260200160405190810160405280929190818152602001828054600181600116156101000203166002900480156105735780601f1061054857610100808354040283529160200191610573565b820191906000526020600020905b81548152906001019060200180831161055657829003601f168201915b505050505081565b600081600660003373ffffffffffffffffffffffffffffffffffffffff1673ffffffffffffffffffffffffffffffffffffffff16815260200190815260200160002060008573ffffffffffffffffffffffffffffffffffffffff1673ffffffffffffffffffffffffffffffffffffffff168152602001908152602001600020819055508273ffffffffffffffffffffffffffffffffffffffff163373ffffffffffffffffffffffffffffffffffffffff167f8c5be1e5ebec7d5bd14f71427d1e84f3dd0314c0f7b2291e5b200ac8c7c3b925846040518082815260200191505060405180910390a36001905092915050565b6000600354905090565b600081600560008673ffffffffffffffffffffffffffffffffffffffff1673ffffffffffffffffffffffffffffffffffffffff1681526020019081526020016000205410158015610744575081600660008673ffffffffffffffffffffffffffffffffffffffff1673ffffffffffffffffffffffffffffffffffffffff16815260200190815260200160002060003373ffffffffffffffffffffffffffffffffffffffff1673ffffffffffffffffffffffffffffffffffffffff1681526020019081526020016000205410155b80156107505750600082115b80156107db5750600560008473ffffffffffffffffffffffffffffffffffffffff1673ffffffffffffffffffffffffffffffffffffffff1681526020019081526020016000205482600560008673ffffffffffffffffffffffffffffffffffffffff1673ffffffffffffffffffffffffffffffffffffffff1681526020019081526020016000205401115b156109725781600560008673ffffffffffffffffffffffffffffffffffffffff1673ffffffffffffffffffffffffffffffffffffffff1681526020019081526020016000206000828254039250508190555081600660008673ffffffffffffffffffffffffffffffffffffffff1673ffffffffffffffffffffffffffffffffffffffff16815260200190815260200160002060003373ffffffffffffffffffffffffffffffffffffffff1673ffffffffffffffffffffffffffffffffffffffff1681526020019081526020016000206000828254039250508190555081600560008573ffffffffffffffffffffffffffffffffffffffff1673ffffffffffffffffffffffffffffffffffffffff168152602001908152602001600020600082825401925050819055508273ffffffffffffffffffffffffffffffffffffffff168473ffffffffffffffffffffffffffffffffffffffff167fddf252ad1be2c89b69c2b068fc378daa952ba7f163c4a11628f55a4df523b3ef846040518082815260200191505060405180910390a360019050610977565b600090505b9392505050565b60056020528060005260406000206000915090505481565b60025481565b6000600560008373ffffffffffffffffffffffffffffffffffffffff1673ffffffffffffffffffffffffffffffffffffffff168152602001908152602001600020549050919050565b600460009054906101000a900473ffffffffffffffffffffffffffffffffffffffff1681565b60008054600181600116156101000203166002900480601f016020809104026020016040519081016040528092919081815260200182805460018160011615610100020316600290048015610aa15780601f10610a7657610100808354040283529160200191610aa1565b820191906000526020600020905b815481529060010190602001808311610a8457829003601f168201915b505050505081565b60035481565b600081600560003373ffffffffffffffffffffffffffffffffffffffff1673ffffffffffffffffffffffffffffffffffffffff1681526020019081526020016000205410158015610b005750600082115b8015610b8b5750600560008473ffffffffffffffffffffffffffffffffffffffff1673ffffffffffffffffffffffffffffffffffffffff1681526020019081526020016000205482600560008673ffffffffffffffffffffffffffffffffffffffff1673ffffffffffffffffffffffffffffffffffffffff1681526020019081526020016000205401115b15610c985781600560003373ffffffffffffffffffffffffffffffffffffffff1673ffffffffffffffffffffffffffffffffffffffff1681526020019081526020016000206000828254039250508190555081600560008573ffffffffffffffffffffffffffffffffffffffff1673ffffffffffffffffffffffffffffffffffffffff168152602001908152602001600020600082825401925050819055508273ffffffffffffffffffffffffffffffffffffffff163373ffffffffffffffffffffffffffffffffffffffff167fddf252ad1be2c89b69c2b068fc378daa952ba7f163c4a11628f55a4df523b3ef846040518082815260200191505060405180910390a360019050610c9d565b600090505b92915050565b6000600660008473ffffffffffffffffffffffffffffffffffffffff1673ffffffffffffffffffffffffffffffffffffffff16815260200190815260200160002060008373ffffffffffffffffffffffffffffffffffffffff1673ffffffffffffffffffffffffffffffffffffffff16815260200190815260200160002054905092915050565b600080831415610d3d5760009050610daa565b6000828402905082848281610d4e57fe5b0414610da5576040517f08c379a0000000000000000000000000000000000000000000000000000000008152600401808060200182810382526021815260200180610db16021913960400191505060405180910390fd5b809150505b9291505056fe536166654d6174683a206d756c7469706c69636174696f6e206f766572666c6f77a265627a7a7231582007f93461dc9732bcda5578b68901edc2c0f2c9a8c01a63f62c4c4da747839b3664736f6c63430005100032536166654d6174683a206d756c7469706c69636174696f6e206f766572666c6f77536166654d6174683a206d756c7469706c69636174696f6e206f766572666c6f77566f746520416c726561647920726567697374657265642066726f6d2074686973206164647265657373a265627a7a723158205a461f36b615c59d3f98636469fc62c652144afea8089384ccab8ce0a0e82e8364736f6c63430005100032",
  "source": "pragma solidity ^0.5.1;\r\n\r\nimport \"./TokenFactory.sol\";\r\nimport \"./SafeMath.sol\";\r\n\r\ncontract MovieContract {\r\n  using SafeMath for uint256;\r\n\r\n  address payable public owner;\r\n  address public tokenAddress;\r\n  string public movieName;\r\n  string public summary;\r\n  string public tokenName;\r\n  uint256 public deadline;\r\n  uint256 public totalSupply;\r\n  uint256 public totalTokenSold;\r\n  uint256 public tokenPrice = 1000;\r\n  uint256 public creationDate;\r\n  uint256 public investorCount;\r\n  uint256 public requestCount;\r\n  uint256 public voterCount;\r\n  uint256 public withdrawCount;\r\n  uint256 public totalInvestment;\r\n  uint256 public totalProfit;\r\n\r\n  uint public rate = 0.001 * 10 ** 18; //ETH per Token\r\n\r\n  enum State { PRE_PRODUCTION, PRODUCTION, RELEASED, OVER } // Rate - 0.001, 0.003, profitDependent\r\n  State public currentState = State.PRE_PRODUCTION;\r\n  \r\nTokenFactory public token;\r\n\r\n\r\nconstructor(string memory _movieName, address payable _movieCreator) public{\r\n    owner = _movieCreator;\r\n    movieName = _movieName;\r\n    creationDate = now;\r\n  }\r\n// Stucts\r\n  struct movieDetails{\r\n    string name;\r\n    string details;\r\n    string ipfsHash;\r\n  }\r\n\r\n  struct investorDetails{\r\n    string name;\r\n    string contactDetails;\r\n    address payable investorAddress;\r\n    uint256 tokensBought;\r\n  }\r\n\r\n  struct WithdrawRequest{\r\n  \t uint256 amountOfEth;\r\n     uint256 numberOfVoters;\r\n  \t string description;\r\n  \t string receiverDesignation;\r\n     bool completed;\r\n     address payable recipient;\r\n    \r\n    mapping(address=>bool) voters;\r\n  }\r\n\r\n   movieDetails public movie;\r\n\r\n//Mappings\r\n  mapping (address => bool) public profitAdded;\r\n  mapping (address => investorDetails)public investors;\r\n  mapping (address => uint256 ) public investedAmount;\r\n  mapping (uint256 => WithdrawRequest) public requests;\r\n  \r\n\r\n  modifier  onlyOwner() { \r\n    require(msg.sender == owner, \"Caller is not the owner\"); \r\n    _; \r\n  }\r\n  \r\n//Events\r\n  event TokenSold(address buyer,uint256 amount);\r\n  event etherWithdrawn(address rec,string designation,uint256 amount);\r\n  event etherWithdrawn(address rec,uint256 amount);\r\n  event MovieState(State _currentState, uint _currentRate);\r\n\r\n\r\n\r\n  function addMovie(string memory _details, string memory _ipfs, uint256 _timeInDays) public onlyOwner{\r\n    movie.name = movieName;\r\n    movie.details = _details;\r\n    summary = _details;\r\n    movie.ipfsHash = _ipfs;\r\n    deadline = now + _timeInDays * 1 days;\r\n  }\r\n\r\n  function createMovieToken(string memory _symbol, string memory _name, uint256 _totalSupply) public onlyOwner{\r\n      token = new TokenFactory(_symbol, _name, _totalSupply);\r\n      tokenAddress = address(token);\r\n      tokenName = _name;\r\n      totalSupply = _totalSupply;\r\n  }\r\n\r\n  function updateState(State _state) public onlyOwner returns (uint _rate) {\r\n    currentState = _state;\r\n    if(_state == State.PRODUCTION) {\r\n      rate = 0.003 * 10 ** 18;\r\n    }\r\n    // else if(_state == State.RELEASED) {\r\n    //   rate = 0.1;\r\n    // }\r\n    emit MovieState(currentState, rate);\r\n    return rate;\r\n  }\r\n\r\n  function reportProfit() public payable onlyOwner {\r\n    require(currentState == State.RELEASED);\r\n    require(msg.value > 0);\r\n    totalProfit += msg.value;\r\n    rate = totalProfit.div(totalInvestment);\r\n    emit MovieState(currentState, rate);    \r\n  }\r\n\r\n//amountToGive = rate.mul(msg.value); // if user send 1 ETH it will give 1000 tokens.\r\n  function buyMovieTokens(string memory _name, string memory _contact) public payable{\r\n    require (msg.value > 0);\r\n    token = TokenFactory(tokenAddress);\r\n    // uint256 _numberOfTokens = tokenPrice.mul(msg.value);\r\n    uint256 _numberOfTokens = msg.value.div(rate);\r\n    address payable _to = msg.sender;\r\n\r\n    require(token.balanceOf(address(this)) >= _numberOfTokens, \"Token Quantity Exceeded\");\r\n    investorCount++;\r\n    investors[msg.sender] = investorDetails(_name, _contact,_to,_numberOfTokens.div(1000000000000000000));\r\n    investedAmount[_to] = msg.value;\r\n    token.transfer(_to,_numberOfTokens);\r\n    totalTokenSold += _numberOfTokens;\r\n    totalInvestment += msg.value;\r\n    emit TokenSold(_to,_numberOfTokens);\r\n  }\r\n\r\n  function  initiateRequest(string memory _desc,address payable _rec,string memory _receiverDesignation,uint256 _val) public onlyOwner{\r\n  \trequestCount++;\r\n  \trequests[requestCount] = WithdrawRequest(_val.mul(1 ether),0,_desc,_receiverDesignation,false,_rec);\r\n  }\r\n  \r\n  function startVoting(uint256 _index) public{\r\n  \t\trequire (investedAmount[msg.sender] > 0,\"Investor Not Eligible to VOTE\");\r\n  \t\trequire (requests[_index].voters[msg.sender] == false,\"Vote Already registered from this addreess\");\r\n\r\n  \t\trequests[_index].voters[msg.sender] = true;\r\n  \t\trequests[_index].numberOfVoters++;\t\r\n  }\r\n  \r\n\r\n  function  withdrawEther(uint256 _index) public onlyOwner{\r\n    require (requests[_index].completed == false,\"This Request already Executed\");\r\n    require (requests[_index].numberOfVoters > investorCount.div(2),\"Vote Result is NEGATIVE\");\r\n\r\n    requests[_index].recipient.transfer(requests[_index].amountOfEth);\r\n    requests[_index].completed == true;\r\n    \r\n    \r\n    emit etherWithdrawn(requests[_index].recipient,requests[_index].receiverDesignation,requests[_index].amountOfEth);\r\n  }\r\n  \r\n  function getBalance() public view returns(uint256){\r\n      return address(this).balance;\r\n  }\r\n  \r\n  function unlockEther(uint256 _amountOfTokens) public returns(uint256){\r\n    require(now < deadline, \"Deadline already Achieved\");\r\n    address payable user = msg.sender;\r\n    token = TokenFactory(tokenAddress);\r\n  \r\n    uint256 totalTokens = token.balanceOf(user);\r\n    require (_amountOfTokens.mul(1000000000000000000) < totalTokens, \"Not Enough tokens\");\r\n    // uint256 totalEth = _amountOfTokens.mul(1000000000000000);\r\n    uint256 totalEth = _amountOfTokens.mul(rate);\r\n    require(investedAmount[msg.sender] > totalEth);\r\n    require(address(this).balance > totalEth, \"Not Enough Ether to transfer\");\r\n    investedAmount[user] -= totalEth;\r\n    user.transfer(totalEth);\r\n    //Deaduct User's Token Balnace ????\r\n    //Transfer the user's submitted tokens to the contract.\r\n  }\r\n    \r\n   \r\n}",
  "sourcePath": "C:\\Users\\dhair\\Desktop\\ETH\\proj\\CineBlocks\\contracts\\MovieContract.sol",
  "compiler": {
    "name": "solc",
    "version": "0.5.16+commit.9c3226ce.Emscripten.clang"
  },
  "schemaVersion": "3.0.22",
  "updatedAt": "2020-09-03T16:10:40.626Z",
  "devdoc": {
    "methods": {}
  },
  "userdoc": {
    "methods": {}
  }
}