{
  "contractName": "MovieContract",
  "abi": [
    {
      "inputs": [
        {
          "internalType": "string",
          "name": "_movieName",
          "type": "string"
        },
        {
          "internalType": "address payable",
          "name": "_movieCreator",
          "type": "address"
        }
      ],
      "payable": false,
      "stateMutability": "nonpayable",
      "type": "constructor"
    },
    {
      "anonymous": false,
      "inputs": [
        {
          "indexed": false,
          "internalType": "enum MovieContract.State",
          "name": "_currentState",
          "type": "uint8"
        },
        {
          "indexed": false,
          "internalType": "uint256",
          "name": "_currentRate",
          "type": "uint256"
        }
      ],
      "name": "MovieState",
      "type": "event"
    },
    {
      "anonymous": false,
      "inputs": [
        {
          "indexed": false,
          "internalType": "address",
          "name": "buyer",
          "type": "address"
        },
        {
          "indexed": false,
          "internalType": "uint256",
          "name": "amount",
          "type": "uint256"
        }
      ],
      "name": "TokenSold",
      "type": "event"
    },
    {
      "anonymous": false,
      "inputs": [
        {
          "indexed": false,
          "internalType": "address",
          "name": "rec",
          "type": "address"
        },
        {
          "indexed": false,
          "internalType": "uint256",
          "name": "amount",
          "type": "uint256"
        }
      ],
      "name": "etherWithdrawn",
      "type": "event"
    },
    {
      "constant": true,
      "inputs": [],
      "name": "creationDate",
      "outputs": [
        {
          "internalType": "uint256",
          "name": "",
          "type": "uint256"
        }
      ],
      "payable": false,
      "stateMutability": "view",
      "type": "function"
    },
    {
      "constant": true,
      "inputs": [],
      "name": "currentState",
      "outputs": [
        {
          "internalType": "enum MovieContract.State",
          "name": "",
          "type": "uint8"
        }
      ],
      "payable": false,
      "stateMutability": "view",
      "type": "function"
    },
    {
      "constant": true,
      "inputs": [],
      "name": "deadline",
      "outputs": [
        {
          "internalType": "uint256",
          "name": "",
          "type": "uint256"
        }
      ],
      "payable": false,
      "stateMutability": "view",
      "type": "function"
    },
    {
      "constant": true,
      "inputs": [
        {
          "internalType": "address",
          "name": "",
          "type": "address"
        }
      ],
      "name": "investedAmount",
      "outputs": [
        {
          "internalType": "uint256",
          "name": "",
          "type": "uint256"
        }
      ],
      "payable": false,
      "stateMutability": "view",
      "type": "function"
    },
    {
      "constant": true,
      "inputs": [],
      "name": "investorCount",
      "outputs": [
        {
          "internalType": "uint256",
          "name": "",
          "type": "uint256"
        }
      ],
      "payable": false,
      "stateMutability": "view",
      "type": "function"
    },
    {
      "constant": true,
      "inputs": [
        {
          "internalType": "address",
          "name": "",
          "type": "address"
        }
      ],
      "name": "investors",
      "outputs": [
        {
          "internalType": "string",
          "name": "name",
          "type": "string"
        },
        {
          "internalType": "string",
          "name": "contactDetails",
          "type": "string"
        },
        {
          "internalType": "address payable",
          "name": "investorAddress",
          "type": "address"
        },
        {
          "internalType": "uint256",
          "name": "tokensBought",
          "type": "uint256"
        }
      ],
      "payable": false,
      "stateMutability": "view",
      "type": "function"
    },
    {
      "constant": true,
      "inputs": [],
      "name": "movie",
      "outputs": [
        {
          "internalType": "string",
          "name": "name",
          "type": "string"
        },
        {
          "internalType": "string",
          "name": "details",
          "type": "string"
        },
        {
          "internalType": "string",
          "name": "ipfsHash",
          "type": "string"
        }
      ],
      "payable": false,
      "stateMutability": "view",
      "type": "function"
    },
    {
      "constant": true,
      "inputs": [],
      "name": "movieName",
      "outputs": [
        {
          "internalType": "string",
          "name": "",
          "type": "string"
        }
      ],
      "payable": false,
      "stateMutability": "view",
      "type": "function"
    },
    {
      "constant": true,
      "inputs": [],
      "name": "owner",
      "outputs": [
        {
          "internalType": "address payable",
          "name": "",
          "type": "address"
        }
      ],
      "payable": false,
      "stateMutability": "view",
      "type": "function"
    },
    {
      "constant": true,
      "inputs": [
        {
          "internalType": "address",
          "name": "",
          "type": "address"
        }
      ],
      "name": "profitAdded",
      "outputs": [
        {
          "internalType": "bool",
          "name": "",
          "type": "bool"
        }
      ],
      "payable": false,
      "stateMutability": "view",
      "type": "function"
    },
    {
      "constant": true,
      "inputs": [],
      "name": "token",
      "outputs": [
        {
          "internalType": "contract TokenFactory",
          "name": "",
          "type": "address"
        }
      ],
      "payable": false,
      "stateMutability": "view",
      "type": "function"
    },
    {
      "constant": true,
      "inputs": [],
      "name": "tokenAddress",
      "outputs": [
        {
          "internalType": "address",
          "name": "",
          "type": "address"
        }
      ],
      "payable": false,
      "stateMutability": "view",
      "type": "function"
    },
    {
      "constant": true,
      "inputs": [],
      "name": "tokenName",
      "outputs": [
        {
          "internalType": "string",
          "name": "",
          "type": "string"
        }
      ],
      "payable": false,
      "stateMutability": "view",
      "type": "function"
    },
    {
      "constant": true,
      "inputs": [],
      "name": "tokenPrice",
      "outputs": [
        {
          "internalType": "uint256",
          "name": "",
          "type": "uint256"
        }
      ],
      "payable": false,
      "stateMutability": "view",
      "type": "function"
    },
    {
      "constant": true,
      "inputs": [],
      "name": "totalInvestment",
      "outputs": [
        {
          "internalType": "uint256",
          "name": "",
          "type": "uint256"
        }
      ],
      "payable": false,
      "stateMutability": "view",
      "type": "function"
    },
    {
      "constant": true,
      "inputs": [],
      "name": "totalProfit",
      "outputs": [
        {
          "internalType": "uint256",
          "name": "",
          "type": "uint256"
        }
      ],
      "payable": false,
      "stateMutability": "view",
      "type": "function"
    },
    {
      "constant": true,
      "inputs": [],
      "name": "totalSupply",
      "outputs": [
        {
          "internalType": "uint256",
          "name": "",
          "type": "uint256"
        }
      ],
      "payable": false,
      "stateMutability": "view",
      "type": "function"
    },
    {
      "constant": true,
      "inputs": [],
      "name": "totalTokenSold",
      "outputs": [
        {
          "internalType": "uint256",
          "name": "",
          "type": "uint256"
        }
      ],
      "payable": false,
      "stateMutability": "view",
      "type": "function"
    },
    {
      "constant": true,
      "inputs": [],
      "name": "withdrawCount",
      "outputs": [
        {
          "internalType": "uint256",
          "name": "",
          "type": "uint256"
        }
      ],
      "payable": false,
      "stateMutability": "view",
      "type": "function"
    },
    {
      "constant": true,
      "inputs": [
        {
          "internalType": "uint256",
          "name": "",
          "type": "uint256"
        }
      ],
      "name": "withdrawlsByOwner",
      "outputs": [
        {
          "internalType": "address",
          "name": "withdrawnBy",
          "type": "address"
        },
        {
          "internalType": "uint256",
          "name": "amountWithdrawn",
          "type": "uint256"
        },
        {
          "internalType": "uint256",
          "name": "time",
          "type": "uint256"
        },
        {
          "internalType": "string",
          "name": "reason",
          "type": "string"
        }
      ],
      "payable": false,
      "stateMutability": "view",
      "type": "function"
    },
    {
      "constant": false,
      "inputs": [
        {
          "internalType": "string",
          "name": "_details",
          "type": "string"
        },
        {
          "internalType": "string",
          "name": "_ipfs",
          "type": "string"
        },
        {
          "internalType": "uint256",
          "name": "_timeInDays",
          "type": "uint256"
        }
      ],
      "name": "addMovie",
      "outputs": [],
      "payable": false,
      "stateMutability": "nonpayable",
      "type": "function"
    },
    {
      "constant": false,
      "inputs": [
        {
          "internalType": "string",
          "name": "_symbol",
          "type": "string"
        },
        {
          "internalType": "string",
          "name": "_name",
          "type": "string"
        },
        {
          "internalType": "uint256",
          "name": "_totalSupply",
          "type": "uint256"
        }
      ],
      "name": "createMovieToken",
      "outputs": [],
      "payable": false,
      "stateMutability": "nonpayable",
      "type": "function"
    },
    {
      "constant": false,
      "inputs": [
        {
          "internalType": "enum MovieContract.State",
          "name": "_state",
          "type": "uint8"
        }
      ],
      "name": "updateState",
      "outputs": [
        {
          "internalType": "uint256",
          "name": "_rate",
          "type": "uint256"
        }
      ],
      "payable": false,
      "stateMutability": "nonpayable",
      "type": "function"
    },
    {
      "constant": false,
      "inputs": [
        {
          "internalType": "string",
          "name": "_source",
          "type": "string"
        }
      ],
      "name": "reportProfit",
      "outputs": [],
      "payable": true,
      "stateMutability": "payable",
      "type": "function"
    },
    {
      "constant": false,
      "inputs": [
        {
          "internalType": "string",
          "name": "_name",
          "type": "string"
        },
        {
          "internalType": "string",
          "name": "_contact",
          "type": "string"
        }
      ],
      "name": "buyMovieTokens",
      "outputs": [],
      "payable": true,
      "stateMutability": "payable",
      "type": "function"
    },
    {
      "constant": false,
      "inputs": [
        {
          "internalType": "uint256",
          "name": "_amount",
          "type": "uint256"
        },
        {
          "internalType": "string",
          "name": "_reason",
          "type": "string"
        }
      ],
      "name": "useEther",
      "outputs": [],
      "payable": false,
      "stateMutability": "nonpayable",
      "type": "function"
    },
    {
      "constant": true,
      "inputs": [],
      "name": "getBalance",
      "outputs": [
        {
          "internalType": "uint256",
          "name": "",
          "type": "uint256"
        }
      ],
      "payable": false,
      "stateMutability": "view",
      "type": "function"
    },
    {
      "constant": false,
      "inputs": [
        {
          "internalType": "uint256",
          "name": "_amountOfTokens",
          "type": "uint256"
        }
      ],
      "name": "unlockEther",
      "outputs": [
        {
          "internalType": "uint256",
          "name": "",
          "type": "uint256"
        }
      ],
      "payable": false,
      "stateMutability": "nonpayable",
      "type": "function"
    }
  ],
  "bytecode": "0x60806040526103e860075566038d7ea4c68000600d556000600e60006101000a81548160ff021916908360038111156200003557fe5b02179055503480156200004757600080fd5b506040516200437438038062004374833981810160405260408110156200006d57600080fd5b81019080805160405193929190846401000000008211156200008e57600080fd5b83820191506020820185811115620000a557600080fd5b8251866001820283011164010000000082111715620000c357600080fd5b8083526020830192505050908051906020019080838360005b83811015620000f9578082015181840152602081019050620000dc565b50505050905090810190601f168015620001275780820380516001836020036101000a031916815260200191505b5060405260200180519060200190929190505050806000806101000a81548173ffffffffffffffffffffffffffffffffffffffff021916908373ffffffffffffffffffffffffffffffffffffffff160217905550816002908051906020019062000193929190620001a3565b5042600881905550505062000252565b828054600181600116156101000203166002900490600052602060002090601f016020900481019282601f10620001e657805160ff191683800117855562000217565b8280016001018555821562000217579182015b8281111562000216578251825591602001919060010190620001f9565b5b5090506200022691906200022a565b5090565b6200024f91905b808211156200024b57600081600090555060010162000231565b5090565b90565b61411280620002626000396000f3fe608060405260043610620001e25760003560e01c80637981c2271162000103578063b5f7f6361162000097578063d9895de0116200006d578063d9895de01462000cd2578063e362bcac1462000e2d578063f012666e1462000fa1578063fc0c546a146200111457620001e2565b8063b5f7f6361462000c0d578063cff774441462000c3b578063d7e64c001462000ca457620001e2565b80638da5cb5b11620000d95780638da5cb5b14620008ea5780639b98f71f14620009445780639d76ea581462000a40578063ae4cc8941462000a9a57620001e2565b80637981c22714620007b55780637ff9b596146200088e5780638600151914620008bc57620001e2565b806320a1d4e5116200017b5780634cc05a7111620001515780634cc05a7114620004b65780636c02a93114620004e45780636c075818146200057a5780636f7bc9be146200063b57620001e2565b806320a1d4e5146200038557806327eef6f314620003f257806329dcb0cf146200048857620001e2565b80630c3f6acf11620001bd5780630c3f6acf14620002be57806310ea13df14620002fb57806312065fe0146200032957806318160ddd146200035757620001e2565b80630591d3ab14620001e757806305b34410146200023d5780630ab94086146200026b575b600080fd5b348015620001f457600080fd5b5062000227600480360360208110156200020d57600080fd5b81019080803560ff1690602001909291905050506200116e565b6040518082815260200191505060405180910390f35b3480156200024a57600080fd5b5062000255620012f1565b6040518082815260200191505060405180910390f35b3480156200027857600080fd5b50620002a8600480360360208110156200029157600080fd5b8101908080359060200190929190505050620012f7565b6040518082815260200191505060405180910390f35b348015620002cb57600080fd5b50620002d6620016c8565b60405180826003811115620002e757fe5b60ff16815260200191505060405180910390f35b3480156200030857600080fd5b5062000313620016db565b6040518082815260200191505060405180910390f35b3480156200033657600080fd5b5062000341620016e1565b6040518082815260200191505060405180910390f35b3480156200036457600080fd5b506200036f620016e9565b6040518082815260200191505060405180910390f35b3480156200039257600080fd5b50620003d860048036036020811015620003ab57600080fd5b81019080803573ffffffffffffffffffffffffffffffffffffffff169060200190929190505050620016ef565b604051808215151515815260200191505060405180910390f35b348015620003ff57600080fd5b506200040a6200170f565b6040518080602001828103825283818151815260200191508051906020019080838360005b838110156200044c5780820151818401526020810190506200042f565b50505050905090810190601f1680156200047a5780820380516001836020036101000a031916815260200191505b509250505060405180910390f35b3480156200049557600080fd5b50620004a0620017b1565b6040518082815260200191505060405180910390f35b348015620004c357600080fd5b50620004ce620017b7565b6040518082815260200191505060405180910390f35b348015620004f157600080fd5b50620004fc620017bd565b6040518080602001828103825283818151815260200191508051906020019080838360005b838110156200053e57808201518184015260208101905062000521565b50505050905090810190601f1680156200056c5780820380516001836020036101000a031916815260200191505b509250505060405180910390f35b62000639600480360360208110156200059257600080fd5b8101908080359060200190640100000000811115620005b057600080fd5b820183602082011115620005c357600080fd5b80359060200191846001830284011164010000000083111715620005e657600080fd5b91908080601f016020809104026020016040519081016040528093929190818152602001838380828437600081840152601f19601f8201169050808301925050505050505091929192905050506200185f565b005b3480156200064857600080fd5b506200068e600480360360208110156200066157600080fd5b81019080803573ffffffffffffffffffffffffffffffffffffffff169060200190929190505050620019f6565b6040518080602001806020018573ffffffffffffffffffffffffffffffffffffffff1673ffffffffffffffffffffffffffffffffffffffff168152602001848152602001838103835287818151815260200191508051906020019080838360005b838110156200070c578082015181840152602081019050620006ef565b50505050905090810190601f1680156200073a5780820380516001836020036101000a031916815260200191505b50838103825286818151815260200191508051906020019080838360005b838110156200077557808201518184015260208101905062000758565b50505050905090810190601f168015620007a35780820380516001836020036101000a031916815260200191505b50965050505050505060405180910390f35b348015620007c257600080fd5b506200088c60048036036040811015620007db57600080fd5b8101908080359060200190929190803590602001906401000000008111156200080357600080fd5b8201836020820111156200081657600080fd5b803590602001918460018302840111640100000000831117156200083957600080fd5b91908080601f016020809104026020016040519081016040528093929190818152602001838380828437600081840152601f19601f82011690508083019250505050505050919291929050505062001b7e565b005b3480156200089b57600080fd5b50620008a662001ee2565b6040518082815260200191505060405180910390f35b348015620008c957600080fd5b50620008d462001ee8565b6040518082815260200191505060405180910390f35b348015620008f757600080fd5b506200090262001eee565b604051808273ffffffffffffffffffffffffffffffffffffffff1673ffffffffffffffffffffffffffffffffffffffff16815260200191505060405180910390f35b3480156200095157600080fd5b5062000981600480360360208110156200096a57600080fd5b810190808035906020019092919050505062001f13565b604051808573ffffffffffffffffffffffffffffffffffffffff1673ffffffffffffffffffffffffffffffffffffffff16815260200184815260200183815260200180602001828103825283818151815260200191508051906020019080838360005b8381101562000a01578082015181840152602081019050620009e4565b50505050905090810190601f16801562000a2f5780820380516001836020036101000a031916815260200191505b509550505050505060405180910390f35b34801562000a4d57600080fd5b5062000a5862001fff565b604051808273ffffffffffffffffffffffffffffffffffffffff1673ffffffffffffffffffffffffffffffffffffffff16815260200191505060405180910390f35b34801562000aa757600080fd5b5062000c0b6004803603606081101562000ac057600080fd5b810190808035906020019064010000000081111562000ade57600080fd5b82018360208201111562000af157600080fd5b8035906020019184600183028401116401000000008311171562000b1457600080fd5b91908080601f016020809104026020016040519081016040528093929190818152602001838380828437600081840152601f19601f8201169050808301925050505050505091929192908035906020019064010000000081111562000b7857600080fd5b82018360208201111562000b8b57600080fd5b8035906020019184600183028401116401000000008311171562000bae57600080fd5b91908080601f016020809104026020016040519081016040528093929190818152602001838380828437600081840152601f19601f8201169050808301925050505050505091929192908035906020019092919050505062002025565b005b34801562000c1a57600080fd5b5062000c25620022c7565b6040518082815260200191505060405180910390f35b34801562000c4857600080fd5b5062000c8e6004803603602081101562000c6157600080fd5b81019080803573ffffffffffffffffffffffffffffffffffffffff169060200190929190505050620022cd565b6040518082815260200191505060405180910390f35b34801562000cb157600080fd5b5062000cbc620022e5565b6040518082815260200191505060405180910390f35b62000e2b6004803603604081101562000cea57600080fd5b810190808035906020019064010000000081111562000d0857600080fd5b82018360208201111562000d1b57600080fd5b8035906020019184600183028401116401000000008311171562000d3e57600080fd5b91908080601f016020809104026020016040519081016040528093929190818152602001838380828437600081840152601f19601f8201169050808301925050505050505091929192908035906020019064010000000081111562000da257600080fd5b82018360208201111562000db557600080fd5b8035906020019184600183028401116401000000008311171562000dd857600080fd5b91908080601f016020809104026020016040519081016040528093929190818152602001838380828437600081840152601f19601f820116905080830192505050505050509192919290505050620022eb565b005b34801562000e3a57600080fd5b5062000e45620027c4565b60405180806020018060200180602001848103845287818151815260200191508051906020019080838360005b8381101562000e8f57808201518184015260208101905062000e72565b50505050905090810190601f16801562000ebd5780820380516001836020036101000a031916815260200191505b50848103835286818151815260200191508051906020019080838360005b8381101562000ef857808201518184015260208101905062000edb565b50505050905090810190601f16801562000f265780820380516001836020036101000a031916815260200191505b50848103825285818151815260200191508051906020019080838360005b8381101562000f6157808201518184015260208101905062000f44565b50505050905090810190601f16801562000f8f5780820380516001836020036101000a031916815260200191505b50965050505050505060405180910390f35b34801562000fae57600080fd5b50620011126004803603606081101562000fc757600080fd5b810190808035906020019064010000000081111562000fe557600080fd5b82018360208201111562000ff857600080fd5b803590602001918460018302840111640100000000831117156200101b57600080fd5b91908080601f016020809104026020016040519081016040528093929190818152602001838380828437600081840152601f19601f820116905080830192505050505050509192919290803590602001906401000000008111156200107f57600080fd5b8201836020820111156200109257600080fd5b80359060200191846001830284011164010000000083111715620010b557600080fd5b91908080601f016020809104026020016040519081016040528093929190818152602001838380828437600081840152601f19601f82011690508083019250505050505050919291929080359060200190929190505050620029b0565b005b3480156200112157600080fd5b506200112c62002ae7565b604051808273ffffffffffffffffffffffffffffffffffffffff1673ffffffffffffffffffffffffffffffffffffffff16815260200191505060405180910390f35b60008060009054906101000a900473ffffffffffffffffffffffffffffffffffffffff1673ffffffffffffffffffffffffffffffffffffffff163373ffffffffffffffffffffffffffffffffffffffff161462001233576040517f08c379a00000000000000000000000000000000000000000000000000000000081526004018080602001828103825260178152602001807f43616c6c6572206973206e6f7420746865206f776e657200000000000000000081525060200191505060405180910390fd5b81600e60006101000a81548160ff021916908360038111156200125257fe5b0217905550600160038111156200126557fe5b8260038111156200127257fe5b14156200128857660aa87bee538000600d819055505b7f8380c3893c41ffaaf694da88cd05bcc5b16767300762228932eb5bb85e904f16600e60009054906101000a900460ff16600d5460405180836003811115620012cd57fe5b60ff1681526020018281526020019250505060405180910390a1600d549050919050565b60085481565b6000600454421062001371576040517f08c379a00000000000000000000000000000000000000000000000000000000081526004018080602001828103825260198152602001807f446561646c696e6520616c72656164792041636869657665640000000000000081525060200191505060405180910390fd5b6000339050600160009054906101000a900473ffffffffffffffffffffffffffffffffffffffff16600e60016101000a81548173ffffffffffffffffffffffffffffffffffffffff021916908373ffffffffffffffffffffffffffffffffffffffff1602179055506000600e60019054906101000a900473ffffffffffffffffffffffffffffffffffffffff1673ffffffffffffffffffffffffffffffffffffffff166370a08231836040518263ffffffff1660e01b8152600401808273ffffffffffffffffffffffffffffffffffffffff1673ffffffffffffffffffffffffffffffffffffffff168152602001915050602060405180830381600087803b1580156200147d57600080fd5b505af115801562001492573d6000803e3d6000fd5b505050506040513d6020811015620014a957600080fd5b8101908080519060200190929190505050905080620014da670de0b6b3a76400008662002b0d90919063ffffffff16565b106200154e576040517f08c379a00000000000000000000000000000000000000000000000000000000081526004018080602001828103825260118152602001807f4e6f7420456e6f75676820746f6b656e7300000000000000000000000000000081525060200191505060405180910390fd5b600062001567600d548662002b0d90919063ffffffff16565b905080601560003373ffffffffffffffffffffffffffffffffffffffff1673ffffffffffffffffffffffffffffffffffffffff1681526020019081526020016000205411620015b557600080fd5b8047116200162b576040517f08c379a000000000000000000000000000000000000000000000000000000000815260040180806020018281038252601c8152602001807f4e6f7420456e6f75676820457468657220746f207472616e736665720000000081525060200191505060405180910390fd5b80601560008573ffffffffffffffffffffffffffffffffffffffff1673ffffffffffffffffffffffffffffffffffffffff168152602001908152602001600020600082825403925050819055508273ffffffffffffffffffffffffffffffffffffffff166108fc829081150290604051600060405180830381858888f19350505050158015620016bf573d6000803e3d6000fd5b50505050919050565b600e60009054906101000a900460ff1681565b600b5481565b600047905090565b60055481565b60126020528060005260406000206000915054906101000a900460ff1681565b60028054600181600116156101000203166002900480601f016020809104026020016040519081016040528092919081815260200182805460018160011615610100020316600290048015620017a95780601f106200177d57610100808354040283529160200191620017a9565b820191906000526020600020905b8154815290600101906020018083116200178b57829003601f168201915b505050505081565b60045481565b600a5481565b60038054600181600116156101000203166002900480601f016020809104026020016040519081016040528092919081815260200182805460018160011615610100020316600290048015620018575780601f106200182b5761010080835404028352916020019162001857565b820191906000526020600020905b8154815290600101906020018083116200183957829003601f168201915b505050505081565b6000809054906101000a900473ffffffffffffffffffffffffffffffffffffffff1673ffffffffffffffffffffffffffffffffffffffff163373ffffffffffffffffffffffffffffffffffffffff161462001922576040517f08c379a00000000000000000000000000000000000000000000000000000000081526004018080602001828103825260178152602001807f43616c6c6572206973206e6f7420746865206f776e657200000000000000000081525060200191505060405180910390fd5b600260038111156200193057fe5b600e60009054906101000a900460ff1660038111156200194c57fe5b146200195757600080fd5b600034116200196557600080fd5b34600c600082825401925050819055506200198e600b54600c5462002b9890919063ffffffff16565b600d819055507f8380c3893c41ffaaf694da88cd05bcc5b16767300762228932eb5bb85e904f16600e60009054906101000a900460ff16600d5460405180836003811115620019d957fe5b60ff1681526020018281526020019250505060405180910390a150565b6014602052806000526040600020600091509050806000018054600181600116156101000203166002900480601f01602080910402602001604051908101604052809291908181526020018280546001816001161561010002031660029004801562001aa65780601f1062001a7a5761010080835404028352916020019162001aa6565b820191906000526020600020905b81548152906001019060200180831162001a8857829003601f168201915b505050505090806001018054600181600116156101000203166002900480601f01602080910402602001604051908101604052809291908181526020018280546001816001161561010002031660029004801562001b485780601f1062001b1c5761010080835404028352916020019162001b48565b820191906000526020600020905b81548152906001019060200180831162001b2a57829003601f168201915b5050505050908060020160009054906101000a900473ffffffffffffffffffffffffffffffffffffffff16908060030154905084565b6000809054906101000a900473ffffffffffffffffffffffffffffffffffffffff1673ffffffffffffffffffffffffffffffffffffffff163373ffffffffffffffffffffffffffffffffffffffff161462001c41576040517f08c379a00000000000000000000000000000000000000000000000000000000081526004018080602001828103825260178152602001807f43616c6c6572206973206e6f7420746865206f776e657200000000000000000081525060200191505060405180910390fd5b600454421162001cb9576040517f08c379a00000000000000000000000000000000000000000000000000000000081526004018080602001828103825260178152602001807f446561646c696e652069736e2774206f7665722079657400000000000000000081525060200191505060405180910390fd5b81471162001d2f576040517f08c379a000000000000000000000000000000000000000000000000000000000815260040180806020018281038252601c8152602001807f4e6f7420456e6f75676820455448455220746f2057697468647261770000000081525060200191505060405180910390fd5b600a6000815480929190600101919050555060405180608001604052803373ffffffffffffffffffffffffffffffffffffffff1681526020018381526020014281526020018281525060136000600a54815260200190815260200160002060008201518160000160006101000a81548173ffffffffffffffffffffffffffffffffffffffff021916908373ffffffffffffffffffffffffffffffffffffffff1602179055506020820151816001015560408201518160020155606082015181600301908051906020019062001e0692919062002caf565b509050506000809054906101000a900473ffffffffffffffffffffffffffffffffffffffff1673ffffffffffffffffffffffffffffffffffffffff166108fc839081150290604051600060405180830381858888f1935050505015801562001e72573d6000803e3d6000fd5b507ffba1a14355f33124cb609811a7c716125808676a622db67e888ac6dff68dbfea3383604051808373ffffffffffffffffffffffffffffffffffffffff1673ffffffffffffffffffffffffffffffffffffffff1681526020018281526020019250505060405180910390a15050565b60075481565b600c5481565b6000809054906101000a900473ffffffffffffffffffffffffffffffffffffffff1681565b60136020528060005260406000206000915090508060000160009054906101000a900473ffffffffffffffffffffffffffffffffffffffff1690806001015490806002015490806003018054600181600116156101000203166002900480601f01602080910402602001604051908101604052809291908181526020018280546001816001161561010002031660029004801562001ff55780601f1062001fc95761010080835404028352916020019162001ff5565b820191906000526020600020905b81548152906001019060200180831162001fd757829003601f168201915b5050505050905084565b600160009054906101000a900473ffffffffffffffffffffffffffffffffffffffff1681565b6000809054906101000a900473ffffffffffffffffffffffffffffffffffffffff1673ffffffffffffffffffffffffffffffffffffffff163373ffffffffffffffffffffffffffffffffffffffff1614620020e8576040517f08c379a00000000000000000000000000000000000000000000000000000000081526004018080602001828103825260178152602001807f43616c6c6572206973206e6f7420746865206f776e657200000000000000000081525060200191505060405180910390fd5b828282604051620020f99062002d36565b808060200180602001848152602001838103835286818151815260200191508051906020019080838360005b838110156200214257808201518184015260208101905062002125565b50505050905090810190601f168015620021705780820380516001836020036101000a031916815260200191505b50838103825285818151815260200191508051906020019080838360005b83811015620021ab5780820151818401526020810190506200218e565b50505050905090810190601f168015620021d95780820380516001836020036101000a031916815260200191505b5095505050505050604051809103906000f080158015620021fe573d6000803e3d6000fd5b50600e60016101000a81548173ffffffffffffffffffffffffffffffffffffffff021916908373ffffffffffffffffffffffffffffffffffffffff160217905550600e60019054906101000a900473ffffffffffffffffffffffffffffffffffffffff16600160006101000a81548173ffffffffffffffffffffffffffffffffffffffff021916908373ffffffffffffffffffffffffffffffffffffffff1602179055508160039080519060200190620022ba92919062002d44565b5080600581905550505050565b60065481565b60156020528060005260406000206000915090505481565b60095481565b60003411620022f957600080fd5b600160009054906101000a900473ffffffffffffffffffffffffffffffffffffffff16600e60016101000a81548173ffffffffffffffffffffffffffffffffffffffff021916908373ffffffffffffffffffffffffffffffffffffffff160217905550600062002375600d543462002b9890919063ffffffff16565b9050600033905081600e60019054906101000a900473ffffffffffffffffffffffffffffffffffffffff1673ffffffffffffffffffffffffffffffffffffffff166370a08231306040518263ffffffff1660e01b8152600401808273ffffffffffffffffffffffffffffffffffffffff1673ffffffffffffffffffffffffffffffffffffffff168152602001915050602060405180830381600087803b1580156200241f57600080fd5b505af115801562002434573d6000803e3d6000fd5b505050506040513d60208110156200244b57600080fd5b81019080805190602001909291905050501015620024d1576040517f08c379a00000000000000000000000000000000000000000000000000000000081526004018080602001828103825260178152602001807f546f6b656e205175616e7469747920457863656564656400000000000000000081525060200191505060405180910390fd5b60096000815480929190600101919050555060405180608001604052808581526020018481526020018273ffffffffffffffffffffffffffffffffffffffff16815260200162002533670de0b6b3a76400008562002b9890919063ffffffff16565b815250601460003373ffffffffffffffffffffffffffffffffffffffff1673ffffffffffffffffffffffffffffffffffffffff16815260200190815260200160002060008201518160000190805190602001906200259392919062002caf565b506020820151816001019080519060200190620025b292919062002caf565b5060408201518160020160006101000a81548173ffffffffffffffffffffffffffffffffffffffff021916908373ffffffffffffffffffffffffffffffffffffffff1602179055506060820151816003015590505034601560008373ffffffffffffffffffffffffffffffffffffffff1673ffffffffffffffffffffffffffffffffffffffff16815260200190815260200160002081905550600e60019054906101000a900473ffffffffffffffffffffffffffffffffffffffff1673ffffffffffffffffffffffffffffffffffffffff1663a9059cbb82846040518363ffffffff1660e01b8152600401808373ffffffffffffffffffffffffffffffffffffffff1673ffffffffffffffffffffffffffffffffffffffff16815260200182815260200192505050602060405180830381600087803b158015620026f557600080fd5b505af11580156200270a573d6000803e3d6000fd5b505050506040513d60208110156200272157600080fd5b8101908080519060200190929190505050508160066000828254019250508190555034600b600082825401925050819055507ffe2ff4cf36ff7d2c2b06eb960897ee0d76d9c3e58da12feb7b93e86b226dd3448183604051808373ffffffffffffffffffffffffffffffffffffffff1673ffffffffffffffffffffffffffffffffffffffff1681526020018281526020019250505060405180910390a150505050565b600f806000018054600181600116156101000203166002900480601f016020809104026020016040519081016040528092919081815260200182805460018160011615610100020316600290048015620028625780601f10620028365761010080835404028352916020019162002862565b820191906000526020600020905b8154815290600101906020018083116200284457829003601f168201915b505050505090806001018054600181600116156101000203166002900480601f016020809104026020016040519081016040528092919081815260200182805460018160011615610100020316600290048015620029045780601f10620028d85761010080835404028352916020019162002904565b820191906000526020600020905b815481529060010190602001808311620028e657829003601f168201915b505050505090806002018054600181600116156101000203166002900480601f016020809104026020016040519081016040528092919081815260200182805460018160011615610100020316600290048015620029a65780601f106200297a57610100808354040283529160200191620029a6565b820191906000526020600020905b8154815290600101906020018083116200298857829003601f168201915b5050505050905083565b6000809054906101000a900473ffffffffffffffffffffffffffffffffffffffff1673ffffffffffffffffffffffffffffffffffffffff163373ffffffffffffffffffffffffffffffffffffffff161462002a73576040517f08c379a00000000000000000000000000000000000000000000000000000000081526004018080602001828103825260178152602001807f43616c6c6572206973206e6f7420746865206f776e657200000000000000000081525060200191505060405180910390fd5b6002600f600001908054600181600116156101000203166002900462002a9b92919062002dcb565b5082600f600101908051906020019062002ab792919062002d44565b5081600f600201908051906020019062002ad392919062002d44565b506201518081024201600481905550505050565b600e60019054906101000a900473ffffffffffffffffffffffffffffffffffffffff1681565b60008083141562002b22576000905062002b92565b600082840290508284828162002b3457fe5b041462002b8d576040517f08c379a0000000000000000000000000000000000000000000000000000000008152600401808060200182810382526021815260200180620040bd6021913960400191505060405180910390fd5b809150505b92915050565b600062002bdc83836040518060400160405280601a81526020017f536166654d6174683a206469766973696f6e206279207a65726f00000000000081525062002be4565b905092915050565b6000808311829062002c94576040517f08c379a00000000000000000000000000000000000000000000000000000000081526004018080602001828103825283818151815260200191508051906020019080838360005b8381101562002c5857808201518184015260208101905062002c3b565b50505050905090810190601f16801562002c865780820380516001836020036101000a031916815260200191505b509250505060405180910390fd5b50600083858162002ca157fe5b049050809150509392505050565b828054600181600116156101000203166002900490600052602060002090601f016020900481019282601f1062002cf257805160ff191683800117855562002d23565b8280016001018555821562002d23579182015b8281111562002d2257825182559160200191906001019062002d05565b5b50905062002d32919062002e59565b5090565b61123b8062002e8283390190565b828054600181600116156101000203166002900490600052602060002090601f016020900481019282601f1062002d8757805160ff191683800117855562002db8565b8280016001018555821562002db8579182015b8281111562002db757825182559160200191906001019062002d9a565b5b50905062002dc7919062002e59565b5090565b828054600181600116156101000203166002900490600052602060002090601f016020900481019282601f1062002e06578054855562002e46565b8280016001018555821562002e4657600052602060002091601f016020900482015b8281111562002e4557825482559160010191906001019062002e28565b5b50905062002e55919062002e59565b5090565b62002e7e91905b8082111562002e7a57600081600090555060010162002e60565b5090565b9056fe608060405260126002553480156200001657600080fd5b506040516200123b3803806200123b833981810160405260608110156200003c57600080fd5b81019080805160405193929190846401000000008211156200005d57600080fd5b838201915060208201858111156200007457600080fd5b82518660018202830111640100000000821117156200009257600080fd5b8083526020830192505050908051906020019080838360005b83811015620000c8578082015181840152602081019050620000ab565b50505050905090810190601f168015620000f65780820380516001836020036101000a031916815260200191505b50604052602001805160405193929190846401000000008211156200011a57600080fd5b838201915060208201858111156200013157600080fd5b82518660018202830111640100000000821117156200014f57600080fd5b8083526020830192505050908051906020019080838360005b838110156200018557808201518184015260208101905062000168565b50505050905090810190601f168015620001b35780820380516001836020036101000a031916815260200191505b506040526020018051906020019092919050505033600460006101000a81548173ffffffffffffffffffffffffffffffffffffffff021916908373ffffffffffffffffffffffffffffffffffffffff16021790555062000227600254600a0a82620002ca60201b62000d2a1790919060201c565b600560003373ffffffffffffffffffffffffffffffffffffffff1673ffffffffffffffffffffffffffffffffffffffff1681526020019081526020016000208190555082600090805190602001906200028292919062000355565b5081600190805190602001906200029b92919062000355565b50620002bb600254600a0a82620002ca60201b62000d2a1790919060201c565b60038190555050505062000404565b600080831415620002df57600090506200034f565b6000828402905082848281620002f157fe5b04146200034a576040517f08c379a00000000000000000000000000000000000000000000000000000000081526004018080602001828103825260218152602001806200121a6021913960400191505060405180910390fd5b809150505b92915050565b828054600181600116156101000203166002900490600052602060002090601f016020900481019282601f106200039857805160ff1916838001178555620003c9565b82800160010185558215620003c9579182015b82811115620003c8578251825591602001919060010190620003ab565b5b509050620003d89190620003dc565b5090565b6200040191905b80821115620003fd576000816000905550600101620003e3565b5090565b90565b610e0680620004146000396000f3fe608060405234801561001057600080fd5b50600436106100b45760003560e01c806370a082311161007157806370a08231146102bc5780638da5cb5b1461031457806395d89b411461035e578063a44b47f7146103e1578063a9059cbb146103ff578063dd62ed3e14610465576100b4565b806306fdde03146100b9578063095ea7b31461013c57806318160ddd146101a257806323b872dd146101c057806327e235e314610246578063313ce5671461029e575b600080fd5b6100c16104dd565b6040518080602001828103825283818151815260200191508051906020019080838360005b838110156101015780820151818401526020810190506100e6565b50505050905090810190601f16801561012e5780820380516001836020036101000a031916815260200191505b509250505060405180910390f35b6101886004803603604081101561015257600080fd5b81019080803573ffffffffffffffffffffffffffffffffffffffff1690602001909291908035906020019092919050505061057b565b604051808215151515815260200191505060405180910390f35b6101aa61066d565b6040518082815260200191505060405180910390f35b61022c600480360360608110156101d657600080fd5b81019080803573ffffffffffffffffffffffffffffffffffffffff169060200190929190803573ffffffffffffffffffffffffffffffffffffffff16906020019092919080359060200190929190505050610677565b604051808215151515815260200191505060405180910390f35b6102886004803603602081101561025c57600080fd5b81019080803573ffffffffffffffffffffffffffffffffffffffff16906020019092919050505061097e565b6040518082815260200191505060405180910390f35b6102a6610996565b6040518082815260200191505060405180910390f35b6102fe600480360360208110156102d257600080fd5b81019080803573ffffffffffffffffffffffffffffffffffffffff16906020019092919050505061099c565b6040518082815260200191505060405180910390f35b61031c6109e5565b604051808273ffffffffffffffffffffffffffffffffffffffff1673ffffffffffffffffffffffffffffffffffffffff16815260200191505060405180910390f35b610366610a0b565b6040518080602001828103825283818151815260200191508051906020019080838360005b838110156103a657808201518184015260208101905061038b565b50505050905090810190601f1680156103d35780820380516001836020036101000a031916815260200191505b509250505060405180910390f35b6103e9610aa9565b6040518082815260200191505060405180910390f35b61044b6004803603604081101561041557600080fd5b81019080803573ffffffffffffffffffffffffffffffffffffffff16906020019092919080359060200190929190505050610aaf565b604051808215151515815260200191505060405180910390f35b6104c76004803603604081101561047b57600080fd5b81019080803573ffffffffffffffffffffffffffffffffffffffff169060200190929190803573ffffffffffffffffffffffffffffffffffffffff169060200190929190505050610ca3565b6040518082815260200191505060405180910390f35b60018054600181600116156101000203166002900480601f0160208091040260200160405190810160405280929190818152602001828054600181600116156101000203166002900480156105735780601f1061054857610100808354040283529160200191610573565b820191906000526020600020905b81548152906001019060200180831161055657829003601f168201915b505050505081565b600081600660003373ffffffffffffffffffffffffffffffffffffffff1673ffffffffffffffffffffffffffffffffffffffff16815260200190815260200160002060008573ffffffffffffffffffffffffffffffffffffffff1673ffffffffffffffffffffffffffffffffffffffff168152602001908152602001600020819055508273ffffffffffffffffffffffffffffffffffffffff163373ffffffffffffffffffffffffffffffffffffffff167f8c5be1e5ebec7d5bd14f71427d1e84f3dd0314c0f7b2291e5b200ac8c7c3b925846040518082815260200191505060405180910390a36001905092915050565b6000600354905090565b600081600560008673ffffffffffffffffffffffffffffffffffffffff1673ffffffffffffffffffffffffffffffffffffffff1681526020019081526020016000205410158015610744575081600660008673ffffffffffffffffffffffffffffffffffffffff1673ffffffffffffffffffffffffffffffffffffffff16815260200190815260200160002060003373ffffffffffffffffffffffffffffffffffffffff1673ffffffffffffffffffffffffffffffffffffffff1681526020019081526020016000205410155b80156107505750600082115b80156107db5750600560008473ffffffffffffffffffffffffffffffffffffffff1673ffffffffffffffffffffffffffffffffffffffff1681526020019081526020016000205482600560008673ffffffffffffffffffffffffffffffffffffffff1673ffffffffffffffffffffffffffffffffffffffff1681526020019081526020016000205401115b156109725781600560008673ffffffffffffffffffffffffffffffffffffffff1673ffffffffffffffffffffffffffffffffffffffff1681526020019081526020016000206000828254039250508190555081600660008673ffffffffffffffffffffffffffffffffffffffff1673ffffffffffffffffffffffffffffffffffffffff16815260200190815260200160002060003373ffffffffffffffffffffffffffffffffffffffff1673ffffffffffffffffffffffffffffffffffffffff1681526020019081526020016000206000828254039250508190555081600560008573ffffffffffffffffffffffffffffffffffffffff1673ffffffffffffffffffffffffffffffffffffffff168152602001908152602001600020600082825401925050819055508273ffffffffffffffffffffffffffffffffffffffff168473ffffffffffffffffffffffffffffffffffffffff167fddf252ad1be2c89b69c2b068fc378daa952ba7f163c4a11628f55a4df523b3ef846040518082815260200191505060405180910390a360019050610977565b600090505b9392505050565b60056020528060005260406000206000915090505481565b60025481565b6000600560008373ffffffffffffffffffffffffffffffffffffffff1673ffffffffffffffffffffffffffffffffffffffff168152602001908152602001600020549050919050565b600460009054906101000a900473ffffffffffffffffffffffffffffffffffffffff1681565b60008054600181600116156101000203166002900480601f016020809104026020016040519081016040528092919081815260200182805460018160011615610100020316600290048015610aa15780601f10610a7657610100808354040283529160200191610aa1565b820191906000526020600020905b815481529060010190602001808311610a8457829003601f168201915b505050505081565b60035481565b600081600560003373ffffffffffffffffffffffffffffffffffffffff1673ffffffffffffffffffffffffffffffffffffffff1681526020019081526020016000205410158015610b005750600082115b8015610b8b5750600560008473ffffffffffffffffffffffffffffffffffffffff1673ffffffffffffffffffffffffffffffffffffffff1681526020019081526020016000205482600560008673ffffffffffffffffffffffffffffffffffffffff1673ffffffffffffffffffffffffffffffffffffffff1681526020019081526020016000205401115b15610c985781600560003373ffffffffffffffffffffffffffffffffffffffff1673ffffffffffffffffffffffffffffffffffffffff1681526020019081526020016000206000828254039250508190555081600560008573ffffffffffffffffffffffffffffffffffffffff1673ffffffffffffffffffffffffffffffffffffffff168152602001908152602001600020600082825401925050819055508273ffffffffffffffffffffffffffffffffffffffff163373ffffffffffffffffffffffffffffffffffffffff167fddf252ad1be2c89b69c2b068fc378daa952ba7f163c4a11628f55a4df523b3ef846040518082815260200191505060405180910390a360019050610c9d565b600090505b92915050565b6000600660008473ffffffffffffffffffffffffffffffffffffffff1673ffffffffffffffffffffffffffffffffffffffff16815260200190815260200160002060008373ffffffffffffffffffffffffffffffffffffffff1673ffffffffffffffffffffffffffffffffffffffff16815260200190815260200160002054905092915050565b600080831415610d3d5760009050610daa565b6000828402905082848281610d4e57fe5b0414610da5576040517f08c379a0000000000000000000000000000000000000000000000000000000008152600401808060200182810382526021815260200180610db16021913960400191505060405180910390fd5b809150505b9291505056fe536166654d6174683a206d756c7469706c69636174696f6e206f766572666c6f77a265627a7a723158207c194e01e141847f05040f1baff7af08d718f5cd6d61903fd1791a9e9accc69564736f6c63430005100032536166654d6174683a206d756c7469706c69636174696f6e206f766572666c6f77536166654d6174683a206d756c7469706c69636174696f6e206f766572666c6f77a265627a7a7231582005a62107ebb4cf7b1b19d77451b357548346d5ef949a5d7520e5601d6dd07bdf64736f6c63430005100032",
  "source": "pragma solidity ^0.5.1;\r\n\r\nimport \"./TokenFactory.sol\";\r\nimport \"./SafeMath.sol\";\r\n\r\ncontract MovieContract {\r\n  using SafeMath for uint256;\r\n\r\n  address payable public owner;\r\n  address public tokenAddress;\r\n  string public movieName;\r\n  string public tokenName;\r\n  uint256 public deadline;\r\n  uint256 public totalSupply;\r\n  uint256 public totalTokenSold;\r\n  uint256 public tokenPrice = 1000;\r\n  uint256 public creationDate;\r\n  uint256 public investorCount;\r\n  uint256 public withdrawCount;\r\n  uint256 public totalInvestment;\r\n  uint256 public totalProfit;\r\n\r\n  uint internal rate = 0.001 * 10 ** 18; //ETH per Token\r\n\r\n  enum State { PRE_PRODUCTION, PRODUCTION, RELEASED, OVER } // Rate - 0.001, 0.003, profitDependent\r\n  State public currentState = State.PRE_PRODUCTION;\r\n  \r\nTokenFactory public token;\r\n\r\n\r\nconstructor(string memory _movieName, address payable _movieCreator) public{\r\n    owner = _movieCreator;\r\n    movieName = _movieName;\r\n    creationDate = now;\r\n  }\r\n// Stucts\r\n  struct movieDetails{\r\n    string name;\r\n    string details;\r\n    string ipfsHash;\r\n  }\r\n\r\n  struct investorDetails{\r\n    string name;\r\n    string contactDetails;\r\n    address payable investorAddress;\r\n    uint256 tokensBought;\r\n  }\r\n\r\n  struct withdrawDetails{\r\n    address withdrawnBy;\r\n    uint256 amountWithdrawn;\r\n    uint256 time;\r\n    string reason;\r\n  }\r\n\r\n   movieDetails public movie;\r\n\r\n//Mappings\r\n  mapping(address => bool) public profitAdded;\r\n  mapping (uint256 => withdrawDetails) public withdrawlsByOwner;\r\n  mapping (address => investorDetails)public investors;\r\n  mapping (address => uint256 ) public investedAmount;\r\n\r\n  modifier  onlyOwner() { \r\n    require(msg.sender == owner, \"Caller is not the owner\"); \r\n    _; \r\n  }\r\n  \r\n//Events\r\n  event TokenSold(address buyer,uint256 amount);\r\n  event etherWithdrawn(address rec,uint256 amount);\r\n  event MovieState(State _currentState, uint _currentRate);\r\n\r\n\r\n\r\n  function addMovie(string memory _details, string memory _ipfs, uint256 _timeInDays) public onlyOwner{\r\n    movie.name = movieName;\r\n    movie.details = _details;\r\n    movie.ipfsHash = _ipfs;\r\n    deadline = now + _timeInDays * 1 days;\r\n  }\r\n\r\n  function createMovieToken(string memory _symbol, string memory _name, uint256 _totalSupply) public onlyOwner{\r\n      token = new TokenFactory(_symbol, _name, _totalSupply);\r\n      tokenAddress = address(token);\r\n      tokenName = _name;\r\n      totalSupply = _totalSupply;\r\n  }\r\n\r\n  function updateState(State _state) public onlyOwner returns (uint _rate) {\r\n    currentState = _state;\r\n    if(_state == State.PRODUCTION) {\r\n      rate = 0.003 * 10 ** 18;\r\n    }\r\n    // else if(_state == State.RELEASED) {\r\n    //   rate = 0.1;\r\n    // }\r\n    emit MovieState(currentState, rate);\r\n    return rate;\r\n  }\r\n\r\n  function reportProfit(string memory _source) public payable onlyOwner {\r\n    require(currentState == State.RELEASED);\r\n    require(msg.value > 0);\r\n    totalProfit += msg.value;\r\n    rate = totalProfit.div(totalInvestment);\r\n    emit MovieState(currentState, rate);    \r\n  }\r\n\r\n//amountToGive = rate.mul(msg.value); // if user send 1 ETH it will give 1000 tokens.\r\n  function buyMovieTokens(string memory _name, string memory _contact) public payable{\r\n    require (msg.value > 0);\r\n    token = TokenFactory(tokenAddress);\r\n    // uint256 _numberOfTokens = tokenPrice.mul(msg.value);\r\n    uint256 _numberOfTokens = msg.value.div(rate);\r\n    address payable _to = msg.sender;\r\n\r\n    require(token.balanceOf(address(this)) >= _numberOfTokens, \"Token Quantity Exceeded\");\r\n    investorCount++;\r\n    investors[msg.sender] = investorDetails(_name, _contact,_to,_numberOfTokens.div(1000000000000000000));\r\n    investedAmount[_to] = msg.value;\r\n    token.transfer(_to,_numberOfTokens);\r\n    totalTokenSold += _numberOfTokens;\r\n    totalInvestment += msg.value;\r\n    emit TokenSold(_to,_numberOfTokens);\r\n  }\r\n\r\n  function  useEther(uint256 _amount, string memory _reason) public onlyOwner{\r\n    require(now > deadline, \"Deadline isn't over yet\");\r\n    require (address(this).balance > _amount, \"Not Enough ETHER to Withdraw\");\r\n    withdrawCount++;\r\n    withdrawlsByOwner[withdrawCount] = withdrawDetails(msg.sender, _amount,now, _reason);\r\n    owner.transfer(_amount);   \r\n    emit etherWithdrawn(msg.sender,_amount);\r\n  }\r\n  \r\n\r\n  function getBalance() public view returns(uint256){\r\n      return address(this).balance;\r\n  }\r\n  \r\n  function unlockEther(uint256 _amountOfTokens) public returns(uint256){\r\n    require(now < deadline, \"Deadline already Achieved\");\r\n    address payable user = msg.sender;\r\n    token = TokenFactory(tokenAddress);\r\n  \r\n    uint256 totalTokens = token.balanceOf(user);\r\n    require (_amountOfTokens.mul(1000000000000000000) < totalTokens, \"Not Enough tokens\");\r\n    // uint256 totalEth = _amountOfTokens.mul(1000000000000000);\r\n    uint256 totalEth = _amountOfTokens.mul(rate);\r\n    require(investedAmount[msg.sender] > totalEth);\r\n    require(address(this).balance > totalEth, \"Not Enough Ether to transfer\");\r\n    investedAmount[user] -= totalEth;\r\n    user.transfer(totalEth);\r\n    //Deaduct User's Token Balnace ????\r\n    //Transfer the user's submitted tokens to the contract.\r\n  }\r\n    \r\n   \r\n}\r\n",
  "sourcePath": "C:\\Users\\dhair\\Desktop\\eth\\proj\\dapp_JEDI_hackathon\\contracts\\MovieContract.sol",
  "compiler": {
    "name": "solc",
    "version": "0.5.16+commit.9c3226ce.Emscripten.clang"
  },
  "schemaVersion": "3.0.22",
  "updatedAt": "2020-09-01T11:17:57.812Z",
  "devdoc": {
    "methods": {}
  },
  "userdoc": {
    "methods": {}
  }
}