{
  "contractName": "MovieContract",
  "abi": [
    {
      "inputs": [
        {
          "internalType": "string",
          "name": "_movieName",
          "type": "string"
        },
        {
          "internalType": "address payable",
          "name": "_movieCreator",
          "type": "address"
        }
      ],
      "payable": false,
      "stateMutability": "nonpayable",
      "type": "constructor"
    },
    {
      "anonymous": false,
      "inputs": [
        {
          "indexed": false,
          "internalType": "enum MovieContract.State",
          "name": "_currentState",
          "type": "uint8"
        },
        {
          "indexed": false,
          "internalType": "uint256",
          "name": "_currentRate",
          "type": "uint256"
        }
      ],
      "name": "MovieState",
      "type": "event"
    },
    {
      "anonymous": false,
      "inputs": [
        {
          "indexed": false,
          "internalType": "address",
          "name": "buyer",
          "type": "address"
        },
        {
          "indexed": false,
          "internalType": "uint256",
          "name": "amount",
          "type": "uint256"
        }
      ],
      "name": "TokenSold",
      "type": "event"
    },
    {
      "anonymous": false,
      "inputs": [
        {
          "indexed": false,
          "internalType": "address",
          "name": "rec",
          "type": "address"
        },
        {
          "indexed": false,
          "internalType": "string",
          "name": "designation",
          "type": "string"
        },
        {
          "indexed": false,
          "internalType": "uint256",
          "name": "amount",
          "type": "uint256"
        }
      ],
      "name": "etherWithdrawn",
      "type": "event"
    },
    {
      "anonymous": false,
      "inputs": [
        {
          "indexed": false,
          "internalType": "address",
          "name": "rec",
          "type": "address"
        },
        {
          "indexed": false,
          "internalType": "uint256",
          "name": "amount",
          "type": "uint256"
        }
      ],
      "name": "etherWithdrawn",
      "type": "event"
    },
    {
      "constant": true,
      "inputs": [],
      "name": "currentState",
      "outputs": [
        {
          "internalType": "enum MovieContract.State",
          "name": "",
          "type": "uint8"
        }
      ],
      "payable": false,
      "stateMutability": "view",
      "type": "function"
    },
    {
      "constant": true,
      "inputs": [
        {
          "internalType": "address",
          "name": "",
          "type": "address"
        }
      ],
      "name": "investedAmount",
      "outputs": [
        {
          "internalType": "uint256",
          "name": "",
          "type": "uint256"
        }
      ],
      "payable": false,
      "stateMutability": "view",
      "type": "function"
    },
    {
      "constant": true,
      "inputs": [],
      "name": "investorCount",
      "outputs": [
        {
          "internalType": "uint256",
          "name": "",
          "type": "uint256"
        }
      ],
      "payable": false,
      "stateMutability": "view",
      "type": "function"
    },
    {
      "constant": true,
      "inputs": [
        {
          "internalType": "address",
          "name": "",
          "type": "address"
        }
      ],
      "name": "investors",
      "outputs": [
        {
          "internalType": "string",
          "name": "name",
          "type": "string"
        },
        {
          "internalType": "string",
          "name": "contactDetails",
          "type": "string"
        },
        {
          "internalType": "address payable",
          "name": "investorAddress",
          "type": "address"
        },
        {
          "internalType": "uint256",
          "name": "tokensBought",
          "type": "uint256"
        }
      ],
      "payable": false,
      "stateMutability": "view",
      "type": "function"
    },
    {
      "constant": true,
      "inputs": [],
      "name": "movie",
      "outputs": [
        {
          "internalType": "string",
          "name": "name",
          "type": "string"
        },
        {
          "internalType": "string",
          "name": "details",
          "type": "string"
        },
        {
          "internalType": "uint256",
          "name": "creationDate",
          "type": "uint256"
        },
        {
          "internalType": "uint256",
          "name": "deadline",
          "type": "uint256"
        },
        {
          "internalType": "string",
          "name": "ipfsHash",
          "type": "string"
        }
      ],
      "payable": false,
      "stateMutability": "view",
      "type": "function"
    },
    {
      "constant": true,
      "inputs": [],
      "name": "movieName",
      "outputs": [
        {
          "internalType": "string",
          "name": "",
          "type": "string"
        }
      ],
      "payable": false,
      "stateMutability": "view",
      "type": "function"
    },
    {
      "constant": true,
      "inputs": [],
      "name": "owner",
      "outputs": [
        {
          "internalType": "address payable",
          "name": "",
          "type": "address"
        }
      ],
      "payable": false,
      "stateMutability": "view",
      "type": "function"
    },
    {
      "constant": true,
      "inputs": [
        {
          "internalType": "address",
          "name": "",
          "type": "address"
        }
      ],
      "name": "profitAdded",
      "outputs": [
        {
          "internalType": "bool",
          "name": "",
          "type": "bool"
        }
      ],
      "payable": false,
      "stateMutability": "view",
      "type": "function"
    },
    {
      "constant": true,
      "inputs": [],
      "name": "rate",
      "outputs": [
        {
          "internalType": "uint256",
          "name": "",
          "type": "uint256"
        }
      ],
      "payable": false,
      "stateMutability": "view",
      "type": "function"
    },
    {
      "constant": true,
      "inputs": [],
      "name": "requestCount",
      "outputs": [
        {
          "internalType": "uint256",
          "name": "",
          "type": "uint256"
        }
      ],
      "payable": false,
      "stateMutability": "view",
      "type": "function"
    },
    {
      "constant": true,
      "inputs": [
        {
          "internalType": "uint256",
          "name": "",
          "type": "uint256"
        }
      ],
      "name": "requests",
      "outputs": [
        {
          "internalType": "uint256",
          "name": "amountOfEth",
          "type": "uint256"
        },
        {
          "internalType": "uint256",
          "name": "numberOfVoters",
          "type": "uint256"
        },
        {
          "internalType": "string",
          "name": "description",
          "type": "string"
        },
        {
          "internalType": "string",
          "name": "receiverDesignation",
          "type": "string"
        },
        {
          "internalType": "bool",
          "name": "completed",
          "type": "bool"
        },
        {
          "internalType": "address payable",
          "name": "recipient",
          "type": "address"
        }
      ],
      "payable": false,
      "stateMutability": "view",
      "type": "function"
    },
    {
      "constant": true,
      "inputs": [],
      "name": "summary",
      "outputs": [
        {
          "internalType": "string",
          "name": "",
          "type": "string"
        }
      ],
      "payable": false,
      "stateMutability": "view",
      "type": "function"
    },
    {
      "constant": true,
      "inputs": [],
      "name": "token",
      "outputs": [
        {
          "internalType": "contract TokenFactory",
          "name": "",
          "type": "address"
        }
      ],
      "payable": false,
      "stateMutability": "view",
      "type": "function"
    },
    {
      "constant": true,
      "inputs": [],
      "name": "tokenAddress",
      "outputs": [
        {
          "internalType": "address",
          "name": "",
          "type": "address"
        }
      ],
      "payable": false,
      "stateMutability": "view",
      "type": "function"
    },
    {
      "constant": true,
      "inputs": [],
      "name": "tokenName",
      "outputs": [
        {
          "internalType": "string",
          "name": "",
          "type": "string"
        }
      ],
      "payable": false,
      "stateMutability": "view",
      "type": "function"
    },
    {
      "constant": true,
      "inputs": [],
      "name": "tokenPrice",
      "outputs": [
        {
          "internalType": "uint256",
          "name": "",
          "type": "uint256"
        }
      ],
      "payable": false,
      "stateMutability": "view",
      "type": "function"
    },
    {
      "constant": true,
      "inputs": [],
      "name": "totalInvestment",
      "outputs": [
        {
          "internalType": "uint256",
          "name": "",
          "type": "uint256"
        }
      ],
      "payable": false,
      "stateMutability": "view",
      "type": "function"
    },
    {
      "constant": true,
      "inputs": [],
      "name": "totalProfit",
      "outputs": [
        {
          "internalType": "uint256",
          "name": "",
          "type": "uint256"
        }
      ],
      "payable": false,
      "stateMutability": "view",
      "type": "function"
    },
    {
      "constant": true,
      "inputs": [],
      "name": "totalSupply",
      "outputs": [
        {
          "internalType": "uint256",
          "name": "",
          "type": "uint256"
        }
      ],
      "payable": false,
      "stateMutability": "view",
      "type": "function"
    },
    {
      "constant": true,
      "inputs": [],
      "name": "totalTokenSold",
      "outputs": [
        {
          "internalType": "uint256",
          "name": "",
          "type": "uint256"
        }
      ],
      "payable": false,
      "stateMutability": "view",
      "type": "function"
    },
    {
      "constant": true,
      "inputs": [
        {
          "internalType": "uint256",
          "name": "",
          "type": "uint256"
        }
      ],
      "name": "updates",
      "outputs": [
        {
          "internalType": "string",
          "name": "",
          "type": "string"
        }
      ],
      "payable": false,
      "stateMutability": "view",
      "type": "function"
    },
    {
      "constant": true,
      "inputs": [],
      "name": "voterCount",
      "outputs": [
        {
          "internalType": "uint256",
          "name": "",
          "type": "uint256"
        }
      ],
      "payable": false,
      "stateMutability": "view",
      "type": "function"
    },
    {
      "constant": true,
      "inputs": [],
      "name": "withdrawCount",
      "outputs": [
        {
          "internalType": "uint256",
          "name": "",
          "type": "uint256"
        }
      ],
      "payable": false,
      "stateMutability": "view",
      "type": "function"
    },
    {
      "constant": false,
      "inputs": [
        {
          "internalType": "string",
          "name": "_details",
          "type": "string"
        },
        {
          "internalType": "string",
          "name": "_ipfs",
          "type": "string"
        },
        {
          "internalType": "uint256",
          "name": "_timeInDays",
          "type": "uint256"
        }
      ],
      "name": "addMovie",
      "outputs": [],
      "payable": false,
      "stateMutability": "nonpayable",
      "type": "function"
    },
    {
      "constant": false,
      "inputs": [
        {
          "internalType": "string",
          "name": "_symbol",
          "type": "string"
        },
        {
          "internalType": "string",
          "name": "_name",
          "type": "string"
        },
        {
          "internalType": "uint256",
          "name": "_totalSupply",
          "type": "uint256"
        }
      ],
      "name": "createMovieToken",
      "outputs": [],
      "payable": false,
      "stateMutability": "nonpayable",
      "type": "function"
    },
    {
      "constant": false,
      "inputs": [
        {
          "internalType": "enum MovieContract.State",
          "name": "_state",
          "type": "uint8"
        }
      ],
      "name": "updateState",
      "outputs": [
        {
          "internalType": "uint256",
          "name": "_rate",
          "type": "uint256"
        }
      ],
      "payable": false,
      "stateMutability": "nonpayable",
      "type": "function"
    },
    {
      "constant": false,
      "inputs": [],
      "name": "reportProfit",
      "outputs": [],
      "payable": true,
      "stateMutability": "payable",
      "type": "function"
    },
    {
      "constant": false,
      "inputs": [
        {
          "internalType": "string",
          "name": "_name",
          "type": "string"
        },
        {
          "internalType": "string",
          "name": "_contact",
          "type": "string"
        }
      ],
      "name": "buyMovieTokens",
      "outputs": [],
      "payable": true,
      "stateMutability": "payable",
      "type": "function"
    },
    {
      "constant": false,
      "inputs": [
        {
          "internalType": "string",
          "name": "_desc",
          "type": "string"
        },
        {
          "internalType": "address payable",
          "name": "_rec",
          "type": "address"
        },
        {
          "internalType": "string",
          "name": "_receiverDesignation",
          "type": "string"
        },
        {
          "internalType": "uint256",
          "name": "_val",
          "type": "uint256"
        }
      ],
      "name": "initiateRequest",
      "outputs": [],
      "payable": false,
      "stateMutability": "nonpayable",
      "type": "function"
    },
    {
      "constant": false,
      "inputs": [
        {
          "internalType": "uint256",
          "name": "_index",
          "type": "uint256"
        }
      ],
      "name": "startVoting",
      "outputs": [],
      "payable": false,
      "stateMutability": "nonpayable",
      "type": "function"
    },
    {
      "constant": false,
      "inputs": [
        {
          "internalType": "uint256",
          "name": "_index",
          "type": "uint256"
        }
      ],
      "name": "withdrawEther",
      "outputs": [],
      "payable": false,
      "stateMutability": "nonpayable",
      "type": "function"
    },
    {
      "constant": true,
      "inputs": [],
      "name": "getBalance",
      "outputs": [
        {
          "internalType": "uint256",
          "name": "",
          "type": "uint256"
        }
      ],
      "payable": false,
      "stateMutability": "view",
      "type": "function"
    },
    {
      "constant": false,
      "inputs": [
        {
          "internalType": "uint256",
          "name": "_amountOfTokens",
          "type": "uint256"
        }
      ],
      "name": "unlockEther",
      "outputs": [],
      "payable": false,
      "stateMutability": "nonpayable",
      "type": "function"
    }
  ],
  "bytecode": "0x60806040526103e860075566038d7ea4c68000600f556000601060006101000a81548160ff021916908360038111156200003557fe5b02179055503480156200004757600080fd5b506040516200523738038062005237833981810160405260408110156200006d57600080fd5b81019080805160405193929190846401000000008211156200008e57600080fd5b83820191506020820185811115620000a557600080fd5b8251866001820283011164010000000082111715620000c357600080fd5b8083526020830192505050908051906020019080838360005b83811015620000f9578082015181840152602081019050620000dc565b50505050905090810190601f168015620001275780820380516001836020036101000a031916815260200191505b5060405260200180519060200190929190505050806000806101000a81548173ffffffffffffffffffffffffffffffffffffffff021916908373ffffffffffffffffffffffffffffffffffffffff160217905550816002908051906020019062000193929190620001a6565b5042601160020181905550505062000255565b828054600181600116156101000203166002900490600052602060002090601f016020900481019282601f10620001e957805160ff19168380011785556200021a565b828001600101855582156200021a579182015b8281111562000219578251825591602001919060010190620001fc565b5b5090506200022991906200022d565b5090565b6200025291905b808211156200024e57600081600090555060010162000234565b5090565b90565b614fd280620002656000396000f3fe6080604052600436106200021e5760003560e01c80636c02a9311162000127578063b16a867c11620000af578063d7e64c001162000079578063d7e64c001462000f48578063d9895de01462000f76578063e362bcac14620010d1578063f012666e1462001253578063fc0c546a14620013c6576200021e565b8063b16a867c1462000d60578063b4c2f7271462000df6578063b5f7f6361462000eb1578063cff774441462000edf576200021e565b80638600151911620000f1578063860015191462000b0b5780638da5cb5b1462000b395780639d76ea581462000b93578063ae4cc8941462000bed576200021e565b80636c02a93114620007575780636f7bc9be14620007ed5780637ff9b596146200096757806381d12c581462000995576200021e565b806327eef6f311620001ab57806342169e48116200017557806342169e48146200053a5780634cc05a7114620005685780635badbe4c1462000596578063623c168f14620005c4576200021e565b806327eef6f314620003f85780632c4e722e146200048e5780633bed33ce14620004bc5780633d2f5bda14620004fb576200021e565b806310ea13df11620001ed57806310ea13df146200030157806312065fe0146200032f57806318160ddd146200035d57806320a1d4e5146200038b576200021e565b80630591d3ab14620002235780630ab9408614620002795780630bbdc98d14620002b85780630c3f6acf14620002c4575b600080fd5b3480156200023057600080fd5b5062000263600480360360208110156200024957600080fd5b81019080803560ff16906020019092919050505062001420565b6040518082815260200191505060405180910390f35b3480156200028657600080fd5b50620002b6600480360360208110156200029f57600080fd5b8101908080359060200190929190505050620015a3565b005b620002c262001a52565b005b348015620002d157600080fd5b50620002dc62001be8565b60405180826003811115620002ed57fe5b60ff16815260200191505060405180910390f35b3480156200030e57600080fd5b506200031962001bfb565b6040518082815260200191505060405180910390f35b3480156200033c57600080fd5b506200034762001c01565b6040518082815260200191505060405180910390f35b3480156200036a57600080fd5b506200037562001c09565b6040518082815260200191505060405180910390f35b3480156200039857600080fd5b50620003de60048036036020811015620003b157600080fd5b81019080803573ffffffffffffffffffffffffffffffffffffffff16906020019092919050505062001c0f565b604051808215151515815260200191505060405180910390f35b3480156200040557600080fd5b506200041062001c2f565b6040518080602001828103825283818151815260200191508051906020019080838360005b838110156200045257808201518184015260208101905062000435565b50505050905090810190601f168015620004805780820380516001836020036101000a031916815260200191505b509250505060405180910390f35b3480156200049b57600080fd5b50620004a662001cd1565b6040518082815260200191505060405180910390f35b348015620004c957600080fd5b50620004f960048036036020811015620004e257600080fd5b810190808035906020019092919050505062001cd7565b005b3480156200050857600080fd5b5062000538600480360360208110156200052157600080fd5b8101908080359060200190929190505050620020f3565b005b3480156200054757600080fd5b5062000552620022fd565b6040518082815260200191505060405180910390f35b3480156200057557600080fd5b506200058062002303565b6040518082815260200191505060405180910390f35b348015620005a357600080fd5b50620005ae62002309565b6040518082815260200191505060405180910390f35b348015620005d157600080fd5b506200075560048036036080811015620005ea57600080fd5b81019080803590602001906401000000008111156200060857600080fd5b8201836020820111156200061b57600080fd5b803590602001918460018302840111640100000000831117156200063e57600080fd5b91908080601f016020809104026020016040519081016040528093929190818152602001838380828437600081840152601f19601f820116905080830192505050505050509192919290803573ffffffffffffffffffffffffffffffffffffffff16906020019092919080359060200190640100000000811115620006c257600080fd5b820183602082011115620006d557600080fd5b80359060200191846001830284011164010000000083111715620006f857600080fd5b91908080601f016020809104026020016040519081016040528093929190818152602001838380828437600081840152601f19601f820116905080830192505050505050509192919290803590602001909291905050506200230f565b005b3480156200076457600080fd5b506200076f6200251e565b6040518080602001828103825283818151815260200191508051906020019080838360005b83811015620007b157808201518184015260208101905062000794565b50505050905090810190601f168015620007df5780820380516001836020036101000a031916815260200191505b509250505060405180910390f35b348015620007fa57600080fd5b5062000840600480360360208110156200081357600080fd5b81019080803573ffffffffffffffffffffffffffffffffffffffff169060200190929190505050620025c0565b6040518080602001806020018573ffffffffffffffffffffffffffffffffffffffff1673ffffffffffffffffffffffffffffffffffffffff168152602001848152602001838103835287818151815260200191508051906020019080838360005b83811015620008be578082015181840152602081019050620008a1565b50505050905090810190601f168015620008ec5780820380516001836020036101000a031916815260200191505b50838103825286818151815260200191508051906020019080838360005b83811015620009275780820151818401526020810190506200090a565b50505050905090810190601f168015620009555780820380516001836020036101000a031916815260200191505b50965050505050505060405180910390f35b3480156200097457600080fd5b506200097f62002748565b6040518082815260200191505060405180910390f35b348015620009a257600080fd5b50620009d260048036036020811015620009bb57600080fd5b81019080803590602001909291905050506200274e565b604051808781526020018681526020018060200180602001851515151581526020018473ffffffffffffffffffffffffffffffffffffffff1673ffffffffffffffffffffffffffffffffffffffff168152602001838103835287818151815260200191508051906020019080838360005b8381101562000a6057808201518184015260208101905062000a43565b50505050905090810190601f16801562000a8e5780820380516001836020036101000a031916815260200191505b50838103825286818151815260200191508051906020019080838360005b8381101562000ac957808201518184015260208101905062000aac565b50505050905090810190601f16801562000af75780820380516001836020036101000a031916815260200191505b509850505050505050505060405180910390f35b34801562000b1857600080fd5b5062000b23620028ef565b6040518082815260200191505060405180910390f35b34801562000b4657600080fd5b5062000b51620028f5565b604051808273ffffffffffffffffffffffffffffffffffffffff1673ffffffffffffffffffffffffffffffffffffffff16815260200191505060405180910390f35b34801562000ba057600080fd5b5062000bab6200291a565b604051808273ffffffffffffffffffffffffffffffffffffffff1673ffffffffffffffffffffffffffffffffffffffff16815260200191505060405180910390f35b34801562000bfa57600080fd5b5062000d5e6004803603606081101562000c1357600080fd5b810190808035906020019064010000000081111562000c3157600080fd5b82018360208201111562000c4457600080fd5b8035906020019184600183028401116401000000008311171562000c6757600080fd5b91908080601f016020809104026020016040519081016040528093929190818152602001838380828437600081840152601f19601f8201169050808301925050505050505091929192908035906020019064010000000081111562000ccb57600080fd5b82018360208201111562000cde57600080fd5b8035906020019184600183028401116401000000008311171562000d0157600080fd5b91908080601f016020809104026020016040519081016040528093929190818152602001838380828437600081840152601f19601f8201169050808301925050505050505091929192908035906020019092919050505062002940565b005b34801562000d6d57600080fd5b5062000d7862002be2565b6040518080602001828103825283818151815260200191508051906020019080838360005b8381101562000dba57808201518184015260208101905062000d9d565b50505050905090810190601f16801562000de85780820380516001836020036101000a031916815260200191505b509250505060405180910390f35b34801562000e0357600080fd5b5062000e336004803603602081101562000e1c57600080fd5b810190808035906020019092919050505062002c84565b6040518080602001828103825283818151815260200191508051906020019080838360005b8381101562000e7557808201518184015260208101905062000e58565b50505050905090810190601f16801562000ea35780820380516001836020036101000a031916815260200191505b509250505060405180910390f35b34801562000ebe57600080fd5b5062000ec962002d42565b6040518082815260200191505060405180910390f35b34801562000eec57600080fd5b5062000f326004803603602081101562000f0557600080fd5b81019080803573ffffffffffffffffffffffffffffffffffffffff16906020019092919050505062002d48565b6040518082815260200191505060405180910390f35b34801562000f5557600080fd5b5062000f6062002d60565b6040518082815260200191505060405180910390f35b620010cf6004803603604081101562000f8e57600080fd5b810190808035906020019064010000000081111562000fac57600080fd5b82018360208201111562000fbf57600080fd5b8035906020019184600183028401116401000000008311171562000fe257600080fd5b91908080601f016020809104026020016040519081016040528093929190818152602001838380828437600081840152601f19601f820116905080830192505050505050509192919290803590602001906401000000008111156200104657600080fd5b8201836020820111156200105957600080fd5b803590602001918460018302840111640100000000831117156200107c57600080fd5b91908080601f016020809104026020016040519081016040528093929190818152602001838380828437600081840152601f19601f82011690508083019250505050505050919291929050505062002d66565b005b348015620010de57600080fd5b50620010e96200323f565b60405180806020018060200186815260200185815260200180602001848103845289818151815260200191508051906020019080838360005b838110156200113f57808201518184015260208101905062001122565b50505050905090810190601f1680156200116d5780820380516001836020036101000a031916815260200191505b50848103835288818151815260200191508051906020019080838360005b83811015620011a85780820151818401526020810190506200118b565b50505050905090810190601f168015620011d65780820380516001836020036101000a031916815260200191505b50848103825285818151815260200191508051906020019080838360005b8381101562001211578082015181840152602081019050620011f4565b50505050905090810190601f1680156200123f5780820380516001836020036101000a031916815260200191505b509850505050505050505060405180910390f35b3480156200126057600080fd5b50620013c4600480360360608110156200127957600080fd5b81019080803590602001906401000000008111156200129757600080fd5b820183602082011115620012aa57600080fd5b80359060200191846001830284011164010000000083111715620012cd57600080fd5b91908080601f016020809104026020016040519081016040528093929190818152602001838380828437600081840152601f19601f820116905080830192505050505050509192919290803590602001906401000000008111156200133157600080fd5b8201836020820111156200134457600080fd5b803590602001918460018302840111640100000000831117156200136757600080fd5b91908080601f016020809104026020016040519081016040528093929190818152602001838380828437600081840152601f19601f8201169050808301925050505050505091929192908035906020019092919050505062003437565b005b348015620013d357600080fd5b50620013de6200358a565b604051808273ffffffffffffffffffffffffffffffffffffffff1673ffffffffffffffffffffffffffffffffffffffff16815260200191505060405180910390f35b60008060009054906101000a900473ffffffffffffffffffffffffffffffffffffffff1673ffffffffffffffffffffffffffffffffffffffff163373ffffffffffffffffffffffffffffffffffffffff1614620014e5576040517f08c379a00000000000000000000000000000000000000000000000000000000081526004018080602001828103825260178152602001807f43616c6c6572206973206e6f7420746865206f776e657200000000000000000081525060200191505060405180910390fd5b81601060006101000a81548160ff021916908360038111156200150457fe5b0217905550600160038111156200151757fe5b8260038111156200152457fe5b14156200153a57660aa87bee538000600f819055505b7f8380c3893c41ffaaf694da88cd05bcc5b16767300762228932eb5bb85e904f16601060009054906101000a900460ff16600f54604051808360038111156200157f57fe5b60ff1681526020018281526020019250505060405180910390a1600f549050919050565b60116003015442106200161e576040517f08c379a00000000000000000000000000000000000000000000000000000000081526004018080602001828103825260198152602001807f446561646c696e6520616c72656164792041636869657665640000000000000081525060200191505060405180910390fd5b6000339050600160009054906101000a900473ffffffffffffffffffffffffffffffffffffffff16601060016101000a81548173ffffffffffffffffffffffffffffffffffffffff021916908373ffffffffffffffffffffffffffffffffffffffff1602179055506000601060019054906101000a900473ffffffffffffffffffffffffffffffffffffffff1673ffffffffffffffffffffffffffffffffffffffff166370a08231836040518263ffffffff1660e01b8152600401808273ffffffffffffffffffffffffffffffffffffffff1673ffffffffffffffffffffffffffffffffffffffff168152602001915050602060405180830381600087803b1580156200172a57600080fd5b505af11580156200173f573d6000803e3d6000fd5b505050506040513d60208110156200175657600080fd5b810190808051906020019092919050505090508062001787670de0b6b3a764000085620035b090919063ffffffff16565b10620017fb576040517f08c379a00000000000000000000000000000000000000000000000000000000081526004018080602001828103825260118152602001807f4e6f7420456e6f75676820746f6b656e7300000000000000000000000000000081525060200191505060405180910390fd5b600062001814600f5485620035b090919063ffffffff16565b905080601860003373ffffffffffffffffffffffffffffffffffffffff1673ffffffffffffffffffffffffffffffffffffffff16815260200190815260200160002054116200186257600080fd5b804711620018d8576040517f08c379a000000000000000000000000000000000000000000000000000000000815260040180806020018281038252601c8152602001807f4e6f7420456e6f75676820457468657220746f207472616e736665720000000081525060200191505060405180910390fd5b80601860008573ffffffffffffffffffffffffffffffffffffffff1673ffffffffffffffffffffffffffffffffffffffff168152602001908152602001600020600082825403925050819055508273ffffffffffffffffffffffffffffffffffffffff166108fc829081150290604051600060405180830381858888f193505050501580156200196c573d6000803e3d6000fd5b50601060019054906101000a900473ffffffffffffffffffffffffffffffffffffffff1673ffffffffffffffffffffffffffffffffffffffff16639dc29fac84620019c9670de0b6b3a764000088620035b090919063ffffffff16565b6040518363ffffffff1660e01b8152600401808373ffffffffffffffffffffffffffffffffffffffff1673ffffffffffffffffffffffffffffffffffffffff16815260200182815260200192505050600060405180830381600087803b15801562001a3357600080fd5b505af115801562001a48573d6000803e3d6000fd5b5050505050505050565b6000809054906101000a900473ffffffffffffffffffffffffffffffffffffffff1673ffffffffffffffffffffffffffffffffffffffff163373ffffffffffffffffffffffffffffffffffffffff161462001b15576040517f08c379a00000000000000000000000000000000000000000000000000000000081526004018080602001828103825260178152602001807f43616c6c6572206973206e6f7420746865206f776e657200000000000000000081525060200191505060405180910390fd5b6002600381111562001b2357fe5b601060009054906101000a900460ff16600381111562001b3f57fe5b1462001b4a57600080fd5b6000341162001b5857600080fd5b34600d6000828254019250508190555062001b81600c54600d546200363b90919063ffffffff16565b600f819055507f8380c3893c41ffaaf694da88cd05bcc5b16767300762228932eb5bb85e904f16601060009054906101000a900460ff16600f546040518083600381111562001bcc57fe5b60ff1681526020018281526020019250505060405180910390a1565b601060009054906101000a900460ff1681565b600c5481565b600047905090565b60055481565b60166020528060005260406000206000915054906101000a900460ff1681565b60028054600181600116156101000203166002900480601f01602080910402602001604051908101604052809291908181526020018280546001816001161561010002031660029004801562001cc95780601f1062001c9d5761010080835404028352916020019162001cc9565b820191906000526020600020905b81548152906001019060200180831162001cab57829003601f168201915b505050505081565b600f5481565b6000809054906101000a900473ffffffffffffffffffffffffffffffffffffffff1673ffffffffffffffffffffffffffffffffffffffff163373ffffffffffffffffffffffffffffffffffffffff161462001d9a576040517f08c379a00000000000000000000000000000000000000000000000000000000081526004018080602001828103825260178152602001807f43616c6c6572206973206e6f7420746865206f776e657200000000000000000081525060200191505060405180910390fd5b600015156019600083815260200190815260200160002060040160009054906101000a900460ff1615151462001e38576040517f08c379a000000000000000000000000000000000000000000000000000000000815260040180806020018281038252601d8152602001807f54686973205265717565737420616c726561647920457865637574656400000081525060200191505060405180910390fd5b62001e5060026008546200363b90919063ffffffff16565b60196000838152602001908152602001600020600101541162001edb576040517f08c379a00000000000000000000000000000000000000000000000000000000081526004018080602001828103825260178152602001807f566f746520526573756c74206973204e4547415449564500000000000000000081525060200191505060405180910390fd5b6019600082815260200190815260200160002060040160019054906101000a900473ffffffffffffffffffffffffffffffffffffffff1673ffffffffffffffffffffffffffffffffffffffff166108fc60196000848152602001908152602001600020600001549081150290604051600060405180830381858888f1935050505015801562001f6e573d6000803e3d6000fd5b50600115156019600083815260200190815260200160002060040160009054906101000a905050507fa284cf4031f940c95fbab070f97ea7bcb884df993d1852728e9d9dd5e4e032c66019600083815260200190815260200160002060040160019054906101000a900473ffffffffffffffffffffffffffffffffffffffff16601960008481526020019081526020016000206003016019600085815260200190815260200160002060000154604051808473ffffffffffffffffffffffffffffffffffffffff1673ffffffffffffffffffffffffffffffffffffffff16815260200180602001838152602001828103825284818154600181600116156101000203166002900481526020019150805460018160011615610100020316600290048015620020e05780601f10620020b457610100808354040283529160200191620020e0565b820191906000526020600020905b815481529060010190602001808311620020c257829003601f168201915b505094505050505060405180910390a150565b6000601860003373ffffffffffffffffffffffffffffffffffffffff1673ffffffffffffffffffffffffffffffffffffffff1681526020019081526020016000205411620021a9576040517f08c379a000000000000000000000000000000000000000000000000000000000815260040180806020018281038252601d8152602001807f496e766573746f72204e6f7420456c696769626c6520746f20564f544500000081525060200191505060405180910390fd5b600015156019600083815260200190815260200160002060050160003373ffffffffffffffffffffffffffffffffffffffff1673ffffffffffffffffffffffffffffffffffffffff16815260200190815260200160002060009054906101000a900460ff1615151462002268576040517f08c379a000000000000000000000000000000000000000000000000000000000815260040180806020018281038252602a81526020018062004f74602a913960400191505060405180910390fd5b60016019600083815260200190815260200160002060050160003373ffffffffffffffffffffffffffffffffffffffff1673ffffffffffffffffffffffffffffffffffffffff16815260200190815260200160002060006101000a81548160ff021916908315150217905550601960008281526020019081526020016000206001016000815480929190600101919050555050565b600a5481565b600b5481565b60095481565b6000809054906101000a900473ffffffffffffffffffffffffffffffffffffffff1673ffffffffffffffffffffffffffffffffffffffff163373ffffffffffffffffffffffffffffffffffffffff1614620023d2576040517f08c379a00000000000000000000000000000000000000000000000000000000081526004018080602001828103825260178152602001807f43616c6c6572206973206e6f7420746865206f776e657200000000000000000081525060200191505060405180910390fd5b6009600081548092919060010191905055506040518060c001604052806200240c670de0b6b3a764000084620035b090919063ffffffff16565b8152602001600081526020018581526020018381526020016000151581526020018473ffffffffffffffffffffffffffffffffffffffff16815250601960006009548152602001908152602001600020600082015181600001556020820151816001015560408201518160020190805190602001906200248e92919062003752565b506060820151816003019080519060200190620024ad92919062003752565b5060808201518160040160006101000a81548160ff02191690831515021790555060a08201518160040160016101000a81548173ffffffffffffffffffffffffffffffffffffffff021916908373ffffffffffffffffffffffffffffffffffffffff16021790555090505050505050565b60048054600181600116156101000203166002900480601f016020809104026020016040519081016040528092919081815260200182805460018160011615610100020316600290048015620025b85780601f106200258c57610100808354040283529160200191620025b8565b820191906000526020600020905b8154815290600101906020018083116200259a57829003601f168201915b505050505081565b6017602052806000526040600020600091509050806000018054600181600116156101000203166002900480601f016020809104026020016040519081016040528092919081815260200182805460018160011615610100020316600290048015620026705780601f10620026445761010080835404028352916020019162002670565b820191906000526020600020905b8154815290600101906020018083116200265257829003601f168201915b505050505090806001018054600181600116156101000203166002900480601f016020809104026020016040519081016040528092919081815260200182805460018160011615610100020316600290048015620027125780601f10620026e65761010080835404028352916020019162002712565b820191906000526020600020905b815481529060010190602001808311620026f457829003601f168201915b5050505050908060020160009054906101000a900473ffffffffffffffffffffffffffffffffffffffff16908060030154905084565b60075481565b6019602052806000526040600020600091509050806000015490806001015490806002018054600181600116156101000203166002900480601f0160208091040260200160405190810160405280929190818152602001828054600181600116156101000203166002900480156200280a5780601f10620027de576101008083540402835291602001916200280a565b820191906000526020600020905b815481529060010190602001808311620027ec57829003601f168201915b505050505090806003018054600181600116156101000203166002900480601f016020809104026020016040519081016040528092919081815260200182805460018160011615610100020316600290048015620028ac5780601f106200288057610100808354040283529160200191620028ac565b820191906000526020600020905b8154815290600101906020018083116200288e57829003601f168201915b5050505050908060040160009054906101000a900460ff16908060040160019054906101000a900473ffffffffffffffffffffffffffffffffffffffff16905086565b600d5481565b6000809054906101000a900473ffffffffffffffffffffffffffffffffffffffff1681565b600160009054906101000a900473ffffffffffffffffffffffffffffffffffffffff1681565b6000809054906101000a900473ffffffffffffffffffffffffffffffffffffffff1673ffffffffffffffffffffffffffffffffffffffff163373ffffffffffffffffffffffffffffffffffffffff161462002a03576040517f08c379a00000000000000000000000000000000000000000000000000000000081526004018080602001828103825260178152602001807f43616c6c6572206973206e6f7420746865206f776e657200000000000000000081525060200191505060405180910390fd5b82828260405162002a1490620037d9565b808060200180602001848152602001838103835286818151815260200191508051906020019080838360005b8381101562002a5d57808201518184015260208101905062002a40565b50505050905090810190601f16801562002a8b5780820380516001836020036101000a031916815260200191505b50838103825285818151815260200191508051906020019080838360005b8381101562002ac657808201518184015260208101905062002aa9565b50505050905090810190601f16801562002af45780820380516001836020036101000a031916815260200191505b5095505050505050604051809103906000f08015801562002b19573d6000803e3d6000fd5b50601060016101000a81548173ffffffffffffffffffffffffffffffffffffffff021916908373ffffffffffffffffffffffffffffffffffffffff160217905550601060019054906101000a900473ffffffffffffffffffffffffffffffffffffffff16600160006101000a81548173ffffffffffffffffffffffffffffffffffffffff021916908373ffffffffffffffffffffffffffffffffffffffff160217905550816004908051906020019062002bd5929190620037e7565b5080600581905550505050565b60038054600181600116156101000203166002900480601f01602080910402602001604051908101604052809291908181526020018280546001816001161561010002031660029004801562002c7c5780601f1062002c505761010080835404028352916020019162002c7c565b820191906000526020600020905b81548152906001019060200180831162002c5e57829003601f168201915b505050505081565b600e818154811062002c9257fe5b906000526020600020016000915090508054600181600116156101000203166002900480601f01602080910402602001604051908101604052809291908181526020018280546001816001161561010002031660029004801562002d3a5780601f1062002d0e5761010080835404028352916020019162002d3a565b820191906000526020600020905b81548152906001019060200180831162002d1c57829003601f168201915b505050505081565b60065481565b60186020528060005260406000206000915090505481565b60085481565b6000341162002d7457600080fd5b600160009054906101000a900473ffffffffffffffffffffffffffffffffffffffff16601060016101000a81548173ffffffffffffffffffffffffffffffffffffffff021916908373ffffffffffffffffffffffffffffffffffffffff160217905550600062002df0600f54346200363b90919063ffffffff16565b9050600033905081601060019054906101000a900473ffffffffffffffffffffffffffffffffffffffff1673ffffffffffffffffffffffffffffffffffffffff166370a08231306040518263ffffffff1660e01b8152600401808273ffffffffffffffffffffffffffffffffffffffff1673ffffffffffffffffffffffffffffffffffffffff168152602001915050602060405180830381600087803b15801562002e9a57600080fd5b505af115801562002eaf573d6000803e3d6000fd5b505050506040513d602081101562002ec657600080fd5b8101908080519060200190929190505050101562002f4c576040517f08c379a00000000000000000000000000000000000000000000000000000000081526004018080602001828103825260178152602001807f546f6b656e205175616e7469747920457863656564656400000000000000000081525060200191505060405180910390fd5b60086000815480929190600101919050555060405180608001604052808581526020018481526020018273ffffffffffffffffffffffffffffffffffffffff16815260200162002fae670de0b6b3a7640000856200363b90919063ffffffff16565b815250601760003373ffffffffffffffffffffffffffffffffffffffff1673ffffffffffffffffffffffffffffffffffffffff16815260200190815260200160002060008201518160000190805190602001906200300e92919062003752565b5060208201518160010190805190602001906200302d92919062003752565b5060408201518160020160006101000a81548173ffffffffffffffffffffffffffffffffffffffff021916908373ffffffffffffffffffffffffffffffffffffffff1602179055506060820151816003015590505034601860008373ffffffffffffffffffffffffffffffffffffffff1673ffffffffffffffffffffffffffffffffffffffff16815260200190815260200160002081905550601060019054906101000a900473ffffffffffffffffffffffffffffffffffffffff1673ffffffffffffffffffffffffffffffffffffffff1663a9059cbb82846040518363ffffffff1660e01b8152600401808373ffffffffffffffffffffffffffffffffffffffff1673ffffffffffffffffffffffffffffffffffffffff16815260200182815260200192505050602060405180830381600087803b1580156200317057600080fd5b505af115801562003185573d6000803e3d6000fd5b505050506040513d60208110156200319c57600080fd5b8101908080519060200190929190505050508160066000828254019250508190555034600c600082825401925050819055507ffe2ff4cf36ff7d2c2b06eb960897ee0d76d9c3e58da12feb7b93e86b226dd3448183604051808373ffffffffffffffffffffffffffffffffffffffff1673ffffffffffffffffffffffffffffffffffffffff1681526020018281526020019250505060405180910390a150505050565b6011806000018054600181600116156101000203166002900480601f016020809104026020016040519081016040528092919081815260200182805460018160011615610100020316600290048015620032dd5780601f10620032b157610100808354040283529160200191620032dd565b820191906000526020600020905b815481529060010190602001808311620032bf57829003601f168201915b505050505090806001018054600181600116156101000203166002900480601f0160208091040260200160405190810160405280929190818152602001828054600181600116156101000203166002900480156200337f5780601f1062003353576101008083540402835291602001916200337f565b820191906000526020600020905b8154815290600101906020018083116200336157829003601f168201915b505050505090806002015490806003015490806004018054600181600116156101000203166002900480601f0160208091040260200160405190810160405280929190818152602001828054600181600116156101000203166002900480156200342d5780601f1062003401576101008083540402835291602001916200342d565b820191906000526020600020905b8154815290600101906020018083116200340f57829003601f168201915b5050505050905085565b6000809054906101000a900473ffffffffffffffffffffffffffffffffffffffff1673ffffffffffffffffffffffffffffffffffffffff163373ffffffffffffffffffffffffffffffffffffffff1614620034fa576040517f08c379a00000000000000000000000000000000000000000000000000000000081526004018080602001828103825260178152602001807f43616c6c6572206973206e6f7420746865206f776e657200000000000000000081525060200191505060405180910390fd5b600260116000019080546001816001161561010002031660029004620035229291906200386e565b5082601160010190805190602001906200353e929190620037e7565b50826003908051906020019062003557929190620037e7565b50816011600401908051906020019062003573929190620037e7565b506201518081024201601160030181905550505050565b601060019054906101000a900473ffffffffffffffffffffffffffffffffffffffff1681565b600080831415620035c5576000905062003635565b6000828402905082848281620035d757fe5b041462003630576040517f08c379a000000000000000000000000000000000000000000000000000000000815260040180806020018281038252602181526020018062004f536021913960400191505060405180910390fd5b809150505b92915050565b60006200367f83836040518060400160405280601a81526020017f536166654d6174683a206469766973696f6e206279207a65726f00000000000081525062003687565b905092915050565b6000808311829062003737576040517f08c379a00000000000000000000000000000000000000000000000000000000081526004018080602001828103825283818151815260200191508051906020019080838360005b83811015620036fb578082015181840152602081019050620036de565b50505050905090810190601f168015620037295780820380516001836020036101000a031916815260200191505b509250505060405180910390fd5b5060008385816200374457fe5b049050809150509392505050565b828054600181600116156101000203166002900490600052602060002090601f016020900481019282601f106200379557805160ff1916838001178555620037c6565b82800160010185558215620037c6579182015b82811115620037c5578251825591602001919060010190620037a8565b5b509050620037d59190620038fc565b5090565b61162e806200392583390190565b828054600181600116156101000203166002900490600052602060002090601f016020900481019282601f106200382a57805160ff19168380011785556200385b565b828001600101855582156200385b579182015b828111156200385a5782518255916020019190600101906200383d565b5b5090506200386a9190620038fc565b5090565b828054600181600116156101000203166002900490600052602060002090601f016020900481019282601f10620038a95780548555620038e9565b82800160010185558215620038e957600052602060002091601f016020900482015b82811115620038e8578254825591600101919060010190620038cb565b5b509050620038f89190620038fc565b5090565b6200392191905b808211156200391d57600081600090555060010162003903565b5090565b9056fe608060405260126002553480156200001657600080fd5b506040516200162e3803806200162e833981810160405260608110156200003c57600080fd5b81019080805160405193929190846401000000008211156200005d57600080fd5b838201915060208201858111156200007457600080fd5b82518660018202830111640100000000821117156200009257600080fd5b8083526020830192505050908051906020019080838360005b83811015620000c8578082015181840152602081019050620000ab565b50505050905090810190601f168015620000f65780820380516001836020036101000a031916815260200191505b50604052602001805160405193929190846401000000008211156200011a57600080fd5b838201915060208201858111156200013157600080fd5b82518660018202830111640100000000821117156200014f57600080fd5b8083526020830192505050908051906020019080838360005b838110156200018557808201518184015260208101905062000168565b50505050905090810190601f168015620001b35780820380516001836020036101000a031916815260200191505b506040526020018051906020019092919050505033600460006101000a81548173ffffffffffffffffffffffffffffffffffffffff021916908373ffffffffffffffffffffffffffffffffffffffff16021790555062000227600254600a0a82620002ca60201b6200111d1790919060201c565b600560003373ffffffffffffffffffffffffffffffffffffffff1673ffffffffffffffffffffffffffffffffffffffff1681526020019081526020016000208190555082600090805190602001906200028292919062000355565b5081600190805190602001906200029b92919062000355565b50620002bb600254600a0a82620002ca60201b6200111d1790919060201c565b60038190555050505062000404565b600080831415620002df57600090506200034f565b6000828402905082848281620002f157fe5b04146200034a576040517f08c379a00000000000000000000000000000000000000000000000000000000081526004018080602001828103825260218152602001806200160d6021913960400191505060405180910390fd5b809150505b92915050565b828054600181600116156101000203166002900490600052602060002090601f016020900481019282601f106200039857805160ff1916838001178555620003c9565b82800160010185558215620003c9579182015b82811115620003c8578251825591602001919060010190620003ab565b5b509050620003d89190620003dc565b5090565b6200040191905b80821115620003fd576000816000905550600101620003e3565b5090565b90565b6111f980620004146000396000f3fe608060405234801561001057600080fd5b50600436106100cf5760003560e01c806370a082311161008c5780639dc29fac116100665780639dc29fac146103fc578063a44b47f71461044a578063a9059cbb14610468578063dd62ed3e146104ce576100cf565b806370a08231146102d75780638da5cb5b1461032f57806395d89b4114610379576100cf565b806306fdde03146100d4578063095ea7b31461015757806318160ddd146101bd57806323b872dd146101db57806327e235e314610261578063313ce567146102b9575b600080fd5b6100dc610546565b6040518080602001828103825283818151815260200191508051906020019080838360005b8381101561011c578082015181840152602081019050610101565b50505050905090810190601f1680156101495780820380516001836020036101000a031916815260200191505b509250505060405180910390f35b6101a36004803603604081101561016d57600080fd5b81019080803573ffffffffffffffffffffffffffffffffffffffff169060200190929190803590602001909291905050506105e4565b604051808215151515815260200191505060405180910390f35b6101c56106d6565b6040518082815260200191505060405180910390f35b610247600480360360608110156101f157600080fd5b81019080803573ffffffffffffffffffffffffffffffffffffffff169060200190929190803573ffffffffffffffffffffffffffffffffffffffff169060200190929190803590602001909291905050506106e0565b604051808215151515815260200191505060405180910390f35b6102a36004803603602081101561027757600080fd5b81019080803573ffffffffffffffffffffffffffffffffffffffff1690602001909291905050506109e7565b6040518082815260200191505060405180910390f35b6102c16109ff565b6040518082815260200191505060405180910390f35b610319600480360360208110156102ed57600080fd5b81019080803573ffffffffffffffffffffffffffffffffffffffff169060200190929190505050610a05565b6040518082815260200191505060405180910390f35b610337610a4e565b604051808273ffffffffffffffffffffffffffffffffffffffff1673ffffffffffffffffffffffffffffffffffffffff16815260200191505060405180910390f35b610381610a74565b6040518080602001828103825283818151815260200191508051906020019080838360005b838110156103c15780820151818401526020810190506103a6565b50505050905090810190601f1680156103ee5780820380516001836020036101000a031916815260200191505b509250505060405180910390f35b6104486004803603604081101561041257600080fd5b81019080803573ffffffffffffffffffffffffffffffffffffffff16906020019092919080359060200190929190505050610b12565b005b610452610d92565b6040518082815260200191505060405180910390f35b6104b46004803603604081101561047e57600080fd5b81019080803573ffffffffffffffffffffffffffffffffffffffff16906020019092919080359060200190929190505050610d98565b604051808215151515815260200191505060405180910390f35b610530600480360360408110156104e457600080fd5b81019080803573ffffffffffffffffffffffffffffffffffffffff169060200190929190803573ffffffffffffffffffffffffffffffffffffffff169060200190929190505050610f8c565b6040518082815260200191505060405180910390f35b60018054600181600116156101000203166002900480601f0160208091040260200160405190810160405280929190818152602001828054600181600116156101000203166002900480156105dc5780601f106105b1576101008083540402835291602001916105dc565b820191906000526020600020905b8154815290600101906020018083116105bf57829003601f168201915b505050505081565b600081600660003373ffffffffffffffffffffffffffffffffffffffff1673ffffffffffffffffffffffffffffffffffffffff16815260200190815260200160002060008573ffffffffffffffffffffffffffffffffffffffff1673ffffffffffffffffffffffffffffffffffffffff168152602001908152602001600020819055508273ffffffffffffffffffffffffffffffffffffffff163373ffffffffffffffffffffffffffffffffffffffff167f8c5be1e5ebec7d5bd14f71427d1e84f3dd0314c0f7b2291e5b200ac8c7c3b925846040518082815260200191505060405180910390a36001905092915050565b6000600354905090565b600081600560008673ffffffffffffffffffffffffffffffffffffffff1673ffffffffffffffffffffffffffffffffffffffff16815260200190815260200160002054101580156107ad575081600660008673ffffffffffffffffffffffffffffffffffffffff1673ffffffffffffffffffffffffffffffffffffffff16815260200190815260200160002060003373ffffffffffffffffffffffffffffffffffffffff1673ffffffffffffffffffffffffffffffffffffffff1681526020019081526020016000205410155b80156107b95750600082115b80156108445750600560008473ffffffffffffffffffffffffffffffffffffffff1673ffffffffffffffffffffffffffffffffffffffff1681526020019081526020016000205482600560008673ffffffffffffffffffffffffffffffffffffffff1673ffffffffffffffffffffffffffffffffffffffff1681526020019081526020016000205401115b156109db5781600560008673ffffffffffffffffffffffffffffffffffffffff1673ffffffffffffffffffffffffffffffffffffffff1681526020019081526020016000206000828254039250508190555081600660008673ffffffffffffffffffffffffffffffffffffffff1673ffffffffffffffffffffffffffffffffffffffff16815260200190815260200160002060003373ffffffffffffffffffffffffffffffffffffffff1673ffffffffffffffffffffffffffffffffffffffff1681526020019081526020016000206000828254039250508190555081600560008573ffffffffffffffffffffffffffffffffffffffff1673ffffffffffffffffffffffffffffffffffffffff168152602001908152602001600020600082825401925050819055508273ffffffffffffffffffffffffffffffffffffffff168473ffffffffffffffffffffffffffffffffffffffff167fddf252ad1be2c89b69c2b068fc378daa952ba7f163c4a11628f55a4df523b3ef846040518082815260200191505060405180910390a3600190506109e0565b600090505b9392505050565b60056020528060005260406000206000915090505481565b60025481565b6000600560008373ffffffffffffffffffffffffffffffffffffffff1673ffffffffffffffffffffffffffffffffffffffff168152602001908152602001600020549050919050565b600460009054906101000a900473ffffffffffffffffffffffffffffffffffffffff1681565b60008054600181600116156101000203166002900480601f016020809104026020016040519081016040528092919081815260200182805460018160011615610100020316600290048015610b0a5780601f10610adf57610100808354040283529160200191610b0a565b820191906000526020600020905b815481529060010190602001808311610aed57829003601f168201915b505050505081565b600073ffffffffffffffffffffffffffffffffffffffff168273ffffffffffffffffffffffffffffffffffffffff161415610bb5576040517f08c379a00000000000000000000000000000000000000000000000000000000081526004018080602001828103825260208152602001807f4552433230206275726e2066726f6d207a65726f20616464726573732077746681525060200191505060405180910390fd5b600460009054906101000a900473ffffffffffffffffffffffffffffffffffffffff1673ffffffffffffffffffffffffffffffffffffffff163373ffffffffffffffffffffffffffffffffffffffff1614610c78576040517f08c379a00000000000000000000000000000000000000000000000000000000081526004018080602001828103825260138152602001807f6f6e6c79206f776e65722063616e206275726e0000000000000000000000000081525060200191505060405180910390fd5b610cca81600560008573ffffffffffffffffffffffffffffffffffffffff1673ffffffffffffffffffffffffffffffffffffffff1681526020019081526020016000205461101390919063ffffffff16565b600560008473ffffffffffffffffffffffffffffffffffffffff1673ffffffffffffffffffffffffffffffffffffffff16815260200190815260200160002081905550610d228160035461101390919063ffffffff16565b600381905550600073ffffffffffffffffffffffffffffffffffffffff168273ffffffffffffffffffffffffffffffffffffffff167fddf252ad1be2c89b69c2b068fc378daa952ba7f163c4a11628f55a4df523b3ef836040518082815260200191505060405180910390a35050565b60035481565b600081600560003373ffffffffffffffffffffffffffffffffffffffff1673ffffffffffffffffffffffffffffffffffffffff1681526020019081526020016000205410158015610de95750600082115b8015610e745750600560008473ffffffffffffffffffffffffffffffffffffffff1673ffffffffffffffffffffffffffffffffffffffff1681526020019081526020016000205482600560008673ffffffffffffffffffffffffffffffffffffffff1673ffffffffffffffffffffffffffffffffffffffff1681526020019081526020016000205401115b15610f815781600560003373ffffffffffffffffffffffffffffffffffffffff1673ffffffffffffffffffffffffffffffffffffffff1681526020019081526020016000206000828254039250508190555081600560008573ffffffffffffffffffffffffffffffffffffffff1673ffffffffffffffffffffffffffffffffffffffff168152602001908152602001600020600082825401925050819055508273ffffffffffffffffffffffffffffffffffffffff163373ffffffffffffffffffffffffffffffffffffffff167fddf252ad1be2c89b69c2b068fc378daa952ba7f163c4a11628f55a4df523b3ef846040518082815260200191505060405180910390a360019050610f86565b600090505b92915050565b6000600660008473ffffffffffffffffffffffffffffffffffffffff1673ffffffffffffffffffffffffffffffffffffffff16815260200190815260200160002060008373ffffffffffffffffffffffffffffffffffffffff1673ffffffffffffffffffffffffffffffffffffffff16815260200190815260200160002054905092915050565b600061105583836040518060400160405280601e81526020017f536166654d6174683a207375627472616374696f6e206f766572666c6f77000081525061105d565b905092915050565b600083831115829061110a576040517f08c379a00000000000000000000000000000000000000000000000000000000081526004018080602001828103825283818151815260200191508051906020019080838360005b838110156110cf5780820151818401526020810190506110b4565b50505050905090810190601f1680156110fc5780820380516001836020036101000a031916815260200191505b509250505060405180910390fd5b5060008385039050809150509392505050565b600080831415611130576000905061119d565b600082840290508284828161114157fe5b0414611198576040517f08c379a00000000000000000000000000000000000000000000000000000000081526004018080602001828103825260218152602001806111a46021913960400191505060405180910390fd5b809150505b9291505056fe536166654d6174683a206d756c7469706c69636174696f6e206f766572666c6f77a265627a7a723158205254c73e88e97ff7dcf8a24ed6dc142b2974ea4b87c640294550b209209400cb64736f6c63430005100032536166654d6174683a206d756c7469706c69636174696f6e206f766572666c6f77536166654d6174683a206d756c7469706c69636174696f6e206f766572666c6f77566f746520416c726561647920726567697374657265642066726f6d2074686973206164647265657373a265627a7a723158202953c5c81d49a5bd3e6cc828ac50447fcf9aeb7efd87ebd3ef3e949a00dbbdba64736f6c63430005100032",
  "source": "pragma solidity ^0.5.1;\r\n\r\nimport \"./TokenFactory.sol\";\r\nimport \"./SafeMath.sol\";\r\n\r\ncontract MovieContract {\r\n  using SafeMath for uint256;\r\n\r\n  address payable public owner;\r\n  address public tokenAddress;\r\n  string public movieName;\r\n  string public summary;\r\n  string public tokenName;\r\n  // uint256 public deadline;\r\n  uint256 public totalSupply;\r\n  uint256 public totalTokenSold;\r\n  uint256 public tokenPrice = 1000;\r\n  // uint256 public creationDate;\r\n  uint256 public investorCount;\r\n  uint256 public requestCount;\r\n  uint256 public voterCount;\r\n  uint256 public withdrawCount;\r\n  uint256 public totalInvestment;\r\n  uint256 public totalProfit;\r\n  string[] public updates;\r\n\r\n  uint public rate = 0.001 * 10 ** 18; //ETH per Token\r\n\r\n  enum State { PRE_PRODUCTION, PRODUCTION, RELEASED, OVER } // Rate - 0.001, 0.003, profitDependent\r\n  State public currentState = State.PRE_PRODUCTION;\r\n  \r\nTokenFactory public token;\r\n\r\n\r\nconstructor(string memory _movieName, address payable _movieCreator) public{\r\n    owner = _movieCreator;\r\n    movieName = _movieName;\r\n    movie.creationDate = now;\r\n  }\r\n// Stucts\r\n  struct movieDetails{\r\n    string name;\r\n    string details;\r\n    uint256 creationDate;\r\n    uint256 deadline;\r\n    string ipfsHash;\r\n  }\r\n\r\n  struct investorDetails{\r\n    string name;\r\n    string contactDetails;\r\n    address payable investorAddress;\r\n    uint256 tokensBought;\r\n  }\r\n\r\n  struct WithdrawRequest{\r\n  \t uint256 amountOfEth;\r\n     uint256 numberOfVoters;\r\n  \t string description;\r\n  \t string receiverDesignation;\r\n     bool completed;\r\n     address payable recipient;\r\n    \r\n    mapping(address=>bool) voters;\r\n  }\r\n\r\n   movieDetails public movie;\r\n\r\n//Mappings\r\n  mapping (address => bool) public profitAdded;\r\n  mapping (address => investorDetails)public investors;\r\n  mapping (address => uint256 ) public investedAmount;\r\n  mapping (uint256 => WithdrawRequest) public requests;\r\n  \r\n\r\n  modifier  onlyOwner() { \r\n    require(msg.sender == owner, \"Caller is not the owner\"); \r\n    _; \r\n  }\r\n  \r\n//Events\r\n  event TokenSold(address buyer,uint256 amount);\r\n  event etherWithdrawn(address rec,string designation,uint256 amount);\r\n  event etherWithdrawn(address rec,uint256 amount);\r\n  event MovieState(State _currentState, uint _currentRate);\r\n\r\n\r\n\r\n  function addMovie(string memory _details, string memory _ipfs, uint256 _timeInDays) public onlyOwner{\r\n    movie.name = movieName;\r\n    movie.details = _details;\r\n    summary = _details;\r\n    movie.ipfsHash = _ipfs;\r\n    movie.deadline = now + _timeInDays * 1 days;\r\n  }\r\n\r\n  function createMovieToken(string memory _symbol, string memory _name, uint256 _totalSupply) public onlyOwner{\r\n      token = new TokenFactory(_symbol, _name, _totalSupply);\r\n      tokenAddress = address(token);\r\n      tokenName = _name;\r\n      totalSupply = _totalSupply;\r\n  }\r\n\r\n  function updateState(State _state) public onlyOwner returns (uint _rate) {\r\n    currentState = _state;\r\n    if(_state == State.PRODUCTION) {\r\n      rate = 0.003 * 10 ** 18;\r\n    }\r\n    // else if(_state == State.RELEASED) {\r\n    //   rate = 0.1;\r\n    // }\r\n    emit MovieState(currentState, rate);\r\n    return rate;\r\n  }\r\n\r\n  function reportProfit() public payable onlyOwner {\r\n    require(currentState == State.RELEASED);\r\n    require(msg.value > 0);\r\n    totalProfit += msg.value;\r\n    rate = totalProfit.div(totalInvestment);\r\n    emit MovieState(currentState, rate);    \r\n  }\r\n\r\n//amountToGive = rate.mul(msg.value); // if user send 1 ETH it will give 1000 tokens.\r\n  function buyMovieTokens(string memory _name, string memory _contact) public payable{\r\n    require (msg.value > 0);\r\n    token = TokenFactory(tokenAddress);\r\n    // uint256 _numberOfTokens = tokenPrice.mul(msg.value);\r\n    uint256 _numberOfTokens = msg.value.div(rate);\r\n    address payable _to = msg.sender;\r\n\r\n    require(token.balanceOf(address(this)) >= _numberOfTokens, \"Token Quantity Exceeded\");\r\n    investorCount++;\r\n    investors[msg.sender] = investorDetails(_name, _contact,_to,_numberOfTokens.div(1000000000000000000));\r\n    investedAmount[_to] = msg.value;\r\n    token.transfer(_to,_numberOfTokens);\r\n    totalTokenSold += _numberOfTokens;\r\n    totalInvestment += msg.value;\r\n    emit TokenSold(_to,_numberOfTokens);\r\n  }\r\n\r\n  function  initiateRequest(string memory _desc,address payable _rec,string memory _receiverDesignation,uint256 _val) public onlyOwner{\r\n  \trequestCount++;\r\n  \trequests[requestCount] = WithdrawRequest(_val.mul(1 ether),0,_desc,_receiverDesignation,false,_rec);\r\n  }\r\n  \r\n  function startVoting(uint256 _index) public{\r\n  \t\trequire (investedAmount[msg.sender] > 0,\"Investor Not Eligible to VOTE\");\r\n  \t\trequire (requests[_index].voters[msg.sender] == false,\"Vote Already registered from this addreess\");\r\n\r\n  \t\trequests[_index].voters[msg.sender] = true;\r\n  \t\trequests[_index].numberOfVoters++;\t\r\n  }\r\n  \r\n\r\n  function  withdrawEther(uint256 _index) public onlyOwner{\r\n    require (requests[_index].completed == false,\"This Request already Executed\");\r\n    require (requests[_index].numberOfVoters > investorCount.div(2),\"Vote Result is NEGATIVE\");\r\n\r\n    requests[_index].recipient.transfer(requests[_index].amountOfEth);\r\n    requests[_index].completed == true;\r\n    \r\n    \r\n    emit etherWithdrawn(requests[_index].recipient,requests[_index].receiverDesignation,requests[_index].amountOfEth);\r\n  }\r\n  \r\n  function getBalance() public view returns(uint256){\r\n      return address(this).balance;\r\n  }\r\n  \r\n  function unlockEther(uint256 _amountOfTokens) public{\r\n    require(now < movie.deadline, \"Deadline already Achieved\");\r\n    address payable user = msg.sender;\r\n    token = TokenFactory(tokenAddress);\r\n  \r\n    uint256 totalTokens = token.balanceOf(user);\r\n    require (_amountOfTokens.mul(1000000000000000000) < totalTokens, \"Not Enough tokens\");\r\n    // uint256 totalEth = _amountOfTokens.mul(1000000000000000);\r\n    uint256 totalEth = _amountOfTokens.mul(rate);\r\n    require(investedAmount[msg.sender] > totalEth);\r\n    require(address(this).balance > totalEth, \"Not Enough Ether to transfer\");\r\n    investedAmount[user] -= totalEth;\r\n    user.transfer(totalEth);\r\n    token.burn(user,_amountOfTokens.mul(1000000000000000000));\r\n  }\r\n    \r\n   \r\n}",
  "sourcePath": "C:\\Users\\dhair\\Desktop\\ETH\\proj\\CineBlocks\\contracts\\MovieContract.sol",
  "compiler": {
    "name": "solc",
    "version": "0.5.16+commit.9c3226ce.Emscripten.clang"
  },
  "schemaVersion": "3.0.22",
  "updatedAt": "2020-09-04T11:28:44.229Z",
  "devdoc": {
    "methods": {}
  },
  "userdoc": {
    "methods": {}
  }
}